:020000040800F2
:100000005010002009020008C9530008594A00088E
:100010003D500008191E0008BD86000800000000C1
:100020000000000000000000000000009B6C0008C1
:10003000311F0008000000001B580008457A000826
:1000400023020008230200082302000823020008FC
:1000500023020008230200082302000823020008EC
:10006000230200082302000823020008291F0008B9
:1000700023020008230200082302000823020008CC
:1000800023020008230200081F17000823020008AB
:1000900023020008230200082302000823020008AC
:1000A00023020008957B00082302000823020008B1
:1000B0009D7B0008A57B0008AD7B0008230200089B
:1000C000230200082302000823020008230200087C
:1000D0002302000823020008718100082985000816
:1000E000230200082302000823020008230200085C
:1000F000230200082302000823020008230200084C
:10010000230200082302000823020008230200083B
:10011000230200082302000823020008230200082B
:10012000230200082302000823020008230200081B
:1001300000F002F800F058F80AA090E8000C8244A1
:100140008344AAF10107DA4501D100F04DF8AFF27E
:10015000090EBAE80F0013F0010F18BFFB1A43F0A5
:1001600001031847F0E1000010E20000103A24BF3C
:1001700078C878C1FAD8520724BF30C830C144BF0C
:1001800004680C607047000000230024002500264E
:10019000103A28BF78C1FBD8520728BF30C148BFEA
:1001A0000B60704766290AF08C81642900F0B880E2
:1001B000752900F0B580782900F0EE80632900F001
:1001C0006085732900F06585002070471FB50AF02F
:1001D000F4F800F063FD04000020002109F014FF92
:1001E000E0601FBD10B510BD00F05CFE1146FFF7CA
:1001F000EDFF09F0FFF800F07AFE03B4FFF7F2FF1D
:1002000003BC00F0BDFE00000948804709480047D4
:10021000FEE7FEE7FEE7FEE7FEE7FEE7FEE7FEE7B6
:10022000FEE7FEE704480549054A064B7047000013
:100230004D7A0008310100085008002050100020BD
:10024000500C0020500C00200FB47CB50C0009AA03
:10025000009001D02044401E084B7B446946019029
:10026000089800F0E4FC05461CB10020694600F047
:10027000F1FC28467CBC5DF814FB0000010A00007C
:1002800070B5044685690068C10601D5302600E0D6
:100290002026C00707D070BDD4E901213046904721
:1002A000206A401C20626D1EF6D570BD70B50446F4
:1002B00085690078C00707D170BDD4E901212020ED
:1002C0009047206A401C20626D1EF6D570BD70B547
:1002D0000C460546012A05D02878800600D5EA6933
:1002E000002302E0012305E05B1C934202D2E05CA4
:1002F0000028F9D1A869E618C01AA861286A18442C
:1003000028622846FFF7BCFF04E0D5E9012114F874
:10031000010B9047B442F8D32846FFF7C7FF70BDE2
:100320002DE9F0410646002410687529314616A5CE
:1003300010D0AFF30080002802DA404213A507E096
:1003400031688A0701D512A502E0490704D511A535
:10035000012401E0AFF3008000210A2206F1240706
:1003600009E0B0FBF2FCB0FBF2F302FB1C00303002
:1003700078541846491C0028F3D123462A463046B3
:10038000BDE8F04100F0E5B9000000002D000000DC
:100390002B0000002000000070B504460D462146E9
:1003A0001068AFF300802188090502D50F4A7A440E
:1003B00002E00E4A7A440E32002104F1240305E0E3
:1003C00000F00F060009965D5E54491C0028F7D125
:1003D00020780023000704D5702D02D009B1022334
:1003E00011322046BDE8704000F0B3B962DD000074
:1003F0002DE9F05F894604464FF0000ADFF874B13A
:10040000FB44C0F820A02046E1688847002874D04B
:10041000252806D0D4E901219047206A401C20629B
:10042000F1E700265F462046E16888472028054618
:1004300007DB312D05D2781910F8200C08B10643DE
:10044000F1E7B00701D526F00406C4F81CA0002788
:10045000C4F818A02A2D09D0284608F003FA38B3AA
:1004600004EB8708303DC8F8185019E059F8041B10
:10047000204604EB87029161E1688847012F054619
:1004800018D1E069002820DA26F020061DE0D8F80F
:10049000180000EB800005EB40003038C8F8180069
:1004A0002046E1688847054608F0DCF90028EED1CF
:1004B000012F0AD02E2D08D12046E16888477F1CE5
:1004C0000546022F46F02006C4DBA069002803DAA7
:1004D000404246F00106A061F00701D026F0100668
:1004E0006C2D0BD0682D09D04C2D39D06A2D35D00C
:1004F000742D35D07A2D33D016E038E0E1682F46E0
:1005000020468847B842054609D16C2F26D04FF4C3
:100510008060E168064320468847054604E06C2F6A
:100520001AD04FF4807006430DB3A5F1410019288D
:1005300002D8203546F400664A4629462046266001
:100540004E46FFF72FFE80B101280BD0F61D26F096
:10055000070000F1080956E74020E4E78020D8E7CB
:100560000020D6E706F104094DE7284652E7206A45
:10057000BDE8F09F38DD000010B5431C02E010F824
:10058000011B71B18107FAD14FF0013202C88C1AF8
:100590008C4314EAC211F9D0C01A0A0603D0C01E57
:1005A00010BDC01A10BD0A0401D0801E10BD090282
:1005B000FCD0401E10BD032A40F2308010F0030C26
:1005C00000F0158011F8013BBCF1020F624498BFA6
:1005D00011F801CB00F8013B38BF11F8013BA2F143
:1005E000040298BF00F801CB38BF00F8013B11F0BE
:1005F000030300F02580083AC0F0088051F8043B5E
:10060000083A51F804CBA0E80810F5E7121D5CBFCA
:1006100051F8043B40F8043BAFF30080D20724BFFD
:1006200011F8013B11F801CB48BF11F8012B24BF91
:1006300000F8013B00F801CB48BF00F8012B7047E0
:1006400010B5203AC0F00B80B1E81850203AA0E86D
:100650001850B1E81850A0E81850BFF4F5AF5FEAA1
:10066000027C24BFB1E81850A0E8185044BF18C954
:1006700018C0BDE810405FEA827C24BF51F8043BFB
:1006800040F8043B08BF7047D20728BF31F8023B4F
:1006900048BF11F8012B28BF20F8023B48BF00F8E3
:1006A000012B70474FF000020429C0F0128010F0B7
:1006B000030C00F01B80CCF1040CBCF1020F18BF3E
:1006C00000F8012BA8BF20F8022BA1EB0C0100F0D1
:1006D0000DB85FEAC17C24BF00F8012B00F8012BA4
:1006E00048BF00F8012B70474FF0000200B51346D9
:1006F00094469646203922BFA0E80C50A0E80C5042
:10070000B1F12001BFF4F7AF090728BFA0E80C50F2
:1007100048BF0CC05DF804EB890028BF40F8042BEB
:1007200008BF704748BF20F8022B11F0804F18BF58
:1007300000F8012B704770477047704710B500F004
:10074000B1FA006810BD10B5044600F0ABFA0460C1
:1007500010BD2DE9F0470D4699469246044600F13A
:1007600024080168880604D5E06921F010012160A1
:1007700000E00120A84201DD471B00E00027A1693D
:100780007A1902EB0900081AA0612078C00602D489
:100790002046FFF775FD002608E0D4E901211AF88C
:1007A00006009047206A401C761C20624E45F4DB10
:1007B0002078C0060AD52046FFF762FD06E0D4E99E
:1007C000012130209047206A401C2062381EA7F18A
:1007D0000107F4DC07E0D4E9012118F8050090478F
:1007E000206A401C2062281EA5F10105F3DC20468A
:1007F000FFF75CFD2078000602D50220BDE8F087F7
:100800000120FBE770472DE9FF4F0C461E464FF0D5
:10081000FF378BB0D2E90001DDF860800A908A468C
:10082000C1F30A5505B93D46002108464FF00000C6
:10083000BAF1000F00F4400005DA00EB80004FF43D
:10084000400101EA50004FEA9059B9F1010F00DD73
:10085000B9460A9850EA4A000ED044F61050A5F264
:10086000FF3545432F14B8F1000F1ED07542291EE5
:100870001EDDC9F100021CE0B8F1010F4FF00000CD
:1008800001D0302103E0F24305E02154401CB04286
:10089000FBDB30460022002121540B99C1F808806F
:1008A000C1E900200FB0BDE8F08FBD1B6D1CDEE775
:1008B0004A4600DA694206A800F07EFA06AB93E8E1
:1008C000070003AB83E8070050460A9900F05FFB7E
:1008D0008DE80700A0F500501F3800900398002D08
:1008E0000ADD42F21F014A460844002303A903908F
:1008F000684600F0C8FD09E0A0F500504A461F38E0
:10090000002303A90390684600F0D2FD8DE807009C
:100910000004000C03D04FF0FF30410800E0104607
:10092000B8F1000F03D00022009215461EE0751E9C
:1009300005D400F0BBF9303262556D1EF9D5B346CF
:100940000122084302D000227F1C04E020783028D6
:1009500001D100227F1E002A099784D01DE0112DAD
:1009600007DA00F0A3F9303262556D1C50EA01023B
:10097000F5D1084302D00098C8B10EE00021681EEE
:1009800005E0235C625C63542254401E491C814292
:10099000F7DBAB46A81B401E0990002004F80B00B3
:1009A0000B98099AC0F80880C0E9002B7AE7112655
:1009B0004FF0000857E72DE9F04F88460446D21D56
:1009C00022F0070191B0D1E90001CDE90A0107F059
:1009D00077FE02460B98C00F01D02D2007E020685B
:1009E000810701D52B2002E0202101EAC000032A63
:1009F000099001D0072A05DB03464146204600F056
:100A00009BF90BE12078800601D5E06900E0062023
:100A1000B8F1650F814606D0B8F1660F18D0B8F16D
:100A2000670F70D131E00020B9F1110F009001DBA8
:100A3000112301E009F101030AAA01A90CA8FFF79B
:100A4000E2FEDDE90C70002609F10105834647E06E
:100A500001204B4600904FF000470AAA01A90CA8BC
:100A6000FFF7D1FEDDE90DB00C995D46002610B907
:100A700009F101000D18B9EB050003D4C0F1FF36F0
:100A800009F10105A5EB09002BE0B9F1010F01DA2D
:100A90004FF001090020B9F1110F0090484601DD27
:100AA000112300E003460AAA01A90CA8FFF7ABFE38
:100AB000DDE90C704D4600268346207800070AD4F5
:100AC000AB4500DA5D4601A8012D04DD411911F89E
:100AD000011C302907D04F4502DA17F1040F04DA60
:100AE000012082460FE06D1EEEE7002F02DCED1BB9
:100AF0003E4403E0781CA84200DD7D1CB81B00F1D9
:100B0000010A4FF000472078000703D4AA4501DB13
:100B10004FF0FF3A0021B7F1004F0DF143088DF877
:100B2000431024D002202B23002F01DA7F422D23F3
:100B30000A21021EA0F1010000DC5FB197FBF1FC6D
:100B400097FBF1F201FB1C7C17460CF1300C08F806
:100B500001CDEEE7A8F1010003702188090501D558
:100B6000452100E06521A0F1010800F8011C099869
:100B70000FA9A1EB0807FF1D00B10120411901EBEE
:100B8000EA70A1693844081A401EA0612078C006A6
:100B900002D42046FFF774FB099828B1D4E901215B
:100BA0009047206A401C20622078C00622D520464B
:100BB000FFF766FB1EE0002E04DBB34502DD01A853
:100BC000805D00E03020D4E901219047206A401C7C
:100BD0002062761CAAF101005FEA000A0AD100F047
:100BE0005DF8C0680168405CD4E901219047206A43
:100BF000401C2062281EA5F10105DCDC07E0D4E9D9
:100C0000012118F8010B9047206A401C2062381E11
:100C1000A7F10107F3DC2046FFF748FB032011B0E2
:100C200041E6000001694A1C02610878704700B57E
:100C30008FB0CDE901310021059105497944CDE915
:100C4000031011466846FFF7D3FB0FB000BD00004C
:100C5000E5FFFFFF0A6802F8010B0A607047D1E95F
:100C600000239A4202D2531C0B601070704710B5DB
:100C7000436913B1AFF3008001E0FFF728FB0120C7
:100C800010BD127800F124010A7000224A7001227E
:100C9000EDE711684FF0FF32E9E7000000487047C8
:100CA0000C08002000487047EC07002030B5B0F178
:100CB0000A024FEA900E71F100034EEA817EB0EB1A
:100CC0000E0061EB91014FEA101E4EEA017E10EB1F
:100CD0000E0041EB11114FEA102E4EEA016E10EB9F
:100CE0000E0041EB11214FEA104E4EEA014E10EB7F
:100CF0000E0041EB1141401841F100014FEAD000D4
:100D000040EA41704FEAD10110EB80054FEA8104BF
:100D100044EA907444EB01046D1944EB0404521B43
:100D2000A3414FF0000348BF0A3200D530BD401C3C
:100D300041F1000130BD00002DE9F0411F4604469D
:100D400003260168072A01F4006004DB08B116A538
:100D500005E016A503E008B115A500E015A521F0F2
:100D600010002060A069C01EA0610FB1401EA061EC
:100D70002046FFF785FA4FB1D4E901213846904764
:100D8000206A401C2062C01C206206E0206AFAE74C
:100D9000D4E9012115F8010B9047761EF8D22046C0
:100DA000FFF784FABDE8F0814E414E006E616E009F
:100DB000494E4600696E66002DE9F04781461646A9
:100DC0008AB0354878440DC88DE80D003248784423
:100DD000801C03AC0DC884E80D0041F69B3008442C
:100DE000372190FBF1F290FBF1F5A5F1800501FBB5
:100DF00012041B3C02D56442012000E00020DFF811
:100E000098A080460027FA44AAF1BE0A0EE0E00747
:100E10000AD03246684607EB470101230AEB8101FD
:100E200000F046FB8DE8070064107F1C002CEED11B
:100E3000194F7F44AE3F19E0E80715D007EB0410C7
:100E40000DF1180A90E80E008AE80E00C068F04222
:100E500001D1981908903246012306A903A800F091
:100E600027FB03AB83E807006D10641C002DE3D162
:100E70004FF0010332466946B8F1000F03A802D0D3
:100E800000F001FB01E000F013FBC9E90001C9F823
:100E900008200AB0BDE8F08704D40000004870477D
:100EA000EC0700207546FFF7F9FFAE4605006946DE
:100EB000534620F00700854618B020B5FFF7B2F979
:100EC000BDE820404FF000064FF000074FF000084B
:100ED0004FF0000B21F00701AC46ACE8C009ACE8CC
:100EE000C009ACE8C009ACE8C0098D46704710B530
:100EF0000446AFF300802046BDE81040FFF77DB9FF
:100F00004FF0013C50F8042B51F8043B9A4221D198
:100F1000A2EB0C03934313EACC1317D150F8042B24
:100F200051F8043B9A4215D1A2EB0C03934313EA08
:100F3000CC130BD150F8042B51F8043B9A4209D141
:100F4000A2EB0C03934313EACC13DBD04FF0000069
:100F5000704700BFD01A01BAB1FA81F101F018014F
:100F600022FA01F0CB40C1F12001DBB2C0B2C01ABD
:100F70002CFA01F3D11A914311EAC311E6D170475B
:100F800001491820ABBEFEE72600020070475FEA69
:100F9000400C08BF91F0000F4FEA8C234FEAC122AA
:100FA00043EA51514FEA1C5018BF00F5F0404FEA98
:100FB000300018BF41F000415FEA6C5C00F029800E
:100FC000BCF1FF3F08BF40F080407047130C06BFE4
:100FD00012044FF0100C4FF0000C130E04BF12025D
:100FE0000CF1080C130F04BF12010CF1040C930F49
:100FF00004BF92000CF1020CD30F04BF52000CF19D
:10100000010C11464FF00002A0F11F00A0EB0C00F4
:10101000704711F0004F08BF704731F000413FF4B6
:10102000D5AF0B0C06BF09044FF0100C4FF0000CAD
:101030000B0E04BF09020CF1080C0B0F04BF0901D1
:101040000CF1040C8B0F04BF89000CF1020CCB0FC8
:1010500004BF49000CF1010CCCF12003A0EB0C0003
:1010600022FA03F302FA0CF241EA030100F1010053
:10107000704720F07F4C80EA030023F07F47ACEB01
:10108000070303F57C5300F0004003F1FF032DE953
:1010900080494FEA154B09B44FEA144325EA0B4E39
:1010A00024EA03480FF2042606EB132749083E788A
:1010B0005FEA320203FB0667C7F5000707FB06F687
:1010C0004FEA54374FEAD64606F1020607FB066C94
:1010D000CCF1005C4FEA1C472CEA074C07FB06F4F6
:1010E0000CFB06F504EB15464FEA961634BF0020BC
:1010F0004FF000404FEAD13706FB07FC4FEA1C4C8B
:101100000CFB0BF7D21B03FB0CF761EB07010CFB8D
:101110000EF7B0EB074072EB17420CFB08F734BF39
:10112000A2EB0742B2EB074261EB17414FEA0C44D6
:101130004FEA910706FB07FC4FEA1C4C0CFB0BF730
:10114000B0EBC74072EB573203FB0CF734BFA2EB96
:10115000C742B2EBC74261EB57310CFB0EF7B0EB65
:10116000C70072EB57720CFB08F734BFA2EBC70243
:10117000B2EBC70261EB5771039F4FEA816141EA0D
:10118000921104EBCC044FEAD1374FEA826206FB9E
:1011900007FC42EA90124FEA80604FEA1C4C0CFBBD
:1011A0000BF7D21B03FB0CF761EB07010CFB0EF7EF
:1011B000B0EB074072EB17420CFB08F734BFA2EB11
:1011C0000742B2EB074261EB17414FEA8C554FEAF9
:1011D000910704EB9C2406FB07FC4FEA1C4C0CFB1C
:1011E0000BF7B0EBC74072EB573203FB0CF734BF81
:1011F000A2EBC742B2EBC74261EB57310CFB0EF7D3
:10120000B0EBC70072EB57720CFB08F734BFA2EBD0
:10121000C702B2EBC70261EB577115EB4C254FEAE1
:10122000816141EA92114FEA82624FEAD13742EA84
:10123000901206FB07FC44F100044FEA80604FEA7D
:101240001C4C0CFB0BF7D21B03FB0CF761EB0701EB
:101250000CFB0EF7B0EB074072EB17420CFB08F7E4
:1012600034BFA2EB0742B2EB074261EB174115EB2B
:101270001C154FEA813141EA92414FEA823242EA3B
:1012800090424FEA80304FEA0C7644F1000448EA7D
:1012900003434EEA0B484FF0000EB2EB080C71EB23
:1012A000030724BF624639464EEB0E0E4FF0000B8B
:1012B0000018524149414BEB0B0BB2EB080C71EBA0
:1012C00003077BF1000B24BF624639464EEB0E0E3E
:1012D0004FF0000B0018524149414BEB0B0BB2EBA6
:1012E000080C71EB03077BF1000B24BF6246394603
:1012F0004EEB0E0E51EA020718BF46F0010616EB40
:101300000E7655F1000254F1000103D5BDE88901C4
:10131000BDE80088BDE88901BDE80048B619524122
:1013200041EB0101A3F10103704780807F7E7D7C4A
:101330007B7A7978777676757473727171706F6E67
:101340006E6D6C6C6B6A6A69686867666665646412
:10135000636362616160605F5F5E5E5D5D5C5C5B9C
:101360005B5A5A595958585757565655555554540B
:10137000535352525251515050504F4F4F4E4E4D69
:101380004D4D4C4C4C4B4B4B4A4A4A4949494848B5
:1013900048474747474646464545454444444443F5
:1013A00043434342424242414141002B9C4630D498
:1013B00077002BD01CB54FEA370703B44FF010006D
:1013C0004FF01001BAF1000F06D0BCF1000FDCBFE6
:1013D00040F0080040F008014FF000000FBCBDE8ED
:1013E00010400BF1010BBBF1010F08BF5FEA1707BB
:1013F00022BF12F1010211F101014FF0004143F14E
:10140000000300F0004043EA00007047F9D357089A
:10141000D0E746EA064613F1400F4FEA16461FDDB5
:1014200013F1200FDFBF16430A46002120335B4231
:10143000BED0C3F1200746EA064602FA07F74FEA94
:10144000164646EA0706C3F1200722FA03F201FA1C
:1014500007F721FA03F14FF0000342EA0702A7E77A
:1014600046EA020646EA06464FEA164646EA0106FC
:10147000BCBF46EA0646360C4FF000034FF00002B0
:101480004FF0000194E72DE9804C9A46934670B4E2
:1014900091E8380007C831EA400C48BF34EA430CF1
:1014A00003D5FFF7E6FDFFF780FFF0BCBDE8008C39
:1014B0002DE9804C9A46934670B491E8380007C8ED
:1014C00010F0804F08BF13F0804F03D100F005F8F3
:1014D000FFF76BFFF0BCBDE8008C20F07F4780EA8F
:1014E000030023F07F4C07EB0C03A3F57C5300F0C3
:1014F0000040A3F1FE0392F0000F00F0B38095F0DE
:10150000000F00F077802DE901494FEA11404FEAC2
:10151000144621EA004800FB06FC24EA064708FBC3
:1015200006F607FB08F800FB07F718EB06484CEB3C
:10153000164C4FEA124B18EB07484FEA15464CEB96
:10154000174022EA0B4E0BFB06FC25EA06470EFB72
:1015500006F607FB0EFE0BFB07F71EEB064E4CEBE9
:10156000164C4FF000061EEB074E4CEB174B18EBDA
:101570000B0840F1000018EB0E0B58EB000840F18F
:1015800000008F1A4FF000013CBFC943661B14BF17
:10159000B5EB040C00213CBFC943F61B4FEA1744CE
:1015A0004EEA8E0E27EA04454FEA1C4704FB076209
:1015B0002CEA074C05FB07F70CFB05F604FB0CFCBB
:1015C00016EB074642EB174216EB0C4642EB1C4269
:1015D0001BEB060658EB0202414146EA9E0601D586
:1015E000BDE80189B619524141EB0101A3F10103A4
:1015F000BDE801894FEA14454FEA114724EA054640
:1016000021EA074C05FB07F406FB07F70CFB06F184
:1016100005FB0CFC11EB074144EB17444FEA124762
:1016200011EB0C4144EB1C4422EA074C05FB07F28A
:1016300006FB07F70CFB06F605FB0CFC16EB074652
:1016400042EB174216EB0C4642EB1C456A1854F16C
:10165000000148BF7047B619524141EB0101A3F1A7
:101660000103704795F0000F37D04FEA11424FEA5F
:10167000144721EA024624EA074C02FB07F106FB65
:1016800007F70CFB06F402FB0CFC14EB074441EBE0
:1016900017414FEA154714EB0C4441EB1C4125EA76
:1016A000074C02FB07F506FB07F70CFB06F602FBEF
:1016B0000CFC16EB074645EB174516EB0C4645EBC5
:1016C0001C42121951F1000148BF7047B61952412E
:1016D00041EB0101A3F1010370474FEA14454FEAC2
:1016E000114724EA054621EA074C05FB07F106FBF2
:1016F00007F70CFB06F24FF0000605FB0CFC12EBA3
:10170000074241EB174112EB0C4251EB1C4148BF21
:101710007047921841EB0101A3F10103704710B526
:1017200000F034FA10BD000010B540F20F6007F071
:10173000BBFF174807F0EEF80021154807F0DFF867
:101740000021134807F0B4F901221146104807F0B0
:10175000B3F80523012200210D4807F0B3F94FF437
:10176000602201210A4807F02EF90122114608489B
:1017700007F00AF90121064807F0FEF9044807F0CE
:10178000FAF8012007F034FA014807F080F810BD9C
:10179000003C014010B540F2026007F085FF0223D3
:1017A00003220021014807F04FFC10BD0008014052
:1017B00070B52DED028B05461DB90020BDEC028BE6
:1017C00070BD2148007830B9FFF7E4FFFFF7ACFFA8
:1017D00001201D49087001211C4807F0CDF90026A1
:1017E00006E0761C42F21070864201D30020E5E745
:1017F0000221164807F002F90028F2D0022113480E
:1018000007F0F9F8114807F0B3F9044600EE104A62
:10181000F8EE400A9FED0E1A80EE810ADFED0D0A08
:1018200020EE200ADFED0C0A20EE208AB5EEC08AF9
:10183000F1EE10FA03D29FED090AB0EE408A85ED71
:10184000008A0120BAE7000034000020003C01407B
:1018500000F07F4533335340EB5FA54000000000AC
:1018600010B540F2096007F01FFF40F20A6007F070
:101870001BFF2E4807F04EF82D4807F04BF84FF4A9
:10188000C02007F007F901221102284807F083F968
:1018900001221102264807F07EF90021234807F0B3
:1018A0002EF80021224807F02AF800211F4807F0EF
:1018B000FFF800211E4807F0FBF80523062200214F
:1018C0001A4807F0FFF8052307220021184807F0FF
:1018D000F9F801221146154806F0EEFF01221146E3
:1018E000134806F0E9FF4FF4202201210F4807F0CA
:1018F0006AF84FF4202201210D4807F064F8012214
:1019000011460A4807F040F801221146084807F03E
:101910003BF8064807F02AF80221044807F075F85A
:1019200002220021122007F085FD10BD0024014095
:101930000028014000B587B04FF4A06007F0B4FE66
:101940000021184807F0D4F9684607F047FB16480D
:10195000009000208DF818001448029001208DF8A6
:101960001900400201908000039000208DF81A00B9
:1019700004200490C00205906A460021094807F03F
:1019800003FA0021074807F09AF9022200210548CE
:1019900007F091FA002211460B2007F04BFD07B02B
:1019A00000BD0000000002404C240140DC0000208B
:1019B00010B5022200210E4807F09EFAB8B10222AB
:1019C00000210B4807F090FA01200A4908704103F2
:1019D000094807F097FB28B14FF40051064807F07B
:1019E0002FFB04E04FF40051034807F02BFB10BD20
:1019F00000000240290000200010014010B540F214
:101A0000026007F051FE40F2026007F04DFE4023F5
:101A100003220021044807F017FB80230322002142
:101A2000014807F011FB10BD000801402DE9F04FFF
:101A30002DED028B81B006468946144604259FEDA4
:101A40004E0AB0EE408A9FED4C0AF0EE408A06B195
:101A50002CB9012001B0BDEC028BBDE8F08F042C45
:101A600000DD04240021454807F0D9FA8046A5EBA3
:101A70000800B0FBF5F105FB110A0AEB0500401E5A
:101A8000B0FBF5F105FB110B002760E00BEB050047
:101A9000C01BB0FBF5FC05FB1C000090DFF8E0C0AC
:101AA00000985CF8203099B24FF6FF7000EA1342BC
:101AB000B9F1000F06D0B9F1010F14D0B9F1020F3E
:101AC00041D11FE000EE101AB8EE400A38EE000ACD
:101AD000B0EE408A00EE102AB8EE400A38EE800AD6
:101AE000F0EE408A31E0084600F0A6F830EE080A31
:101AF000B0EE408A104600F09FF830EE280AF0EE73
:101B0000408A22E0084600F097F8F0EE401A00F014
:101B100023F91C48D0ED000A30EE600A30EE080AC6
:101B2000B0EE408A104600F087F8F0EE401A00F060
:101B300013F91548D0ED000A30EE600A30EE280A9D
:101B4000F0EE408A01E0012084E700BF7F1CA7423D
:101B50009CD300EE104AB8EE400AC8EE000AC6ED6B
:101B6000000A00EE104AB8EE400AC8EE800AC6ED40
:101B7000010A00206EE700000000000000000240A3
:101B8000DC0000202C0000203000002010B50221D5
:101B9000044806F053FF18B10221024806F04BFF3B
:101BA00010BD00000024014070B5FFF727FFFFF7CC
:101BB000C1FEFFF755FE40F2046007F075FD4FF4DB
:101BC000005303221021164807F03EFA4FF400514B
:101BD000134807F035FA40F2FF75284665F31F40B9
:101BE0000646002403E00F4840F82460641C042CDF
:101BF000F9D30D4806F0BFFE0C4806F0BCFE0120EC
:101C000006F0F6FF084806F042FE084806F03FFEE0
:101C100000200749087001200649087070BD0000C7
:101C200000100140DC000020002401400028014099
:101C3000290000202800002000EE100AB8EE400A1B
:101C4000DFED040A60EE200A9FED031A80EE810AA0
:101C5000704700003333534000F07F457CB50446A5
:101C60000D46164604B10DB901207CBD0EB9012602
:101C700002E0042E00DD0426324602216846FFF70A
:101C8000D5FE08B10120F0E79DED000A84ED000AC1
:101C90009DED010A85ED000A0020E6E770B50446D7
:101CA0000D461646324629462046FFF7D7FF08B9AB
:101CB000012070BD0020FCE710B52148007800B974
:101CC00010BD00211F4806F0AFFF042200211D486F
:101CD00007F092F91C4A00211A4807F061F91B4AE3
:101CE0000021184807F04AF901220021154807F0A1
:101CF00037F801220021134807F0F6F812211248A4
:101D00004C3806F078FE1221114806F074FE0E4899
:101D10004C3806F02BFE00210A4806F09EFF0122F7
:101D2000114609484C3806F02FFE0122114608489A
:101D300006F02AFE00200749087000BFC0E7000037
:101D400028000020000002404C240140DC0000205C
:101D50000028014029000020F0EE400A9FED040A0F
:101D600030EEC00A9FED031A20EE010A7047000012
:101D70003333D33F7CF04141024641EA02207047B1
:101D800010B502F0B7FE10BD00EE100AB8EE400A22
:101D9000DFED020A20EE200A70470000DB0FC93A8F
:101DA00010B5044621460E2000F01EF810BD10B5F7
:101DB00004462046FFF7F4FF08B9012010BD0020BB
:101DC000FCE738B504460CB9002038BD6846FFF77B
:101DD000EEFF08B90020F8E7BDF80000FFF7D4FFD8
:101DE00084ED000A0120F0E7F8B504460D46022311
:101DF0006A4621466C2002F083FE06460EB130464C
:101E0000F8BD9DF801109DF80000FFF7B5FFC0F385
:101E10000B0028800020F3E700BFFEE7002005E06C
:101E20000021044A42F82010411CC8B20428F7DB04
:101E300070470000F804002010B502F07BFA10BDD6
:101E40000148006870470000C000002000B5002075
:101E50000349088003490860FFF7E0FF00BD000068
:101E6000BC000020C000002010B52748007820B931
:101E7000FFF7E2FF01202449087002F093FA0446BC
:101E800022480088401C214908800846008800201C
:101E900028B91F48006810B11D49086880471B48D1
:101EA00000880521B0FBF1F201FB120028B91848A7
:101EB000406810B1164948688047144800880521D9
:101EC000B0FBF1F201FB120028B91148806810B193
:101ED0000F49886880470D480088B0F57A7F05D1A2
:101EE0000B48C06810B10A49C86880470748008895
:101EF000B0F57A7F02D300200449088002F052FA3C
:101F0000001B0449086010BDC4000020BC00002074
:101F1000F8040020C0000020042802DA014A42F838
:101F200020107047F804002010B5FFF741FD10BDE8
:101F300070470000F0B52DED048B83B007460D46C9
:101F40001446B0EE408A1FB114B12088A84203DBCA
:101F500003B0BDEC048BF0BD2088281A0C2800D2F9
:101F6000F6E718EE100A08F0B7F941EC190B8DED01
:101F7000009B2288A91AD01909A2FEF765F9064626
:101F8000002E00DAE4E7B0B22188691A884202DB49
:101F9000681E2080DCE720883044208000BFD7E71F
:101FA00020252E33660000000246114601B90121AA
:101FB000C82900D9C821C82303EB5103B3FBF1F3AF
:101FC00098B200B9012070470020084908800849EC
:101FD00008800849088008490880012007490880CE
:101FE000074908800020074908607047A4000020C6
:101FF000A6000020A8000020AA000020AC000020BD
:10200000AE000020B0000020024602B109B9002055
:10201000704792F8800010B192F8810008B9002052
:10202000F6E70120F4E700002DE9F0432DED028BE7
:1020300095B005460F4690469946002000904E46C2
:1020400005B127B915B0BDEC028BBDE8F083BDF832
:102050000020C2F1500101AABDF80030D018612360
:1020600041A2FEF7F1F80446002C06DBA0B2BDF851
:102070000010C1F15001884200D3E3E7BDF8000031
:10208000204480B2009006F0010040B1D5ED070A6F
:10209000B0EE600A6A46502101A8FFF74BFF06F038
:1020A000020040B1D5ED0F0AB0EE600A6A46502139
:1020B00001A8FFF73FFF06F0040040B1D5ED170A75
:1020C000B0EE600A6A46502101A8FFF733FF06F020
:1020D000080040B1D5ED1F0AB0EE600A6A465021F3
:1020E00001A8FFF727FF06F0100040B1D7ED0D0A59
:1020F000B0EE600A6A46502101A8FFF71BFF06F008
:10210000200080B100EE108AB8EE400ADFED170A19
:1021100080EE201AB0EE418AB0EE480A6A4650219D
:1021200001A8FFF707FFBDF80000801D502819D255
:10213000BDF80020C2F1500101AABDF80030D0184E
:1021400062230BA2FEF780F80446002C06DBA0B247
:10215000BDF80010C1F15001884200D372E701A818
:1021600002F09AF900BF6DE7256300000000F0421D
:10217000202563200000000070B52DED028B9AB081
:1021800004460D4634B948A002F086F91AB0BDECF9
:10219000028B70BD94F88000002839D094ED070AB6
:1021A00010EE101A084608F097F841EC180B8DED68
:1021B000008B44A2602102A8FEF746F802A802F0B4
:1021C0006BF994ED0F0A10EE101A084608F084F827
:1021D00041EC180B8DED008B45A2602102A8FEF7A3
:1021E00033F802A802F058F994ED170A10EE101A0D
:1021F000084608F071F841EC180B8DED008B47A2F2
:10220000602102A8FEF720F802A802F045F902E0DA
:102210004DA002F041F994F88100002826D094EDF9
:10222000180A10EE101A084608F056F841EC180B80
:102230008DED008B4EA2602102A8FEF705F802A8E2
:1022400002F02AF994ED1F0A10EE101A084608F061
:1022500043F841EC180B8DED008B50A2602102A8D1
:10226000FDF7F2FF02A802F017F902E057A002F012
:1022700013F900EE105AB8EE400ADFED5E0A80EE68
:10228000201A11EE106A304608F026F841EC180BBF
:102290008DED008B58A2602102A8FDF7D5FF02A8A2
:1022A00002F0FAF800BF71E7666565646261636B0E
:1022B0002E7374617475733D696E76616C69640D1B
:1022C0000A0000006D6561737572656D656E742E30
:1022D00070686173655F63757272656E745F615F6C
:1022E000616D706572653D252E33660D0A00000034
:1022F0006D6561737572656D656E742E706861735E
:10230000655F63757272656E745F625F616D706543
:1023100072653D252E33660D0A0000006D65617300
:102320007572656D656E742E70686173655F637537
:102330007272656E745F635F616D706572653D2575
:102340002E33660D0A0000006D6561737572656D50
:10235000656E742E63757272656E742E737461741B
:1023600075733D696E76616C69640D0A000000004A
:102370006D6561737572656D656E742E656E636FE4
:102380006465725F616E676C655F7261775F7261D1
:10239000643D252E33660D0A000000006D656173F3
:1023A0007572656D656E742E656E636F6465725FC0
:1023B000616E676C655F66696C74657265645F7297
:1023C00061643D252E33660D0A0000006D65617362
:1023D0007572656D656E742E656E636F6465722EC1
:1023E0007374617475733D696E76616C69640D0A0E
:1023F000000000000000F042636F6E74726F6C2E7C
:10240000657865637574696F6E5F74696D655F7516
:10241000733D252E33660D0A0D0A00002DE9F047A5
:102420008046894616461C46294807681EB17078C2
:1024300008B1BDE8F08704B32078F0B1658825487D
:102440000088854206D0234805802846FFF7ACFD6A
:102450002149088021480088401C204908800846FE
:1024600000881D490988884206DB00201B49088036
:1024700039464046FFF780FE00BF3CB3607828B382
:1024800049464046FFF7C0FDF8B1A58814480088CA
:10249000854206D0124805802846FFF785FD114980
:1024A000088011480088401C0F49088008460088B1
:1024B0000C490988884208DB00200B490880E38822
:1024C0003A4649464046FFF7AFFD00BF00BFB0E7C0
:1024D000B0000020A8000020AC000020A4000020D4
:1024E000AA000020AE000020A600002001490860DC
:1024F00070470000B000002070B52DED088B044639
:102500000D46F0EE409AB0EE60AAF0EE418A04B1BA
:1025100025B99FED550ABDEC088B70BDB0EE680A79
:1025200001F01EFEF0EE408A39EECA8AB0EEC80A0B
:10253000D5ED020AB4EEE00AF1EE10FA0AD89FEDEA
:102540004A0A84ED030A9FED480A84ED040A9FEDD0
:10255000460AE0E794ED030A08EE280A84ED030A30
:10256000D5ED011AB0EE611AD5ED011AF1EE611A3E
:10257000F0EE610AD4ED031AB0EE610A02F088FCB5
:1025800084ED030A94ED040A38EE400A80EE289A9E
:1025900094ED010AD4ED030A20EE200AD4ED000ADE
:1025A00000EE880AD4ED020A00EE890AF0EE40AA95
:1025B00094ED060AB0EE401A94ED050AF0EE400ADA
:1025C000B0EE6A0A02F064FCF0EE40AA94ED010A53
:1025D000DFED260AB4EEE00AF1EE10FA3EDD94EDEE
:1025E000050AD4ED000A00EEC80AD4ED020A00EE96
:1025F000C90AD4ED010A80EE201AB0EE41BA94ED7A
:10260000060AD4ED000A00EEC80AD4ED020A00EE74
:10261000C90AD4ED010A80EE201AF0EE41BAD4EDD9
:10262000030AB0EE600AB0EE6B1AF0EE4B0A02F04D
:102630002FFC84ED030AD5ED011AB0EE611AD5ED39
:10264000011AF1EE611AF0EE610AD4ED031AB0EE50
:10265000610A02F01DFC84ED030A00BF84ED048AC8
:10266000B0EE6A0A57E7000000000000BD3786356B
:1026700010B58EB0044600F089FB1E4802F0CDFD77
:10268000002005908DF818009FED1B0A8DED070ABC
:102690009FED190A8DED080A9FED170A8DED090AC5
:1026A0009FED150A8DED0A0A9FED130A8DED0B0AB9
:1026B0009FED110A8DED0C0A9FED0F0A8DED0D0AAD
:1026C00005A800210B460A46CDE900100949022061
:1026D00002F0A9FD64B100200190029003900490E3
:1026E00001208DF80C0001A9002003F031FB00BF90
:1026F0000EB010BD080500200000000030B52DED23
:10270000068BB5B000240025002031903290339024
:10271000349001F06BFE01F021FE0121084601F02A
:1027200096FE0121022001F092FE0121032001F01A
:102730008EFE01F0F7FDFFF789FB684801F081FE8E
:1027400067490120FFF7E8FB66490020FFF7E4FB3B
:1027500065490220FFF7E0FB002001F069FE01F06F
:10276000B9FD03F0F1FA00F0A7FA44F005045F4860
:1027700002F04DFD5EA001F08FFE65A001F08CFE21
:102780006CA001F089FE76A001F086FE83A001F026
:1027900083FE8FA001F080FE96A001F07DFE9EA03A
:1027A00001F07AFEA5A001F077FE44F00204FFF7E5
:1027B0000BFC44F008049FEDA90A182002F005FD67
:1027C000A74802F010FD68B1A54890F8800030B12C
:1027D000A34890F8810010B144F0100404E045F0E3
:1027E000100501E045F010050221182002F0E5FC7B
:1027F0009C4801F034FE44F0200408A801F0F0FDEC
:1028000048B19DED080AB5EEC00AF1EE10FA02DDFE
:1028100044F0800404E045F0800593A001F03CFE04
:102820000022FFEE001A07219FED9E1ADFED9E0A9F
:10283000B2EE080A2D4802F03EFC44F040049B48EA
:102840009B4B9C4A9C490090284802F052FC274828
:1028500090ED050A10EE101A084607F03DFD41EC18
:10286000180B224890ED040A10EE101A084607F0E3
:1028700033FD41EC190B1D4890ED020A10EE101AC1
:10288000084607F029FD41EC1A0B8DED068B8DED06
:10289000049B16480079154991F90C10CDE90210F6
:1028A0008DED00AB854AA02109A8FDF7CDFC09A854
:1028B00001F0F2FDADF8C440ADF8C65001208DF82E
:1028C000C80031A9002003F043FA01207C490870B8
:1028D00000F080FA35B0BDEC068B30BD691E0008F3
:1028E000FD790008E1520008415000080805002069
:1028F0000D0A3D3D3D20464F432053797374656D6D
:102900002053746172746564203D3D3D0D0A0000E2
:102910005553415254312074656C656D65747279FC
:10292000206368616E6E656C20656E61626C6564C3
:102930000D0A000050574D20757064617465204980
:10294000535220696E746572706F6C6174696F6E3A
:10295000207061746820656E61626C65640D0A00A8
:1029600050574D206272696467652072756E6E699A
:102970006E6720696E2063656E7465722D616C6987
:10298000676E656420636F6D706C656D656E7461F4
:102990007279206D6F64650D0A000000436F6E74DC
:1029A000726F6C207363686564756C6572207275F4
:1029B0006E6E696E6720617420636F6E66696775FD
:1029C000726564207469636B20726174650D0A001E
:1029D0004D61676E6574696320656E636F646572CF
:1029E00020666565646261636B20656E61626C651B
:1029F000640D0A0043757272656E742073616D70A8
:102A00006C696E6720706970656C696E6520656EB3
:102A100061626C65640D0A00436F6E74726F6C20A6
:102A200064656275672074656C656D657472792084
:102A3000656E61626C65640D0A000000496E697420
:102A400020666565646261636B20706970656C699E
:102A50006E652E2E2E0D0A0D0A0000000000C042E9
:102A60002C060020B12B0008696E69742E76627501
:102A7000733A20564255532072656164206661693D
:102A80006C6564206F72207A65726F2C20636865B4
:102A9000636B20706F77657220737570706C790D41
:102AA0000A00000033335341CDCC2C41880700206D
:102AB000CC060020E8060020B0060020F4E2000862
:102AC000D500002000B52DED028B85B01C4890ED9F
:102AD000040AB0EE408AB0EE480A01F0D6FC19486C
:102AE000007848B1B2EE050AB4EEC08AF1EE10FAF1
:102AF00002DB0020134908701248007820B1012041
:102B000005B0BDEC028B00BDB2EE040AB4EEC08A83
:102B1000F1EE10FA11D2002001900290039004907F
:102B20000120084908708DF80D008DED048A01A977
:102B3000002003F00DF90120E2E70020E0E70000AB
:102B400008050020DA00002038B500F0A7F8134887
:102B5000007820B100201149087000F03BF91048BE
:102B60000078C8B100200E490870684601F038FCB2
:102B700020B19DED000A0B4880ED040A00F09CF89E
:102B8000FFF75EF90446FFF7B1FC074B03F10802BB
:102B900004490648FFF742FC38BD0000C800002089
:102BA000C900002008050020E00700202C060020B6
:102BB00030B52DED028B8BB0002502F08DFB2E4839
:102BC000007818B90BB0BDEC028B30BD04242B4843
:102BD0000078401C2949087008460078A04200DAB5
:102BE000F0E7002025490870254890ED000A2548A7
:102BF00080ED0A0A00EE104AB8EE400ADFED220A24
:102C000080EE208A02F0FFFA50B1204802F0F3FA79
:102C100000B9D7E71D4890F8800000B9D2E71B4DF6
:102C2000029500208DF80C009FED190A8DED040A25
:102C30009FED170A8DED050A9FED150A8DED060A29
:102C4000144890ED000A8DED070A9FED110A8DEDF5
:102C5000080A9FED0F0A8DED090A8DED0A8A02A878
:102C600000210B460C4ACDE900100649012002F074
:102C7000DAFA00BFA6E70000CA000020CB0000205F
:102C8000CC000020080500200080BB46040700207F
:102C900000000000D0000020B006002010B5002188
:102CA000012003F055F808B100F08EF8014803F058
:102CB00045F810BD8807002010B5024803F03EF823
:102CC00010BD00008807002010B58CB004460394A6
:102CD000204800788DF810001E4890ED030A8DED15
:102CE000050A90ED010A8DED060A90ED020A8DEDC0
:102CF000070A9FED190A8DED080A9FED170A8DED61
:102D0000090A9FED150A8DED0A0A9FED140A8DED53
:102D10000B0A03A81249134B134ACDE900101349BB
:102D2000002002F080FA18B900F030F80CB010BDA5
:102D30000E4890ED0A0A0E4880ED000A0B4890ED0F
:102D4000060A0C4880ED000A01200B49087000BFFC
:102D5000ECE7000088070020000000006F12833AB3
:102D6000CC060020E8060020B00600200805002060
:102D7000CC000020D0000020CA00002010B501F0D7
:102D800080FB012001F054FB10BD00000020084929
:102D900008709FED080A084880ED000A074890ED8A
:102DA000060A074880ED000A0020064908707047AF
:102DB000CA00002000000000CC0000200805002010
:102DC000D0000020CB0000200A2001490880704775
:102DD000D800002070B500240025FFF76DFF2948BA
:102DE000007838B9012401202749087000202749BC
:102DF00008802DE0264890F8610038B100240125B4
:102E00000020214908702149088021E0204890F8DD
:102E10006000B8B11D48008863280BD300201B490F
:102E200008801948007808B9012000E00020164900
:102E3000087004E015480088401C144908801248B6
:102E4000047805E0002400200F4908700F4908802D
:102E50002146012001F0FBFA2946032001F0F7FA90
:102E60000C48008848B10121022001F0F0FA09481D
:102E70000088401E0749088003E00021022001F07D
:102E8000E6FA70BDD5000020D4000020D600002056
:102E900088070020D800002070B504460D4616466D
:102EA0000CB105B106B970BD1D48007890B994ED1C
:102EB000000A1C4880ED000A95ED000A1A4880EDD2
:102EC000000A96ED000A194880ED000A0120144915
:102ED0000870E8E7D4ED000AB0EE600A1049DFEDB3
:102EE000140A104801F0FCFF84ED000AD5ED000A39
:102EF000B0EE600A0A49DFED0E0A0B4801F0F0FF60
:102F000085ED000AD6ED000AB0EE600A0449DFED57
:102F1000080A064801F0E4FF86ED000A00BFC2E798
:102F200064000020680000206C0000207000002079
:102F3000CDCC4C3EF0B52DED048B83B004461CB9CE
:102F400003B0BDEC048BF0BD94ED020AFFEE000A65
:102F5000B4EE600AF1EE10FA01D1012000E0002089
:102F60000746207B08B9012000E0002005462079B3
:102F700008B9012000E00020064617B90DB906B9CE
:102F8000DEE7D4ED078A94ED089A94ED090ADFEDA7
:102F9000390A20EE200AB0EE408A94ED090AB0EE1C
:102FA000401ADFED350AB0EE480A01F071FFB0EECD
:102FB000408A9FED310A84ED080A84ED078A5FB3E9
:102FC0006B46182278219FED2C0A204601F0A6FAC4
:102FD00078B19DED000A84ED020A9DED000A84EDB2
:102FE0000D0A9DED000A84ED0E0A012084F83C00D4
:102FF0001AE0BFEE000A84ED020A9FED1F0A84ED7D
:103000000D0A9FED1D0A84ED0E0A002084F83C0095
:103010001AA001F041FA07E09FED170A204600F0E0
:103020000CFB782001F032FA05B9BEB101AA02A961
:10303000204600F023FC40B115B19DF90800207333
:1030400066B19DF80400207108E00DB100202073E6
:103050000EB100202071194801F01EFAC4ED078A54
:1030600084ED089A9FED040A204600F0E6FA00BFBE
:1030700066E70000CDCC4C3F00000000696E69742B
:103080002E63616C69623A207A65726F2D6C6F6392
:103090006B2073616D706C696E67206661696C6529
:1030A000642C206B656570207A65726F20617320D7
:1030B000756E646566696E65640D0A00E4E100087A
:1030C0000146012901DA01207047202901DD202075
:1030D000FAE7C8B2F8E7000070B52DED068B04469C
:1030E000B0EE409A0D46B0EE490A01F065FFB0EE31
:1030F000409A84ED069AD4ED090AD4ED051A60EEE3
:10310000A10AB0EE600AD4ED040AB0EE601ADFED59
:103110004C0A01F0BDFEF0EE408AD4ED070A60EEE5
:10312000A00A94ED081AD4ED081A41EE210AB0EE77
:10313000600A05F072FBB0EE408A94ED070AB0EE2B
:1031400040AA94ED080AF0EE40AAB4EEE88AF1EE47
:1031500010FA15DD9FED3B0AB4EEC08AF1EE10FACD
:103160000EDDC8EE880AB0EE600A6AEE000AB0EE24
:1031700060AA6AEE800AF0EE60AAB0EE688A00BF2C
:1031800004F14801081FB0EE491AF0EE6A0AB0EEE9
:103190004A0A01F0EBFE94ED121AF0EE410A94EDAA
:1031A000111AB0EE410A04F15402111F081F01F078
:1031B000C3FE04F15402111F081FFFF76DFEB0EEAD
:1031C000681ADFED1F0AB0EE480A01F061FEF0EE6A
:1031D000409ACDB1D4ED041AB0EE612AD4ED151A9F
:1031E000B0EE611AD4ED141AF0EE610AD4ED131AA0
:1031F000B0EE610A04F160031A1F111F181DF0EEF2
:10320000691A04F04FF918E0D4ED041AB0EE612AFF
:10321000D4ED151AB0EE611AD4ED141AF0EE610A6D
:10322000D4ED131AB0EE610A04F160031A1F111FE6
:10323000181DF0EE691A04F070F9BDEC068B70BD34
:1032400000000000BD37863510B52DED028B044619
:10325000B0EE408A0121B0EE480A2046FFF73CFF5D
:10326000BDEC028B10BD10B52DED028B0446B0EE07
:10327000408A0021B0EE480A2046FFF72DFFBDEC42
:10328000028B10BD00B101B9704700BFFCE7000020
:1032900070B5044604B970BD9FED2A0A84ED1A0A80
:1032A0009FED290A84ED1B0A9FED280A84ED1C0A74
:1032B0009FED270A84ED1D0AB7EE000A84ED1E0A71
:1032C000012084F87C0002217D2001557E200155DB
:1032D0007D20005D10B99FED1F0A01E0B7EE000AE6
:1032E00084ED200AB5EE000A84ED210A9FED1A0A4A
:1032F00084ED220A204601F0F7F8002084F89000BF
:103300000021912001559220015540219420015324
:103310009FED120A84ED260AB2EE000A84ED270A18
:103320009FED0F0A84ED280A002506E0002104F134
:10333000A40020F81510681C85B2402DF6DB00BFF4
:10334000A9E700006F12833ACDCC4C3E0AD7A33BCD
:103350009A99193F00000000CDCC4C3F0AD7233C7E
:103360003333B33E10B500F010F910BD70B52DED3C
:10337000028B04460D461646B0EE408AF0EE608A97
:10338000F0EE680AB0EE480A32462946204600F0C0
:10339000B3F9BDEC028B70BD10B504460321204685
:1033A00000F032F901A001F077F810BD636F676794
:1033B000696E672E696E69743A2064697361626C24
:1033C0006564206279206665617475726520737723
:1033D000697463680D0A000010B52DED048B044676
:1033E000B0EE409A24B99FED240ABDEC048B10BDC9
:1033F000207940B194ED020AFFEE000AB4EE600AB3
:10340000F1EE10FA02D194ED060AEEE7207900EE13
:10341000100AB8EE400ADFED190AC0EE808AD4ED3A
:10342000020A79EE600AB0EE600A01F0E3FDF0EE08
:10343000409AF0EE680A05F05BF9B0EE408AB5EE0E
:10344000C08AF1EE10FA03D238EE280AB0EE408AB4
:1034500094F90C0000EE900AF8EEE00A20EE881ACB
:10346000207900EE900AF8EE600A61EE200AB0EED4
:10347000600A01F0A1FDB8E700000000DA0FC940C2
:1034800010B52DED028B0446B0EE408AF0EE608A56
:103490009FED051AF0EE680AB0EE480A204600F0EB
:1034A000DDF8BDEC028B10BD6F12833A2DE9F047B9
:1034B0002DED048B8046894615461E46F0EE409A57
:1034C000F0EE608AB0EE419AB0EE618ADDE90C74EC
:1034D000B8F1000F01D005B127B90020BDEC048B75
:1034E000BDE8F0870EB90020F8E7012C02D00CB13E
:1034F0000020F3E71D48007820B91D480470012022
:103500001A4908701A480078844214D034B9D7EDAB
:103510001F0AB0EE600A404600F02CF8484600F062
:10352000C7FF284600F0C4FF304600F0C1FF00F09E
:1035300067F80F480470012C09D1F0EE480A3A46AA
:10354000B0EE690A2946404601F022F90BE0B0EEE0
:10355000481A3B46F0EE490AB0EE680A3246294660
:10356000404601F04DF80120B8E700005700002068
:103570005600002000B9704780ED0D0A80ED0E0A5C
:10358000012180F83C1000BFF5E7002070470000E3
:1035900010B5044604B910BD204600F0A5FF7D20FB
:1035A000005D38B900217E2001559FED140A84ED9D
:1035B000200A20E07D20005D012807D101217E2026
:1035C0000155B7EE000A84ED200A14E07E20005D6C
:1035D00030B17E20005D012802D001217E200155FE
:1035E0007E20005D012802D1B7EE000A01E09FEDC8
:1035F000030A84ED200A00BFCDE7000000000000B0
:1036000010B500F075FF10BD00B97047002391227E
:1036100013549222115400BFF7E770B504460D46CB
:1036200004B970BD0DB1012000E0002084F87C00D9
:10363000204600F059FF00BFF3E710B52DED028BD7
:103640000446B0EE408A14B9BDEC028B10BDB0EE5A
:10365000480A2046FFF7F8FD00BFF5E710B52DED4D
:10366000048B0446B0EE409AF0EE608AB0EE418AD8
:1036700014B9BDEC048B10BDB0EE480A00F080FD1B
:10368000B0EE408ADFED1A0A28EEA01A207900EE8B
:10369000900AF8EE600A61EE200A20EE881A94F98A
:1036A0000C0000EE900AF8EEE01AD4ED060A41EEA6
:1036B000210AB0EE600A01F07FFC84ED060A9FED5E
:1036C0000D0A84ED070A94ED090AB0EE401ADFED09
:1036D000090AB0EE490A01F0DBFB84ED080AD4EDDB
:1036E000060AB0EE600A2046FFF7BDFD00BFC0E746
:1036F000DA0FC940000000002DE9F0412DED028BEA
:1037000004460E461746F0EE408AB0EE608A1CB9B9
:10371000BDEC028BBDE8F08104F18C05B0EE680AC7
:1037200001F04AFC84ED060AB0EE480A00F028FDDC
:10373000B0EE408AD4ED0A0AB0EE600ADFED060A68
:10374000204600F00BF8D4ED060AB0EE600A2046E1
:10375000FFF789FD00BFDBE70000000010B52DED8D
:10376000028B84B00446B0EE408AF0EE608A9FED92
:10377000140A8DED030A9FED120A8DED020A9FEDEA
:10378000100A8DED010A1CB904B0BDEC028B10BD0E
:1037900001AB02AA03A9F0EE680AB0EE480A20467F
:1037A00000F010F89DED020A84ED080A9DED030A71
:1037B00084ED070A9DED010A84ED0B0A00BFE3E7E3
:1037C000000000002DE9F0412DED088B0446B0EE1D
:1037D00040BAF0EE60AA0D4616461F4614B10DB170
:1037E00006B11FB9BDEC088BBDE8F081D4ED090A24
:1037F000D4ED051A60EEA10AB0EE600AD4ED040A19
:10380000B0EE601ADFED1B0A01F042FBB0EE409A09
:1038100094ED000AB0EEC08A9FED170AB4EEC08A9C
:10382000F1EE10FA03D29FED140AB0EE408AC9EE11
:10383000088AB0EE681AF1EE680AB0EE4B0A01F0A1
:1038400027FBF0EE409AB0EE681AF1EE680AB0EE8F
:103850006A0A01F01DFBB0EE40AA29EE880A86ED47
:10386000000A2AEE080A85ED000AC7ED009A00BF9B
:10387000B8E7000000000000BD3786352DE9F047AD
:103880002DED088B82B007460D4616469FED5C0A6B
:10389000F0EE40AA9FED5A0AB0EE40BA9FED580AEA
:1038A000B0EE408A9FED560AB0EE409A4FF0000904
:1038B0004FF01E089FED530AF0EE409A0FB105B18C
:1038C0002EB9002002B0BDEC088BBDE8F0870024C3
:1038D00045E000EE104AB8EE400A29EE800AF0EE0C
:1038E000408A01AB02220421B0EE680A384600F09B
:1038F00015FE00B931E0B9F1000F08D19DED010AC4
:10390000F0EE40AAB0EE68BA4FF0010925E0DDED17
:10391000010A70EEEA0AB0EE600A01F06BFBB0EE4D
:1039200040AA38EECB0AF0EE40BAB0EECA0ADFED9C
:10393000360AB4EEE00AF1EE10FA07DB38EE0A0AB6
:10394000B0EE408A39EE2B0AB0EE409A9DED010AA6
:10395000F0EE40AAB0EE68BA00BF601C84B24445E5
:10396000B7DDB0EEC80ADFED280AB4EEE00AF1EEEA
:1039700010FA08D3B0EEC90ADFED240AB4EEE00A6B
:10398000F1EE10FA01D200209CE7B5EEC08AF1EE0C
:1039900010FA01DB012001E04FF0FF30287089EEC2
:1039A000080AB0EEC00AF6EE000A30EE200ABDEEBC
:1039B000C00A10EE10AA5046FFF782FB30709FED50
:1039C000100A3846FFF740FC042000F05FFD444633
:1039D00011E000EE104AB8EE400A29EE800AF0EE3F
:1039E000408A01AB02220421B0EE680A384600F09A
:1039F00095FD601E84B2002CEBD1012062E700002F
:103A0000000000004F77563EA69BC43ABD3786356E
:103A100010B52DED088BB0EE408AF0EE608A9FED78
:103A20003E0AF4EEC08AF1EE10FA19DD9FED3B0A72
:103A3000F4EEC08AF1EE10FA12D29FED370AB4EE1E
:103A4000C08AF1EE10FA0BDD9FED340AB4EEC08AA5
:103A5000F1EE10FA04D29FED320ABDEC088B10BDD6
:103A6000F5EEC08AF1EE10FA02DBB0EE680A01E072
:103A7000B1EE680AF0EE409AB5EEC08AF1EE10FAA7
:103A800002DBB0EE480A01E0B1EE480AB0EE40AA0F
:103A9000DFED24AAF4EECA9AF1EE10FA0EDB9FEDE8
:103AA0001F0A39EE800ACAEE000AB0EE60BAB0EE24
:103AB0004B0A00F0C9F8B0EE409A0DE09FED170AEE
:103AC0003AEE000AC9EE800AB0EE60BAB0EE4B0AD8
:103AD00000F0BAF83AEEC09AF5EEC08AF1EE10FAAC
:103AE0000ADBB5EEC08AF1EE10FA02DBB0EE490A4D
:103AF000B3E7B1EE490AB0E7B5EEC08AF1EE10FACD
:103B000004DB9FED090A30EE490AA6E79FED060A9D
:103B100039EE400AA1E70000BD3786B5BD378635CE
:103B200000000000DA0FC93FDA0F494010B52DED53
:103B3000088BB0EE408AF0EE608A9FED3E0AF4EE0C
:103B4000C08AF1EE10FA19DD9FED3B0AF4EEC08A4F
:103B5000F1EE10FA12D29FED370AB4EEC08AF1EE00
:103B600010FA0BDD9FED340AB4EEC08AF1EE10FAC4
:103B700004D29FED320ABDEC088B10BDF5EEC08A71
:103B8000F1EE10FA02DBB0EE680A01E0B1EE680A6D
:103B9000F0EE409AB5EEC08AF1EE10FA02DBB0EE1C
:103BA000480A01E0B1EE480AB0EE40AADFED24AACF
:103BB000F4EECA9AF1EE10FA0EDB9FED1F0A39EE11
:103BC000800ACAEE000AB0EE60BAB0EE4B0A00F00E
:103BD00065F8B0EE409A0DE09FED170A3AEE000A44
:103BE000C9EE800AB0EE60BAB0EE4B0A00F056F8AB
:103BF0003AEEC09AF5EEC08AF1EE10FA0ADBB5EEA5
:103C0000C08AF1EE10FA02DBB0EE490AB3E7B1EE7A
:103C1000490AB0E7B5EEC08AF1EE10FA04DB9FED79
:103C2000090A30EE490AA6E79FED060A39EE400A76
:103C3000A1E70000BD3786B5BD378635000000001E
:103C4000DA0FC93FDA0F494010B52DED028BB0EE07
:103C5000408ADFED0F0AB6EE000A08EE200ABDEE3C
:103C6000C00A10EE104A4FF47A71204600F040F876
:103C70000446084830F8140000EE100AB8EE400A76
:103C8000DFED050A20EE200ABDEC028B10BD00001E
:103C900000007A4428C500086F12833A10B52DED54
:103CA000028BB0EE408ADFED0F0AB6EE000A08EE96
:103CB000200ABDEEC00A10EE104A4FF47A71204679
:103CC00000F021F80446084830F8140000EE100A0D
:103CD000B8EE400ADFED050A20EE200ABDEC028BAB
:103CE00010BD000000007A4442D900086F12833AE8
:103CF0000246002A01DA002070478A4201D90846AC
:103D0000FAE790B2F8E70246002A01DA002070478D
:103D10008A4201D90846FAE790B2F8E730B5F0EEEA
:103D2000401A9FED3D0AB0EE402AB0EE610A05E070
:103D30009FED3A3A30EE433AB0EE430A9FED373A00
:103D4000B4EEC30AF1EE10FAF2DA05E09FED333A71
:103D500030EE033AB0EE430AB5EEC00AF1EE10FAC7
:103D6000F4D3B0EE401A81EE020ABCEEC00A10EEA7
:103D7000101AC8B2032800D9032000EE100AB8EECA
:103D8000400AF0EE412A40EE422A9FED253AB6EE77
:103D9000000A02EE830ABDEEC00A10EE101A40F2CD
:103DA0002364002901DA002504E0A14201D9254657
:103DB00000E08DB22A4640F22361891A8BB238B9ED
:103DC000184931F8121000EE101AF8EE400A1EE001
:103DD000012807D1134931F8131000EE101AF8EE3C
:103DE000400A14E0022809D10E4931F8121000EE01
:103DF000101AB8EE400AF1EE400A08E0094931F81D
:103E0000131000EE101AB8EE400AF1EE400A9FEDD2
:103E1000063A80EE830A30BDDA0FC93FDA0FC94097
:103E200000007A44C6A4000800FEFF4670B52DEDE0
:103E3000068BB0EE409A9FED3B0AF0EE409AB0EE52
:103E4000490A05E0DFED380A70EE600AB0EE600A5C
:103E5000DFED350AB4EEE00AF1EE10FAF2DA05E031
:103E6000DFED310A70EE200AB0EE600AB5EEC00A4E
:103E7000F1EE10FAF4D3F0EE408A88EEA90ABCEE17
:103E8000C00A10EE100AC4B2032C00D9032400EEBD
:103E9000104AB8EE400AB0EE68AA00EE69AADFED5B
:103EA000230AB6EE000A0AEE200ABDEEC00A10EEA2
:103EB000100A40F22361FFF71BFF054640F2236022
:103EC000401B86B23CB91A4830F8150000EE100AC3
:103ED000B8EE408A1EE0012C07D1154830F81600D4
:103EE00000EE100AB8EE408A14E0022C09D1104806
:103EF00030F8150000EE100AB8EE400AB1EE408A24
:103F000008E00B4830F8160000EE100AB8EE400A40
:103F1000B1EE408ADFED070A88EE200ABDEC068B81
:103F200070BD0000DA0FC93FDA0FC94000007A44C3
:103F3000E0B8000800FEFF4670B52DED068BB0EE30
:103F4000409A9FED3B0AF0EE409AB0EE490A05E038
:103F5000DFED380A70EE600AB0EE600ADFED350A78
:103F6000B4EEE00AF1EE10FAF2DA05E0DFED310A24
:103F700070EE200AB0EE600AB5EEC00AF1EE10FA5B
:103F8000F4D3F0EE408A88EEA90ABCEEC00A10EE27
:103F9000100AC4B2032C00D9032400EE104AB8EE74
:103FA000400AB0EE68AA00EE69AADFED230AB6EE79
:103FB000000A0AEE200ABDEEC00A10EE100A40F216
:103FC0002361FFF7A0FE054640F22360401B86B246
:103FD0003CB91A4830F8150000EE100AB8EE408AD5
:103FE0001EE0012C07D1154830F8160000EE100A2B
:103FF000B8EE408A14E0022C09D1104830F81500C0
:1040000000EE100AB8EE400AB1EE408A08E00B4814
:1040100030F8160000EE100AB8EE400AB1EE408A01
:10402000DFED070A88EE200ABDEC068B70BD0000AC
:10403000DA0FC93FDA0FC94000007A44FACC000811
:1040400000FEFF4670B52DED048B0446B0EE408AAD
:10405000B0EE609AF0EE419A0D46F0EE618A164697
:1040600014B9BDEC048B70BDB5EEC08AF1EE10FA48
:1040700003D29FED3A0AB0EE408AB0EE481ADFED67
:10408000370AB0EE490A00F003FFB0EE409A9FED08
:10409000330A84ED060A9FED310A84ED070A9FED8D
:1040A0002F0A84ED080A84ED099A84ED048AB7EE9C
:1040B000000A84ED050A9FED290A84ED0A0A9FEDA6
:1040C000270A84ED0B0A9FED250A84ED0C0A9FED6B
:1040D000230A84ED0D0A9FED210A84ED0E0A0020CB
:1040E00084F83C00C4ED009A2571C4ED028AC4ED49
:1040F0000D8AC4ED0E8A012084F83C0026739FEDE2
:10410000170A84ED110A9FED150A84ED120A9FED3E
:10411000130A84ED130A9FED110A84ED140A9FED32
:104120000F0A84ED150A9FED0D0A84ED160A9FED26
:104130000B0A84ED170A9FED090A84ED180A002086
:1041400084F864002046FFF7A3F82046FEF7F2FE4D
:104150002046FFF721F900BF83E7000000000000C0
:10416000F0EE400AF5EEC00AF1EE10FA02DDB0EE14
:10417000600A70479FED010AFBE700006F12833A67
:10418000F0EE400AF5EEC00AF1EE10FA02DDB0EEF4
:10419000600A70479FED010AFBE700006F12833A47
:1041A00000B9704780ED000AC0ED010A80ED021AE7
:1041B000DFED062AC0ED032ADFED042AC0ED042A54
:1041C000C0ED051A80ED062A00BFEAE700000000F6
:1041D00010B52DED088B0446F0EE409AB0EE60AAC3
:1041E000F0EE418A24B99FED390ABDEC088B10BD71
:1041F000B0EE680AFFF7B4FFF0EE408A39EECA8AE3
:1042000094ED030A08EE280A84ED030A94ED040AEB
:1042100038EE400A80EE289A94ED010AD4ED030AA4
:1042200020EE200AD4ED000A00EE880AD4ED020A3E
:1042300000EE890AF0EE40AA94ED060AB0EE401AAC
:1042400094ED050AF0EE400AB0EE6A0A00F020FE96
:10425000F0EE40AA94ED010ADFED1D0AB4EEE00A8B
:10426000F1EE10FA2CDD94ED050AD4ED000A00EE13
:10427000C80AD4ED020A00EEC90AD4ED010A80EEA4
:10428000201AB0EE41BA94ED060AD4ED000A00EE11
:10429000C80AD4ED020A00EEC90AD4ED010A80EE84
:1042A000201AF0EE41BAD4ED030AB0EE600AB0EE87
:1042B0006B1AF0EE4B0A00F0EBFD84ED030A00BF31
:1042C00084ED048AB0EE6A0A8FE700000000000067
:1042D000BD37863510B503F08FFF04F069F910BDC6
:1042E00010B503F0DFFF10BD70B504460D4629463A
:1042F000204603F0DDFF70BD10B504F0B1F910BD2C
:1043000070B504460D462946204604F0AFF970BD4D
:104310000020704702460020704700207047024688
:104320000020704710B542F6DF61092003F086FCDB
:1043300010BD00000748006840F080700549086023
:104340000020054948600846006840F00100086008
:1043500070470000FCED00E0001000E010B500F038
:1043600069FD10BD70B504460D462946204601F092
:10437000C9F870BD10B52DED048BB0EE408AF0EE9B
:10438000608AB0EE419AB0EE491AF0EE680AB0EEDB
:10439000480A01F035F9BDEC048B10BD10B501F0F1
:1043A00081F910BD0148406870470000001000E02E
:1043B00010B504462046FDF704FD10BD70B5044657
:1043C0000D46182229462046FDF768FC70BD70B5E1
:1043D00004460D46062229462046FDF75FFC70BDC7
:1043E00010B504462046FDF7E3F910BD10B505F001
:1043F0001DFA10BD70B5044604EB840040000B4963
:10440000B1FBF0F0451EFDF7BBFC2946092003F087
:1044100099FC03F0CBFC2946092003F0D3FC03F000
:104420007BFDFDF7C1FBFDF747FC70BDC0D401006B
:1044300010B50446204603F04BFC204601F01AF963
:1044400010BD10B50446204603F03CFC10BD70B50D
:1044500004460D462946204600F00EFD70BD10B5FD
:104460000446204601F000F910BD10B52DED028B79
:10447000B0EE408AB0EE480A03F020FDBDEC028B9E
:1044800010BD10B503F03AFC10BD704710B50446DE
:10449000204604F0ADFB10BD10B50446204603F0E5
:1044A00059FF10BD10B50446204603F029FF10BD8A
:1044B00000B970479FED040A80ED030A9FED020AE0
:1044C00080ED040A00BFF4E70000000000B9704767
:1044D0009FED040A80ED030A9FED020A80ED040AB5
:1044E00000BFF4E70000000000B9704700BFFCE720
:1044F0009FED060A064880ED000A9FED040A054874
:1045000080ED000A00200449087070470000000098
:10451000580000205C000020600000202DE9F041E0
:104520002DED048B82B00746B0EE409A88461446C3
:104530001D469FED300AB0EE408A9FED2E0AF0EE48
:10454000408A0FB105B12CB9002002B0BDEC048B3C
:10455000BDE8F081B0EE490A3846FEF775FE4046E8
:10456000FFF794FF002620E001A8FFF721FF00B924
:1045700019E09DED010AFFF759FC30EE080AB0EE94
:10458000408ADDED010A9FED1C1A70EE810AB0EE43
:10459000600AFFF74BFC30EE280AF0EE408A042058
:1045A000FFF774FF00BF701C86B2A642DCDBB0EEE2
:1045B000C80ADFED120AB4EEE00AF1EE10FA0AD2F0
:1045C000B0EEE80ADFED0D0AB4EEE00AF1EE10FA03
:1045D00001D20020B9E7F0EE680AB0EE480AFFF712
:1045E00017FAF0EE409A00F0E7FC85ED000A012092
:1045F000ABE7000000000000DA0FC93FBD37863589
:104600002DE9F0412DED0C8B04460F469046F0EE5F
:10461000409AB0EE60AA1E46F0EE41CA24B11FB126
:10462000B8F1000F00D01EB9BDEC0C8BBDE8F081D5
:1046300004F16805B0EE6C0AFFF792FDF0EE40CA97
:1046400094F90C0000EE100AB8EEC00A20EE290A18
:10465000F0EE409AD6ED1F0AB0EE600A204600F058
:10466000D5F894F90C0000EE100AB8EEC00AD4EDAB
:104670000D0A60EE20AA39EEEABAB0EECB9A95EDBB
:10468000040AD5ED030A70EE60BA9FED3E0AF4EE1F
:10469000C0BAF1EE10FA03D29FED3A0AF0EE40BA3A
:1046A00095ED030AB4EEC90AF1EE10FA02DB9FEDB4
:1046B000368A0FE095ED040AB4EEC90AF1EE10FA5D
:1046C00002D8B7EE008A05E095ED030A39EE400AFC
:1046D00080EE2B8AB5EEC0BAF1EE10FA02DBB0EE36
:1046E000CA0A03E0B0EECA0AB1EE400A20EE08CAD8
:1046F0009FED260AB4EEC08AF1EE10FA07D23846D2
:10470000FFF7E4FEFFF7F4FEDFED1F8A17E0D6EDBA
:104710001F0AB0EE600AB0EE6C1AF0EE4C0A2046AA
:1047200000F0A6F8B0EE40DAB0EE6C1ADFED160A33
:10473000B0EE4D0A3846FFF74BFDF0EE408AB0EE82
:104740006C1AF0EE6A0AB0EE690A29464046FDF797
:10475000D3FEF0EE40DAB7EE000A30EE480A20EE63
:104760002D0A08EE280A84ED0A0A84ED0CCAD6ED5B
:104770001F0AB0EE600A2046FEF72EFE84ED060A00
:1047800000BF51E7BD3786350000000017B7D138AC
:1047900070B52DED048B04460E461546B0EE408AEA
:1047A000F0EE608A0CB106B115B9BDEC048B70BD9A
:1047B000B0EE680AFFF7D4FCF0EE408AD5ED1F0A90
:1047C000B0EE600AB0EE681AF0EE480A204600F03B
:1047D0004FF8B0EE409AB0EE681ADFED0B0AB0EE7B
:1047E000490A3046FFF7F4FC84ED0A0A84ED0C8A8E
:1047F000D5ED1F0AB0EE600A2046FEF7EDFD84ED10
:10480000060A00BFD1E700000000000010B52DED42
:10481000028B0446B0EE408A14B9BDEC028B10BD89
:1048200094F83C0038B984ED0E8A84ED0D8A01209D
:1048300084F83C00F1E7D4ED0E0A78EE600AB0EEA1
:10484000600A00F0D7FBF0EE408AB0EEE80AD4ED43
:104850001A0AB4EEE00AF1EE10FA05DB94ED0D0A47
:1048600030EE280A84ED0D0A84ED0E8A00BFD4E7ED
:1048700010B52DED068B0446B0EE409AF0EE609A2E
:10488000F0EE418A24B99FED250ABDEC068B10BDE0
:10489000B0EE680AFFF764FCF0EE408A94F90C0071
:1048A00000EE100AB8EEC00A20EE098A1C48007813
:1048B00068B91C4880ED008A9FED180A1A4880EDFF
:1048C000000A0120164908709FED140ADDE715481B
:1048D000D0ED000A78EE600AB0EE600A00F08AFBC4
:1048E000F0EE40AA0F4880ED008A29EEA8AA3AEE21
:1048F0006A0A0D48D0ED000A30EE200A80ED000A69
:104900009FED0A1ADFED0A0A90ED000A00F0C0FAE6
:10491000054880ED000A90ED000AB6E700000000AF
:10492000600000205C00002058000020DA0FC94120
:10493000DA0FC9C110B50446012C02D1FFF7D0FC33
:1049400010BD022C02D1FFF7D7FCF9E7032C02D1EE
:10495000FFF7DEFCF4E7042C02D1FFF7DEFCEFE703
:104960000020EDE770B504460D461646012C04D133
:1049700031462846FFF7B8FC70BD022C04D1314601
:104980002846FFF7BDFCF7E7032C04D13146284643
:10499000FFF7C0FCF0E7042C04D131462846FFF7AE
:1049A000BEFCE9E70020E7E72DE9F04105460F46A8
:1049B00015B90020BDE8F08101240CE03A462946F3
:1049C0002046FFF7CFFF06461EB10548047030466B
:1049D000F0E7601CC4B2042CF0D90020EAE7000024
:1049E000B40000202DE9F04106460F4616B900201C
:1049F000BDE8F0811748007870B116480078FFF7DD
:104A000099FF48B13A46314612480078FFF7AAFFAD
:104A100005460DB12846EBE7012417E00D48007864
:104A2000844200D110E02046FFF784FF00B90BE07C
:104A30003A4631462046FFF795FF05461DB1054829
:104A400004702846D4E700BF601CC4B2042CE5D92A
:104A50000020CDE7B400002000BFFEE708B50090BD
:104A600002E00099491E009100990029F9D108BD82
:104A700010B540F2157004F017FE124804F062FC05
:104A80004FF400410F4804F0A2FC00210D4804F04F
:104A90009EFC0C4804F036FC00F0E8F800220A49BD
:104AA000084804F087FB00231A461946054804F01D
:104AB00080FC044804F04BFC4FF48061014804F092
:104AC00071FB10BD00540040E093040010B540F2AB
:104AD000036004F0E9FD402303221C21044804F094
:104AE000B3FA802303221C21014804F0ADFA10BD63
:104AF000000C014010B5FFF7E9FFFFF7B9FF10BD4B
:104B00002DE9F0478046894617461E4616B9002013
:104B1000BDE8F0870FB90120FAE700F087F80446F6
:104B20000CB12046F4E76FF00101404600F062F856
:104B300004461CB100F08EF82046E9E749462C48AF
:104B400004F0DCFB42F6E062012140F2075000F085
:104B5000D3F804461CB100F07DF82046D8E700F0F9
:104B600065F804460CB12046D2E70121404600F02A
:104B700041F804461CB100F06DF82046C8E7002556
:104B80001FE0701EA84206D10021194804F00AFB5C
:104B9000174804F029FC42F6E062012140F2065079
:104BA00000F0AAF8044634B14FF48061104804F0D4
:104BB000F9FA2046ACE70E4804F09CFB7855681CD7
:104BC00085B2B542DDDB42F6E06000F0ADF80446A8
:104BD00034B14FF48061064804F0E4FA204697E7C8
:104BE0004FF48061024804F0DDFA002090E70000F5
:104BF0000054004070B504460D462A4621460A4836
:104C000004F0CDFB42F6E062012140F2015000F0D9
:104C100073F806460EB1304670BD40F201510248AD
:104C200004F09AFB0020F7E70054004010B5084854
:104C300004F0D5FB42F6E06201214FF4A06000F0E1
:104C40005BF804460CB1204610BD0020FCE70000D4
:104C50000054004010B5044804F0C6FB42F6E06082
:104C600000F062F810BD00000054004010B5C023F1
:104C7000032214211F4804F0E7F9C0211D4804F065
:104C8000E1F94FF41670FFF7E9FE002411E040212E
:104C9000184804F0D5F94FF41670FFF7DFFE4021F5
:104CA000144804F0CFF94FF41670FFF7D7FE601CDC
:104CB000C4B2092CEBDB80210E4804F0C1F94FF49B
:104CC0001670FFF7CBFE40210A4804F0BBF94FF401
:104CD0001670FFF7C3FE8021064804F0B3F94FF4C5
:104CE0001670FFF7BBFEC02303221C21014804F00D
:104CF000ABF910BD000C01402DE9F04104460D4612
:104D00001646374606E027B9FFF7B2FE0220BDE897
:104D1000F0817F1E2146034804F032FBA842F2D105
:104D20000020F4E70054004070B50446254605E035
:104D30001DB9FFF79DFE022070BD6D1E034800687F
:104D400000F400700028F3D100BFF5E700540040E4
:104D5000C0ED001AC0ED011A9FED082A80ED022A6D
:104D6000C0ED030A80ED040A80ED051A9FED042AC8
:104D700080ED062AC0ED071A704700006666663FA0
:104D80000000000080ED000A90ED031AD0ED051A36
:104D900031EE211A80ED031A90ED031AD0ED041ABA
:104DA00031EE211AF0EE410A9FED201AF4EEC10A0D
:104DB000F1EE10FA12D280ED010AB7EE001A80ED82
:104DC000021A9FED1B1A80ED031A90ED011AD0ED27
:104DD000061A31EE611A80ED071A704790ED031A3A
:104DE000C1EE201AC0ED021A90ED011AD0ED021AA0
:104DF00090ED012A30EE422A01EE821A80ED011A6E
:104E000090ED021AF7EE001A31EEC11AD0ED031A36
:104E100021EE211A80ED031A90ED011AD0ED061A49
:104E200031EE611A80ED071A00BFD6E7BD3786352F
:104E30000000000010B540F2036004F035FC40F2C1
:104E4000036004F031FC40F2036004F02DFC2023E9
:104E500003221021074804F0F7F810230322194613
:104E6000044804F0F1F8082303221021014804F05B
:104E7000EBF810BD000C014070B505460C461CB1A6
:104E8000284602F0C1FD02E0284600F035FF70BD63
:104E9000F0EE401AF4EEE01AF1EE10FA02D2B0EEA3
:104EA000600A7047F4EEC11AF1EE10FA02DDB0EEBE
:104EB000410AF6E7B0EE610AF3E7000010B52DED08
:104EC000028BB0EE408ADFED050A78EE200AB0EEE4
:104ED000600AFEF723FFBDEC028B10BDDA0FC93F5D
:104EE00000B5B0EE402AB0EE603A00B111B9B0EEB4
:104EF000420A00BDB7EE001ADFED0E0AB0EE430A1B
:104F0000FFF7C6FFF0EE402A0A7832B980ED002A9A
:104F100001220A70B0EE420AEBE790ED000AD0EDF4
:104F2000000A72EE600A02EEA00A80ED000A90ED1F
:104F3000000ADEE70000000080ED000ABEEE001A65
:104F400020EE011ADFED081A01EEA01A81ED001A19
:104F5000BEEE001A20EE011ADFED031A01EEE01A90
:104F600082ED001A70470000D7B35D3F70B52DED9C
:104F7000068BB0EE408AF0EE608AB0EE419A0446AD
:104F80000D46B0EE490AFEF7C9FEF0EE409AB0EECB
:104F9000490AFFF793FFB0EE40AA28EE0A0A08EE8E
:104FA000E90A84ED000A28EE290A08EE8A0A85ED4E
:104FB000000ABDEC068B70BD05E0DFED0D0A70EE5A
:104FC000600AB0EE600ADFED0A0AB4EEE00AF1EE24
:104FD00010FAF2DA05E0DFED060A70EE200AB0EE14
:104FE000600AB5EEC00AF1EE10FAF4D37047000083
:104FF000DA0FC94005E0DFED0E0A70EE600AB0EE90
:10500000600ADFED0C0AB4EEE00AF1EE10FAF2DC11
:1050100005E0DFED070A70EE200AB0EE600ADFED72
:10502000060AB4EEE00AF1EE10FAF2D3704700007F
:10503000DA0FC940DA0F4940DA0F49C000BFFEE776
:105040000120014908707047C90000202DE9F04196
:1050500004460D4616461F46DDF818802CB125B1D2
:105060001EB117B1B8F1000F01D1BDE8F08194ED88
:10507000090AB1EE400A85ED050A94ED090A85EDAD
:10508000060A94ED090AB1EE400A87ED050A94ED8F
:10509000090A87ED060A94ED090AB1EE400A86ED89
:1050A000050A94ED090A86ED060A00212046FEF75E
:1050B000B4FA00BFD9E770B52DED048B04460D4658
:1050C000B0EE408AF0EE608AB0EE419AF0EE619A5E
:1050D00016463246F0EE691A2946B0EE491AF0EE4D
:1050E000680AB0EE480A2046FEF7ACFFBDEC048B20
:1050F00070BD2DE9F84305460E4617469846089CB4
:105100002DB126B11FB1B8F1000F00D00CB9BDE828
:10511000F883D5ED092AB0EE622AD5ED092AF1EE21
:10512000622AF0EE621AD4ED072AB0EE621AD4EDCC
:10513000062AF0EE620AD4ED052AB0EE620A304685
:10514000FFF72EF8D5ED092AB0EE622AD5ED092A2F
:10515000F1EE622AF0EE621AD4ED0A2AB0EE621A7B
:10516000D4ED092AF0EE620AD4ED082AB0EE620A04
:105170004046FFF715F8D5ED092AB0EE622AD5EDC5
:10518000092AF1EE622AF0EE621AD4ED0D2AB0EE91
:10519000621AD4ED0C2AF0EE620AD4ED0B2AB0EEBE
:1051A000620A3846FEF7FCFF43463A463146284637
:1051B0000094FFF74BFF00BFA9E770B504460D460A
:1051C0002946204602F036F870BD10B52DED028B51
:1051D0000446B0EE408AB0EE480A204602F0F2F9EA
:1051E000BDEC028B10BD10B5044602F0BDFA20469E
:1051F00002F0DAF910BD10B5044602F0BCFA204600
:1052000002F0D2F910BD10B5FEF7ACF810BD10B524
:1052100004462046FEF73CF810BD10B50446204673
:10522000FEF7B6F910BD2DE9FC5F05460E461746A0
:105230009846DDE90C9425B1012D2FD0022D49D1DE
:105240003BE020792168CDE9001094ED082AF0EECA
:10525000421A94ED042AB0EE421A94ED032AF0EEBD
:10526000420A94ED022AB0EE420A94F804C04B467A
:10527000424639463046D4F800B0FEF717F9824668
:10528000BAF1000F02D10020BDE8FC9F206818B1E0
:1052900030462168FDF7F6FF0120F5E794ED081A86
:1052A000F0EE410A94ED051AB0EE410A3946304657
:1052B0002268FEF75BF80120E6E794ED071AF0EEAE
:1052C000410A94ED061AB0EE410A3046FEF7D8F8CE
:1052D0000120D9E70020D7E710B501F0CDFF10BDC0
:1052E0001FB5FDF7E9FC324890F8610018B10120C4
:1052F000FDF7BEF91FBD2F48FFF775FF98B90020D5
:10530000009001900290039001208DF8050000208C
:105310008DF806008DF80700694600F019FD0020A1
:10532000FDF7A6F9E6E700200090019002900390B7
:1053300001208DF805001F4890F880008DF80600C8
:105340001C4890F881008DF807006946002000F0A5
:10535000FFFC184890F8800018B1164890F88100BA
:1053600018B90120FDF784F9C4E7FDF7ABFB18B1CC
:105370000120FDF77DF9BDE70D4890F84C0018B904
:105380000120FDF775F9B5E7094890F8620048B1CA
:105390000748094B094A0A4900900A48FFF756FE98
:1053A00000F0C8FC0348FDF78FFC00BFA2E7000037
:1053B000880700202C060020CC060020E8060020EC
:1053C000B0060020080500207047000010B5002836
:1053D00007DA0A07140E054A00F00F031B1FD45406
:1053E00003E00A07130E024A135410BD18ED00E043
:1053F00000E400E00346481C03FB00F26420B2FB1B
:10540000F0F28A4200D90A4690B270470146B5EEE2
:10541000C00AF1EE10FA02D2DFED0F0A0BE0B7EE90
:10542000001AB4EEC10AF1EE10FA02DDF7EE000A3E
:1054300001E0F0EE400A481C01EE100AB8EE411AF5
:1054400020EE811ABCEEC11A11EE102A8A4200D950
:105450000A4690B2704700000000000010B501211C
:10546000014804F08DFC10BD002C014010B540F245
:10547000026004F019F940F2026004F015F940F2FC
:10548000026004F011F940F2036004F00DF940F2FB
:10549000036004F009F940F2036004F005F94FF4E9
:1054A000C06004F001F94FF48073032218211348FF
:1054B00003F0CAFD4FF40073032218210F4803F0D4
:1054C000C3FD4FF48063032218210C4803F0BCFD98
:1054D0004FF4005303221821094803F0B5FD4FF49F
:1054E000804303221821064803F0AEFD4FF4004329
:1054F00003221821024803F0A7FD10BD0008014057
:10550000000C014070B504460D46FFF7AFFF13488D
:10551000B0FBF4F0C0F34F00114908800846008842
:10552000411E002000F0DEF80D4800886843642129
:1055300090FBF1F086B2304600F014F800210846E6
:1055400000F032F80021012000F02EF800210220A6
:1055500000F02AF8FFF782FF70BD0000C0D4010000
:10556000200000201FB50446FF2C00DDFF24684604
:1055700004F098F90020ADF80000ADF80200ADF895
:105580000440ADF80600ADF808004FF48070ADF8A7
:105590000A000020ADF80C006946024804F073F9D7
:1055A0001FBD0000002C01402DE9F04106460C46CD
:1055B000642C00DD64240F4884550F480188204680
:1055C000FFF718FF074626B1012E04D0022E06D1A0
:1055D00003E0002505E0012503E0022501E0BDE828
:1055E000F08100BF3A462946044804F088FA00BF1B
:1055F000F5E700001C00002020000020002C0140E6
:1056000010B52DED048BB0EE409AB0EE608AF0EE4E
:10561000418A13480088B0EE490AFFF7F7FE0446B6
:10562000224600210F4804F06AFA0D480088B0EEC7
:10563000480AFFF7EBFE044622460121094804F020
:105640005EFA07480088B0EE680AFFF7DFFE0446FE
:1056500022460221034804F052FABDEC048B10BD2F
:1056600020000020002C0140014908607047000024
:105670002400002010B504464CB10121084804F074
:1056800055FB00220121192003F0D4FE06E0012180
:10569000034804F047FB192003F0BEFE10BD0000D4
:1056A000002C014010B5024804F0E2FA10BD0000E1
:1056B000002C014010B50121084804F03EFB00B960
:1056C00010BD0121054804F035FB0548006810B104
:1056D00003480068804700BFF2E70000002C01404B
:1056E0002400002030B587B005460C4640F20B6020
:1056F00003F0DAFF304804F04DFAA8B2ADF800002C
:105700004020ADF802000020ADF804000294ADF88E
:1057100006008DF80C006946274804F0AFFA042112
:10572000254804F039FB0021234804F01CFB20210C
:10573000214804F0EFFA0120ADF810000420ADF884
:1057400012000020ADF81400ADF81600ADF81800F6
:10575000ADF81A0004AA0021174804F0ADF804AA15
:105760000121154804F0A8F804AA0221124804F007
:10577000A3F860220021104804F094F90022114699
:105780000D4804F0CFF9602201210B4804F08AF99A
:1057900000220121084804F0C5F9602202210648D0
:1057A00004F080F900220221034804F0BBF90A202A
:1057B000FFF7D8FE07B030BD002C014070B58EB0A9
:1057C00005460E4600200D900C9005B116B900203C
:1057D0000EB070BD0CAB0DAA3146284600F01EF885
:1057E00018B900F027FC0020F2E701AABDF830103C
:1057F0000D9800F055F80446022C01D10020E7E78F
:10580000012C03D000F016FC0020E1E701208DF808
:105810002D0001A800F09AFBDAE7704770B5044646
:105820000D4616461CB116B10BB1052D01D2002054
:1058300070BD002118E0605C612800D012E0081DF6
:1058400082B20BE0A05C622806D160183060501A6A
:10585000401C18800120EBE7501C82B2AA42F1DB09
:105860000020E5E7481C81B2A942E4DB0020DFE725
:105870000146FF2901D101207047612901D1012092
:10588000FAE70020F8E70146FF2901D1012070471F
:10589000322903D37E2901D80120F8E70020F6E75A
:1058A0002DE9F04105460F46144615B10CB1052F00
:1058B00002D20020BDE8F0812878612803D1781E4B
:1058C000285C622801D00020F4E795F8018040466A
:1058D000FFF7D9FF08B90020ECE74046FFF7C8FF03
:1058E00008B90220E6E7A878412808DBA8785A28FA
:1058F00005DCE878412802DBE8785A2801DD002041
:10590000D8E784F80080A8786070E878A0709FEDF0
:10591000140A84ED090A002084F82800012084F884
:105920002A00781F86B2202E01D30020C2E796B14C
:105930003246291DE01CFAF73EFE0021E01C81558D
:1059400004F1240100F00EF808B90020B2E70120AC
:1059500084F8280001E00020E0700120AAE70000A0
:105960000000000070B502460C460021002600250C
:10597000DFED2E1AB0EE610ADFED2D1AF0EE610AAE
:10598000012001EE100A12B10CB1107808B9002004
:1059900070BD505C2B2802D1481CC1B208E0505C9D
:1059A0002D2805D14FF0FF3001EE100A481CC1B27E
:1059B0002FE0535C302B23DB392B21DC012665B92A
:1059C000A3F1300001EE900AF8EEE11AB2EE042ADB
:1059D00040EE021AB0EE610A19E0A3F1300001EEC8
:1059E000900AB8EEE12AF0EE401A42EE201AB0EE2C
:1059F000610ADFED0F1A60EEA11AF0EE610A06E00F
:105A00002E2B02D10DB9012501E00020C0E7481C72
:105A1000C1B2505C0028CCD106B9B9E7F8EEC11A82
:105A200061EE801AC4ED001A0120B1E70000000009
:105A3000CDCCCC3D014609B900207047B5EEC00A77
:105A4000F1EE10FA03D1002008700120F5E7F7EE1F
:105A5000000AB4EE600AF1EE10FA02D101200870DB
:105A6000EBE70020E9E70000F0B52DED048B83B0F3
:105A700004460D461646B0EE408A04B11DB903B087
:105A8000BDEC048BF0BD304600F024F9B8B13046CF
:105A900000F06AF80746B5EEC08AF1EE10FA01D2BE
:105AA000002004E0BCEEC80A10EE100A80B23B46AB
:105AB0000DA2294600902046FAF7C6FB11E018EE29
:105AC000100A04F009FC41EC190B304600F04CF8C8
:105AD00007468DED009B3B4608A229462046FAF773
