:020000040800F2
:10000000B80F00200902000879590008FD520008C5
:10001000BD580008BD1C00088579000800000000DC
:100020000000000000000000000000003562000831
:10003000892D000800000000555D0008A16D000832
:1000400023020008230200082302000823020008FC
:1000500023020008230200082302000823020008EC
:10006000230200082302000823020008812D000853
:1000700023020008230200082302000823020008CC
:1000800023020008230200081F17000823020008AB
:1000900023020008230200082302000823020008AC
:1000A00023020008F16E0008230200082302000862
:1000B000F96E0008016F00082302000823020008FF
:1000C000230200082302000823020008230200087C
:1000D000230200082302000839740008F1770008A1
:1000E000230200082302000823020008230200085C
:1000F000230200082302000823020008230200084C
:10010000230200082302000823020008230200083B
:10011000230200082302000823020008230200082B
:10012000230200082302000823020008230200081B
:1001300000F002F800F058F80AA090E8000C8244A1
:100140008344AAF10107DA4501D100F04DF8AFF27E
:10015000090EBAE80F0013F0010F18BFFB1A43F0A5
:100160000103184770B2000090B20000103A24BF9B
:1001700078C878C1FAD8520724BF30C830C144BF0C
:1001800004680C607047000000230024002500264E
:10019000103A28BF78C1FBD8520728BF30C148BFEA
:1001A0000B607047662909F02A86642900F0B88040
:1001B000752900F0B580782900F0EE80632900F001
:1001C0006085732900F06585002070471FB509F030
:1001D00092FD00F063FD04000020002109F0B2FB55
:1001E000E0601FBD10B510BD00F05CFE1146FFF7CA
:1001F000EDFF08F0AFFD00F07AFE03B4FFF7F2FF69
:1002000003BC00F0BDFE00000948804709480047D4
:10021000FEE7FEE7FEE7FEE7FEE7FEE7FEE7FEE7B6
:10022000FEE7FEE704480549054A064B7047000013
:10023000A96D000831010008B8070020B80F0020A0
:10024000B80B0020B80B00200FB47CB50C0009AA35
:10025000009001D02044401E084B7B446946019029
:10026000089800F0E4FC05461CB10020694600F047
:10027000F1FC28467CBC5DF814FB0000010A00007C
:1002800070B5044685690068C10601D5302600E0D6
:100290002026C00707D070BDD4E901213046904721
:1002A000206A401C20626D1EF6D570BD70B50446F4
:1002B00085690078C00707D170BDD4E901212020ED
:1002C0009047206A401C20626D1EF6D570BD70B547
:1002D0000C460546012A05D02878800600D5EA6933
:1002E000002302E0012305E05B1C934202D2E05CA4
:1002F0000028F9D1A869E618C01AA861286A18442C
:1003000028622846FFF7BCFF04E0D5E9012114F874
:10031000010B9047B442F8D32846FFF7C7FF70BDE2
:100320002DE9F0410646002410687529314616A5CE
:1003300010D0AFF30080002802DA404213A507E096
:1003400031688A0701D512A502E0490704D511A535
:10035000012401E0AFF3008000210A2206F1240706
:1003600009E0B0FBF2FCB0FBF2F302FB1C00303002
:1003700078541846491C0028F3D123462A463046B3
:10038000BDE8F04100F0E5B9000000002D000000DC
:100390002B0000002000000070B504460D462146E9
:1003A0001068AFF300802188090502D50F4A7A440E
:1003B00002E00E4A7A440E32002104F1240305E0E3
:1003C00000F00F060009965D5E54491C0028F7D125
:1003D00020780023000704D5702D02D009B1022334
:1003E00011322046BDE8704000F0B3B96AAE00009B
:1003F0002DE9F05F894604464FF0000ADFF874B13A
:10040000FB44C0F820A02046E1688847002874D04B
:10041000252806D0D4E901219047206A401C20629B
:10042000F1E700265F462046E16888472028054618
:1004300007DB312D05D2781910F8200C08B10643DE
:10044000F1E7B00701D526F00406C4F81CA0002788
:10045000C4F818A02A2D09D0284607F0CBFE38B3DF
:1004600004EB8708303DC8F8185019E059F8041B10
:10047000204604EB87029161E1688847012F054619
:1004800018D1E069002820DA26F020061DE0D8F80F
:10049000180000EB800005EB40003038C8F8180069
:1004A0002046E1688847054607F0A4FE0028EED103
:1004B000012F0AD02E2D08D12046E16888477F1CE5
:1004C0000546022F46F02006C4DBA069002803DAA7
:1004D000404246F00106A061F00701D026F0100668
:1004E0006C2D0BD0682D09D04C2D39D06A2D35D00C
:1004F000742D35D07A2D33D016E038E0E1682F46E0
:1005000020468847B842054609D16C2F26D04FF4C3
:100510008060E168064320468847054604E06C2F6A
:100520001AD04FF4807006430DB3A5F1410019288D
:1005300002D8203546F400664A4629462046266001
:100540004E46FFF72FFE80B101280BD0F61D26F096
:10055000070000F1080956E74020E4E78020D8E7CB
:100560000020D6E706F104094DE7284652E7206A45
:10057000BDE8F09F40AE000010B5431C02E010F84B
:10058000011B71B18107FAD14FF0013202C88C1AF8
:100590008C4314EAC211F9D0C01A0A0603D0C01E57
:1005A00010BDC01A10BD0A0401D0801E10BD090282
:1005B000FCD0401E10BD032A40F2308010F0030C26
:1005C00000F0158011F8013BBCF1020F624498BFA6
:1005D00011F801CB00F8013B38BF11F8013BA2F143
:1005E000040298BF00F801CB38BF00F8013B11F0BE
:1005F000030300F02580083AC0F0088051F8043B5E
:10060000083A51F804CBA0E80810F5E7121D5CBFCA
:1006100051F8043B40F8043BAFF30080D20724BFFD
:1006200011F8013B11F801CB48BF11F8012B24BF91
:1006300000F8013B00F801CB48BF00F8012B7047E0
:1006400010B5203AC0F00B80B1E81850203AA0E86D
:100650001850B1E81850A0E81850BFF4F5AF5FEAA1
:10066000027C24BFB1E81850A0E8185044BF18C954
:1006700018C0BDE810405FEA827C24BF51F8043BFB
:1006800040F8043B08BF7047D20728BF31F8023B4F
:1006900048BF11F8012B28BF20F8023B48BF00F8E3
:1006A000012B70474FF000020429C0F0128010F0B7
:1006B000030C00F01B80CCF1040CBCF1020F18BF3E
:1006C00000F8012BA8BF20F8022BA1EB0C0100F0D1
:1006D0000DB85FEAC17C24BF00F8012B00F8012BA4
:1006E00048BF00F8012B70474FF0000200B51346D9
:1006F00094469646203922BFA0E80C50A0E80C5042
:10070000B1F12001BFF4F7AF090728BFA0E80C50F2
:1007100048BF0CC05DF804EB890028BF40F8042BEB
:1007200008BF704748BF20F8022B11F0804F18BF58
:1007300000F8012B704770477047704710B500F004
:10074000B1FA006810BD10B5044600F0ABFA0460C1
:1007500010BD2DE9F0470D4699469246044600F13A
:1007600024080168880604D5E06921F010012160A1
:1007700000E00120A84201DD471B00E00027A1693D
:100780007A1902EB0900081AA0612078C00602D489
:100790002046FFF775FD002608E0D4E901211AF88C
:1007A00006009047206A401C761C20624E45F4DB10
:1007B0002078C0060AD52046FFF762FD06E0D4E99E
:1007C000012130209047206A401C2062381EA7F18A
:1007D0000107F4DC07E0D4E9012118F8050090478F
:1007E000206A401C2062281EA5F10105F3DC20468A
:1007F000FFF75CFD2078000602D50220BDE8F087F7
:100800000120FBE770472DE9FF4F0C461E464FF0D5
:10081000FF378BB0D2E90001DDF860800A908A468C
:10082000C1F30A5505B93D46002108464FF00000C6
:10083000BAF1000F00F4400005DA00EB80004FF43D
:10084000400101EA50004FEA9059B9F1010F00DD73
:10085000B9460A9850EA4A000ED044F61050A5F264
:10086000FF3545432F14B8F1000F1ED07542291EE5
:100870001EDDC9F100021CE0B8F1010F4FF00000CD
:1008800001D0302103E0F24305E02154401CB04286
:10089000FBDB30460022002121540B99C1F808806F
:1008A000C1E900200FB0BDE8F08FBD1B6D1CDEE775
:1008B0004A4600DA694206A800F07EFA06AB93E8E1
:1008C000070003AB83E8070050460A9900F05FFB7E
:1008D0008DE80700A0F500501F3800900398002D08
:1008E0000ADD42F21F014A460844002303A903908F
:1008F000684600F0C8FD09E0A0F500504A461F38E0
:10090000002303A90390684600F0D2FD8DE807009C
:100910000004000C03D04FF0FF30410800E0104607
:10092000B8F1000F03D00022009215461EE0751E9C
:1009300005D400F0BBF9303262556D1EF9D5B346CF
:100940000122084302D000227F1C04E020783028D6
:1009500001D100227F1E002A099784D01DE0112DAD
:1009600007DA00F0A3F9303262556D1C50EA01023B
:10097000F5D1084302D00098C8B10EE00021681EEE
:1009800005E0235C625C63542254401E491C814292
:10099000F7DBAB46A81B401E0990002004F80B00B3
:1009A0000B98099AC0F80880C0E9002B7AE7112655
:1009B0004FF0000857E72DE9F04F88460446D21D56
:1009C00022F0070191B0D1E90001CDE90A0106F05A
:1009D000DBFF02460B98C00F01D02D2007E02068F6
:1009E000810701D52B2002E0202101EAC000032A63
:1009F000099001D0072A05DB03464146204600F056
:100A00009BF90BE12078800601D5E06900E0062023
:100A1000B8F1650F814606D0B8F1660F18D0B8F16D
:100A2000670F70D131E00020B9F1110F009001DBA8
:100A3000112301E009F101030AAA01A90CA8FFF79B
:100A4000E2FEDDE90C70002609F10105834647E06E
:100A500001204B4600904FF000470AAA01A90CA8BC
:100A6000FFF7D1FEDDE90DB00C995D46002610B907
:100A700009F101000D18B9EB050003D4C0F1FF36F0
:100A800009F10105A5EB09002BE0B9F1010F01DA2D
:100A90004FF001090020B9F1110F0090484601DD27
:100AA000112300E003460AAA01A90CA8FFF7ABFE38
:100AB000DDE90C704D4600268346207800070AD4F5
:100AC000AB4500DA5D4601A8012D04DD411911F89E
:100AD000011C302907D04F4502DA17F1040F04DA60
:100AE000012082460FE06D1EEEE7002F02DCED1BB9
:100AF0003E4403E0781CA84200DD7D1CB81B00F1D9
:100B0000010A4FF000472078000703D4AA4501DB13
:100B10004FF0FF3A0021B7F1004F0DF143088DF877
:100B2000431024D002202B23002F01DA7F422D23F3
:100B30000A21021EA0F1010000DC5FB197FBF1FC6D
:100B400097FBF1F201FB1C7C17460CF1300C08F806
:100B500001CDEEE7A8F1010003702188090501D558
:100B6000452100E06521A0F1010800F8011C099869
:100B70000FA9A1EB0807FF1D00B10120411901EBEE
:100B8000EA70A1693844081A401EA0612078C006A6
:100B900002D42046FFF774FB099828B1D4E901215B
:100BA0009047206A401C20622078C00622D520464B
:100BB000FFF766FB1EE0002E04DBB34502DD01A853
:100BC000805D00E03020D4E901219047206A401C7C
:100BD0002062761CAAF101005FEA000A0AD100F047
:100BE0005DF8C0680168405CD4E901219047206A43
:100BF000401C2062281EA5F10105DCDC07E0D4E9D9
:100C0000012118F8010B9047206A401C2062381E11
:100C1000A7F10107F3DC2046FFF748FB032011B0E2
:100C200041E6000001694A1C02610878704700B57E
:100C30008FB0CDE901310021059105497944CDE915
:100C4000031011466846FFF7D3FB0FB000BD00004C
:100C5000E5FFFFFF0A6802F8010B0A607047D1E95F
:100C600000239A4202D2531C0B601070704710B5DB
:100C7000436913B1AFF3008001E0FFF728FB0120C7
:100C800010BD127800F124010A7000224A7001227E
:100C9000EDE711684FF0FF32E9E7000000487047C8
:100CA00074070020004870475407002030B5B0F1A9
:100CB0000A024FEA900E71F100034EEA817EB0EB1A
:100CC0000E0061EB91014FEA101E4EEA017E10EB1F
:100CD0000E0041EB11114FEA102E4EEA016E10EB9F
:100CE0000E0041EB11214FEA104E4EEA014E10EB7F
:100CF0000E0041EB1141401841F100014FEAD000D4
:100D000040EA41704FEAD10110EB80054FEA8104BF
:100D100044EA907444EB01046D1944EB0404521B43
:100D2000A3414FF0000348BF0A3200D530BD401C3C
:100D300041F1000130BD00002DE9F0411F4604469D
:100D400003260168072A01F4006004DB08B116A538
:100D500005E016A503E008B115A500E015A521F0F2
:100D600010002060A069C01EA0610FB1401EA061EC
:100D70002046FFF785FA4FB1D4E901213846904764
:100D8000206A401C2062C01C206206E0206AFAE74C
:100D9000D4E9012115F8010B9047761EF8D22046C0
:100DA000FFF784FABDE8F0814E414E006E616E009F
:100DB000494E4600696E66002DE9F04781461646A9
:100DC0008AB0354878440DC88DE80D003248784423
:100DD000801C03AC0DC884E80D0041F69B3008442C
:100DE000372190FBF1F290FBF1F5A5F1800501FBB5
:100DF00012041B3C02D56442012000E00020DFF811
:100E000098A080460027FA44AAF1BE0A0EE0E00747
:100E10000AD03246684607EB470101230AEB8101FD
:100E200000F046FB8DE8070064107F1C002CEED11B
:100E3000194F7F44AE3F19E0E80715D007EB0410C7
:100E40000DF1180A90E80E008AE80E00C068F04222
:100E500001D1981908903246012306A903A800F091
:100E600027FB03AB83E807006D10641C002DE3D162
:100E70004FF0010332466946B8F1000F03A802D0D3
:100E800000F001FB01E000F013FBC9E90001C9F823
:100E900008200AB0BDE8F0872CA500000048704784
:100EA000540700207546FFF7F9FFAE460500694676
:100EB000534620F00700854618B020B5FFF7B2F979
:100EC000BDE820404FF000064FF000074FF000084B
:100ED0004FF0000B21F00701AC46ACE8C009ACE8CC
:100EE000C009ACE8C009ACE8C0098D46704710B530
:100EF0000446AFF300802046BDE81040FFF77DB9FF
:100F00004FF0013C50F8042B51F8043B9A4221D198
:100F1000A2EB0C03934313EACC1317D150F8042B24
:100F200051F8043B9A4215D1A2EB0C03934313EA08
:100F3000CC130BD150F8042B51F8043B9A4209D141
:100F4000A2EB0C03934313EACC13DBD04FF0000069
:100F5000704700BFD01A01BAB1FA81F101F018014F
:100F600022FA01F0CB40C1F12001DBB2C0B2C01ABD
:100F70002CFA01F3D11A914311EAC311E6D170475B
:100F800001491820ABBEFEE72600020070475FEA69
:100F9000400C08BF91F0000F4FEA8C234FEAC122AA
:100FA00043EA51514FEA1C5018BF00F5F0404FEA98
:100FB000300018BF41F000415FEA6C5C00F029800E
:100FC000BCF1FF3F08BF40F080407047130C06BFE4
:100FD00012044FF0100C4FF0000C130E04BF12025D
:100FE0000CF1080C130F04BF12010CF1040C930F49
:100FF00004BF92000CF1020CD30F04BF52000CF19D
:10100000010C11464FF00002A0F11F00A0EB0C00F4
:10101000704711F0004F08BF704731F000413FF4B6
:10102000D5AF0B0C06BF09044FF0100C4FF0000CAD
:101030000B0E04BF09020CF1080C0B0F04BF0901D1
:101040000CF1040C8B0F04BF89000CF1020CCB0FC8
:1010500004BF49000CF1010CCCF12003A0EB0C0003
:1010600022FA03F302FA0CF241EA030100F1010053
:10107000704720F07F4C80EA030023F07F47ACEB01
:10108000070303F57C5300F0004003F1FF032DE953
:1010900080494FEA154B09B44FEA144325EA0B4E39
:1010A00024EA03480FF2042606EB132749083E788A
:1010B0005FEA320203FB0667C7F5000707FB06F687
:1010C0004FEA54374FEAD64606F1020607FB066C94
:1010D000CCF1005C4FEA1C472CEA074C07FB06F4F6
:1010E0000CFB06F504EB15464FEA961634BF0020BC
:1010F0004FF000404FEAD13706FB07FC4FEA1C4C8B
:101100000CFB0BF7D21B03FB0CF761EB07010CFB8D
:101110000EF7B0EB074072EB17420CFB08F734BF39
:10112000A2EB0742B2EB074261EB17414FEA0C44D6
:101130004FEA910706FB07FC4FEA1C4C0CFB0BF730
:10114000B0EBC74072EB573203FB0CF734BFA2EB96
:10115000C742B2EBC74261EB57310CFB0EF7B0EB65
:10116000C70072EB57720CFB08F734BFA2EBC70243
:10117000B2EBC70261EB5771039F4FEA816141EA0D
:10118000921104EBCC044FEAD1374FEA826206FB9E
:1011900007FC42EA90124FEA80604FEA1C4C0CFBBD
:1011A0000BF7D21B03FB0CF761EB07010CFB0EF7EF
:1011B000B0EB074072EB17420CFB08F734BFA2EB11
:1011C0000742B2EB074261EB17414FEA8C554FEAF9
:1011D000910704EB9C2406FB07FC4FEA1C4C0CFB1C
:1011E0000BF7B0EBC74072EB573203FB0CF734BF81
:1011F000A2EBC742B2EBC74261EB57310CFB0EF7D3
:10120000B0EBC70072EB57720CFB08F734BFA2EBD0
:10121000C702B2EBC70261EB577115EB4C254FEAE1
:10122000816141EA92114FEA82624FEAD13742EA84
:10123000901206FB07FC44F100044FEA80604FEA7D
:101240001C4C0CFB0BF7D21B03FB0CF761EB0701EB
:101250000CFB0EF7B0EB074072EB17420CFB08F7E4
:1012600034BFA2EB0742B2EB074261EB174115EB2B
:101270001C154FEA813141EA92414FEA823242EA3B
:1012800090424FEA80304FEA0C7644F1000448EA7D
:1012900003434EEA0B484FF0000EB2EB080C71EB23
:1012A000030724BF624639464EEB0E0E4FF0000B8B
:1012B0000018524149414BEB0B0BB2EB080C71EBA0
:1012C00003077BF1000B24BF624639464EEB0E0E3E
:1012D0004FF0000B0018524149414BEB0B0BB2EBA6
:1012E000080C71EB03077BF1000B24BF6246394603
:1012F0004EEB0E0E51EA020718BF46F0010616EB40
:101300000E7655F1000254F1000103D5BDE88901C4
:10131000BDE80088BDE88901BDE80048B619524122
:1013200041EB0101A3F10103704780807F7E7D7C4A
:101330007B7A7978777676757473727171706F6E67
:101340006E6D6C6C6B6A6A69686867666665646412
:10135000636362616160605F5F5E5E5D5D5C5C5B9C
:101360005B5A5A595958585757565655555554540B
:10137000535352525251515050504F4F4F4E4E4D69
:101380004D4D4C4C4C4B4B4B4A4A4A4949494848B5
:1013900048474747474646464545454444444443F5
:1013A00043434342424242414141002B9C4630D498
:1013B00077002BD01CB54FEA370703B44FF010006D
:1013C0004FF01001BAF1000F06D0BCF1000FDCBFE6
:1013D00040F0080040F008014FF000000FBCBDE8ED
:1013E00010400BF1010BBBF1010F08BF5FEA1707BB
:1013F00022BF12F1010211F101014FF0004143F14E
:10140000000300F0004043EA00007047F9D357089A
:10141000D0E746EA064613F1400F4FEA16461FDDB5
:1014200013F1200FDFBF16430A46002120335B4231
:10143000BED0C3F1200746EA064602FA07F74FEA94
:10144000164646EA0706C3F1200722FA03F201FA1C
:1014500007F721FA03F14FF0000342EA0702A7E77A
:1014600046EA020646EA06464FEA164646EA0106FC
:10147000BCBF46EA0646360C4FF000034FF00002B0
:101480004FF0000194E72DE9804C9A46934670B4E2
:1014900091E8380007C831EA400C48BF34EA430CF1
:1014A00003D5FFF7E6FDFFF780FFF0BCBDE8008C39
:1014B0002DE9804C9A46934670B491E8380007C8ED
:1014C00010F0804F08BF13F0804F03D100F005F8F3
:1014D000FFF76BFFF0BCBDE8008C20F07F4780EA8F
:1014E000030023F07F4C07EB0C03A3F57C5300F0C3
:1014F0000040A3F1FE0392F0000F00F0B38095F0DE
:10150000000F00F077802DE901494FEA11404FEAC2
:10151000144621EA004800FB06FC24EA064708FBC3
:1015200006F607FB08F800FB07F718EB06484CEB3C
:10153000164C4FEA124B18EB07484FEA15464CEB96
:10154000174022EA0B4E0BFB06FC25EA06470EFB72
:1015500006F607FB0EFE0BFB07F71EEB064E4CEBE9
:10156000164C4FF000061EEB074E4CEB174B18EBDA
:101570000B0840F1000018EB0E0B58EB000840F18F
:1015800000008F1A4FF000013CBFC943661B14BF17
:10159000B5EB040C00213CBFC943F61B4FEA1744CE
:1015A0004EEA8E0E27EA04454FEA1C4704FB076209
:1015B0002CEA074C05FB07F70CFB05F604FB0CFCBB
:1015C00016EB074642EB174216EB0C4642EB1C4269
:1015D0001BEB060658EB0202414146EA9E0601D586
:1015E000BDE80189B619524141EB0101A3F10103A4
:1015F000BDE801894FEA14454FEA114724EA054640
:1016000021EA074C05FB07F406FB07F70CFB06F184
:1016100005FB0CFC11EB074144EB17444FEA124762
:1016200011EB0C4144EB1C4422EA074C05FB07F28A
:1016300006FB07F70CFB06F605FB0CFC16EB074652
:1016400042EB174216EB0C4642EB1C456A1854F16C
:10165000000148BF7047B619524141EB0101A3F1A7
:101660000103704795F0000F37D04FEA11424FEA5F
:10167000144721EA024624EA074C02FB07F106FB65
:1016800007F70CFB06F402FB0CFC14EB074441EBE0
:1016900017414FEA154714EB0C4441EB1C4125EA76
:1016A000074C02FB07F506FB07F70CFB06F602FBEF
:1016B0000CFC16EB074645EB174516EB0C4645EBC5
:1016C0001C42121951F1000148BF7047B61952412E
:1016D00041EB0101A3F1010370474FEA14454FEAC2
:1016E000114724EA054621EA074C05FB07F106FBF2
:1016F00007F70CFB06F24FF0000605FB0CFC12EBA3
:10170000074241EB174112EB0C4251EB1C4148BF21
:101710007047921841EB0101A3F10103704710B526
:1017200000F098F910BD000010B540F2096007F014
:101730005DFC40F20A6007F059FC2E4806F0B2FD4D
:101740002D4806F0AFFD4FF4C02006F065FE0122E3
:101750001102284806F0CEFE01221102264806F0AA
:10176000C9FE0021234806F092FD0021224806F020
:101770008EFD00211F4806F05DFE00211E4806F088
:1017800059FE0523062200211A4806F05DFE0523B6
:1017900007220021184806F057FE0122114615487D
:1017A00006F052FD01221146134806F04DFD4FF49C
:1017B000202201210F4806F0CEFD4FF42022012106
:1017C0000D4806F0C8FD012211460A4806F0A4FDA6
:1017D00001221146084806F09FFD064806F08EFDDE
:1017E0000221044806F0D2FD02220021122007F057
:1017F000C3FA10BD002401400028014000B587B0A5
:101800004FF4A06007F0F2FB0021184806F020FF1B
:10181000684607F093F81648009000208DF81800ED
:101820001448029001208DF81900400201908000B8
:10183000039000208DF81A00182004904FF40050F7
:1018400005906A460021094806F04EFF002107482E
:1018500006F0E5FE02220021044806F0DCFF032228
:1018600000210B2007F088FA07B000BD00000240FD
:101870004C240140F403002010B5022200210E4840
:1018800006F0EAFFB8B1022200210B4806F0DCFFA7
:1018900001200A4908700102094807F0E3F828B15D
:1018A0004FF48071064807F07BF804E04FF4807134
:1018B000034807F077F810BD00000240DD0000206B
:1018C000000C014010B540F2026007F08FFB40F2BF
:1018D000026007F08BFB402303220021044807F03D
:1018E00063F8802303220021014807F05DF810BD52
:1018F000000801402DE9F04F2DED028B81B0064626
:101900008946144618259FED4E0AB0EE408A9FED99
:101910004C0AF0EE408A06B12CB9012001B0BDECB2
:10192000028BBDE8F08F182C00DD182400214548FB
:1019300007F025F88046A5EB0800B0FBF5F105FBA4
:10194000110A0AEB0500401EB0FBF5F105FB110B77
:10195000002760E00BEB0500C01BB0FBF5FC05FBAE
:101960001C000090DFF8E0C000985CF8203099B2CD
:101970004FF6FF7000EA1342B9F1000F06D0B9F13B
:10198000010F14D0B9F1020F41D11FE000EE101A7F
:10199000B8EE400A38EE000AB0EE408A00EE102A97
:1019A000B8EE400A38EE800AF0EE408A31E0084690
:1019B00000F094F830EE080AB0EE408A104600F0CD
:1019C0008DF830EE280AF0EE408A22E0084600F05A
:1019D00085F8F0EE401A00F011F91C48D0ED000A2D
:1019E00030EE600A30EE080AB0EE408A104600F091
:1019F00075F8F0EE401A00F001F91548D0ED000A34
:101A000030EE600A30EE280AF0EE408A01E0012054
:101A100084E700BF7F1CA7429CD300EE104AB8EEBB
:101A2000400AC8EE000AC6ED000A00EE104AB8EE01
:101A3000400AC8EE800AC6ED010A00206EE70000E9
:101A40000000000000000240F4030020E00000203D
:101A5000E400002010B50221044806F0B0FC18B1E3
:101A60000221024806F0A8FC10BD0000002401403D
:101A700070B5FFF727FFFFF7C1FEFFF755FE40F2F5
:101A8000FF75284665F31F400646002403E00E4814
:101A900040F82460641C182CF9D30C4806F033FC81
:101AA0000B4806F030FC012006F052FD074806F016
:101AB000B6FB074806F0B3FB00200649087001207A
:101AC0000549087070BD0000F403002000240140A7
:101AD00000280140DD000020DC00002000EE100A9C
:101AE000B8EE400ADFED040A60EE200A9FED031A0B
:101AF00080EE810A704700003333534000F07F4589
:101B00007CB504460D46164604B10DB901207CBDD6
:101B10000EB9012602E0182E00DD182632460221F9
:101B20006846FFF7E7FE08B10120F0E79DED000AE7
:101B300084ED000A9DED010A85ED000A0020E6E72C
:101B400070B504460D461646324629462046FFF734
:101B5000D7FF08B9012070BD0020FCE710B521486F
:101B6000007800B910BD00211F4806F00DFD1822B5
:101B700000211D4806F0F0FE1C4A00211A4806F01C
:101B8000BFFE1B4A0021184806F0A8FE01220021D2
:101B9000154806F095FD01220021134806F054FE79
:101BA000122112484C3806F0EEFB1221114806F0C3
:101BB000EAFB0E484C3806F0A1FB00210A4806F06B
:101BC000FCFC0122114609484C3806F0A5FB012215
:101BD0001146084806F0A0FB00200749087000BF26
:101BE000C0E70000DC000020000002404C2401405F
:101BF000F403002000280140DD000020F0EE400A40
:101C00009FED040A30EEC00A9FED031A20EE010A90
:101C1000704700003333D33F7CF04141024641EA34
:101C20000220704710B503F0B7FB10BD00EE100A9C
:101C3000B8EE400ADFED020A20EE200A70470000ED
:101C4000DB0FC93A10B5044621460E2000F01EF8FD
:101C500010BD10B504462046FFF7F4FF08B9012077
:101C600010BD0020FCE738B504460CB9002038BD93
:101C70006846FFF7EEFF08B90020F8E7BDF800005E
:101C8000FFF7D4FF84ED000A0120F0E7F8B5044621
:101C90000D4602236A4621466C2003F083FB06466C
:101CA0000EB13046F8BD9DF801109DF80000FFF719
:101CB000B5FFC0F30B0028800020F3E700BFFEE76C
:101CC000002001490876704764030020F0B5ABB0EE
:101CD00004469FED6F0A8DED2A0A94F82A0028B970
:101CE000452003F0BEF802202BB0F0BD60785028EC
:101CF0002DD194F82800C0B1D4ED090AB0EE600AE5
:101D0000A07800F0CFFE20B9502003F0AAF80120FF
:101D1000EAE7A0782AA900F003FD20B1A0789DEDA4
:101D20002A0A00F0FFFB0020DEE7A078582803D144
:101D300000F0A6FD0020D7E7A07800F093FE20B9C0
:101D4000502003F08EF80120CEE70020CCE7607829
:101D500053283FD10020299094F8280040B3D4EDB7
:101D6000090AB0EE600A29A800F054FC20B95020FE
:101D700003F077F80120B7E7A0789DF8A41000F0F1
:101D80005BFF20B9502003F06CF80120ACE7A0788D
:101D900029A900F019FD20B9502003F062F80120B4
:101DA000A2E7A0789DF8A41000F00CFC00209BE7AF
:101DB000A078582803D100F07FFD002094E7A07898
:101DC00000F060FE20B9502003F04BF801208BE7B3
:101DD000002089E76078592855D100F00DFA0546B2
:101DE00094F8280020B1502003F03BF801207BE755
:101DF000A078522821D1287900F01CF906466B8979
:101E0000D5E903216869CDE90632CDE90810E87803
:101E1000697E2A7ECDE90406CDE90221A878697899
:101E2000CDE900102B781B4A80210AA8FEF70CFA96
:101E30000AA803F010F8002056E7A07843281DD127
:101E400000F0E0FCC0B100F0D7F90646307900F0B0
:101E5000F1F80746D6E903127069CDE90071CDE9C2
:101E6000022033780C4A80210AA8FEF7EDF90AA86F
:101E700002F0F1FF002037E7022035E7502002F0A2
:101E8000F0FF012030E7492002F0EBFF02202BE7B2
:101E9000000000000CB3000888B3000810B5A2B021
:101EA0002248C1887F2020EA01042048C08868B900
:101EB00000201E49C87002200870062008711CA26C
:101EC00020A122A000F0F2FA22B010BD174800892C
:101ED00038B934B901201549C8700870002008715C
:101EE00005E002201149C87008700620087154B13D
:101EF0007F20234616A28021009002A8FEF7A4F9B5
:101F000002A802F0A8FF094800890849C988CDE95C
:101F100000100648C37819A2802102A8FEF794F9A0
:101F200002A802F098FF00BFCEE700006403002083
:101F30006E6F20636865636B732065786563757485
:101F400065640000696E697400000000455252002B
:101F5000646961672E696E69742E6D697373696E49
:101F6000673D307825303458207265717569726527
:101F7000643D3078253034580D0A0000646961678B
:101F80002E696E69742E726573756C743D257520AB
:101F9000636865636B733D30782530345820666123
:101FA000696C733D3078253034580D0A000000000C
:101FB000014890ED0B0A704780030020014890ED26
:101FC0000A0A704780030020014890ED090A704713
:101FD00080030020014890ED010A70478003002033
:101FE000014890F83C00704780030020014890EDC4
:101FF000080A704780030020014890ED070A7047E7
:1020000080030020014890ED060A704780030020FD
:10201000014890ED110A704780030020014890EDBF
:10202000100A704780030020014890F83D00704777
:10203000800300200146072913D2DFE801F00406DF
:10204000080A0C0E100008A0704709A0FCE70DA0BC
:10205000FAE712A0F8E715A0F6E718A0F4E71BA02E
:10206000F2E71DA0F0E700004E4F4E4500000000D3
:1020700053454E534F525F4144435F494E56414C86
:102080004944000053454E534F525F454E434F4421
:1020900045525F494E56414C49440000554E444517
:1020A00052564F4C544147450000000050524F5487
:1020B0004F434F4C5F4652414D4500005041524105
:1020C0004D5F494E56414C4944000000494E495429
:1020D0005F4641494C454400554E4B4E4F574E00CC
:1020E0000148808A70470000800300200148408A30
:1020F000704700008003002001464C2914D006DC04
:1021000041290BD0442915D0482915D10EE04F297B
:102110000ED0522904D053290ED103E007A07047F6
:102120000BA0FCE711A0FAE716A0F8E71DA0F6E760
:1021300025A0F4E72AA0F2E72DA0F0E7746172670A
:1021400065745F616E676C655F72616400000000BA
:10215000616E676C655F706F736974696F6E5F73D2
:10216000706565645F7261645F73000073706565BC
:10217000645F6F6E6C795F73706565645F726164D4
:102180005F73000073656D616E7469635F72657083
:102190006F72745F6672657175656E63795F687A78
:1021A000000000006F7363696C6C6F73636F706520
:1021B0005F7265706F72745F6672657175656E636C
:1021C000795F687A000000006F7363696C6C6F73ED
:1021D000636F70655F706172616D5F6D61736B00DD
:1021E000636F6E74726F6C5F6D6F646500000000EA
:1021F000756E6B6E6F776E00004870476403002049
:102200000148008A7047000080030020014890EDDB
:10221000030A704780030020014890ED020A7047CE
:1022200080030020014890ED0E0A704780030020D3
:10223000014890ED0D0A704780030020014890EDA1
:102240000C0A70478003002001464D2904D04F2915
:1022500006D0532906D101E003A0704706A0FCE791
:102260000BA0FAE711A0F8E76D6F746F725F656EEF
:1022700061626C650000000073656D616E74696376
:102280005F7265706F72745F656E61626C65640029
:102290006F7363696C6C6F73636F70655F72657089
:1022A0006F72745F656E61626C656400756E6B6EF3
:1022B0006F776E00014890ED000A704780030020A0
:1022C00010B503F085FD00205149087048700120C9
:1022D00088700020C8700871C88008814881C86073
:1022E00008614861087648769FED4A0A4A4880EDC1
:1022F000000AB3EE020A80ED010AB0EE000A80ED9A
:10230000020A9FED460A80ED030A02204249088234
:1023100064204882082088829FED410A084680EDAB
:10232000060AB2EE080A80ED070A9FED3E0A80ED2C
:10233000080AB0EE000A80ED090A9FED3B0A80ED25
:102340000A0A9FED3A0A80ED0B0AB7EE080A80ED03
:102350000C0A9FED370A80ED0D0A9FED360A80EDDD
:102360000E0A012081F83C00022081F83D00B5EE04
:10237000000A084680ED100A9FED2B0A80ED110A35
:1023800001202D4908700020487001208870C87015
:102390000846407830B10846807818B103201C49BF
:1023A000887010E02448407818B1012018498870DE
:1023B00009E02148807818B102201549887002E0B0
:1023C00000201349887001F0DBFE134991F83D00AD
:1023D00002F020F81048D0ED100AB0EE600A01F0CB
:1023E000F1FF0D48D0ED110AB0EE600A01F0CAFF0E
:1023F0001149C87802F008F801F028FF007808B108
:10240000012000E000200C49C87000F087FA10BDE0
:1024100064030020C3F54840800300200000C04250
:102420009A99993F00000000CDCC4C3F0AD7233C3D
:102430009A99193F0AD7A33BA80000200148C07809
:1024400070470000A8000020B4EEE00AF1EE10FA98
:1024500004D3B4EEC10AF1EE10FA01DD002070479A
:102460000120FCE70146442909D0482905D04C2920
:1024700002D04F2905D101E000BF00BF00BF0120FD
:1024800070470020FCE7000001480078704700001A
:10249000A80000200148807870470000A8000020B4
:1024A0000148407870470000A800002070B5A2B035
:1024B00004460D4616460EB1304600E00AA00DB1A6
:1024C000294600E00AA1CDE900100CB1204600E049
:1024D00009A003460AA2802102A8FDF7B5FE02A8C2
:1024E00002F0B9FC22B070BD6E6F6E650000000096
:1024F00067656E6572616C00494E464F00000000D2
:10250000646961672E6C6576656C3D2573206D6F1F
:1025100064756C653D25732064657461696C3D2547
:10252000730D0A0030B52DED048BA3B00446B0EE58
:10253000408A2046FFF796FFB8B12046FFF7DCFD42
:102540000546B5EEC08AF1EE10FA01D2002004E093
:10255000BCEEC80A10EE100A80B22B460FA28021F2
:10256000009003A8FDF770FE11E018EE100A07F0C6
:1025700051FB41EC190B2046FFF7BEFD05468DEDE2
:10258000009B2B460AA2802103A8FDF75DFE03A84D
:1025900002F061FC23B0BDEC048B30BD7061726150
:1025A0006D657465722E25733D25750D0A0000005A
:1025B000706172616D657465722E25733D252E33D1
:1025C000660D0A0070B5A2B005460C462846FFF716
:1025D0003BFE06460CB107A000E008A0334609A266
:1025E0008021009002A8FDF72FFE02A802F033FC24
:1025F00022B070BD454E41424C4500004449534114
:10260000424C450073746174652E25733D25730D2E
:102610000A000000014609B900207047B5EEC00A63
:10262000F1EE10FA03D1002008700120F5E7F7EE73
:10263000000AB4EE600AF1EE10FA02D1012008702F
:10264000EBE70020E9E7000070B503F0BDFB0546AD
:1026500015B195F8290000B970BD012024494870D2
:102660002846FFF733FB04460CB9012000E00020A8
:102670001F494876CCB102204870012C08D100BF18
:1026800008460069401C086100BF0520087108E089
:1026900000BF1748C068401C1549C86000BF04202F
:1026A000087114A002F0D7FB02E001201049487025
:1026B0001A48407830B11948807818B103200C4985
:1026C000887010E01548407818B1012008498870DA
:1026D00009E01248807818B102200549887002E0AC
:1026E00000200349887003F037FB00BFB4E7000007
:1026F000640300204552522066616C6C6261636B1A
:102700003A206B6565702070726576696F7573200D
:10271000706172616D730D0A00000000A800002056
:10272000024609B9002070474C2A20D006DC412A15
:102730000BD0442A36D0482A3ED121E04F2A28D057
:10274000522A08D0532A37D10BE01E4890ED000AD8
:1027500081ED000A32E01B4890ED010A81ED000A8C
:102760002CE0184890ED020A81ED000A26E0154899
:10277000008A00EE100AB8EE400A81ED000A1DE062
:102780001048408A00EE100AB8EE400A81ED000AB7
:1027900014E00C48808A00EE100AB8EE400A81ED81
:1027A000000A0BE0074890F83C0000EE100AB8EE73
:1027B000400A81ED000A01E00020B4E700BF0120DB
:1027C000B1E7000080030020024609B900207047ED
:1027D0004D2A04D04F2A0AD0532A0CD103E00848CE
:1027E0000078087009E006484078087005E0044861
:1027F0008078087001E00020E9E700BF0120E6E7EB
:10280000A800002010B5A2B0002010494881C8607F
:1028100008614861087148700120087008764876A0
:1028200001F0AEFC09490879FFF704FC044600906A
:102830000648037806A2802102A8FDF705FD02A83C
:1028400002F009FB012022B010BD0000640300204B
:10285000646961672E7265696E69743D534F4654B1
:102860005F444941475F5245534554207374617436
:10287000653D2575206661756C743D25730D0A00F4
:102880003EB50BA103C9CDE9000100240DE01DF800
:10289000040002A9FFF744FF28B11DF804009DEDD4
:1028A000020AFFF73FFE601C84B2072CEFDB3EBD3F
:1028B0004152534C484F44001CB50BA00068009097
:1028C00000240DE01DF8040001A9FFF77DFF28B1E9
:1028D0001DF804009DF80410FFF774FE601C84B21C
:1028E000032CEFDB1CBD00004D534F0000BF03481D
:1028F0004069401C0149486100BF704764030020E3
:10290000054AD2880243044BDA8019B91A46128963
:1029100002431A81704700006403002010B505A02F
:1029200002F099FA0BA002F096FA13A002F093FAC3
:1029300010BD0000646961672E636F6D6D616E6428
:102940005F6D616E616765723D52454144590D0A84
:1029500000000000646961672E70726F746F636FAE
:102960006C5F657865633D4E4F545F4558454355F0
:102970005445440D0A000000646961672E66616C6D
:102980006C6261636B3D4B4545505F4C4153545FF6
:1029900056414C49440D0A0000BF0448C068401C21
:1029A0000249C86000BF042008717047640300201A
:1029B00030B5A1B004460D465CB155B100201B49AD
:1029C000488108460078022801D00020087121B013
:1029D00030BD00BF15484069401C1449486100BF24
:1029E00008464089401C488114B90120087102E062
:1029F00002200E4908710D484089142813D30B4852
:102A0000007802280FD00220084908700846438940
:102A100007A2802101A8FDF717FC01AA0EA110A0B2
:102A2000FFF744FD00BF00BFD1E7000064030020B2
:102A300073656E736F7220696E76616C6964207461
:102A400068726573686F6C64207265616368656441
:102A50003A2025750000000073656E736F720000E8
:102A60004552520038B5044669462046FFF758FEE5
:102A700008B9002038BD9DED000A2046FFF752FD41
:102A80000120F7E738B5044669462046FFF79CFE6B
:102A900008B9002038BD9DF800102046FFF792FDD0
:102AA0000120F7E710B52DED028B0446B0EE408A09
:102AB0004C2C3DD006DC412C0BD0442C7DD0482C36
:102AC00073D14CE04F2C61D0522C13D0532C6CD1CD
:102AD0001FE09FED501ADFED500AB0EE480AFFF7F5
:102AE000B3FC18B90020BDEC028B10BD4B4880ED43
:102AF000008A89E09FED4A1ADFED4A0AB0EE480AE3
:102B0000FFF7A2FC08B90020EDE7444880ED018AF8
:102B10007AE09FED431ADFED440AB0EE480AFFF772
:102B200093FC08B90020DEE73C4880ED028A6BE0A8
:102B3000B7EE000AB4EEC08AF1EE10FA06D39FEDAC
:102B40003B0AB4EEC08AF1EE10FA01DD0020CAE7BC
:102B5000BCEEC80A10EE100A3049088254E0B7EE05
:102B6000000AB4EEC08AF1EE10FA06D39FED2F0AE8
:102B7000B4EEC08AF1EE10FA01DD0020B3E7BCEE3E
:102B8000C80A10EE100A254948823DE0B5EEC08A19
:102B9000F1EE10FA06D39FED260AB4EEC08AF1EEEC
:102BA00010FA03DD00209EE707E02BE0BCEEC80A28
:102BB00010EE100A1949888226E0B5EEC08AF1EEBF
:102BC00010FA06D3B7EE000AB4EEC08AF1EE10FA9E
:102BD00001DD002087E7BCEEC80A10EE100AC0B283
:102BE000012807D0BCEEC80A10EE100AC0B208B126
:102BF000002078E7BCEEC80A10EE100A074981F8F9
:102C00003C0001E000206EE700BF01200949087682
:102C100000BF68E70000C8420000C8C2800300206F
:102C20000000104200000000000010C200004843F5
:102C300000FF7F476403002002460B460BB10120D2
:102C400000E0002001464D2A04D04F2A08D0532A24
:102C500009D102E00648017007E00548417004E030
:102C60000348817001E00020704700BF0120FBE7AE
:102C7000A8000020002005E00021044A42F82010AE
:102C8000411CC8B20428F7DB70470000080100208F
:102C900010B502F03DF810BD014800687047000013
:102CA0000400002000B500200349088003490860A3
:102CB000FFF7E0FF00BD000000000020040000203E
:102CC00010B52748007820B9FFF7E2FF012024491A
:102CD000087002F055F8044622480088401C21493B
:102CE000088008460088002028B91F48006810B1F5
:102CF0001D49086880471B4800880A21B0FBF1F293
:102D000001FB120028B91848406810B116494868FC
:102D10008047144800880521B0FBF1F201FB120046
:102D200028B91148806810B10F49886880470D485C
:102D30000088B0F57A7F05D10B48C06810B10A4908
:102D4000C868804707480088B0F57A7F02D3002022
:102D50000449088002F014F8001B0449086010BD03
:102D600008000020000000200801002004000020CE
:102D7000042802DA014A42F82010704708010020B6
:102D800010B5FEF779FD10BD70470000F0B52DEDD0
:102D9000048B83B007460D461446B0EE408A1FB13F
:102DA00014B12088A84203DB03B0BDEC048BF0BD56
:102DB0002088281A0C2800D2F6E718EE100A06F030
:102DC00029FF41EC190B8DED009B2288A91AD0191F
:102DD00009A2FDF739FA0646002E00DAE4E7B0B2A0
:102DE0002188691A884202DB681E2080DCE720887F
:102DF0003044208000BFD7E720252E336600000036
:102E00000246114601B90121C82900D9C821C823A9
:102E100003EB5103B3FBF1F398B200B90120704703
:102E200000200749088007490880074908800749AA
:102E30000880012006490880064908807047000084
:102E4000AC000020AE000020B0000020B200002046
:102E5000B4000020B6000020024602B109B90020EB
:102E6000704792F8800010B192F8810008B90020F4
:102E7000F6E70120F4E70000F0B52DED028B95B0E8
:102E800005460F4600200090FFF72AF90646FFF797
:102E900003FF08EE100A05B11FB915B0BDEC028B97
:102EA000F0BDBDF80020C2F1500101AABDF800300C
:102EB000D018612340A2FDF7C7F90446002C06DBB9
:102EC000A0B2BDF80010C1F15001884200D3E4E780
:102ED000BDF80000204480B2009006F0010040B12F
:102EE000D5ED070AB0EE600A6A46502101A8FFF747
:102EF0004DFF06F0020040B1D5ED0F0AB0EE600ABA
:102F00006A46502101A8FFF741FF06F0040040B1D6
:102F1000D5ED170AB0EE600A6A46502101A8FFF706
:102F200035FF06F0080040B1D5ED1F0AB0EE600A8B
:102F30006A46502101A8FFF729FF06F0100040B1B2
:102F4000D7ED0B0AB0EE600A6A46502101A8FFF7E0
:102F50001DFF06F0200070B1B8EE480ADFED170A39
:102F600080EE201AF0EE418AB0EE680A6A465021DF
:102F700001A8FFF70BFFBDF80000801D502819D2F3
:102F8000BDF80020C2F1500101AABDF80030D018F0
:102F900062230BA2FDF758F90446002C06DBA0B211
:102FA000BDF80010C1F15001884200D375E701A8B7
:102FB00001F051FF00BF70E7256300000000F04200
:102FC000202563200000000070B52DED028B9AB023
:102FD000044634B949A001F03EFF1AB0BDEC028BA3
:102FE00070BD94F88000002839D094ED070A10EEE7
:102FF000101A084606F00EFE41EC180B8DED008B02
:1030000045A2602102A8FDF71FF902A801F023FFE5
:1030100094ED0F0A10EE101A084606F0FBFD41EC85
:10302000180B8DED008B47A2602102A8FDF70CF96B
:1030300002A801F010FF94ED170A10EE101A0846CE
:1030400006F0E8FD41EC180B8DED008B48A26021E5
:1030500002A8FDF7F9F802A801F0FDFE02E04FA07A
:1030600001F0F9FE94F88100002826D094ED180AAA
:1030700010EE101A084606F0CDFD41EC180B8DED50
:10308000008B50A2602102A8FDF7DEF802A801F033
:10309000E2FE94ED1F0A10EE101A084606F0BAFD83
:1030A00041EC180B8DED008B51A2602102A8FDF7B9
:1030B000CBF802A801F0CFFE02E059A001F0CBFE50
:1030C000FFF7EAFD054600EE105AB8EE400ADFEDC4
:1030D0005E0A80EE201A11EE106A304606F09AFD64
:1030E00041EC180B8DED008B58A2602102A8FDF772
:1030F000ABF802A801F0AFFE00BF6EE7666565643D
:103100006261636B2E7374617475733D696E766171
:103110006C69640D0A0000006D6561737572656D00
:10312000656E742E70686173655F63757272656E2B
:10313000745F615F616D706572653D252E33660D4C
:103140000A0000006D6561737572656D656E742EA1
:1031500070686173655F63757272656E745F625FDC
:10316000616D706572653D252E33660D0A000000A5
:103170006D6561737572656D656E742E70686173CF
:10318000655F63757272656E745F635F616D7065B4
:1031900072653D252E33660D0A0000006D65617372
:1031A0007572656D656E742E63757272656E742EC0
:1031B0007374617475733D696E76616C69640D0A30
:1031C000000000006D6561737572656D656E742E2B
:1031D000656E636F6465725F616E676C655F726177
:1031E000775F7261643D252E33660D0A0000000092
:1031F0006D6561737572656D656E742E656E636F56
:103200006465725F616E676C655F66696C74657238
:1032100065645F7261643D252E33660D0A0000000F
:103220006D6561737572656D656E742E656E636F25
:103230006465722E7374617475733D696E76616C2A
:1032400069640D0A000000000000F042636F6E74B4
:10325000726F6C2E657865637574696F6E5F7469E3
:103260006D655F75733D252E33660D0A0D0A0000EE
:103270002DE9F04106460F46FEF7BEFF054625B193
:103280002878022801D1BDE8F081FFF709F9F8B1EB
:10329000FEF7B6FF044624480088844206D0224840
:1032A00004802046FFF7ACFD2049088020480088B4
:1032B000401C1F490880084600881C49098888422C
:1032C00005DB00201A4908803046FFF77DFE00BF6D
:1032D000FFF7E0F828B339463046FFF7BDFDF8B1F7
:1032E000FEF704FF044613480088844206D01148C4
:1032F00004802046FFF784FD0F4908800F480088AE
:10330000401C0E490880084600880B4909888842FD
:1033100006DB00200949088039463046FFF7ACFD3E
:1033200000BF00BFAFE70000B0000020B4000020E5
:10333000AC000020B2000020B6000020AE0000204B
:1033400010B52DED088B0446F0EE409AB0EE60AA61
:10335000F0EE418A24B99FED560ABDEC088B10BDF2
:10336000B0EE680A01F0B2FBF0EE408A39EECA8A8C
:10337000B0EEC80A4F48D0ED020AB4EEE00AF1EE12
:1033800010FA0AD89FED4A0A84ED030A9FED480A15
:1033900084ED040A9FED460ADFE794ED030A08EE88
:1033A000280A84ED030A4348D0ED011AB0EE611AF1
:1033B000D0ED011AF1EE611AF0EE610AD4ED031AB4
:1033C000B0EE610A02F0B6F984ED030A94ED040A46
:1033D00038EE400A80EE289A94ED010AD4ED030AF3
:1033E00020EE200AD4ED000A00EE880AD4ED020A8D
:1033F00000EE890AF0EE40AA94ED060AB0EE401AFB
:1034000094ED050AF0EE400AB0EE6A0A02F092F975
:10341000F0EE40AA94ED010ADFED270AB4EEE00ACF
:10342000F1EE10FA3FDD94ED050AD4ED000A00EE4E
:10343000C80AD4ED020A00EEC90AD4ED010A80EEF2
:10344000201AB0EE41BA94ED060AD4ED000A00EE5F
:10345000C80AD4ED020A00EEC90AD4ED010A80EED2
:10346000201AF0EE41BAD4ED030AB0EE600AB0EED5
:103470006B1AF0EE4B0A02F05DF984ED030A0D4879
:10348000D0ED011AB0EE611AD0ED011AF1EE611A19
:10349000F0EE610AD4ED031AB0EE610A02F04AF9C7
:1034A00084ED030A00BF84ED048AB0EE6A0A54E793
:1034B0000000000038000020BD37863510B52DED26
:1034C000028BFEF79FFD384880ED000AFEF794FD61
:1034D000354880ED010AFEF789FD334880ED020A88
:1034E000FEF772FD314880ED000AFEF767FD2F48B8
:1034F00080ED010AFEF75CFD2C4880ED020AFEF724
:103500009DFE2B4880ED000AFEF792FE284880EDD4
:10351000010AFEF787FE264880ED020A254890ED55
:10352000080AB1EE400A204880ED050A214890EDD6
:10353000080A1D4880ED060A1E4890ED080AB1EE03
:10354000400A1A4880ED050A1A4890ED080A174803
:1035500080ED060A174890ED080AB1EE400A1448BB
:1035600080ED050A134890ED080A114880ED060A1F
:10357000FEF75AFD044600F04DFFFEF74FFDB0EE9A
:10358000408A00F01FFFFEF743FDB0EE408A00F0D6
:10359000F9FEFEF753FF044600F036FF00F0BAFED6
:1035A000BDEC028B10BD0000FC01002018020020C1
:1035B000340200201801002010B5044600F038FB4A
:1035C00000F0A8FEDFED050A9FED040A044801F0B3
:1035D0008DFA0CB1FFF78AF910BD00000000000061
:1035E0001801002000B52DED048BA5B001F0E6FB1D
:1035F00001F0A2FB0121084601F008FC0121022094
:1036000001F004FC0121032001F000FC01F078FB33
:10361000FFF748FB824801F0F3FB82490120FFF7E6
:10362000A7FB81490020FFF7A3FB80490220FFF799
:103630009FFB01F03DFBFEF743FE01210420FFF755
:103640005FF901210846FFF75BF979A001F003FC5F
:103650007FA001F000FC87A001F0FDFB90A001F02D
:10366000FAFB9EA001F0F7FBA9A001F0F4FBB1A0CA
:1036700001F0F1FBB8A001F0EEFBC0A001F0EBFB04
:1036800001210220FFF73CF9FFF7CAFB01210820C6
:10369000FFF736F99FEDC10A182003F045F903F052
:1036A00015FABF4803F032F978B1BD4890F88000B0
:1036B00028B1BB4890F8810008B1012000E000204B
:1036C00001461020FFF71CF903E000211020FFF74E
:1036D00017F90221182002F01FFEB24801F09EFBEC
:1036E00001212020FFF70CF90022FFEE001A07212C
:1036F0009FEDAD1ADFEDAD0AB2EE080AAC4801F05D
:1037000065F901214020FFF7FBF8FEF76FFCB0EEF2
:10371000408AFEF771FCF0EE408AFEF773FCB0EED3
:10372000409AA34890ED080AB0EE402A90ED080AAE
:10373000B1EE400AF0EE401AB0EE481AF0EE680A18
:10374000B0EE490A9B4801F019FAFEF731FCB0EEE1
:10375000408AFEF733FCF0EE408AFEF735FCB0EE0F
:10376000409A934890ED080AB0EE402A90ED080A7E
:10377000B1EE400AF0EE401AB0EE481AF0EE680AD8
:10378000B0EE490A8C4801F0F9F9FEF74BFDB0EEB6
:10379000408AFEF74DFDF0EE408AFEF74FFDB0EE99
:1037A000409A834890ED080AB0EE402A90ED080A4E
:1037B000B1EE400AF0EE401AB0EE481AF0EE680A98
:1037C000B0EE490A7D4801F0D9F9794890ED020A36
:1037D00010EE101A084606F01DFA41EC180B74485A
:1037E0000079734991F90C10CDE902108DED008B31
:1037F00073A2802105A8FCF727FD05A801F02BFB8B
:10380000FEF74CFBFEF7ECFB7D49087001207D497B
:10381000087000F031FA25B0BDEC048B00BD00004B
:10382000C12C0008596D0008CD580008C158000887
:103830000D0A3D3D3D20464F432053797374656D1D
:103840002053746172746564203D3D3D0D0A000093
:103850005553415254312074656C656D65747279AD
:10386000206368616E6E656C20656E61626C656474
:103870000D0A000050574D20757064617465204931
:10388000535220696E746572706F6C6174696F6EEB
:10389000207061746820656E61626C65640D0A0059
:1038A00050574D206272696467652072756E6E694B
:1038B0006E6720696E2063656E7465722D616C6938
:1038C000676E656420636F6D706C656D656E7461A5
:1038D0007279206D6F64650D0A000000436F6E748D
:1038E000726F6C207363686564756C6572207275A5
:1038F0006E6E696E6720617420636F6E66696775AE
:10390000726564207469636B20726174650D0A00CE
:103910004D61676E6574696320656E636F6465727F
:1039200020666565646261636B20656E61626C65CB
:10393000640D0A0043757272656E742073616D7058
:103940006C696E6720706970656C696E6520656E64
:1039500061626C65640D0A00436F6E74726F6C2057
:1039600064656275672074656C656D657472792035
:10397000656E61626C65640D0A000000496E6974D1
:1039800020666565646261636B20706970656C694F
:103990006E652E2E2E0D0A0D0A0000000000C0429A
:1039A00078010020713A000833335341666636418E
:1039B00018010020FC010020180200203402002021
:1039C0006D656368207A65726F20617420656C652F
:1039D00063303A20252E3466207261642C2064699D
:1039E00072656374696F6E3A202564202C706F6C69
:1039F000652070616972733A2025640D0A00000029
:103A00001E0000201900002010B52DED028B064885
:103A100090ED040AB0EE408AB0EE480A01F014FAC4
:103A20000020BDEC028B10BD1801002010B502F083
:103A300011FA08B100F05EF80948007820B10020C2
:103A40000749087000F018F90648007830B10020E6
:103A50000449087004490548FFF70AFC10BD00003E
:103A60000C0000200D00002018010020780100202B
:103A700070B52DED028B002502F070FC1648007821
:103A800010B9BDEC028B70BD042414480078401CB2
:103A90001249087008460078A04200DAF1E70020D9
:103AA0000E4908700E4890ED000A0E4880ED090A94
:103AB00000EE104AB8EE400ADFED0B0A80EE208AD5
:103AC000F0EE480A094890ED000A2A4608490548E0
:103AD00000F0AEFC00BFD4E70E0000200F00002075
:103AE00010000020180100200080BB4614000020B8
:103AF000FC01002010B5002411E002F097FA02F05A
:103B00005DF9022801D1FEF747FFFEF79DFDFEF7A4
:103B100073FB407E08B100F0A9F8601CC4B202F04B
:103B200099F908B1002CE8D010BD000070B52DED5A
:103B3000028B0546FEF754FA044631480078844269
:103B400026D034B9D5ED1F0AB0EE600A2D4800F03A
:103B5000D5FB9FED2D0A2D4880ED030A9FED2A0A23
:103B600080ED040A9FED280A294880ED030A9FEDA5
:103B7000260A80ED040A9FED240A264880ED030AF8
:103B80009FED210A80ED040A00F0F8FB1C48047048
:103B9000012C0BD1FEF740FBB0EE408ADFED1E0A90
:103BA0002A461C49174801F0C7FA18E094B9FEF7F5
:103BB00011FAB0EE408AFEF77DFBF0EE408A9FEDF1
:103BC000161A2B46F0EE480A114A12490D4801F028
:103BD000DDF904E000F02CF8BDEC028B70BD094863
:103BE00090ED090A0D4880ED000A064890ED050A9F
:103BF0000B4880ED000A01200A49087000BFEBE77E
:103C00001E0000201801002000000000FC01002020
:103C100018020020340200206F12833A10000020A6
:103C2000140000200E00002010B501F009F910BDAD
:103C30000020084908709FED080A084880ED000A36
:103C4000074890ED050A074880ED000A0020064964
:103C5000087070470E0000200000000010000020D7
:103C600018010020140000200F0000200A20014944
:103C7000088070471C00002070B500250026FEF764
:103C8000BBFA04462948007838B9012501202849A3
:103C900008700020274908802DE054B120780228C0
:103CA00007D10025012600202149087021490880FC
:103CB00021E0D4B12078012817D11E48008863285C
:103CC0000BD300201B4908801948007808B901204F
:103CD00000E000201649087004E016480088401CE7
:103CE000144908801248057805E000250020104995
:103CF0000870104908802946012001F087F83146F4
:103D0000032001F083F80C48008848B1012102200B
:103D100001F07CF808480088401E0749088003E04D
:103D20000021022001F072F870BD0000190000208F
:103D3000180000201A0000201C00002070B5044666
:103D40000D4616460CB105B106B970BD1D48007888
:103D500090B994ED000A1C4880ED000A95ED000A28
:103D60001A4880ED000A96ED000A194880ED000A15
:103D7000012014490870E8E7D4ED000AB0EE600AAB
:103D80001049DFED140A104801F0EAFC84ED000A46
:103D9000D5ED000AB0EE600A0A49DFED0E0A0B48C5
:103DA00001F0DEFC85ED000AD6ED000AB0EE600AF7
:103DB0000449DFED080A064801F0D2FC86ED000A4E
:103DC00000BFC2E7290000202C00002030000020A6
:103DD00034000020CDCC4C3EF0B52DED048B83B0EB
:103DE00004461CB903B0BDEC048BF0BD94ED020A8F
:103DF000FFEE000AB4EE600AF1EE10FA01D10120E4
:103E000000E000200746207B08B9012000E00020E8
:103E10000546207908B9012000E00020064617B9C0
:103E20000DB906B9DEE7D4ED068A94ED079A94ED54
:103E3000080ADFED300A20EE200AB0EE408A94ED49
:103E4000080AB0EE401ADFED2C0AB0EE480A01F085
:103E500071FCB0EE408A9FED280A84ED070A84EDDC
:103E6000068A01AA02A9204600F09CFB40B115B1C8
:103E70009DF9080020734EB19DF80400207105E003
:103E80000DB1012020730EB1012020713FB36B46AC
:103E900018223C219FED180A204601F00DF878B158
:103EA0009DED000A84ED020A9DED000A84ED0B0AE7
:103EB0009DED000A84ED0C0A012084F834000EE028
:103EC0009FED0D0A84ED020A9FED0B0A84ED0B0AAB
:103ED0009FED090A84ED0C0A012084F83400C4ED3A
:103EE000068A84ED079A9FED040A204600F0B0F898
:103EF00000BF77E7CDCC4C3F000000000146012910
:103F000001DA01207047202901DD2020FAE7C8B23C
:103F1000F8E7000070B52DED0A8BB0EE40CAF0EE68
:103F200060AA4648007830B14448407818B1434808
:103F30008088022804D29FED420ABDEC0A8B70BD36
:103F4000B0EE4C0A01F078FCB0EE408A3B48808825
:103F500000EE100AF8EE400A9FED3A1A80EE810A50
:103F600060EE088ABCEEE80A10EE100A84B233480C
:103F70008088A04203DC31488088401E84B22F48EC
:103F80008188601CB0FBF1F201FB120085B200EEEB
:103F9000104AB8EE400A38EEC0BA2B4830F9140087
:103FA00000EE100AB8EEC00A2448D0ED020A20EE56
:103FB000209A254830F9150000EE100AB8EEC00A24
:103FC0001E48D0ED020A60EE20BA3BEEC90AF0EEC0
:103FD000499A40EE0B9AB0EEEAAA90ED030ADFEDA3
:103FE0001B0AB4EEE00AF1EE10FA16DD90ED030ABA
:103FF000B4EECA0AF1EE10FA02D89FED110A9CE75E
:104000000E4890ED030ACAEE000AB7EE000A30EE41
:10401000600A20EE290AF0EE409A084890ED040A62
:10402000B0EE401A90ED040AB1EE400AF0EE400AFC
:10403000B0EE690A01F07EFB7FE700005C00002023
:1040400000000000DA0FC94050020020BD3786355D
:1040500010B52DED068B0446B0EE409AB0EE490A3D
:1040600001F0EAFBB0EE409A84ED059AD4ED040A23
:10407000B0EE601AD4ED080AB0EE600ADFED3E0A39
:1040800001F058FBF0EE408AD4ED060A60EEA00A7B
:1040900094ED071AD4ED071A41EE210AB0EE600A3A
:1040A00003F0CBFFB0EE408A94ED060AB0EE40AAD2
:1040B00094ED070AF0EE40AAB4EEE88AF1EE10FAA9
:1040C00015DD9FED2E0AB4EEC08AF1EE10FA0EDD7A
:1040D000C8EE880AB0EE600A6AEE000AB0EE60AA86
:1040E0006AEE800AF0EE60AAB0EE688A00BF04F1C2
:1040F0004001081FB0EE491AF0EE6A0AB0EE4A0A13
:1041000001F074FB94ED101AF0EE410A94ED0F1AD1
:10411000B0EE410A04F14C02111F081F01F04CFBE4
:1041200004F14C02111F081FFFF708FEB0EE681AD9
:10413000DFED110AB0EE480A01F0FCFAF0EE409A09
:10414000D4ED041AB0EE612AD4ED131AB0EE611A60
:10415000D4ED121AF0EE610AD4ED111AB0EE610A34
:1041600004F158031A1F111F181DF0EE691A02F00E
:1041700087F9BDEC068B10BD00000000BD37863509
:104180009FED260A264981ED000A9FED260A81ED62
:10419000010A9FED250A81ED020A9FED240A81EDB7
:1041A000030AB7EE000A81ED040A0121204A1170CA
:1041B0000221517091701146497811B99FED1D0A85
:1041C00001E0B7EE000A1A4981ED010AB5EE000AD6
:1041D00081ED020A9FED180A81ED030A0121174AB9
:1041E0001170002151709170402191809FED140A4F
:1041F000114681ED020AB2EE000A81ED030A9FED3D
:10420000110A81ED040A002005E000210E4A22F87F
:104210001010411C88B24028F7DB70476F12833AB8
:1042200038000020CDCC4C3E0AD7A33B9A99193FC9
:104230004C00002000000000CDCC4C3F5C00002072
:104240000AD7233C3333B33E500200200048704766
:104250004C00002010B52DED048B0446B0EE409AC2
:1042600024B99FED240ABDEC048B10BD207940B128
:1042700094ED020AFFEE000AB4EE600AF1EE10FAC5
:1042800002D194ED050AEEE7207900EE100AB8EEAF
:10429000400ADFED190AC0EE808AD4ED020A79EEF9
:1042A000600AB0EE600A01F0E5FAF0EE409AF0EE36
:1042B000680A03F065FDB0EE408AB5EEC08AF1EE03
:1042C00010FA03D238EE280AB0EE408A94F90C00B6
:1042D00000EE900AF8EEE00A20EE881A207900EE4F
:1042E000900AF8EE600A61EE200AB0EE600A01F072
:1042F000A3FAB8E700000000DA0FC94000B9704720
:1043000080ED0B0A80ED0C0A012180F8341000BF0B
:10431000F5E700001748407840B90020154988703B
:104320009FED150A084680ED010A21E0114840780A
:10433000012807D10F498870B7EE000A084680EDC2
:10434000010A15E00B48807830B10A4880780128CE
:1043500002D001200749887006488078012802D1E0
:10436000B7EE000A01E09FED040A024880ED010A61
:10437000704700004C0000200000000010B500F065
:1043800085FD10BDB5EEC00AF1EE10FA02D29FED28
:104390000B1A01E0B0EE401AF0EE410A084890ED29
:1043A000021AB4EEE01AF1EE10FA03DD90ED021AF3
:1043B000F0EE410A0248C0ED030A70470000000019
:1043C0004C000020B5EEC00AF1EE10FA02D29FEDCB
:1043D0000C1A01E0B0EE401AF0EE410A0948C0EDB7
:1043E000020A90ED031AD0ED021AB4EEE11AF1EED2
:1043F00010FA03D290ED021A80ED031A7047000004
:10440000000000004C0000200021014A117070479C
:104410004C00002020B1012802D0022800D0012049
:1044200002494870022800D0887070474C00002074
:1044300070B52DED028B04460D461646F0EE408A0F
:10444000B0EE608A14B9BDEC028B70BDB0EE680AA4
:1044500001F0F2F984ED050AB0EE480A00F036FBEF
:10446000B0EE408AD4ED090AB0EE600ADFED060A2C
:10447000204600F00BF8D4ED050AB0EE600A2046A5
:10448000FFF7E6FD00BFDEE70000000010B52DEDF0
:10449000028B84B00446B0EE408AF0EE608A9FED55
:1044A000140A8DED030A9FED120A8DED020A9FEDAD
:1044B000100A8DED010A1CB904B0BDEC028B10BDD1
:1044C00001AB02AA03A9F0EE680AB0EE480A204642
:1044D00000F010F89DED020A84ED070A9DED030A35
:1044E00084ED060A9DED010A84ED0A0A00BFE3E7A8
:1044F000000000002DE9F0412DED088B0446B0EEE0
:1045000040BAF0EE60AA0D4616461F4614B10DB132
:1045100006B11FB9BDEC088BBDE8F081D4ED040AEB
:10452000B0EE601AD4ED080AB0EE600ADFED1B0AA7
:1045300001F000F9B0EE409A94ED000AB0EEC08AA6
:104540009FED170AB4EEC08AF1EE10FA03D29FED88
:10455000140AB0EE408AC9EE088AB0EE681AF1EE8D
:10456000680AB0EE4B0A01F0E5F8F0EE409AB0EEC2
:10457000681AF1EE680AB0EE6A0A01F0DBF8B0EEF4
:1045800040AA29EE880A86ED000A2AEE080A85ED7F
:10459000000AC7ED009A00BFBCE700000000000061
:1045A000BD3786352DE9F0472DED088B82B00746E3
:1045B0000D4616469FED5C0AF0EE40AA9FED5A0AA2
:1045C000B0EE40BA9FED580AB0EE408A9FED560A11
:1045D000B0EE409A4FF000094FF014089FED530AD7
:1045E000F0EE409A0FB105B12EB9002002B0BDEC3B
:1045F000088BBDE8F087002445E000EE104AB8EED5
:10460000400A29EE800AF0EE408A01AB062208211A
:10461000B0EE680A384600F04FFC00B931E0B9F15D
:10462000000F08D19DED010AF0EE40AAB0EE68BA85
:104630004FF0010925E0DDED010A70EEEA0AB0EE67
:10464000600A01F017F9B0EE40AA38EECB0AF0EE9E
:1046500040BAB0EECA0ADFED360AB4EEE00AF1EE77
:1046600010FA07DB38EE0A0AB0EE408A39EE2B0A60
:10467000B0EE409A9DED010AF0EE40AAB0EE68BAA5
:1046800000BF601C84B24445B7DDB0EEC80ADFED60
:10469000280AB4EEE00AF1EE10FA08D3B0EEC90A27
:1046A000DFED240AB4EEE00AF1EE10FA01D20020A8
:1046B0009CE7B5EEC08AF1EE10FA01DB012001E0C3
:1046C0004FF0FF30287089EE080AB0EEC00AF6EE0F
:1046D000000A30EE200ABDEEC00A10EE10AA5046C5
:1046E000FFF70CFC30709FED100A3846FFF7B0FC66
:1046F000082000F0AAFB444611E000EE104AB8EE94
:10470000400A29EE800AF0EE408A01AB0622082119
:10471000B0EE680A384600F0CFFB601E84B2002C71
:10472000EBD1012062E70000000000007BD9A03E31
:10473000A69BC43ABD37863510B52DED088BB0EE7B
:10474000408AF0EE608A9FED3E0AF4EEC08AF1EEF8
:1047500010FA19DD9FED3B0AF4EEC08AF1EE10FA73
:1047600012D29FED370AB4EEC08AF1EE10FA0BDDDB
:104770009FED340AB4EEC08AF1EE10FA04D29FED38
:10478000320ABDEC088B10BDF5EEC08AF1EE10FACE
:1047900002DBB0EE680A01E0B1EE680AF0EE409A82
:1047A000B5EEC08AF1EE10FA02DBB0EE480A01E085
:1047B000B1EE480AB0EE40AADFED24AAF4EECA9AA0
:1047C000F1EE10FA0EDB9FED1F0A39EE800ACAEEF9
:1047D000000AB0EE60BAB0EE4B0A00F03BF8B0EE63
:1047E000409A0DE09FED170A3AEE000AC9EE800AE2
:1047F000B0EE60BAB0EE4B0A00F02CF83AEEC09A78
:10480000F5EEC08AF1EE10FA0ADBB5EEC08AF1EEE1
:1048100010FA02DBB0EE490AB3E7B1EE490AB0E79D
:10482000B5EEC08AF1EE10FA04DB9FED090A30EE16
:10483000490AA6E79FED060A39EE400AA1E7000003
:10484000BD3786B5BD37863500000000DA0FC93F99
:10485000DA0F494010B52DED028BB0EE408ADFED46
:104860000F0AB6EE000A08EE200ABDEEC00A10EEEE
:10487000104A4FF47A71204600F016F804460848B2
:1048800030F8140000EE100AB8EE400ADFED050A19
:1048900020EE200ABDEC028B10BD000000007A441F
:1048A0004AAA00086F12833A0246002A01DA002061
:1048B00070478A4201D90846FAE790B2F8E700004B
:1048C00070B52DED068BB0EE409A9FED3B0AF0EEF1
:1048D000409AB0EE490A05E0DFED380A70EE600A52
:1048E000B0EE600ADFED350AB4EEE00AF1EE10FA40
:1048F000F2DA05E0DFED310A70EE200AB0EE600A70
:10490000B5EEC00AF1EE10FAF4D3F0EE408A88EE6C
:10491000A90ABCEEC00A10EE100AC4B2032C00D9DA
:10492000032400EE104AB8EE400AB0EE68AA00EE8A
:1049300069AADFED230AB6EE000A0AEE200ABDEEF0
:10494000C00A10EE100A40F22361FFF7ADFF0546E2
:1049500040F22360401B86B23CB91A4830F815007B
:1049600000EE100AB8EE408A1EE0012C07D115486F
:1049700030F8160000EE100AB8EE408A14E0022C5F
:1049800009D1104830F8150000EE100AB8EE400AC0
:10499000B1EE408A08E00B4830F8160000EE100A2D
:1049A000B8EE400AB1EE408ADFED070A88EE200A31
:1049B000BDEC068B70BD0000DA0FC93FDA0FC940AD
:1049C00000007A44029E000800FEFF4670B52DEDFF
:1049D000048B0446B0EE408AB0EE609AF0EE419A45
:1049E0000D46F0EE618A164614B9BDEC048B70BD1D
:1049F000B5EEC08AF1EE10FA03D29FED330AB0EEA5
:104A0000408AB0EE481ADFED300AB0EE490A00F0F5
:104A100091FEB0EE409A9FED2C0A84ED050A9FEDC1
:104A20002A0A84ED060A9FED280A84ED070A84ED20
:104A3000089A84ED048A9FED240A84ED090A9FED0B
:104A4000220A84ED0A0A9FED200A84ED0B0A9FEDED
:104A50001E0A84ED0C0A002084F83400C4ED009A8C
:104A60002571C4ED028AC4ED0B8AC4ED0C8A0120C5
:104A700084F8340026739FED140A84ED0F0A9FED2D
:104A8000120A84ED100A9FED100A84ED110A9FEDC1
:104A90000E0A84ED120A9FED0C0A84ED130A9FEDB5
:104AA0000A0A84ED140A9FED080A84ED150A9FEDA9
:104AB000060A84ED160A002084F85C002046FFF701
:104AC0008BF900BF91E7000000000000F0EE400A03
:104AD000F5EEC00AF1EE10FA02DDB0EE600A7047A2
:104AE0009FED010AFBE700006F12833A10B52DED30
:104AF000028B0446F0EE408AB0EE608ADFED1C0ABD
:104B000028EE201A207900EE900AF8EE600A61EE95
:104B1000200A9FED181A20EE811A94F90C0000EE7D
:104B2000900AF8EEE01AD4ED050A41EE210AB0EE43
:104B3000600A00F081FE84ED050A9FED0F0A84ED06
:104B4000060A94ED080AB0EE401ADFED0B0AB0EE4B
:104B5000680A00F0EFFD84ED070AD4ED050AB0EE17
:104B6000600A2046FFF774FABDEC028B10BD00000E
:104B7000DA0FC9406F12833A0000000000B9704795
:104B800080ED000AC0ED010A80ED021ADFED062A71
:104B9000C0ED032ADFED042AC0ED042AC0ED051A9A
:104BA00080ED062A00BFEAE70000000010B52DEDF9
:104BB000088B0446F0EE409AB0EE60AAF0EE418A0F
:104BC00024B99FED390ABDEC088B10BDB0EE680A20
:104BD000FFF77CFFF0EE408A39EECA8A94ED030AB3
:104BE00008EE280A84ED030A94ED040A38EE400A20
:104BF00080EE289A94ED010AD4ED030A20EE200AF3
:104C0000D4ED000A00EE880AD4ED020A00EE890A0B
:104C1000F0EE40AA94ED060AB0EE401A94ED050AB3
:104C2000F0EE400AB0EE6A0A00F084FDF0EE40AA11
:104C300094ED010ADFED1D0AB4EEE00AF1EE10FA80
:104C40002CDD94ED050AD4ED000A00EEC80AD4ED7F
:104C5000020A00EEC90AD4ED010A80EE201AB0EE75
:104C600041BA94ED060AD4ED000A00EEC80AD4ED6C
:104C7000020A00EEC90AD4ED010A80EE201AF0EE15
:104C800041BAD4ED030AB0EE600AB0EE6B1AF0EE52
:104C90004B0A00F04FFD84ED030A00BF84ED048A47
:104CA000B0EE6A0A8FE7000000000000BD378635CD
:104CB00010B502F005FC02F0DFFD10BD10B502F0EA
:104CC00055FC10BD70B504460D462946204602F03D
:104CD00053FC70BD10B502F027FE10BD70B5044640
:104CE0000D462946204602F025FE70BD0020704783
:104CF000024600207047002070470246002070479F
:104D000010B542F6DF61092002F024F910BD000061
:104D10000748006840F08070054908600020054998
:104D200048600846006840F00100086070470000D5
:104D3000FCED00E0001000E010B500F0CDFC10BD6F
:104D400070B504460D462946204600F0B3FE70BDFE
:104D500010B52DED048BB0EE408AF0EE608AB0EE17
:104D6000419AB0EE491AF0EE680AB0EE480A00F037
:104D70001FFFBDEC048B10BD10B500F053FF10BD3C
:104D80000148406870470000001000E010B504467C
:104D90002046FCF768FF10BD70B504460D4618228A
:104DA00029462046FCF7CCFE70BD70B504460D4682
:104DB000062229462046FCF7C3FE70BD10B504F05C
:104DC000D7F910BD70B5044604EB840040000B49D0
:104DD000B1FBF0F0451EFCF725FF6900092002F049
:104DE0002FF902F061F92946092002F069F902F071
:104DF000F7F9FCF73DFEFCF7B1FE70BDC0D4010031
:104E000010B50446204602F0F1F810BD70B5044616
:104E10000D462946204600F081FC70BD10B50446C1
:104E2000204600F0F9FE10BD10B52DED028BB0EE5E
:104E3000408AB0EE480A02F0A5F9BDEC028B10BD25
:104E400010B502F0D9F810BD704710B504462046E1
:104E500003F07EFB10BD10B50446204602F0DEFBD9
:104E600010BD10B50446204602F0AEFB10BD000098
:104E700000B970479FED040A80ED030A9FED020A16
:104E800080ED040A00BFF4E7000000009FED060A71
:104E9000064880ED000A9FED040A054880ED000AEF
:104EA0000020044908707047000000002000002026
:104EB00024000020280000202DE9F0412DED048B76
:104EC00082B00746B0EE409A884614461D469FEDD4
:104ED0002D0AB0EE408A9FED2B0AF0EE408A0FB10A
:104EE00005B12CB9002002B0BDEC048BBDE8F08107
:104EF000B0EE490A3846FFF7ABF84046FFF7A5FF8A
:104F000000261AE001A8FFF741FF00B913E09DED6C
:104F1000010A02F08DFF30EE080AB0EE408A9DEDE6
:104F2000010A02F085FE30EE280AF0EE408A0420E5
:104F3000FFF78BFF00BF701C86B2A642E2DBB0EE2B
:104F4000C80ADFED110AB4EEE00AF1EE10FA0AD257
:104F5000B0EEE80ADFED0C0AB4EEE00AF1EE10FA6A
:104F600001D20020BFE7F0EE680AB0EE480A02F076
:104F700037FDF0EE409A00F05FFC85ED000A01205D
:104F8000B1E7000000000000BD3786352DE9F04193
:104F90002DED0C8B04460E461746F0EE409AB0EE0F
:104FA00060AA1D46B0EE41CA14B10EB107B11DB9D9
:104FB000BDEC0C8BBDE8F081B0EE4C0AFFF786FD2E
:104FC000B0EE40CA94F90C0000EE100AB8EEC00A28
:104FD00020EE290AF0EE409AD5ED1F0AB0EE600AE5
:104FE000204600F0F3F894F90C0000EE100AB8EE39
:104FF000C00AD4ED0B0A60EE20AA39EEEABAB0EE90
:10500000CB9A494890ED040AD0ED030A70EE60BADD
:105010009FED460AF4EEC0BAF1EE10FA03D29FED0E
:10502000430AF0EE40BA404890ED030AB4EEC90AD4
:10503000F1EE10FA02DB9FED3E8A11E03A4890ED66
:10504000040AB4EEC90AF1EE10FA02D8B7EE008AEB
:1050500006E0354890ED030A39EE400A80EE2B8ACF
:10506000B5EEC0BAF1EE10FA02DBB0EECA0A03E008
:10507000B0EECA0AB1EE400A20EE08DA9FED2D0A22
:10508000B4EEC08AF1EE10FA07D23046FFF7F0FE18
:10509000FFF7FCFEDFED268A17E0D5ED1F0AB0EE24
:1050A000600AB0EE4C1AF0EE4D0A204600F0C4F84B
:1050B000F0EE40DAB0EE4C1ADFED1D0AB0EE6D0AEC
:1050C0003046FFF773FDF0EE408AB0EE4C1AF0EE7A
:1050D0006A0AB0EE690A3846FEF732F9F0EE40CAC5
:1050E000B7EE000A30EE480A20EE2C0A08EE280A35
:1050F00084ED090AD5ED1F0AB0EE600AF0EE4D0A04
:10510000FEF708FFD4ED090A30EE200A84ED090A03
:10511000D5ED1F0AB0EE600A2046FFF79BF884ED3C
:10512000050A00BF44E7000038000020BD3786357F
:105130000000000017B7D13870B52DED048B044680
:105140000E46F0EE408A1546B0EE608A0CB106B10C
:1051500015B9BDEC048B70BDB0EE480AFFF7B6FC84
:10516000B0EE408AD5ED1F0AB0EE600AB0EE481AE4
:10517000F0EE680A204600F05FF8B0EE409AB0EE1C
:10518000481ADFED110AB0EE490A3046FFF70EFD6E
:1051900084ED090AD5ED1F0AB0EE600AF0EE680A48
:1051A000FEF7B8FED4ED090A30EE200A84ED090AB4
:1051B000D5ED1F0AB0EE600A2046FFF74BF884EDEC
:1051C000050A00BFC5E700000000000010B52DED86
:1051D000028B0446B0EE408A14B9BDEC028B10BDC0
:1051E00094F8340038B984ED0C8A84ED0B8A0120E0
:1051F00084F83400F1E7D4ED0C0A78EE600AB0EEE2
:10520000600A00F037FBF0EE408AB0EEE80A094889
:10521000D0ED000AB4EEE00AF1EE10FA05DB94EDF1
:105220000B0A30EE280A84ED0B0A84ED0C8A00BFCD
:10523000D3E700003800002010B52DED068B0446A2
:10524000B0EE409AF0EE609AF0EE418A24B99FEDFC
:10525000250ABDEC068B10BDB0EE680AFFF736FCE0
:10526000F0EE408A94F90C0000EE100AB8EEC00A85
:1052700020EE098A1C48007868B91C4880ED008A35
:105280009FED180A1A4880ED000A0120164908709F
:105290009FED140ADDE71548D0ED000A78EE600AAC
:1052A000B0EE600A00F0E6FAF0EE40AA0F4880ED9A
:1052B000008A29EEA8AA3AEE6A0A0D48D0ED000A43
:1052C00030EE200A80ED000A9FED0A1ADFED0A0A8F
:1052D00090ED000A00F02EFA054880ED000A90EDEE
:1052E000000AB6E70000000028000020240000208B
:1052F00020000020DA0FC941DA0FC9C100BFFEE764
:1053000008B5009002E00099491E0091009900291B
:10531000F9D108BD10B540F2157003F067FE1248D0
:1053200003F0C0FC4FF400410F4803F000FD0021E2
:105330000D4803F0FCFC0C4803F094FC00F0E8F886
:1053400000220A49084803F0E5FB00231A461946E3
:10535000054803F0DEFC044803F0A9FC4FF480612B
:10536000014803F0CFFB10BD00540040E09304005F
:1053700010B540F2036003F039FE402303221C21E4
:10538000044803F011FB802303221C21014803F091
:105390000BFB10BD000C014010B5FFF7E9FFFFF754
:1053A000B9FF10BD2DE9F0478046894617461E46D5
:1053B00016B90020BDE8F0870FB90120FAE700F028
:1053C00087F804460CB12046F4E76FF0010140462F
:1053D00000F062F804461CB100F08EF82046E9E7C0
:1053E00049462C4803F03AFC42F6E062012140F2C3
:1053F000075000F0D3F804461CB100F07DF82046B9
:10540000D8E700F065F804460CB12046D2E7012148
:10541000404600F041F804461CB100F06DF820460B
:10542000C8E700251FE0701EA84206D100211948D8
:1054300003F068FB174803F087FC42F6E0620121A5
:1054400040F2065000F0AAF8044634B14FF48061EF
:10545000104803F057FB2046ACE70E4803F0FAFB78
:105460007855681C85B2B542DDDB42F6E06000F09D
:10547000ADF8044634B14FF48061064803F042FBB6
:10548000204697E74FF48061024803F03BFB002081
:1054900090E700000054004070B504460D462A46CF
:1054A00021460A4803F02BFC42F6E062012140F25B
:1054B000015000F073F806460EB1304670BD40F260
:1054C0000151024803F0F8FB0020F7E700540040C8
:1054D00010B5084803F033FC42F6E06201214FF4B6
:1054E000A06000F05BF804460CB1204610BD00201F
:1054F000FCE700000054004010B5044803F024FC11
:1055000042F6E06000F062F810BD00000054004078
:1055100010B5C023032214211F4803F045FAC0210F
:105520001D4803F03FFA4FF41670FFF7E9FE002420
:1055300011E04021184803F033FA4FF41670FFF7DA
:10554000DFFE4021144803F02DFA4FF41670FFF7E8
:10555000D7FE601CC4B2092CEBDB80210E4803F09F
:105560001FFA4FF41670FFF7CBFE40210A4803F0F4
:1055700019FA4FF41670FFF7C3FE8021064803F0B6
:1055800011FA4FF41670FFF7BBFEC02303221C2153
:10559000014803F009FA10BD000C01402DE9F0416B
:1055A00004460D461646374606E027B9FFF7B2FE19
:1055B0000220BDE8F0817F1E2146034803F090FBE6
:1055C000A842F2D10020F4E70054004070B5044630
:1055D000254605E01DB9FFF79DFE022070BD6D1E3A
:1055E0000348006800F400700028F3D100BFF5E71D
:1055F00000540040C0ED001AC0ED011A9FED082ACA
:1056000080ED022AC0ED030A80ED040A80ED051A40
:105610009FED042A80ED062AC0ED071A70470000AE
:105620006666663F0000000080ED000A90ED031AF8
:10563000D0ED051A31EE211A80ED031A90ED031A10
:10564000D0ED041A31EE211AF0EE410A9FED201A36
:10565000F4EEC10AF1EE10FA12D280ED010AB7EEB3
:10566000001A80ED021A9FED1B1A80ED031A90EDCF
:10567000011AD0ED061A31EE611A80ED071A704753
:1056800090ED031AC1EE201AC0ED021A90ED011A36
:10569000D0ED021A90ED012A30EE422A01EE821A74
:1056A00080ED011A90ED021AF7EE001A31EEC11AE0
:1056B000D0ED031A21EE211A80ED031A90ED011AA4
:1056C000D0ED061A31EE611A80ED071A00BFD6E759
:1056D000BD3786350000000010B540F2036003F0CE
:1056E00085FC40F2036003F081FC40F2036003F0AC
:1056F0007DFC202303221021074803F055F91023D5
:1057000003221946044803F04FF90823032210210D
:10571000014803F049F910BD000C014070B5054681
:105720000C461CB1284601F01DFB02E0284600F0A3
:1057300063FD70BDF0EE401AF4EEE01AF1EE10FADF
:1057400002D2B0EE600A7047F4EEC11AF1EE10FA20
:1057500002DDB0EE410AF6E7B0EE610AF3E70000C1
:1057600000B5B0EE402AB0EE603A00B111B9B0EE2B
:10577000420A00BDB7EE001ADFED0E0AB0EE430A92
:10578000FFF7D8FFF0EE402A0A7832B980ED002A00
:1057900001220A70B0EE420AEBE790ED000AD0ED6C
:1057A000000A72EE600A02EEA00A80ED000A90ED97
:1057B000000ADEE70000000080ED000ABEEE001ADD
:1057C00020EE011ADFED081A01EEA01A81ED001A91
:1057D000BEEE001A20EE011ADFED031A01EEE01A08
:1057E00082ED001A70470000D7B35D3F70B52DED14
:1057F000068BB0EE408AF0EE608AB0EE419A044625
:105800000D46B0EE490A02F013FBF0EE409AB0EEFE
:10581000490A02F00DFAB0EE40AA28EE0A0A08EE94
:10582000E90A84ED000A28EE290A08EE8A0A85EDC5
:10583000000ABDEC068B70BD05E0DFED0D0A70EED1
:10584000600AB0EE600ADFED0A0AB4EEE00AF1EE9B
:1058500010FAF2DA05E0DFED060A70EE200AB0EE8B
:10586000600AB5EEC00AF1EE10FAF4D370470000FA
:10587000DA0FC94005E0DFED0E0A70EE600AB0EE07
:10588000600ADFED0C0AB4EEE00AF1EE10FAF2DC89
:1058900005E0DFED070A70EE200AB0EE600ADFEDEA
:1058A000060AB4EEE00AF1EE10FAF2D370470000F7
:1058B000DA0FC940DA0F4940DA0F49C000BFFEE7EE
:1058C00001200149087070470D00002010B52DED32
:1058D000028BFCF791FC044644B12078022805D1E4
:1058E0000120FDF769FEBDEC028B10BD01F0EEF862
:1058F000204801F00BF838B90020FDF75DFE0021CB
:105900000846FDF755F8EEE71A4A92F8811092F82A
:105910008000FDF74DF8174890F8800018B1154841
:1059200090F8810018B90120FDF746FEDBE73CB195
:10593000207E28B1FCF76AFCB0EE408A00F0DAFF66
:10594000FEF762F818B10120FDF736FECBE7FCF751
:105950009BFD18B90120FDF72FFEC4E72CB1207E76
:1059600018B1FDF7ABFDFCF7ABF90248FEF7DEF826
:1059700000BFB8E7780100207047000010B500288C
:1059800007DA0A07140E054A00F00F031B1FD45450
:1059900003E00A07130E024A135410BD18ED00E08D
:1059A00000E400E00346481C03FB00F26420B2FB65
:1059B000F0F28A4200D90A4690B270470146B5EE2D
:1059C000C00AF1EE10FA02D2DFED0F0A0BE0B7EEDB
:1059D000001AB4EEC10AF1EE10FA02DDF7EE000A89
:1059E00001E0F0EE400A481C01EE100AB8EE411A40
:1059F00020EE811ABCEEC11A11EE102A8A4200D99B
:105A00000A4690B2704700000000000010B5012166
:105A1000014803F053FE10BD002C014010B540F2C8
:105A2000026003F0E3FA40F2026003F0DFFA40F2B2
:105A3000026003F0DBFA40F2036003F0D7FA40F2B1
:105A4000036003F0D3FA40F2036003F0CFFA4FF49F
:105A5000C06003F0CBFA4FF480730322182113487F
:105A600002F0A2FF4FF40073032218210F4802F046
:105A70009BFF4FF48063032218210C4802F094FF2F
:105A80004FF4005303221821094802F08DFF4FF410
:105A9000804303221821064802F086FF4FF400439A
:105AA00003221821024802F07FFF10BD00080140C8
:105AB000000C014070B504460D46FFF7AFFF1348D8
:105AC000B0FBF4F0C0F34F0011490880084600888D
:105AD000411E002000F0C6F80D480088684364218C
