:020000040800F2
:1000000058280020010200080D4A0008DB410008C2
:10001000854700088B1C0008597400080000000088
:10002000000000000000000000000000BF5E0008AB
:10003000591D000800000000074E0008B5680008C0
:100040001B0200081B0200081B0200081B0200081C
:100050001B0200081B0200081B0200081B0200080C
:100060001B0200081B0200081B020008551D0008A7
:100070001B0200081B0200081B0200081B020008EC
:100080001B0200081B020008F71500081B020008ED
:100090001B0200081B0200081B0200081B020008CC
:1000A0001B020008CD6900081B0200081B020008A3
:1000B000D1690008D5690008D96900081B02000849
:1000C0001B0200081B0200081B0200081B0200089C
:1000D0001B0200081B020008756F0008ED72000883
:1000E0001B0200081B0200081B0200081B0200087C
:1000F0001B0200081B0200081B0200081B0200086C
:100100001B0200081B0200081B0200081B0200085B
:100110001B0200081B0200081B0200081B0200084B
:100120001B0200081B0200081B0200081B0200083B
:1001300000F002F800F055F80AA090E8000C8244A4
:100140008344AAF10107DA4501D100F04AF8AFF281
:10015000090EBAE80F0013F0010F18BFFB1A43F0A5
:1001600001031847A0C20000C0C20000103A24BF1B
:1001700078C878C1FAD8520724BF30C830C144BF0C
:1001800004680C607047000000230024002500264E
:10019000103A28BF78C1FBD8520728BF30C148BFEA
:1001A0000B607047662908F03C86642900F08E8059
:1001B000752900F08B80632900F0CF84732900F04B
:1001C000D484002070471FB508F0A7FD00F0D2FCD2
:1001D00004000020002108F0C7FBE0601FBD10B53F
:1001E00010BD00F0CBFD1146FFF7EDFF07F080FEDC
:1001F00000F0E9FD03B4FFF7F2FF03BC00F02CFEB2
:100200000948804709480047FEE7FEE7FEE7FEE7AA
:10021000FEE7FEE7FEE7FEE7FEE7FEE704480549E6
:10022000054A064B70470000B96800083101000814
:10023000580800205828002058180020581800207E
:100240000FB47CB50C0009AA009001D02044401ED8
:10025000084B7B4469460190089800F054FC054621
:100260001CB10020694600F061FC28467CBC5DF8AA
:1002700014FB0000E108000070B50C460546012A99
:1002800005D02878800600D5EA69002302E0012322
:1002900005E05B1C934202D2E05C0028F9D1A8691A
:1002A000E618C01AA861286A184428622846AFF3E5
:1002B000008004E0D5E9012114F8010B9047B44215
:1002C000F8D32846AFF3008070BD00002DE9F0415F
:1002D0000646002410687529314616A510D0AFF3E4
:1002E0000080002802DA404213A507E031688A073F
:1002F00001D512A502E0490704D511A5012401E0AA
:10030000AFF3008000210A2206F1240709E0B0FBC8
:10031000F2FCB0FBF2F302FB1C00303078541846BC
:10032000491C0028F3D123462A463046BDE8F04157
:1003300000F07CB9000000002D0000002B00000040
:10034000200000002DE9F0474FF0000A89460446DE
:10035000C0F820A02046E1688847002876D02528EC
:1003600006D0D4E901219047206A401C2062F1E7C1
:10037000E168204600258847C4F81CA006460027EF
:10038000C4F818A02A2E09D0304607F039F938B33E
:1003900004EB8708303EC8F8186019E059F8041BD0
:1003A000204604EB87029161E1688847012F0646E9
:1003B00018D1E069002820DA25F020051DE0D8F8E2
:1003C000180000EB800006EB40003038C8F8180039
:1003D0002046E1688847064607F012F90028EED16A
:1003E000012F0AD02E2E08D12046E16888477F1CB5
:1003F0000646022F45F02005C4DBA069002803DA79
:10040000404245F00105A061E80701D025F0100544
:10041000B6B1A6F14100192802D8203645F400658E
:100420004A463146204625604D46FFF7BBFE58B18F
:10043000012806D0ED1D25F0070000F1080989E725
:1004400004E005F1040985E730468AE7206ABDE843
:10045000F08710B5431C02E010F8011B71B1810751
:10046000FAD14FF0013202C88C1A8C4314EAC2113F
:10047000F9D0C01A0A0603D0C01E10BDC01A10BDA4
:100480000A0401D0801E10BD0902FCD0401E10BD20
:10049000032A40F2308010F0030C00F0158011F8B0
:1004A000013BBCF1020F624498BF11F801CB00F888
:1004B000013B38BF11F8013BA2F1040298BF00F8DC
:1004C00001CB38BF00F8013B11F0030300F0258099
:1004D000083AC0F0088051F8043B083A51F804CBC0
:1004E000A0E80810F5E7121D5CBF51F8043B40F886
:1004F000043BAFF30080D20724BF11F8013B11F891
:1005000001CB48BF11F8012B24BF00F8013B00F8D4
:1005100001CB48BF00F8012B704710B5203AC0F05E
:100520000B80B1E81850203AA0E81850B1E81850F4
:10053000A0E81850BFF4F5AF5FEA027C24BFB1E831
:100540001850A0E8185044BF18C918C0BDE81040A2
:100550005FEA827C24BF51F8043B40F8043B08BFAB
:100560007047D20728BF31F8023B48BF11F8012B72
:1005700028BF20F8023B48BF00F8012B70474FF01E
:1005800000020429C0F0128010F0030C00F01B8060
:10059000CCF1040CBCF1020F18BF00F8012BA8BF6E
:1005A00020F8022BA1EB0C0100F00DB85FEAC17C32
:1005B00024BF00F8012B00F8012B48BF00F8012BE5
:1005C00070474FF0000200B5134694469646203916
:1005D00022BFA0E80C50A0E80C50B1F12001BFF4FC
:1005E000F7AF090728BFA0E80C5048BF0CC05DF862
:1005F00004EB890028BF40F8042B08BF704748BFB0
:1006000020F8022B11F0804F18BF00F8012B704723
:1006100070477047704710B500F0B0FA006810BD21
:1006200010B5044600F0AAFA046010BD2DE9F047A9
:100630000D4699469246044600F124080168880652
:1006400004D5E06921F01001216000E00120A842FA
:1006500001DD471B00E00027A1697A1902EB0900C0
:10066000081AA0612078C00602D42046AFF30080AB
:10067000002608E0D4E901211AF806009047206A14
:10068000401C761C20624E45F4DB2078C0060AD55B
:100690002046AFF3008006E0D4E9012130209047E6
:1006A000206A401C2062381EA7F10107F4DC07E035
:1006B000D4E9012118F805009047206A401C206207
:1006C000281EA5F10105F3DC2046AFF30080207859
:1006D000000602D50220BDE8F0870120FBE7704745
:1006E0002DE9FF4F0C461E464FF0FF378BB0D2E985
:1006F0000001DDF860800A908A46C1F30A5505B909
:100700003D46002108464FF00000BAF1000F00F40A
:10071000400005DA00EB80004FF4400101EA500090
:100720004FEA9059B9F1010F00DDB9460A9850EA35
:100730004A000ED044F61050A5F2FF3545432F1461
:10074000B8F1000F1ED07542291E1EDDC9F100024E
:100750001CE0B8F1010F4FF0000001D0302103E0A0
:10076000F24305E02154401CB042FBDB304600223E
:10077000002121540B99C1F80880C1E900200FB075
:10078000BDE8F08FBD1B6D1CDEE74A4600DA69420A
:1007900006A800F07DFA06AB93E8070003AB83E8F8
:1007A000070050460A9900F05EFB8DE80700A0F5AF
:1007B00000501F3800900398002D0ADD42F21F01FF
:1007C0004A460844002303A90390684600F0C7FD89
:1007D00009E0A0F500504A461F38002303A9039002
:1007E000684600F0D1FD8DE807000004000C03D03E
:1007F0004FF0FF30410800E01046B8F1000F03D081
:100800000022009215461EE0751E05D400F0BAF9CC
:10081000303262556D1EF9D5B3460122084302D02D
:1008200000227F1C04E02078302801D100227F1EA6
:10083000002A099784D01DE0112D07DA00F0A2F9F3
:10084000303262556D1C50EA0102F5D1084302D0E6
:100850000098C8B10EE00021681E05E0235C625CD0
:1008600063542254401E491C8142F7DBAB46A81B4F
:10087000401E0990002004F80B000B98099AC0F85C
:100880000880C0E9002B7AE711264FF0000857E7EF
:100890002DE9F04F88460446D21D22F0070191B0A1
:1008A000D1E90001CDE90A0106F0D7FD02460B9817
:1008B000C00F01D02D2007E02068810701D52B2033
:1008C00002E0202101EAC000032A099001D0072A92
:1008D00005DB03464146204600F09AF90BE12078FB
:1008E000800601D5E06900E00620B8F1650F814679
:1008F00006D0B8F1660F18D0B8F1670F70D131E0AB
:100900000020B9F1110F009001DB112301E009F182
:1009100001030AAA01A90CA8FFF7E2FEDDE90C70A9
:10092000002609F10105834647E001204B4600906F
:100930004FF000470AAA01A90CA8FFF7D1FEDDE994
:100940000DB00C995D46002610B909F101000D1893
:10095000B9EB050003D4C0F1FF3609F10105A5EBA1
:1009600009002BE0B9F1010F01DA4FF00109002075
:10097000B9F1110F0090484601DD112300E0034654
:100980000AAA01A90CA8FFF7ABFEDDE90C704D46E1
:1009900000268346207800070AD4AB4500DA5D467E
:1009A00001A8012D04DD411911F8011C302907D0DF
:1009B0004F4502DA17F1040F04DA012082460FE0F6
:1009C0006D1EEEE7002F02DCED1B3E4403E0781CB9
:1009D000A84200DD7D1CB81B00F1010A4FF0004762
:1009E0002078000703D4AA4501DB4FF0FF3A00212D
:1009F000B7F1004F0DF143088DF8431024D00220C9
:100A00002B23002F01DA7F422D230A21021EA0F1A1
:100A1000010000DC5FB197FBF1FC97FBF1F201FBF9
:100A20001C7C17460CF1300C08F801CDEEE7A8F15C
:100A3000010003702188090501D5452100E06521E9
:100A4000A0F1010800F8011C09980FA9A1EB080703
:100A5000FF1D00B10120411901EBEA70A169384482
:100A6000081A401EA0612078C00602D42046AFF3C9
:100A70000080099828B1D4E901219047206A401CE0
:100A800020622078C00622D52046AFF300801EE009
:100A9000002E04DBB34502DD01A8805D00E03020BC
:100AA000D4E901219047206A401C2062761CAAF1FB
:100AB00001005FEA000A0AD100F05CF8C068016832
:100AC000405CD4E901219047206A401C2062281E26
:100AD000A5F10105DCDC07E0D4E9012118F8010BE0
:100AE0009047206A401C2062381EA7F10107F3DC02
:100AF0002046AFF30080032011B041E601694A1C93
:100B000002610878704700B58FB0CDE9013100214E
:100B1000059105497944CDE9031011466846FFF770
:100B200011FC0FB000BD0000E5FFFFFF0A6802F8EE
:100B3000010B0A607047D1E900239A4202D2531C8C
:100B40000B601070704710B5436913B1AFF30080AC
:100B500001E0FFF791FB012010BD127800F12401A4
:100B60000A7000224A700122EDE711684FF0FF324F
:100B7000E9E700000048704714080020004870476B
:100B8000F407002030B5B0F10A024FEA900E71F17F
:100B900000034EEA817EB0EB0E0061EB91014FEA5B
:100BA000101E4EEA017E10EB0E0041EB11114FEAD0
:100BB000102E4EEA016E10EB0E0041EB11214FEAB0
:100BC000104E4EEA014E10EB0E0041EB1141401861
:100BD00041F100014FEAD00040EA41704FEAD101F3
:100BE00010EB80054FEA810444EA907444EB010461
:100BF0006D1944EB0404521BA3414FF0000348BF9E
:100C00000A3200D530BD401C41F1000130BD00006A
:100C10002DE9F0411F46044603260168072A01F426
:100C2000006004DB08B116A505E016A503E008B1D5
:100C300015A500E015A521F010002060A069C01ED8
:100C4000A0610FB1401EA0612046AFF300804FB1FC
:100C5000D4E9012138469047206A401C2062C01C1C
:100C6000206206E0206AFAE7D4E9012115F8010BB9
:100C70009047761EF8D22046AFF30080BDE8F081A1
:100C80004E414E006E616E00494E4600696E660030
:100C90002DE9F047814616468AB0354878440DC89C
:100CA0008DE80D0032487844801C03AC0DC884E800
:100CB0000D0041F69B300844372190FBF1F290FB88
:100CC000F1F5A5F1800501FB12041B3C02D564423D
:100CD000012000E00020DFF898A080460027FA44B9
:100CE000AAF1BE0A0EE0E0070AD03246684607EBDA
:100CF000470101230AEB810100F046FB8DE8070064
:100D000064107F1C002CEED1194F7F44AE3F19E0D8
:100D1000E80715D007EB04100DF1180A90E80E0053
:100D20008AE80E00C068F04201D198190890324656
:100D3000012306A903A800F027FB03AB83E8070003
:100D40006D10641C002DE3D14FF00103324669465B
:100D5000B8F1000F03A802D000F001FB01E000F0A1
:100D600013FBC9E90001C9F808200AB0BDE8F08703
:100D700080B6000000487047F40700207546FFF772
:100D8000F9FFAE4605006946534620F00700854648
:100D900018B020B5FFF742FABDE820404FF000063A
:100DA0004FF000074FF000084FF0000B21F0070153
:100DB000AC46ACE8C009ACE8C009ACE8C009ACE896
:100DC000C0098D46704710B50446AFF30080204639
:100DD000BDE81040FFF70EBA4FF0013C50F8042B6D
:100DE00051F8043B9A4221D1A2EB0C03934313EA3E
:100DF000CC1317D150F8042B51F8043B9A4215D16B
:100E0000A2EB0C03934313EACC130BD150F8042B41
:100E100051F8043B9A4209D1A2EB0C03934313EA25
:100E2000CC13DBD04FF00000704700BFD01A01BADE
:100E3000B1FA81F101F0180122FA01F0CB40C1F1C1
:100E40002001DBB2C0B2C01A2CFA01F3D11A9143CF
:100E500011EAC311E6D1704701491820ABBEFEE785
:100E60002600020070475FEA400C08BF91F0000FB7
:100E70004FEA8C234FEAC12243EA51514FEA1C50FA
:100E800018BF00F5F0404FEA300018BF41F00041B4
:100E90005FEA6C5C00F02980BCF1FF3F08BF40F0C6
:100EA00080407047130C06BF12044FF0100C4FF037
:100EB000000C130E04BF12020CF1080C130F04BF38
:100EC00012010CF1040C930F04BF92000CF1020C00
:100ED000D30F04BF52000CF1010C11464FF0000279
:100EE000A0F11F00A0EB0C00704711F0004F08BFED
:100EF000704731F000413FF4D5AF0B0C06BF090439
:100F00004FF0100C4FF0000C0B0E04BF09020CF157
:100F1000080C0B0F04BF09010CF1040C8B0F04BF6C
:100F200089000CF1020CCB0F04BF49000CF1010C3D
:100F3000CCF12003A0EB0C0022FA03F302FA0CF22E
:100F400041EA030100F10100704720F07F4C80EA84
:100F5000030023F07F47ACEB070303F57C5300F05D
:100F6000004003F1FF032DE980494FEA154B09B416
:100F70004FEA144325EA0B4E24EA03480FF20426F5
:100F800006EB132749083E785FEA320203FB066747
:100F9000C7F5000707FB06F64FEA54374FEAD64677
:100FA00006F1020607FB066CCCF1005C4FEA1C4719
:100FB0002CEA074C07FB06F40CFB06F504EB154680
:100FC0004FEA961634BF00204FF000404FEAD13769
:100FD00006FB07FC4FEA1C4C0CFB0BF7D21B03FB78
:100FE0000CF761EB07010CFB0EF7B0EB074072EB5F
:100FF00017420CFB08F734BFA2EB0742B2EB0742E3
:1010000061EB17414FEA0C444FEA910706FB07FCDE
:101010004FEA1C4C0CFB0BF7B0EBC74072EB57329E
:1010200003FB0CF734BFA2EBC742B2EBC74261EB44
:1010300057310CFB0EF7B0EBC70072EB57720CFB8D
:1010400008F734BFA2EBC702B2EBC70261EB5771DE
:10105000039F4FEA816141EA921104EBCC044FEA0D
:10106000D1374FEA826206FB07FC42EA90124FEA50
:1010700080604FEA1C4C0CFB0BF7D21B03FB0CF7F8
:1010800061EB07010CFB0EF7B0EB074072EB174268
:101090000CFB08F734BFA2EB0742B2EB074261EB4F
:1010A00017414FEA8C554FEA910704EB9C2406FB4D
:1010B00007FC4FEA1C4C0CFB0BF7B0EBC74072EB84
:1010C000573203FB0CF734BFA2EBC742B2EBC74267
:1010D00061EB57310CFB0EF7B0EBC70072EB5772A8
:1010E0000CFB08F734BFA2EBC702B2EBC70261EBFF
:1010F000577115EB4C254FEA816141EA92114FEA95
:1011000082624FEAD13742EA901206FB07FC44F1B3
:1011100000044FEA80604FEA1C4C0CFB0BF7D21B1B
:1011200003FB0CF761EB07010CFB0EF7B0EB07407C
:1011300072EB17420CFB08F734BFA2EB0742B2EB8D
:10114000074261EB174115EB1C154FEA813141EA6B
:1011500092414FEA823242EA90424FEA80304FEAAF
:101160000C7644F1000448EA03434EEA0B484FF082
:10117000000EB2EB080C71EB030724BF6246394640
:101180004EEB0E0E4FF0000B0018524149414BEB55
:101190000B0BB2EB080C71EB03077BF1000B24BFC8
:1011A000624639464EEB0E0E4FF0000B00185241CE
:1011B00049414BEB0B0BB2EB080C71EB03077BF1D6
:1011C000000B24BF624639464EEB0E0E51EA020771
:1011D00018BF46F0010616EB0E7655F1000254F1E9
:1011E000000103D5BDE88901BDE80088BDE889019B
:1011F000BDE80048B619524141EB0101A3F10103DA
:10120000704780807F7E7D7C7B7A79787776767573
:101210007473727171706F6E6E6D6C6C6B6A6A69EB
:101220006868676666656464636362616160605F85
:101230005F5E5E5D5D5C5C5B5B5A5A5959585857FE
:101240005756565555555454535352525251515066
:1012500050504F4F4F4E4E4D4D4D4C4C4C4B4B4BB9
:101260004A4A4A49494948484847474747464646FF
:10127000454545444444444343434342424242413A
:101280004141002B9C4630D477002BD01CB54FEA4F
:10129000370703B44FF010004FF01001BAF1000F00
:1012A00006D0BCF1000FDCBF40F0080040F00801A0
:1012B0004FF000000FBCBDE810400BF1010BBBF17B
:1012C000010F08BF5FEA170722BF12F1010211F1F7
:1012D00001014FF0004143F1000300F0004043EAF8
:1012E00000007047F9D35708D0E746EA064613F1E5
:1012F000400F4FEA16461FDD13F1200FDFBF1643E4
:101300000A46002120335B42BED0C3F1200746EAE3
:10131000064602FA07F74FEA164646EA0706C3F101
:10132000200722FA03F201FA07F721FA03F14FF03E
:10133000000342EA0702A7E746EA020646EA064633
:101340004FEA164646EA0106BCBF46EA0646360C98
:101350004FF000034FF000024FF0000194E72DE939
:10136000804C9A46934670B491E8380007C831EA39
:10137000400C48BF34EA430C03D5FFF7E6FDFFF706
:1013800080FFF0BCBDE8008C2DE9804C9A46934666
:1013900070B491E8380007C810F0804F08BF13F010
:1013A000804F03D100F005F8FFF76BFFF0BCBDE8FC
:1013B000008C20F07F4780EA030023F07F4C07EB8E
:1013C0000C03A3F57C5300F00040A3F1FE0392F060
:1013D000000F00F0B38095F0000F00F077802DE94A
:1013E00001494FEA11404FEA144621EA004800FB48
:1013F00006FC24EA064708FB06F607FB08F800FB94
:1014000007F718EB06484CEB164C4FEA124B18EB5B
:1014100007484FEA15464CEB174022EA0B4E0BFBF0
:1014200006FC25EA06470EFB06F607FB0EFE0BFB45
:1014300007F71EEB064E4CEB164C4FF000061EEB6A
:10144000074E4CEB174B18EB0B0840F1000018EB64
:101450000E0B58EB000840F100008F1A4FF000010E
:101460003CBFC943661B14BFB5EB040C00213CBF55
:10147000C943F61B4FEA17444EEA8E0E27EA04458D
:101480004FEA1C4704FB07622CEA074C05FB07F7F1
:101490000CFB05F604FB0CFC16EB074642EB17426F
:1014A00016EB0C4642EB1C421BEB060658EB020205
:1014B000414146EA9E0601D5BDE80189B61952416F
:1014C00041EB0101A3F10103BDE801894FEA144595
:1014D0004FEA114724EA054621EA074C05FB07F4C9
:1014E00006FB07F70CFB06F105FB0CFC11EB0741B3
:1014F00044EB17444FEA124711EB0C4144EB1C44F8
:1015000022EA074C05FB07F206FB07F70CFB06F681
:1015100005FB0CFC16EB074642EB174216EB0C469C
:1015200042EB1C456A1854F1000148BF7047B619D8
:10153000524141EB0101A3F10103704795F0000F07
:1015400037D04FEA11424FEA144721EA024624EA13
:10155000074C02FB07F106FB07F70CFB06F402FB46
:101560000CFC14EB074441EB17414FEA154714EB11
:101570000C4441EB1C4125EA074C02FB07F506FB36
:1015800007F70CFB06F602FB0CFC16EB074645EBD7
:10159000174516EB0C4645EB1C42121951F10001A0
:1015A00048BF7047B619524141EB0101A3F1010355
:1015B00070474FEA14454FEA114724EA054621EAED
:1015C000074C05FB07F106FB07F70CFB06F24FF093
:1015D000000605FB0CFC12EB074241EB174112EB36
:1015E0000C4251EB1C4148BF7047921841EB01017E
:1015F000A3F10103704700F013BA000010B540F2E8
:101600000F6006F06BFD184C204606F047F80021ED
:10161000204606F036F80021204606F0F9F80122AF
:101620001146204606F010F805230122002120462D
:1016300006F0F7F84FF460220121204606F083F807
:1016400001221146204606F062F80121204606F0EC
:101650002AF9204606F053F8012006F059F92046F1
:10166000BDE8104005F0E1BF003C014010B540F27C
:10167000026006F033FD02230322BDE81040002182
:10168000014806F0AFBA0000000801402DE9F04122
:101690000646002E03D0214CA07818B108E00020A7
:1016A000BDE8F081FFF7E2FFFFF7A8FF0120A0707F
:1016B0001B4F0121384606F0F6F8002442F210755F
:1016C00004E0641CAC4201D30020E9E70221384663
:1016D00006F050F80028F4D00221384606F047F80A
:1016E000384606F0DDF800EE100A9FED0E1AF8EE0F
:1016F000400A80EE810ADFED0C0A20EE200ADFEDC1
:101700000B0A20EE200AB5EEC00AF1EE10FA01D263
:101710009FED070A86ED000A0120C1E7280000209E
:10172000003C014000F07F4533335340EB5FA54060
:101730000000000070B540F2096006F0CFFC40F2F6
:101740000A6006F0CBFC304C204605F0A7FF2F4D79
:10175000284605F0A3FF4FF4C02006F04DF8012203
:1017600016023146204606F0ABF8012231462846E3
:1017700006F0A6F80021204605F083FF0021284648
:1017800005F07FFF0021204606F042F800212846A0
:1017900006F03EF8052306220021204606F041F817
:1017A000052307220021284606F03BF801221146B6
:1017B000204605F049FF01221146284605F044FF66
:1017C0004FF4202632460121204605F0BCFF324668
:1017D0000121284605F0B7FF01221146204605F0F9
:1017E00096FF01221146284605F091FF204605F09C
:1017F00081FF0221204605F0C4FFBDE870400222AF
:101800000021122006F092BB002401400028014074
:1018100010B588B04FF4A06006F060FC174C0021B2
:10182000204606F0D3F801A806F0AAF91449019160
:1018300000218DF81C10134A039201228DF81D20FF
:1018400052020292920004928DF81E10042005901C
:10185000C002069001AA204606F0E4F800212046C6
:1018600006F0A2F802220021204606F01EF900220E
:1018700011460B2006F05AFB08B010BD00000240D4
:101880004C240140C400002070B5124C02220021FB
:10189000204606F022F900281AD002220021204614
:1018A00006F015F90C490120487044030B4D214600
:1018B000284606F0E9F928B121462846BDE87040DF
:1018C00006F08CB921462846BDE8704006F088B97C
:1018D00070BD000000000240280000200010014000
:1018E00010B540F20264204606F0F8FB204606F0F0
:1018F000F5FB074C402303220021204606F072F935
:10190000204680230322BDE81040002106F06AB97A
:10191000000801402DE9F04107462DED028B0C46F1
:10192000154604269FED3A8AF0EE488A002F14D01F
:101930009DB1042D00D904250021364806F03FF959
:10194000C0F10400B0FBF6F106FB1100C01CB0FBB7
:10195000F6F106FB1101002345E00120BDEC028BEE
:10196000BDE8F0818819C01AB0FBF6F206FB120040
:10197000294A52F8202090B2120C2CB1012C10D020
:10198000022C18D00120E9E700EE100AB8EE400A58
:1019900038EE008A00EE102AB8EE400A78EE808A0F
:1019A00020E000F095F830EE088A104600F090F83C
:1019B00070EE288A16E000F08BF800F011F9DFF8DD
:1019C0005C80D8ED010A30EE600A30EE088A1046DD
:1019D00000F07EF800F004F9D8ED020A30EE600A5B
:1019E00070EE288A5B1CAB42BCD300EE105AB8EEF6
:1019F000400AC8EE000AC7ED000A00EE105AB8EE21
:101A0000400AC8EE800AC7ED010A0020A6E70000E0
:101A10000000000000000240C40000202800002058
:101A200010B5074C0221204605F0C1FE002805D064
:101A30002046BDE81040022105F0B6BE10BD0000F2
:101A40000024014070B5FFF74BFFFFF7E1FEFFF701
:101A500071FE40F2046006F041FB184D4FF4005453
:101A6000234603221021284606F0BCF821462846CA
:101A700006F0B4F840F2FF70014660F31F41002009
:101A80000F4A42F82010401C0428FAD30D4C20467F
:101A900005F035FE0C4D284605F031FE012005F01D
:101AA00037FF204605F0C1FD284605F0BEFD07487A
:101AB000002141700121017070BD00000010014043
:101AC000C40000200024014000280140280000201C
:101AD00000EE100ADFED050A9FED051AB8EE400A88
:101AE00060EE200A80EE810A7047000033335340D5
:101AF00000F07F457CB505460C46002D0BD054B157
:101B00005AB1042A00D9042202216846FFF702FFD5
:101B100028B101207CBD01207CBD0122F4E79DEDB0
:101B2000000A85ED000A9DED010A84ED000A0020FF
:101B30007CBD10B5FFF7DEFF08B1002010BD01200D
:101B400010BD00002DE9F041204C207800283BD04A
:101B50001F4D0021284605F0F1FE042200212846F1
:101B600006F01CF81B4A0021284605F0ECFF1A4A33
:101B70000021284605F0D7FF01220021284605F064
:101B800042FF01220021284605F0A1FF114E12213B
:101B90004C3E304605F0EBFD104F1221384605F063
:101BA000E6FD304605F0A6FD0021284605F0D8FEEA
:101BB00001221146304605F0AAFD012211463846A1
:101BC00005F0A5FD00206070BDE8F0812800002030
:101BD000000002404C240140C400002000280140C5
:101BE000DFED040A30EE600ADFED030A20EE200A82
:101BF000704700003333D33F7CF0414141EA00207D
:101C0000704702F039BB000000EE100ADFED030A56
:101C1000B8EE400A20EE200A70470000DB0FC93AF8
:101C200001460E2000F01CB810B5FFF7F9FF08B10F
:101C3000002010BD012010BD38B50446002C0BD08B
:101C40006846FFF7F1FF48B1BDF80000FFF7DCFF81
:101C500084ED000A012038BD002038BD002038BDC9
:101C600038B50C46014602236A466C2002F00CFB94
:101C7000002809D19DF801109DF80000FFF7BEFF74
:101C8000C0F30B002080002038BDFEE70020044A8E
:101C9000002142F82010401CC0B20428F9D370473C
:101CA000EC04002002F010B80148406870470000C2
:101CB000A80000200248002141804160FFF7E6BFF4
:101CC000A80000202DE9F0411C4E3078002803D1F7
:101CD000FFF7E8FF0120307002F010F80546708829
:101CE000401C70807088164F396801B18847708831
:101CF0000524B0FBF4F104FB110010B9796801B1BF
:101D000088477088B0FBF4F104FB110010B9B96882
:101D100001B1884770884FF47A74A04202D1F96803
:101D200001B188477088A04201D30020708001F083
:101D3000E5FF401B7060BDE8F0810000A8000020B6
:101D4000EC040020042802D2014A42F82010704717
:101D5000EC040020FFF798BD704700002DE9FC411E
:101D600080460D461446B8F1000F1CD0002C1AD046
:101D70002688AE4217D2AF1B0C2F14D310EE100AD8
:101D800006F05AFFCDE90001394606EB080008A22B
:101D9000FEF756FA002806DB218882B26B1A9A42B7
:101DA00003DB6D1E2580BDE8FC8108442080FAE736
:101DB00020252E3366000000002800D10120C8280D
:101DC00000D9C820C82101EB5001B1FBF0F0002878
:101DD00000D10120704700000548002101804180AA
:101DE0008180C180012202814281C1607047000070
:101DF00090000020002808D039B190F8801031B14F
:101E000090F8810018B10120704700207047002031
:101E1000704700002DE9F04196B005460E46904609
:101E20001C4600200190002D7ED0002E7CD002AFF9
:101E300050213846612343A2FEF702FA00287EDBD8
:101E4000BDF8041082B2C1F150039A4277D208441F
:101E50000190E00706D095ED070A01AA502102A8DB
:101E6000FFF77CFFA00706D595ED0F0A01AA5021C8
:101E700002A8FFF773FF600706D595ED170A01AAC0
:101E8000502102A8FFF76AFF200706D595ED1F0A2B
:101E900001AA502102A8FFF761FFE00606D596EDE2
:101EA0000C0A01AA502102A8FFF758FFA0060CD582
:101EB00000EE108A9FED241A01AAF8EE400A502184
:101EC00002A880EE810AFFF749FF20060BD59FED9F
:101ED0001F0A95F88C0008B195ED220A01AA50213D
:101EE00002A8FFF73BFFE00506D596ED090A01AA17
:101EF000502102A8FFF732FFA00506D596ED0A0A89
:101F000001AA502102A8FFF729FFBDF80400811D96
:101F1000502914D2C0F15001384462230CA2FEF7BC
:101F20008FF900280BDB00E009E0BDF8041080B257
:101F3000C1F15001884202D202A801F025FF16B07B
:101F4000BDE8F081256300000000F04200000000C1
:101F5000202563200000000030B59BB004460D46EC
:101F6000002C2BD094F8800000282CD0E06906F0DB
:101F700063FECDE9000143A2602103A8FEF760F9EA
:101F800003A801F001FFE06B06F056FECDE9000169
:101F900047A2602103A8FEF753F903A801F0F4FE5D
:101FA000E06D06F049FECDE900014CA2602103A8D6
:101FB000FEF746F903A801F0E7FE07E052A001F0A2
:101FC000E3FE1BB030BD57A001F0DEFE94F88100A7
:101FD00000281AD0206E06F02FFECDE900015BA28A
:101FE000602103A8FEF72CF903A801F0CDFEE06FF5
:101FF00006F022FECDE900015FA2602103A8FEF7F2
:102000001FF903A801F0C0FE02E067A001F0BCFECA
:1020100094F88C00D8B154F8840F06F00DFECDE989
:1020200000016BA2602103A8FEF70AF903A801F0E2
:10203000ABFE606806F000FECDE900016EA26021F3
:1020400003A8FEF7FDF803A801F09EFE02E075A0CC
:1020500001F09AFE00EE105AF8EE400A9FED7A1A4F
:1020600080EE810A10EE100A06F0E6FDCDE90001CF
:1020700076A2602103A8FEF7E3F803A801F084FE2E
:102080009FE700006D6561737572656D656E742EF6
:1020900070686173655F63757272656E745F615FAE
:1020A000616D706572653D252E33660D0A00000076
:1020B0006D6561737572656D656E742E70686173A0
:1020C000655F63757272656E745F625F616D706586
:1020D00072653D252E33660D0A0000006D65617343
:1020E0007572656D656E742E70686173655F63757A
:1020F0007272656E745F635F616D706572653D25B8
:102100002E33660D0A000000666565646261636BCC
:102110002E7374617475733D696E76616C69640DBC
:102120000A0000006D6561737572656D656E742ED1
:1021300063757272656E742E7374617475733D6924
:102140006E76616C69640D0A000000006D65617354
:102150007572656D656E742E656E636F6465725F12
:10216000616E676C655F7261775F7261643D252E99
:1021700033660D0A000000006D6561737572656D50
:10218000656E742E656E636F6465725F616E676CF9
:10219000655F66696C74657265645F7261643D2534
:1021A0002E33660D0A0000006D6561737572656DF2
:1021B000656E742E656E636F6465722E73746174E0
:1021C00075733D696E76616C69640D0A00000000EC
:1021D0006D6561737572656D656E742E766275736B
:1021E0005F766F6C746167655F7261775F763D25BE
:1021F0002E33660D0A0000006D6561737572656DA2
:10220000656E742E766275735F766F6C7461676548
:102210005F66696C74657265645F763D252E336612
:102220000D0A00006D6561737572656D656E742EC3
:10223000766275732E7374617475733D696E766121
:102240006C69640D0A0000000000F042636F6E7458
:10225000726F6C2E657865637574696F6E5F7469F3
:102260006D655F75733D252E33660D0A0D0A0000FE
:102270002DE9F047804689461C46224DEF68002A2A
:1022800002D0507800283AD10026ACB1207898B11D
:102290006088A988884203D0A880FFF78DFD288137
:1022A0002888401C80B228802989884204D32E8047
:1022B00039464046FFF750FE002C20D060780028B9
:1022C0001DD049464046FFF795FD002817D0A0884D
:1022D000E988884203D0E880FFF76EFD688168884E
:1022E000401C80B268806989884208D36E80E38888
:1022F0003A4649464046BDE8F047FFF78BBDBDE88A
:10230000F0870000900000200149C860704700007D
:102310009000002070B504462DED048BB0EE408A8D
:102320000D46F0EE608AB0EE410ADFED3B9A002CDC
:1023300018D0BDB101F022FCB0EE409A38EE688AA8
:10234000D5ED020AB0EEC80AB4EEE00AF1EE10FADA
:102350000BD8B0EE690A84ED030A84ED040ABDECE3
:10236000048B70BDB0EE690AF9E794ED030A08EE3C
:10237000090A84ED030A95ED011AF1EE410A02F013
:1023800023F984ED030AD4ED040A78EE600AC0EE66
:10239000898AD4ED010A20EE800AD4ED000A00EE0D
:1023A000880AD4ED020A00EEA80A94ED061AD4EDCC
:1023B000050A02F009F9B0EE409A94ED010A1749B6
:1023C00010EE100A884221DD94ED052AD4ED001AA2
:1023D00094ED021A01EEC82A01EE682AC2EE000A44
:1023E00094ED062A01EEC82A01EE682A82EE001A50
:1023F00094ED030A02F0E8F884ED030A95ED011A62
:10240000F1EE410A02F0E0F884ED030A84ED048A5B
:10241000B0EE490AA3E7000000000000BD37863592
:1024200030B58DB0054600F053FA174802F080FA37
:10243000002404948DF814409FED140A8DED060AD3
:102440008DED070A8DED080A8DED090A8DED0A0A5A
:102450008DED0B0A8DED0C0A04A9CDE90041002396
:102460001A460949022002F065FA002D09D00094AD
:1024700001940294039401208DF80C00684603F047
:102480001CFD0DB030BD0000FC0400200000000069
:102490002DE9F04F2DED028BB9B00020359036902C
:1024A0003790389001F03AFC01F020FC01210846F9
:1024B00001F060FC0121022001F05CFC01210320FD
:1024C00001F058FC01F0FBFBFFF7F4FB6D4801F055
:1024D0004FFC6D490120FFF735FC6C490020FFF7E8
:1024E00031FC6B490220FFF72DFC002001F036FC87
:1024F00001F0CEFB03F0DFFC664803F0DAFCBDF828
:10250000D40040F00500ADF8D400634802F00EFAA4
:1025100062A001F039FC69A001F036FCBDF8D400DE
:1025200040F00200ADF8D400FFF756FCBDF8D4002F
:1025300040F00800ADF8D4009FED680A182002F0C2
:10254000DFF9674802F0DEF9654C94F8800048B185
:1025500094F8810030B1BDF8D40040F01000ADF81F
:10256000D40005E0BDF8D60040F01000ADF8D6006C
:10257000D4F88800B0F1824F06DDBDF8D40040F0F9
:102580008000ADF8D40005E0BDF8D60040F0800032
:10259000ADF8D6000221182002F0B0F9514801F040
:1025A000EBFBBDF8D40040F02000ADF8D4000022D1
:1025B000FFEE001A07219FED4C1ADFED4C0AB2EE38
:1025C000080A354802F034F9BDF8D40040F0400064
:1025D000ADF8D4002F480090A0F1C803A0F1AC02E0
:1025E000A0F1E4012C4802F025F9D4F8880006F0A7
:1025F00023FB294E0D46044696ED048AB5EEC08AAB
:10260000F1EE10FA04DDD6ED080A80EE880A01E04A
:102610009FED370A10EE100A06F00EFB82461E48A8
:102620008B46006A06F008FB06460F4618EE100AB5
:1026300006F002FB804618488946806806F0FCFADE
:1026400006AB154AA3E8C00CCDE90489CDE90A45DB
:10265000137992F90C208DE80F00264AA0210DA8CD
:10266000FDF7EEFD0DA801F08FFB01208DF8D800DD
:1026700035A803F022FC00F03FF939B0BDEC028B25
:10268000BDE8F08FC51C00086D680008A54900086A
:102690008947000890070020FC0400200D0A3D3DFA
:1026A0003D20464F432053797374656D2053746108
:1026B00072746564203D3D3D0D0A0000496E6974E9
:1026C000206D6F746F722C706C656173652077611B
:1026D00069742E2E2E0D0A0D0A00000000004842DB
:1026E0001C060020712700083333534166663641CB
:1026F0000000000080C3000838B51B4C607800253E
:1027000000280DD06570FFF7CFFAFFF7FDFD174BDE
:1027100003F10802A2F53D7101F59070FFF7A8FDE5
:10272000207800281FD02570012003F0B3FB08B1EA
:102730000A2020810D4C583C94F86200002812D0E9
:10274000A4F1C80303F11C02A2F13801A1F5D8706D
:10275000009402F01FF894ED040A02F021F9BDE89C
:10276000384003F095BB38BDB0000020E8070020DA
:1027700070B52DED028B8CB0002402F00FF9214DC5
:10278000A87800283AD00220E978491CE970E97855
:10279000814233D30026EE701B4895ED030A80ED8D
:1027A000090A9FED1A8A02F0BFF840B1184802F0FA
:1027B000B2F8174890F8800000281FD0144C0394FA
:1027C0008DF810609FED130A8DED050A8DED060A58
:1027D0008DED070AD5ED040ACDED080A8DED090A45
:1027E0008DED0A0A8DED0B8A03A8CDE90060084A39
:1027F0000023543A0449012002F09CF80CB0BDECCF
:10280000028B70BDB0000020FC0400203EC3AE3837
:10281000000700200000000010B58CB00390234892
:1028200001788DF8101090ED030A8DED050A90EDFA
:10283000010A8DED060A90ED020A8DED070A9FED63
:102840001C0A8DED080A8DED090A8DED0A0A9FED2F
:10285000190A8DED0B0A154903A8C839CDE90010F6
:1028600001F11C03A1F11C02A1F5E671002002F0A8
:1028700061F8C0B1104C9DF810002179884205D054
:102880000E4802F055F89DF8100020710B4890EDAD
:10289000090A84ED030A90ED050A84ED040A01207B
:1028A000A0700CB010BD00F013F8FAE790070020FC
:1028B000000000006F12833AB0000020FC040020EA
:1028C00010B501F05DFABDE81040012001F046BAF4
:1028D0000648002181709FED060A80ED030A054A33
:1028E00092ED050A80ED040AC1707047B000002027
:1028F00000000000FC04002070B5002100241B48EB
:1029000000221B4D90F86130002B03D001246A7126
:10291000EA8013E090F8600070B1E888632807D37C
:10292000EA80687910B10020687103E00120FBE7BC
:10293000401CE880697901E06A71EA80012001F0B9
:1029400019FA2146032001F015FA288938B101212E
:10295000022001F00FFA2889401E288170BDBDE8D1
:1029600070400021022001F005BA0000900700200D
:10297000B00000202DE9F04104462DED048B84B019
:10298000002C7CD0A06810F1814F38D00027207B2C
:1029900098B30025207988B3002647EA0500304324
:1029A0006DD094ED068AD4ED078A94ED081A9FED58
:1029B000360A21EE000A9FED359AF0EE490A01F041
:1029C00003FE84ED079A84ED060A4FF0000857B322
:1029D00001AB18227821B0EE490A204601F004FA32
:1029E00098B19DED010A84ED020A84ED0C0A84ED94
:1029F0000D0A012084F838001DE002E003E0012701
:102A0000C5E70125C6E70126C7E7BFEE001A84ED3A
:102A1000021A84ED0C9A84ED0D9A84F838801CA07B
:102A200001F0B2F907E0B0EE490A204600F032FAB0
:102A3000782001F0A7F955EA060017D002AA03A9E9
:102A4000204600F009FD40B115B19DF80C0020733F
:102A500066B19DF80800207108E00DB184F80C8083
:102A60000EB184F804801A4801F08EF984ED068ACC
:102A7000C4ED078AB0EE490A204600F00BFA04B014
:102A8000BDEC048BBDE8F0819A99193F000000006D
:102A9000696E69742E63616C69623A207A65726F3F
:102AA0002D6C6F636B2073616D706C696E6720664F
:102AB00061696C65642C206B656570207A65726F46
:102AC00020617320756E646566696E65640D0A0029
:102AD00038C30008012801DA01207047202801DDF1
:102AE00020207047C0B2704770B504462DED048BAE
:102AF0000D4601F015FEB0EE409A84ED059ADFED2B
:102B0000369A94ED041A94ED080AF0EE690A01F081
:102B10005BFDF0EE408A94ED060A60EE000A94ED4B
:102B2000070A40EE000AB0EE600A04F043FDB0EE82
:102B3000408A94ED060AD4ED070AB4EEE88AF1EE75
:102B400010FA0CDD18EE100A2449884207DD88EEE1
:102B5000881A20EE010A60EE810AB0EE688A04F15C
:102B60004401081FB0EE491A01F092FD04F1500231
:102B7000111FD4ED110A94ED100A081F01F072FD27
:102B8000B0EE681AF0EE690AB0EE480A01F01CFDDA
:102B9000F0EE401A04F15C031A1F111F181D6DB1ED
:102BA00094ED042A94ED141AD4ED130A94ED120A4C
:102BB000BDEC048BBDE8704003F04ABC94ED042AE0
:102BC00094ED141AD4ED130A94ED120ABDEC048BA3
:102BD000BDE8704003F05DBC00000000BD378635E5
:102BE0000121FFF781BF0021FFF77EBF70B50446CA
:102BF000002C45D064349FED230A84ED000A9FED3C
:102C0000220A84ED010A9FED210A84ED020A9FED5C
:102C1000200A84ED030AB7EE000A84ED040A0025B9
:102C2000257501206075A075B7EE000A84ED060ACF
:102C30009FED180A84ED070A9FED170A84ED080A34
:102C4000643C204601F0BCF804F88C5F6570A57008
:102C50004020A0809FED110A84ED020AB2EE000A26
:102C600084ED030A9FED0E0A84ED040A8C3C0020DB
:102C700004EB4001A1F8A050401C80B24028F7D3DB
:102C800070BD00006F12833ACDCC4C3D0AD7A33BF8
:102C90009A99193FCDCC4C3ECDCCCC3E0AD7233CA3
:102CA0003333B33E00F0ACB800F0DAB910B50446E7
:102CB0002DED028B002C34D02079B8B394ED021A9C
:102CC00011EE101A11F1814F31D000EE900ADFEDB4
:102CD000191AF8EE600A81EEA08A30EE410A01F07E
:102CE00037FDF0EE480A04F0D0FBB5EEC00AF1EE75
:102CF00010FA01D230EE080A94F90C0000EE900AA6
:102D00002079F8EEE00ABDEC028BBDE8104060EEE1
:102D1000800A00EE100AB8EE400A20EE800A01F0A8
:102D2000FFBC9FED050ABDEC028B10BDFFE794EDE3
:102D3000050AF8E7DA0FC940000000009FED011A0C
:102D400000F0E4B86F12833A2DE9F04782462DED8A
:102D5000048B89461746DDE90C649846F0EE409AEC
:102D6000F0EE608AB0EE419AB0EE618A012C05D097
:102D700024B10020BDEC048BBDE8F0871A4D6878C3
:102D800010B92C70012068702878844211D024B9C1
:102D900096ED1F0A504600F029F8484600F0F8FF6B
:102DA000384600F0F5FF404600F0F2FF00F05AF818
:102DB0002C70012C0DD0B0EE481A3346F0EE490AC3
:102DC000B0EE680A42463946504601F065F80120E7
:102DD000D0E7F0EE480A3246B0EE690A394650466E
:102DE00001F008F9F3E7000050000020002806D0A9
:102DF00080ED0C0A80ED0D0A012180F83810704733
:102E00000120704710B50446002C1BD0204600F06E
:102E1000D7FF94F879009FED120A70B101210128C3
:102E200011D094F87A0018B1012801D084F87A10F2
:102E300094F87A0001280DD00EE0002084F87A0082
:102E400084ED1F0A10BD84F87A10B7EE000A84EDF5
:102E50001F0A10BDB7EE000A84ED1F0A10BD000066
:102E60000000000000F0B2BF002803D0002200F8EC
:102E70008D2F4170704700280BD009B1012100E06F
:102E8000002190F878208A4203D080F8781000F072
:102E900097BF7047002801D0FFF7A2BE704700001F
:102EA00030B504462DED028B85B00D46B0EE408A5C
:102EB00092ED171AD2ED0F0A92ED070A03A904A8A2
:102EC00001F092FB94ED051A01A902A8DDED030AB9
:102ED0009DED040A01F000FC94ED090AB0EE481AD9
:102EE000DDED010A284600F08DF9DDED010AC4EDA3
:102EF0000A0ADFED050AC4ED060A84ED070A05B0EB
:102F0000BDEC028B30BD00000000000010B504468F
:102F10002DED028BF0EE408AB0EE608AB0EE410AF1
:102F2000002C33D000F034FEDFED1A0A207928EEB1
:102F3000201A00EE900A94F90C00F8EE600A61EE97
:102F4000200A60EE800A00EE100AB8EEC01A94ED76
:102F5000050A00EE810A01F0E3FB84ED050A9FED0E
:102F60000E0A84ED060A94ED081AB0EE680AF1EE36
:102F7000410A01F029FB84ED070A94ED050A204679
:102F8000BDEC028BBDE81040FFF72DBEBDEC028BFF
:102F900010BD0000DA0FC9400000000070B5044603
:102FA0002DED068B84B0B0EE40AA9FED2C8A8DEDFE
:102FB000038A8DED028A8DED018A002C4AD000290A
:102FC00048D0002A46D004F1780504F18806B0EE16
:102FD0004A0A2046FFF764FFD4ED069A94ED079A5B
:102FE000D4ED0A8A94ED090A01AB02AA03A9F0EE16
:102FF000480A204600F0B4F894ED090A2846B0EEDD
:10300000C00A00F08BF9012801D1B7EE008AF0EE7A
:10301000480A95ED010AB0EE4A1A304600F0DAF996
:1030200085ED010ADDED030A39EEE01A41EE000AF2
:10303000C4ED060ADDED020A39EE601A41EE000A1F
:10304000C4ED070ADDED010A38EEE01A41EE000A90
:10305000C4ED0A0A04B0BDEC068B70BD0000000090
:103060002DE9F04104462DED028B0E461746B0EED9
:10307000608A002C3DD004F1880501F051FB84EDFD
:10308000050AB0EE480A00F083FD002F31D0002E73
:103090002FD094F8780028B13A4631462046FFF701
:1030A0007DFF11E0002005B1287094F87910A1B1DE
:1030B000012084F87A00F7EE000AC4ED1F0A3A46B0
:1030C00031462046FFF7ECFE94ED050A2046BDECA4
:1030D000028BBDE8F041FFF786BD84F87A00DFED92
:1030E000070AC4ED1F0A94ED090A204600F008F80B
:1030F000EAE7BDEC028BBDE8F081000000000000B3
:103100003EB504469FED0E1A8DED021A8DED011AA3
:103110008DED001A002C11D06B4601AA02A92046A1
:1031200000F01EF89DED010A84ED070A9DED020AEC
:1031300084ED060A9DED000A84ED0A0A3EBD0000FA
:103140000000000010B5DFED050AB7EE001AB7EE7B
:10315000000A01F039FAB7EE000A10BD00000000C5
:103160002DE9F04104462DED068BF0EE408AB0EEDD
:1031700060AA0D4616461F46002C38D0002D36D0CA
:10318000002E34D0002F32D094ED041A94ED080AAA
:10319000DFED190A01F018FAD4ED000AB0EEE08A6A
:1031A00018EE100A1549884201DA9FED158A80EE63
:1031B000089AB0EE680AF1EE490AB0EE491AF0EE4C
:1031C000609A01F001FAF0EE408AB0EE491AF0EE92
:1031D000690AB0EE4A0A01F0F7F968EE880AC6ED0E
:1031E000000A20EE080A85ED000AC7ED008ABDEC52
:1031F000068BBDE8F081000000000000BD37863579
:10320000BD37863510B504462DED048BF0EE408AAF
:10321000B0EE608AB0EE410A9FED3C9A002C22D0BD
:1032200000F0B6FCF0EE409A38EEC88A3849B0EEAD
:10323000C80A10EE100A884201DCB0EE498AB7EEE7
:10324000001AF0EE490A9FED330A01F0BDF9B5EE20
:10325000C08AF1EE10FA0BD1D4ED030A20EE800AF9
:1032600084ED030A0AE0B0EE490ABDEC048B10BD00
:1032700094ED030A08EE290A84ED030AB0EEE80A89
:10328000FFF760FFD4ED010A60EE808A94ED040A36
:1032900038EE400A80EE299A94ED000AD4ED030A34
:1032A00020EE080A08EEA00AD4ED020A00EE890A10
:1032B00094ED061AD4ED050A01F086F9F0EE409A75
:1032C00018EE900A144988421BDD94ED051AD4EDDE
:1032D000000A94ED020A00EEC81A00EE491AC1EE87
:1032E000281A94ED062A00EEC82A00EE492A82EE3A
:1032F000281A94ED030AF0EE610A01F065F984EDF5
:10330000030A84ED048AB0EE690AAEE7000000000B
:10331000CDCC4C3D48E17A3FBD37863570B504468B
:103320002DED048BB0EE408A0025607800282ED069
:103330000126012830D094ED020A9FED239ADFED9B
:10334000239AB0EE491AF0EE690A01F03DF9F0EE69
:10335000408A94ED030AB0EE491AF0EE690A01F0D2
:1033600033F9DFED1B0A78EEA00AF4EEC00AF1EEA5
:1033700010FA01DDB0EE600AA07898B1012811D0F2
:10338000B4EEC08AF1EE10FA09DB012008E0A57066
:103390002846BDEC048B70BDA6703046F9E70020CE
:1033A000A070F6E7012806D1B4EEE88AF1EE10FA33
:1033B00001D8A57006E028B9B4EEC08AF1EE10FA83
:1033C00000DBA670A078E4E7002474490000000048
:1033D000BD37863510B504462DED048BF0EE408ADE
:1033E000B0EE600AB0EE419ADFED199AB7EE001A1E
:1033F000F0EE690A01F0E8F8B0EE408A0CB12078EE
:10340000F8B19FED140A79EE000A89EE200AB0EEB9
:10341000699AB7EE001AF0EE490A01F0D5F8F0EE1D
:10342000400A38EE681AB0EE680A01EE200AF0EEA3
:10343000490ABDEC048BB7EE001ABDE8104001F05C
:10344000C3B801202070B0EE480ABDEC048B10BD5B
:10345000000000009A99193F2DE9F04781462DEDB3
:10346000088B82B0884692469FED4ABAB0EE4BAACE
:10347000B0EE4B9AB0EE4B8AF0EE489A00261E242E
:10348000DFED45AAB9F1000F08D0B8F1000F05D063
:10349000BAF1000F02D00025404F2DE0002002B00D
:1034A000BDEC088BBDE8F08700EE105AB8EE400A7C
:1034B0006AEE808A01AB02220421B0EE680A484617
:1034C00000F092FCB0B146B39DED010A30EE4A0A1D
:1034D00001F03EF978EEC90AB0EEC01A11EE100AFA
:1034E000B84203DB38EE008A79EEA09A9DED01AA7E
:1034F000B0EE689A6D1CADB2A542D5D9B0EEC80A3F
:1035000010EE100AB84206DBB0EEE90A10EE100A1F
:103510002349884207DA0020C1E79DED01AAB0EEF9
:10352000689A0126E6E7B5EEC08AF1EE10FA01DBF3
:10353000012001E04FF0FF3088F8000089EE880A92
:10354000F6EE000AB0EEC00A30EE200ABDEEC00A68
:1035500010EE100AFFF7BEFA8AF80000B0EE4B0A30
:103560004846FFF73DFB042000F00CFC0DE000EEA8
:10357000104AB8EE400A2AEE800A01AB022204216A
:10358000484600F031FC641EA4B2002CEFD10120AB
:1035900085E70000000000004F77563EA69BC43A26
:1035A000BD37863510B52DED048BB0EE408AF0EEB8
:1035B000608A18EE900A2E49884211D218EE902A9D
:1035C0002C4882420CDA18EE102A8A4208D218EEF1
:1035D000101A814204DA9FED280ABDEC048B10BD5D
:1035E000F5EEC08AF1EE10FA02DBB0EE680A01E0F7
:1035F000B1EE680AB5EEC08AF1EE10FA02DBF0EE29
:10360000480A01E0F1EE480A9FED1C9A9FED1C1A52
:10361000B4EEE00AF1EE10FA06DB30EE011A80EEAD
:10362000810A00F0A3F809E030EE811AC0EE010A29
:10363000B0EE600A00F09AF839EE400AF5EEC08A62
:10364000F1EE10FA07DBB5EEC08AF1EE10FAC4DA3B
:10365000B1EE400AC1E7DFED0B0AB5EEC08AF1EE2C
:1036600010FA02DB30EEC00AB7E730EE600AB4E7CA
:10367000BD3786B5BD37863500000000DA0FC93F7B
:10368000BD378635DA0F494010B52DED048BB0EE0D
:10369000408AF0EE608A18EE900A2E49884211D2D4
:1036A00018EE902A2C4882420CDA18EE102A8A4230
:1036B00008D218EE101A814204DA9FED280ABDECF8
:1036C000048B10BDF5EEC08AF1EE10FA02DBB0EE0D
:1036D000680A01E0B1EE680AB5EEC08AF1EE10FAB0
:1036E00002DBF0EE480A01E0F1EE480A9FED1C9A79
:1036F0009FED1C1AB4EEE00AF1EE10FA06DB30EE94
:10370000011A80EE810A00F053F809E030EE811AC8
:10371000C0EE010AB0EE600A00F04AF839EE400A45
:10372000F5EEC08AF1EE10FA07DBB5EEC08AF1EED5
:1037300010FAC4DAB1EE400AC1E7DFED0B0AB5EECC
:10374000C08AF1EE10FA02DB30EEC00AB7E730EEC5
:10375000600AB4E7BD3786B5BD3786350000000086
:10376000DA0FC93FBD378635DA0F494010B59FEDF6
:103770000D1AF6EE000A40EE010ABDEEE00A10EE68
:10378000100A4FF47A7100F035F80749DFED070AA7
:1037900031F8100000EE100AB8EE400A20EE200AC0
:1037A00010BD000000007A44B6A600086F12833AEC
:1037B00010B59FED0D1AF6EE000A40EE010ABDEEBF
:1037C000E00A10EE100A4FF47A7100F01DF8074974
:1037D000DFED070A31F8100000EE100AB8EE400ADB
:1037E00020EE200A10BD000000007A44D0BA000884
:1037F0006F12833A002801DA00207047884201D90D
:103800000846704780B27047002801DA00207047F0
:10381000884201D90846704780B270479FED321A3E
:10382000DFED320A324901E030EE600A10EE100A94
:103830008842F9DA01E030EE200AB5EEC00AF1EE76
:1038400010FAF8D3C0EE010AFCEEE00A10EE900A7E
:10385000C0B2032800D9032000EE900AF8EE600AF7
:1038600000EEC10A9FED231AF6EE000A40F2236231
:1038700040EE010ABDEEE00A10EE101A002901DA4E
:10388000002202E0914200D88AB2A2F223614942AA
:1038900089B2194B80B1012815D002281AD033F80B
:1038A000110000EE100AB8EE400AF1EE400A9FED5A
:1038B000131A80EE810A704733F8120000EE100AE6
:1038C000F8EE400AF3E733F8110000EE100AF8EEC4
:1038D000400AECE733F8120000EE100AB8EE400A96
:1038E000F1EE400AE3E70000DA0FC93FDA0FC94002
:1038F000DA0FC94000007A44268E000800FEFF4619
:1039000010B59FED301ADFED300A304901E030EE9E
:10391000600A10EE100A8842F9DA01E030EE200A5F
:10392000B5EEC00AF1EE10FAF8D3C0EE010AFCEED3
:10393000E00A10EE900AC4B2032C00D9032400EE72
:10394000904AF8EE600A00EEC10A9FED211AF6EEE9
:10395000000A40F2236140EE010ABDEEE00A10EEDB
:10396000100AFFF747FFA0F22361494289B2194AC2
:1039700084B1012C15D0022C1AD032F8110000EEBF
:10398000100AB8EE400AF1EE400A9FED131A80EEDD
:10399000810A10BD32F8100000EE100AF8EE400A5D
:1039A000F3E732F8110000EE100AF8EE400AECE7F7
:1039B00032F8100000EE100AB8EE400AF1EE400AAC
:1039C000E3E70000DA0FC93FDA0FC940DA0FC94058
:1039D00000007A446E9A000800FEFF4610B59FED85
:1039E000301ADFED300A304901E030EE600A10EEA7
:1039F000100A8842F9DA01E030EE200AB5EEC00A7A
:103A0000F1EE10FAF8D3C0EE010AFCEEE00A10EE77
:103A1000900AC4B2032C00D9032400EE904AF8EEB9
:103A2000600A00EEC10A9FED211AF6EE000A40F28C
:103A3000236140EE010ABDEEE00A10EE100AFFF726
:103A4000E3FEA0F22361494289B2194A84B1012CF4
:103A500015D0022C1AD032F8110000EE100AB8EE80
:103A6000400AF1EE400A9FED131A80EE810A10BD64
:103A700032F8100000EE100AF8EE400AF3E732F8D0
:103A8000110000EE100AF8EE400AECE732F81000E0
:103A900000EE100AB8EE400AF1EE400AE3E700003B
:103AA000DA0FC93FDA0FC940DA0FC94000007A4483
:103AB00088AE000800FEFF4670B504462DED048B6D
:103AC000F0EE408AB0EE600AF0EE419A0D46B0EE9C
:103AD000619A1646002C4CD0F5EEC08A9FED268ADE
:103AE000F1EE10FA01D2F0EE488AF0EE480AB0EE9C
:103AF000681A00F069FD84ED058A84ED068A84ED7C
:103B0000078A84ED080AC4ED048A84ED098A84EDED
:103B10000A8A84ED0B8A0020C4ED009A257184ED99
:103B2000029A84ED0C9A84ED0D9A012184F83810E4
:103B3000267384ED108A84ED118A84ED128A84ED57
:103B4000138A84ED148A84ED158A84ED168A84ED37
:103B5000178A84F860002046FFF748F82046FEF7F1
:103B600009FFBDEC048B20460321BDE87040FFF740
:103B70007BB9BDEC048B70BD00000000B5EEC00A3F
:103B8000F1EE10FA01DC9FED010A70476F12833AE3
:103B9000B5EEC00AF1EE10FA01DC9FED010A7047A4
:103BA0006F12833A00280FD080ED000AC0ED010AA1
:103BB00080ED021A9FED050A80ED030A80ED040AEC
:103BC000C0ED051A80ED062A7047000000000000D5
:103BD00010B504462DED048BF0EE408AB0EE608AFD
:103BE000B0EE410A002C4BD0FFF7C8FF38EEC88A70
:103BF000D4ED030A48EE000AC4ED030A94ED041A5A
:103C000038EE411AC1EE008A94ED010A20EE200A36
:103C1000D4ED000A00EE880AD4ED020A00EEA80AEC
:103C200094ED061AD4ED050A00F0CEFCB0EE409AF1
:103C300094ED010A144910EE100A884219DD94ED42
:103C4000052A94ED001AD4ED021A01EE482A01EE7D
:103C5000E82AC2EE000A94ED062A01EE482A01EE97
:103C6000E82A82EE001A94ED030A00F0ADFC84ED20
:103C7000030A84ED048AB0EE490ABDEC048B10BD42
:103C80009FED020AF9E70000BD378635000000000D
:103C900010B503F0A7F9BDE8104003F05FBB03F0D7
:103CA000FBB903F0FFB903F0B3BB03F0B7BB0020CF
:103CB000704700207047002070470020704742F690
:103CC000DF61092002F0D4BE0648016841F080712E
:103CD0000160054800214160016841F00101016077
:103CE00070470000FCED00E0001000E000F042BC76
:103CF00000F018BF00F084BF00F0D0BF014840685A
:103D000070470000001000E0FDF796BF1822FDF795
:103D100010BF0C22FDF70DBFFDF7B8BC04F06CBA64
:103D200010B500EB80000C494000B1FBF0F4641EBC
:103D3000FDF767FF2146092002F020FF02F052FF45
:103D40002146092002F05AFF02F0F6FFFDF77AFE45
:103D5000BDE81040FDF7F6BEC0D4010010B5044622
:103D6000204602F0CDFE2046BDE8104000F07CBFAA
:103D700002F0C0BE00F022BC00F070BF02F0BABF7B
:103D800002F0D8BE03F0C4BD03F0D4B903F0A8B963
:103D9000002805D09FED030A80ED030A80ED040A98
:103DA0007047000000000000002805D09FED030AC6
:103DB00080ED030A80ED040A704700000000000057
:103DC000002802D0002180F88810704705489FED38
:103DD000040A80ED010A80ED020A0021017070479B
:103DE000000000005400002070B50C462DED048B3F
:103DF00082B015461E469FED258AF0EE488A0028BF
:103E00000AD04EB145B1FEF7EBFE2046FFF7BAFFF0
:103E100000249FED1F9A1BE0002002B0BDEC048B34
:103E200070BD01A8FFF770FF80B19DED010AFFF79B
:103E300067FD30EE088A9DED010A30EE090AFFF7B2
:103E40005FFD70EE288A0420FFF79CFF641CA4B27B
:103E5000AC42E6D3B0EEC80A10EE101A0D4881420B
:103E600007DAB0EEE80A10EE101A814201DA0020FB
:103E7000D3E7F0EE680AB0EE480AFFF793FB00F0D4
:103E80004FFC86ED000A0120C7E70000000000009B
:103E9000DA0FC93FBD3786352DE9F04104462DEDD7
:103EA000088BB0EE408A0F469046B0EE60AA1D46E1
:103EB000B0EE410A002C7DD0002F7BD0B8F1000F6E
:103EC00078D0002D76D004F16406FFF757FEF0EEAF
:103ED00040AA94F90C0000EE100AB8EEC00A60EE99
:103EE000089A95ED1F0A204600F0B8F894F90C00E6
:103EF000D4ED0C0A00EE100AB8EEC00A20EE209AAB
:103F000039EEC91AF0EEC10A96ED042AD6ED031A6D
:103F100032EE610A334910EE100A884201DA9FED51
:103F2000320ADFED328AF4EEE01AB7EE00BAF1EEB3
:103F300010FA02DBB0EE688A0BE0B4EEE02AF1EE94
:103F400010FA02D8B0EE4B8A03E070EEE10A80EE80
:103F5000808AB5EEC01AB0EECA0AF1EE10FA01DAA4
:103F6000B1EE400A20EE08AA18EE100A2049884255
:103F700005DA3846FFF718FFFFF728FF11E095ED47
:103F80001F0AB0EE6A1AF0EE4A0A204600F094F8D2
:103F9000B0EE6A1AF0EE680A3846FFF719FEF0EE46
:103FA000408AB0EE6A1AF0EE490AB0EE690A31466C
:103FB000404600E012E0FEF7ADF97BEE480A20EE45
:103FC000800A08EE280A84ED090A84ED0BAA95ED13
:103FD0001F0A2046FEF76AFE84ED050ABDEC088B39
:103FE000BDE8F081BD378635BD378635000000005D
:103FF00017B7D13870B504462DED028BF0EE408A2C
:104000000E461546B0EE600A002C22D0002E20D0BD
:10401000002D1ED0FFF7B2FDB0EE408A95ED1F0ACD
:10402000B0EE481AF0EE680A204600F045F8B0EE0F
:10403000481ADFED090A3046FFF7CAFD84ED090A88
:10404000C4ED0B8A95ED1F0A2046FEF72FFE84ED86
:10405000050ABDEC028B70BD0000000010B50446DF
:104060002DED028BB0EE408A002C19D094F8380068
:10407000C8B194ED0D0A38EE400A00F069FB94EDEA
:10408000191AF0EEC00AF4EEC10AF1EE10FA05DBDF
:10409000D4ED0C0A30EE800A84ED0C0A84ED0D8A12
:1040A000BDEC028B10BD84ED0D8A84ED0C8A0120DD
:1040B00084F83800F4E7000010B504462DED048BB9
:1040C000B0EE408AB0EE609AB0EE410ADFED1D9A84
:1040D000002C2BD0FFF752FDF0EE408A94F90C0033
:1040E00000EE100AB8EEC00A20EE088A164C2078BE
:1040F000F8B194ED020A38EE400A00F029FB84ED95
:10410000028A69EE280A30EEC00AD4ED010A30EEC8
:10411000200A84ED010A9FED0D1ADFED0D0A00F073
:1041200053FA84ED010ABDEC048B10BDB0EE690AB0
:10413000F9E784ED028AB0EE690A84ED010A0120F4
:104140002070F0E70000000054000020DA0FC941A1
:10415000DA0FC9C1012807D0022807D0032807D0E9
:10416000042807D000207047FFF799BDFFF79BBDDB
:10417000FFF79DBDFFF79FBD0B461146012807D0F5
:10418000022808D0032809D004280AD0002070474C
:104190001846FFF786BD1846FFF787BD1846FFF79C
:1041A00088BD1846FFF789BD70B505460E46002D3F
:1041B00011D001242046FFF7CDFF30B13246294609
:1041C0002046FFF7D9FF002804D1641CE4B2042C78
:1041D000F0D9002070BD002070BDFEE708B500904A
:1041E00002E00098401E009000980028F9D108BD18
:1041F00010B540F2157003F071FF124C204603F029
:104200002BFEE113204603F063FE0021204603F05D
:104210005FFE204603F002FE00F0E6F800220A49A5
:10422000204603F06DFD00231A461946204603F090
:1042300044FE204603F015FE21152046BDE810403F
:1042400003F058BD00540040E093040010B540F264
:10425000036003F043FF074C402303221C21204648
:1042600003F0C0FC204680230322BDE810401C213F
:1042700003F0B8BC000C014010B5FFF7E7FFBDE844
:104280001040FFF7B5BF00002DE9F05F05460F466F
:1042900090461E46002E11D0B8F1000F10D000F04D
:1042A00087F8002808D1811E284600F067F80446E8
:1042B00044B100F08DF82046BDE8F09F0020FBE7F8
:1042C0000120F9E7DFF8B0903946484603F0A3FD36
:1042D00042F6E06A5246012140F2075000F0C8F869
:1042E00004461CB100F074F82046E5E700F060F8E1
:1042F0000028E1D10121284600F040F804461CB115
:1043000000F066F82046D7E70024771E40F2065BEF
:104310001DE0BC4206D10021484603F0EBFC4846B4
:1043200003F0E1FD52460121584600F0A1F8054690
:1043300035B14FF48061484603F0DCFC2846BBE70A
:10434000484603F065FD08F80400641CA4B2B442BA
:10435000DFD3504600F0A4F8044634B14FF4806136
:10436000484603F0C7FC2046A6E74FF48061484664
:1043700003F0C0FC00209FE70054004070B50A46DF
:104380000A4D0146284603F08FFD40F2015442F6E3
:10439000E0620121204600F06BF8002804D121469C
:1043A000284603F063FD002070BD0000005400406B
:1043B00010B5064803F092FD42F6E06201214FF489
:1043C000A06000F055F80028FFD110BD0054004057
:1043D00010B5044803F087FDBDE8104042F6E060E8
:1043E00000F05EB80054004070B5204EC023032298
:1043F0001421304603F0F6FBC021304603F0F0FBF9
:104400004FF416752846FFF7E9FE00244021304698
:1044100003F0E4FB2846FFF7E1FE4021304603F0BD
:10442000DFFB2846FFF7DAFE641CE4B2092CEDD36B
:104430008021304603F0D2FB2846FFF7CFFE402113
:10444000304603F0CDFB2846FFF7C8FE80213046FA
:1044500003F0C6FB2846FFF7C1FE3046BDE87040BA
:10446000C02303221C2103F0BDBB0000000C01404F
:104470002DE9F04107460D461446084E01E04CB1C7
:10448000641E3946304603F002FDA842F7D10020F1
:10449000BDE8F081FFF7ACFE0220F9E700540040D0
:1044A00010B5064901E028B1401E0A689205FAD409
:1044B000002010BDFFF79CFE022010BD00540040FC
:1044C000C0ED001AC0ED011A9FED082A80ED022A06
:1044D000C0ED030A80ED040A80ED051A9FED040A81
:1044E00080ED060AC0ED071A704700006666663F59
:1044F0000000000080ED000AD0ED030A90ED051ADF
:1045000070EE810AC0ED030A90ED041A30EE811AB4
:10451000164AD0ED061A11EE101AF7EE002A914253
:104520000CDA80ED010AC0ED022ADFED110AC0EDC0
:10453000030A30EE610A80ED070A704780EE812A97
:1045400080ED022A90ED011A30EE410A02EE001AC7
:1045500080ED011A32EEC20A20EE200A80ED030A35
:1045600031EE610A80ED070A70470000BD378635DD
:104570000000000010B540F20364204603F0AEFDD9
:10458000204603F0ABFD204603F0A8FD0A4C202393
:1045900003221021204603F025FB10230322194695
:1045A000204603F01FFB204608230322BDE81040ED
:1045B000102103F017BB0000000C0140002901D0BE
:1045C00002F062B900F090BEB4EEE00AF1EE10FA2B
:1045D00002D2B0EE600A7047B4EEC10AF1EE10FAF2
:1045E000F9DDB0EE410A704780ED000A30EEC10AF5
:1045F000DFED030A80EE201A81ED001A70470000FB
:10460000D7B3DD3FDFED020A30EE200AFFF706B92F
:10461000DA0FC93F00B5F0EE401AB0EE600A00288C
:1046200013D091B1B7EE001ADFED0D0AFFF7CCFF02
:10463000F0EE400A0A785AB190ED000A31EEC01A45
:1046400000EE810A80ED000A00BDB0EE610A00BDF7
:10465000C0ED001A01200870B0EE610A00BD000034
:104660000000000080ED000ABEEE001A20EE010AF4
:104670009FED061AF0EE401A40EE811AC1ED001AC5
:1046800000EEC10A82ED000A70470000D7B35D3F1B
:1046900070B504462DED048BF0EE408AB0EE609AC2
:1046A000F0EE419A0D46B0EE690AFFF7B7F8B0EEAA
:1046B000408AB0EE690AFFF7A5FF68EE800A49EE6E
:1046C000480AC4ED000A68EE880A49EE000AC5ED02
:1046D000000ABDEC048B70BD70B504462DED048B53
:1046E000F0EE408AB0EE609AF0EE419A0D46B0EEE0
:1046F000690AFFF793F8B0EE408AB0EE690AFFF757
:1047000081FF68EE800A49EE080AC4ED000A29EE2E
:10471000000A08EEC80A85ED000ABDEC048B70BDE6
:10472000DFED090A094901E030EE600A10EE100AD7
:104730008842F9DA01E030EE200AB5EEC00AF1EE67
:1047400010FAF8D370470000DA0FC940DA0FC940F9
:10475000DFED090A094801E030EE600A10EE101A98
:104760008142F9DC064901E030EE200A10EE100A21
:104770008842F9D870470000DA0FC940DA0F494083
:10478000DA0F49C0FEE70000014901204870704778
:10479000B000002030B4029C002841D000293FD056
:1047A000002A3DD0002B3BD0002C39D094ED050AD7
:1047B00081ED000A94ED060A81ED010A94ED070AE5
:1047C00081ED020A90ED080AB1EE400A81ED050A7A
:1047D00090ED080A81ED060A90ED000A114CF0EE0A
:1047E000C00A10EE901AA14201DCDFED0F0A90ED35
:1047F000081A81EE200AB5EEC00AF1EE10FA01D2D5
:104800009FED0A0AF1EE400AC3ED050A83ED060AA0
:10481000C2ED050A82ED060A30BC0021FEF72BBB73
:1048200030BC7047BD378635BD3786350000000087
:10483000FFF742B92DE9F04105462DED028B82B01C
:104840000F460A9C16469846002D4CD0002F4AD0A1
:10485000002E48D0B8F1000F45D0002C43D095ED84
:10486000000A2349B0EEC00A10EE100A884201DCAB
:104870009FED200A95ED082A82EE008AB5EEC08AE7
:10488000F1EE10FA01D29FED1C8AF1EE421A94ED7E
:10489000071AD4ED060A94ED050A3846FFF782F9A7
:1048A000F1EE481A94ED0A1AD4ED090A94ED080ABB
:1048B000B0EE482AF0EE618A4046FFF773F994EDB6
:1048C0000D1AD4ED0C0A94ED0B0AB0EE482AF0EE66
:1048D000681A3046FFF766F943463246394628469D
:1048E0000094FFF757FF02B0BDEC028BBDE8F081EA
:1048F000BD378635BD3786350000000001F0F0BCBD
:1049000001F0F0BD10B5044601F094FE2046BDE86C
:10491000104001F0E1BD10B5044601F095FE2046BF
:10492000BDE8104001F0D8BDFEF7BCB9FEF75EB996
:10493000FEF768BA7CB504461E46DDE906300D4632
:104940001146002C05D0012C15D0022C1DD00020C2
:104950007CBD02790468CDE90042D0ED081A90EDE3
:10496000041AD0ED030A90ED020A32462846FEF7FB
:10497000EBF901207CBDD0ED080A90ED050A026834
:104980002846FEF791F901207CBDD0ED070A90ED95
:10499000060A2846FEF7D2F901207CBD01F0BABC18
:1049A00001F098BD1FB5174C94F86100002803D0A2
:1049B0000120FDF735FD1FBD1348FFF7A3FF0020C1
:1049C000009001900290039001208DF805000E48A0
:1049D000803001788DF8061041788DF8071090ED41
:1049E000020A8DED020A684601F067FA94F84C005D
:1049F00018B10548FDF710FF1FBD0120FDF710FDA0
:104A00001FBD0000900700201C060020704709070A
:104A1000090E002806DA00F00F0000F1E02080F80F
:104A2000141D704700F1E02080F8001470474A1C04
:104A300050436422B0FBF2F28A4200D90A4690B297
:104A400070470000B5EEC00AF1EE10FA02D29FEDF9
:104A50000D0A06E010EE101AB1F17E5F01DDB7EE2F
:104A6000000A411C00EE901AF8EE600A20EE200ABF
:104A7000BCEEC00A10EE101A814200D9014688B27D
:104A800070470000000000000121014803F044BE0F
:104A9000002C014010B540F20264204603F01EFBDA
:104AA000204603F01BFB204603F018FB641C204645
:104AB00003F014FB204603F011FB204603F00EFB2D
:104AC000E01E03F00BFB154C4FF4807303221821FA
:104AD000204603F087F8631503221821204603F0CF
:104AE00081F8231503221821204603F07BF8631474
:104AF0000B4C03221821204603F074F84FF4804336
:104B000003221821204603F06DF820460322BDE859
:104B100010404FF40043182103F064B8000801402E
:104B2000000C014070B504460D46FFF7B3FF114875
:104B3000B0FBF4F0104C41082180491E002000F029
:104B4000CBF8208864216843B0FBF1F080B200F01C
:104B500015F80021084600F031F80021012000F08E
:104B60002DF80021022000F029F8BDE87040FFF781
:104B70008BBF0000C0D401001C0000201FB50446FC
:104B8000FF2C00D9FF24684603F071FB0021ADF82B
:104B90000010ADF80210ADF80440ADF80610ADF805
:104BA00008104FF48070ADF80A00ADF80C1069469B
:104BB000014803F04CFB1FBD002C014010B504461A
:104BC0000846642800D964200B490855891E0988C5
:104BD000FFF72DFF02464CB1012C09D0022C09D160
:104BE0000221BDE81040054803F060BC0021F8E751
:104BF0000121F6E710BD00001E000020002C01403E
:104C000070B52DED028BB0EE608AF0EE418A114C4A
:104C10002088FFF717FF104D02460021284603F0B9
:104C200045FC2088B0EE480AFFF70CFF0246012140
:104C3000284603F03BFC2088B0EE680AFFF702FF2D
:104C40000246BDEC028B2846BDE87040022103F00D
:104C50002DBC00001C000020002C01400149886090
:104C6000704700001C00002010B50B4A00280AD035
:104C70000121104603F028FD00220121BDE810406B
:104C8000192003F053B90121104603F019FDBDE8C6
:104C90001040192003F03EB9002C0140014803F0F8
:104CA000B7BC0000002C014010B5094C0121204682
:104CB00003F011FD00280AD00121204603F008FD71
:104CC00004488068002802D0BDE81040004710BDAD
:104CD000002C01401C00002070B588B004460D4631
:104CE00040F20B6003F0FAF9304E304603F022FC3C
:104CF000ADF804404020ADF806000024ADF80840AF
:104D00000395ADF80A408DF8104001A9304603F034
:104D100085FC0421304603F00BFD0021304603F0F2
:104D2000EDFC2021304603F0C3FC0120ADF8140057
:104D30000420ADF81600ADF81840ADF81A40ADF8F3
:104D40001C40ADF81E4005AA0021304603F098FA39
:104D500005AA0121304603F093FA05AA0221304644
:104D600003F08EFA60220021304603F075FB00222A
:104D70001146304603F0AAFB60220121304603F0C1
:104D80006BFB00220121304603F0A0FB60220221D0
:104D9000304603F061FB00220221304603F096FB0F
:104DA0000A20FFF7EBFE08B070BD0000002C0140A8
:104DB00000B58DB000220C920B92002814D099B14E
:104DC0000BAB0CAA00F020F880B16A46BDF82C109D
:104DD0000C9800F055F802280CD001280CD000F0F7
:104DE0006FFB00200DB000BD0020FBE700F068FB6A
:104DF0000020F7E70020F5E701208DF8290068463C
:104E000000F0E6FAEEE7704770B5002803D012B163
:104E10000BB1052901D2002070BD002404E0055D1E
:104E2000612D05D0641CA4B28C42F8D3002070BD63
:104E3000251DADB204E0465D622E05D06D1CADB2FD
:104E40008D42F8D3002070BD20441060281B401C08
:104E50001880012070BDFF2803D0612803D00020F6
:104E600070470120704701207047FF2804D0323876
:104E70004C2803D80120704701207047002070475C
:104E80002DE9F04103461446002B02D00CB1052950
:104E900002D20020BDE8F0811878612804D15818AA
:104EA00010F8010C622801D00020F3E75A78104670
:104EB000FFF7DBFF70B11046FFF7CDFF60B19878C8
:104EC00041381A2804D2D878412801D35A2805D964
:104ED0000020DFE70020DDE70220DBE72270987882
:104EE0006070D878A0709FED130A84ED090A00263F
:104EF00084F82860012784F82A70491F8DB2202D7C
:104F000001D30020C6E78DB12A46191DE01CFBF72E
:104F1000BFFA6019C67004F12401E01C00F00CF81F
:104F200010B184F8287002E00020B3E7E670012099
:104F3000B0E7000000000000F0B5002200260023CA
:104F40009FED260A9FED261AF0EE410A0127002860
:104F500007D031B1047824B12B2C04D02D2C04D0EF
:104F60002BE00020F0BD012227E04FF0FF370122A7
:104F700023E0A4F13005092D17D8012643B101EE35
:104F8000905AF8EEE11A01EEA00A60EE810A12E0F2
:104F900001EE905AF2EE042AB8EEE12AF0EE401A41
:104FA000B0EE420A01EEA20A05E02E2C00D10BB1B0
:104FB0000020F0BD0123521CD2B2845C002CD8D159
:104FC0004EB100EE907AF8EEE00A20EE800A81ED14
:104FD000000A0120F0BD0020F0BD0000000000002C
:104FE000CDCCCC3D002808D0B5EEC00AF1EE10FAC9
:104FF00005D100210170012070470020704710EE9C
:10500000101AB1F17E5F01D00020704701210170BC
:10501000012070472DE9FC4106460F469046002EC0
:105020001BD0002F19D0404600F052F9B8B14046CD
:1050300000F062F8B5EEC00A0346F1EE10FA01D2B4
:10504000002004E0BCEEC00A10EE100A80B200900E
:105050000CA239463046FBF7F3F8BDE8FC8110EEB0
:10506000100A03F0E9FD04460D46404600F044F8FE
:10507000034609A239463046CDE90045FBF7E0F882
:10508000EBE70000706172616D657465722E2573C7
:105090003D25750D0A000000706172616D657465D3
:1050A000722E25733D252E33660D0A0038B5054650
:1050B00010461C46002D0DD000290BD000F0D4F86E
:1050C00003460CB104A200E005A2009206A2284605
:1050D000FBF7B6F838BD0000454E41424C45000094
:1050E00044495341424C450073746174652E2573E5
:1050F0003D25730D0A0000004A282BD00ADCA0F1E0
:105100004100092812D2DFE800F013112127111104
:10511000111D230052280DD004DC4C2810D04F283C
:1051200004D111E0532807D0572807D00BA07047AF
:105130000CA0704710A0704716A070471BA07047C6
:1051400022A0704729A0704731A0704736A0704751
:1051500039A070473CA070473FA07047756E6B6EDA
:105160006F776E007461726765745F616E676C65FE
:105170005F72616400000000616E676C655F706F54
:10518000736974696F6E5F73706565645F72616483
:105190005F73000073706565645F6F6E6C795F7339
:1051A000706565645F7261645F73000073656E7340
:1051B0006F725F73616D706C655F6F666673657447
:1051C0005F70657263656E740000000073656D61E9
:1051D0006E7469635F7265706F72745F6672657119
:1051E00075656E63795F687A000000006F736369AC
:1051F0006C6C6F73636F70655F7265706F72745FF4
:105200006672657175656E63795F687A000000008B
:105210006F7363696C6C6F73636F70655F706172DD
:10522000616D5F6D61736B007069645F637572724D
:10523000656E745F6B7000007069645F6375727295
:10524000656E745F6B6900007069645F637572728C
:10525000656E745F6B640000636F6E74726F6C5F79
:105260006D6F6465000000004D2805D04F2807D001
:10527000532803D003A0704704A0704707A07047CD
:105280000CA07047756E6B6E6F776E006D6F746FEC
:10529000725F656E61626C650000000073656D6130
:1052A0006E7469635F7265706F72745F656E616260
:1052B0006C6564006F7363696C6C6F73636F7065AA
:1052C0005F7265706F72745F656E61626C656400B9
:1052D000442807D0482805D04C2803D04F2801D0B7
:1052E0000020704701207047094A012807D0022892
:1052F00009D003280BD10821104602F06FBC2021F1
:10530000104602F06BBC1021104602F067BC7047DB
:10531000000C014000F015B800F015B800F0C9B855
:1053200000B591B0402101A8FEF73EFF014621B132
:1053300001A8FFF73DFD11B000BD0020FBE700F024
:10534000C9B800F0FABB00F0FABB000010B500F0DD
:1053500075FC044600F077FCE143C9B264B1084330
:105360001AD0022000F036FD022000F045FDBDE815
:105370001040062000F03ABD002000F02BFD022076
:1053800000F03AFD062000F031FDBDE8104008A213
:105390000CA10EA000F0B8BC012000F01BFD012004
:1053A00000F02AFDBDE81040002000F01FBD000005
:1053B0006E6F20636865636B7320657865637574D1
:1053C00065640000696E6974000000004552520077
:1053D00010B50446002C1ED0012000F0F5FC6078CA
:1053E00059281AD0204600F0ADFB0446D4B1002065
:1053F00000F0F6FCF4B1022000F0E6FC012C13D022
:1054000000F037FC042000F0F1FC10A215A118A058
:1054100000F07AFC13E0002010BD204600F02AF8CE
:105420000446E3E70120E3E700F022FC052000F05A
:10543000DDFCEAE7012000F0C7FC00F002FD00F00F
:10544000E1FCBDE8104000F003BC00006B65657036
:105450002070726576696F757320706172616D730B
:105460000000000066616C6C6261636B000000000C
:105470004552520010B590F82810002903D000F0D2
:10548000E3FC012010BD8078522805D0432807D0C6
:1054900000F0DAFC012010BD00F03AFC002010BD45
:1054A00000F038FC18B100F031FC002010BD0220E3
:1054B00010BD10B500F0E6FBBDE8104000F0A2BC46
:1054C00010B500F0D6FB042000F090FCBDE81040C1
:1054D00000F0B4BC10B5A0B00446002C54D06188D4
:1054E000208800F01EFB607900283DD0A07958B1DB
:1054F000E07948B100F062FC00F0B4FB022824D04F
:10550000002000F073FC20E000F0B1FB00F0B2FBE3
:10551000A079002834D0022000F068FC00F09DFB48
:1055200098B100F09FFB02280FD0022000F064FC2D
:1055300000F093FB034615A280216846FAF780FE2F
:105540006A461CA11DA000F0DFFBA068B0F1824FED
:105550000ADA032000F04AFC022000F04DFC18A2F9
:105560001DA116A000F0D0FB207B08B100F07FFB4E
:105570002079002808D020B0BDE81040FFF7E6BE33
:10558000012000F033FCC9E720B010BD73656E73D5
:105590006F7220696E76616C6964207468726573DD
:1055A000686F6C6420726561636865643A20257574
:1055B0000000000073656E736F7200004552520068
:1055C000756E646572766F6C74616765206465746E
:1055D0006563746564000000766275730000000006
:1055E00010B50446002C5AD064212046FAF7E9FF92
:1055F0002D4A1078012853D0002184F86010022829
:1056000050D0002044346077107EA077507EE07741
:1056100025481C3090F8501004F8441C90ED000A06
:1056200004ED100A90ED010A04ED0F0A90ED020A54
:1056300004ED0E0A90ED030A04ED0D0A90ED060A42
:1056400004ED0C0A90ED070A04ED0B0A90ED080A30
:1056500004ED0A0A90ED090A04ED090A90ED0A0A20
:1056600004ED080A90ED0B0A04ED070A90ED0C0A10
:1056700004ED060A90ED0D0A04ED050A90ED0E0A00
:1056800004ED040A09490A7822724A782275897859
:105690006175018AE182418A2183808A608310BD1D
:1056A0000121AAE70120ADE774040020A00000203A
:1056B000014900200876704774040020B4EEE00A27
:1056C000F1EE10FA04D3B4EEC10AF1EE10FA01DDE6
:1056D000002070470120704700F0B9BB704700F010
:1056E000B7BB704700F0C0BB004870479004002073
:1056F00000B50246FFF7F8FF69B14A2A51D00CDC29
:10570000A2F14102092A14D2DFE802F01513415038
:10571000131313314600002000BD522A10D004DCC0
:105720004C2A1CD04F2A04D129E0532A0DD0572AE5
:1057300010D0002000BD90ED000A81ED000A3DE090
:1057400090ED010A81ED000A38E090ED020A81ED4A
:10575000000A33E090ED030A81ED000A2EE0008A92
:1057600000EE100AB8EE400A81ED000A26E0408AF9
:1057700000EE100AB8EE400A81ED000A1EE0808AB1
:1057800000EE100AB8EE400A81ED000A16E090ED36
:10579000060A81ED000A11E090ED070A81ED000A8A
:1057A0000CE090ED080A81ED000A07E090F8500047
:1057B00000EE100AB8EE400A81ED000A012000BD9B
:1057C00000B5024600F0BAF839B14D2A07D04F2A89
:1057D0000BD0532A06D0002000BD002000BD007869
:1057E000087004E04078087001E0807808700120BB
:1057F00000BD00007FB50CA0D0E900128068CDE9A3
:105800000012029000246D4603A9285DFFF770FF87
:1058100020B1285D9DED030A00F01AFB641CA4B2C0
:105820000B2CF1D37FBD0000415253574C484F43DE
:10583000494A44007CB50AA00068009000246D46E7
:1058400001A9285DFFF7BCFF20B1285D9DF8041079
:1058500000F00AFB641CA4B2032CF1D37CBD000051
:105860004D534F0010B51C212948FAF7AAFE2848CD
:105870005C211C30FAF7A5FE264A00211160117147
:1058800023480170417001238370C17001719FED45
:10589000220A1C3080ED000AB3EE020A80ED010AF4
:1058A000B0EE000A80ED020ADFED1C0AC0ED030A2B
:1058B000022404826424448240F227348482F1EE7C
:1058C000040AC0ED060AF3EE0E0AC0ED070ADFED8A
:1058D000140AC0ED080A80ED090A9FED120A80ED56
:1058E0000A0A9FED110A80ED0B0AB7EE080A80ED57
:1058F0000C0A9FED0E0A80ED0D0A9FED0D0A80ED5A
:105900000E0A80F8501013705170937010BD000093
:1059100074040020A0000020C3F548400000484265
:105920006F12833ACDCC4C3F0AD7233C9A99193F4A
:105930000AD7A33B00487047740400200048704712
:10594000A000002070B501462DED028BB0EE408A1C
:10595000FFF7F0FF0546FFF7C7FE04469FED5C1A10
:10596000DFED5C0ABCEEC80A4FF072724A2973D0B0
:105970000CDCA1F14101DFED581A092914D2DFE84E
:1059800001F017137094131313537C00DFED531AB7
:10599000522919D004DC4C293AD04F2904D14FE0C8
:1059A00053291DD0572929D00020BDEC028B70BD92
:1059B000DFED4B0AB0EE480AFFF780FE10B184ED30
:1059C000008A82E00020F0E7B0EE611AB0EE480AEB
:1059D000FFF774FE10B184ED018A76E00020E4E761
:1059E000B0EE611ADFED3F0AB0EE480AFFF766FE3F
:1059F00010B184ED028A68E00020D6E7B0EE480AD4
:105A0000FFF75CFE10B184ED038A5EE00020CCE776
:105A100018EE100AA0F17E50904201D90020C4E790
:105A200010EE100A208250E018EE100AA0F17E500D
:105A3000904201D90020B8E710EE100A608244E0DD
:105A4000B5EEC08AF1EE10FA04D318EE100A26491A
:105A5000884202DD0020A8E71BE010EE100AA082B9
:105A600033E0B0EE611AB0EE480AFFF727FE10B13E
:105A700084ED068A29E0002097E7B0EE611AB0EEC7
:105A8000480AFFF71BFE10B184ED078A1DE00020D5
:105A90008BE7B2EE041AB0EE480AFFF70FFE10B122
:105AA00084ED088A11E000207FE7B5EEC08AF1EEB0
:105AB00010FA04D318EE100AB0F17E5F01DD002069
:105AC00073E710EE100A84F85000012028766CE786
:105AD0000000C842000000000000484200001042E0
