:020000040800F2
:10000000701000200902000899570008334E0008BC
:1000100085540008191E0008A58A00080000000089
:100020000000000000000000000000000770000851
:10003000311F000800000000EB5B00082D7E000867
:1000400023020008230200082302000823020008FC
:1000500023020008230200082302000823020008EC
:10006000230200082302000823020008291F0008B9
:1000700023020008230200082302000823020008CC
:1000800023020008230200081F17000823020008AB
:1000900023020008230200082302000823020008AC
:1000A000230200087D7F00082302000823020008C5
:1000B000857F00088D7F0008957F000823020008D7
:1000C000230200082302000823020008230200087C
:1000D000230200082302000859850008118900083E
:1000E000230200082302000823020008230200085C
:1000F000230200082302000823020008230200084C
:10010000230200082302000823020008230200083B
:10011000230200082302000823020008230200082B
:10012000230200082302000823020008230200081B
:1001300000F002F800F058F80AA090E8000C8244A1
:100140008344AAF10107DA4501D100F04DF8AFF27E
:10015000090EBAE80F0013F0010F18BFFB1A43F0A5
:1001600001031847FCE500001CE60000103A24BF1C
:1001700078C878C1FAD8520724BF30C830C144BF0C
:1001800004680C607047000000230024002500264E
:10019000103A28BF78C1FBD8520728BF30C148BFEA
:1001A0000B60704766290AF08083642900F0B880EC
:1001B000752900F0B580782900F0EE80632900F001
:1001C0006085732900F06585002070471FB50AF02F
:1001D000E8FA00F063FD0400002000210AF008F9AD
:1001E000E0601FBD10B510BD00F05CFE1146FFF7CA
:1001F000EDFF09F0F3FA00F07AFE03B4FFF7F2FF27
:1002000003BC00F0BDFE00000948804709480047D4
:10021000FEE7FEE7FEE7FEE7FEE7FEE7FEE7FEE7B6
:10022000FEE7FEE704480549054A064B7047000013
:10023000357E000831010008700800207010002091
:10024000700C0020700C00200FB47CB50C0009AAC3
:10025000009001D02044401E084B7B446946019029
:10026000089800F0E4FC05461CB10020694600F047
:10027000F1FC28467CBC5DF814FB0000010A00007C
:1002800070B5044685690068C10601D5302600E0D6
:100290002026C00707D070BDD4E901213046904721
:1002A000206A401C20626D1EF6D570BD70B50446F4
:1002B00085690078C00707D170BDD4E901212020ED
:1002C0009047206A401C20626D1EF6D570BD70B547
:1002D0000C460546012A05D02878800600D5EA6933
:1002E000002302E0012305E05B1C934202D2E05CA4
:1002F0000028F9D1A869E618C01AA861286A18442C
:1003000028622846FFF7BCFF04E0D5E9012114F874
:10031000010B9047B442F8D32846FFF7C7FF70BDE2
:100320002DE9F0410646002410687529314616A5CE
:1003300010D0AFF30080002802DA404213A507E096
:1003400031688A0701D512A502E0490704D511A535
:10035000012401E0AFF3008000210A2206F1240706
:1003600009E0B0FBF2FCB0FBF2F302FB1C00303002
:1003700078541846491C0028F3D123462A463046B3
:10038000BDE8F04100F0E5B9000000002D000000DC
:100390002B0000002000000070B504460D462146E9
:1003A0001068AFF300802188090502D50F4A7A440E
:1003B00002E00E4A7A440E32002104F1240305E0E3
:1003C00000F00F060009965D5E54491C0028F7D125
:1003D00020780023000704D5702D02D009B1022334
:1003E00011322046BDE8704000F0B3B94AE1000088
:1003F0002DE9F05F894604464FF0000ADFF874B13A
:10040000FB44C0F820A02046E1688847002874D04B
:10041000252806D0D4E901219047206A401C20629B
:10042000F1E700265F462046E16888472028054618
:1004300007DB312D05D2781910F8200C08B10643DE
:10044000F1E7B00701D526F00406C4F81CA0002788
:10045000C4F818A02A2D09D0284608F0F7FB38B3B5
:1004600004EB8708303DC8F8185019E059F8041B10
:10047000204604EB87029161E1688847012F054619
:1004800018D1E069002820DA26F020061DE0D8F80F
:10049000180000EB800005EB40003038C8F8180069
:1004A0002046E1688847054608F0D0FB0028EED1D9
:1004B000012F0AD02E2D08D12046E16888477F1CE5
:1004C0000546022F46F02006C4DBA069002803DAA7
:1004D000404246F00106A061F00701D026F0100668
:1004E0006C2D0BD0682D09D04C2D39D06A2D35D00C
:1004F000742D35D07A2D33D016E038E0E1682F46E0
:1005000020468847B842054609D16C2F26D04FF4C3
:100510008060E168064320468847054604E06C2F6A
:100520001AD04FF4807006430DB3A5F1410019288D
:1005300002D8203546F400664A4629462046266001
:100540004E46FFF72FFE80B101280BD0F61D26F096
:10055000070000F1080956E74020E4E78020D8E7CB
:100560000020D6E706F104094DE7284652E7206A45
:10057000BDE8F09F20E1000010B5431C02E010F838
:10058000011B71B18107FAD14FF0013202C88C1AF8
:100590008C4314EAC211F9D0C01A0A0603D0C01E57
:1005A00010BDC01A10BD0A0401D0801E10BD090282
:1005B000FCD0401E10BD032A40F2308010F0030C26
:1005C00000F0158011F8013BBCF1020F624498BFA6
:1005D00011F801CB00F8013B38BF11F8013BA2F143
:1005E000040298BF00F801CB38BF00F8013B11F0BE
:1005F000030300F02580083AC0F0088051F8043B5E
:10060000083A51F804CBA0E80810F5E7121D5CBFCA
:1006100051F8043B40F8043BAFF30080D20724BFFD
:1006200011F8013B11F801CB48BF11F8012B24BF91
:1006300000F8013B00F801CB48BF00F8012B7047E0
:1006400010B5203AC0F00B80B1E81850203AA0E86D
:100650001850B1E81850A0E81850BFF4F5AF5FEAA1
:10066000027C24BFB1E81850A0E8185044BF18C954
:1006700018C0BDE810405FEA827C24BF51F8043BFB
:1006800040F8043B08BF7047D20728BF31F8023B4F
:1006900048BF11F8012B28BF20F8023B48BF00F8E3
:1006A000012B70474FF000020429C0F0128010F0B7
:1006B000030C00F01B80CCF1040CBCF1020F18BF3E
:1006C00000F8012BA8BF20F8022BA1EB0C0100F0D1
:1006D0000DB85FEAC17C24BF00F8012B00F8012BA4
:1006E00048BF00F8012B70474FF0000200B51346D9
:1006F00094469646203922BFA0E80C50A0E80C5042
:10070000B1F12001BFF4F7AF090728BFA0E80C50F2
:1007100048BF0CC05DF804EB890028BF40F8042BEB
:1007200008BF704748BF20F8022B11F0804F18BF58
:1007300000F8012B704770477047704710B500F004
:10074000B1FA006810BD10B5044600F0ABFA0460C1
:1007500010BD2DE9F0470D4699469246044600F13A
:1007600024080168880604D5E06921F010012160A1
:1007700000E00120A84201DD471B00E00027A1693D
:100780007A1902EB0900081AA0612078C00602D489
:100790002046FFF775FD002608E0D4E901211AF88C
:1007A00006009047206A401C761C20624E45F4DB10
:1007B0002078C0060AD52046FFF762FD06E0D4E99E
:1007C000012130209047206A401C2062381EA7F18A
:1007D0000107F4DC07E0D4E9012118F8050090478F
:1007E000206A401C2062281EA5F10105F3DC20468A
:1007F000FFF75CFD2078000602D50220BDE8F087F7
:100800000120FBE770472DE9FF4F0C461E464FF0D5
:10081000FF378BB0D2E90001DDF860800A908A468C
:10082000C1F30A5505B93D46002108464FF00000C6
:10083000BAF1000F00F4400005DA00EB80004FF43D
:10084000400101EA50004FEA9059B9F1010F00DD73
:10085000B9460A9850EA4A000ED044F61050A5F264
:10086000FF3545432F14B8F1000F1ED07542291EE5
:100870001EDDC9F100021CE0B8F1010F4FF00000CD
:1008800001D0302103E0F24305E02154401CB04286
:10089000FBDB30460022002121540B99C1F808806F
:1008A000C1E900200FB0BDE8F08FBD1B6D1CDEE775
:1008B0004A4600DA694206A800F07EFA06AB93E8E1
:1008C000070003AB83E8070050460A9900F05FFB7E
:1008D0008DE80700A0F500501F3800900398002D08
:1008E0000ADD42F21F014A460844002303A903908F
:1008F000684600F0C8FD09E0A0F500504A461F38E0
:10090000002303A90390684600F0D2FD8DE807009C
:100910000004000C03D04FF0FF30410800E0104607
:10092000B8F1000F03D00022009215461EE0751E9C
:1009300005D400F0BBF9303262556D1EF9D5B346CF
:100940000122084302D000227F1C04E020783028D6
:1009500001D100227F1E002A099784D01DE0112DAD
:1009600007DA00F0A3F9303262556D1C50EA01023B
:10097000F5D1084302D00098C8B10EE00021681EEE
:1009800005E0235C625C63542254401E491C814292
:10099000F7DBAB46A81B401E0990002004F80B00B3
:1009A0000B98099AC0F80880C0E9002B7AE7112655
:1009B0004FF0000857E72DE9F04F88460446D21D56
:1009C00022F0070191B0D1E90001CDE90A0108F058
:1009D0006BF802460B98C00F01D02D2007E020686D
:1009E000810701D52B2002E0202101EAC000032A63
:1009F000099001D0072A05DB03464146204600F056
:100A00009BF90BE12078800601D5E06900E0062023
:100A1000B8F1650F814606D0B8F1660F18D0B8F16D
:100A2000670F70D131E00020B9F1110F009001DBA8
:100A3000112301E009F101030AAA01A90CA8FFF79B
:100A4000E2FEDDE90C70002609F10105834647E06E
:100A500001204B4600904FF000470AAA01A90CA8BC
:100A6000FFF7D1FEDDE90DB00C995D46002610B907
:100A700009F101000D18B9EB050003D4C0F1FF36F0
:100A800009F10105A5EB09002BE0B9F1010F01DA2D
:100A90004FF001090020B9F1110F0090484601DD27
:100AA000112300E003460AAA01A90CA8FFF7ABFE38
:100AB000DDE90C704D4600268346207800070AD4F5
:100AC000AB4500DA5D4601A8012D04DD411911F89E
:100AD000011C302907D04F4502DA17F1040F04DA60
:100AE000012082460FE06D1EEEE7002F02DCED1BB9
:100AF0003E4403E0781CA84200DD7D1CB81B00F1D9
:100B0000010A4FF000472078000703D4AA4501DB13
:100B10004FF0FF3A0021B7F1004F0DF143088DF877
:100B2000431024D002202B23002F01DA7F422D23F3
:100B30000A21021EA0F1010000DC5FB197FBF1FC6D
:100B400097FBF1F201FB1C7C17460CF1300C08F806
:100B500001CDEEE7A8F1010003702188090501D558
:100B6000452100E06521A0F1010800F8011C099869
:100B70000FA9A1EB0807FF1D00B10120411901EBEE
:100B8000EA70A1693844081A401EA0612078C006A6
:100B900002D42046FFF774FB099828B1D4E901215B
:100BA0009047206A401C20622078C00622D520464B
:100BB000FFF766FB1EE0002E04DBB34502DD01A853
:100BC000805D00E03020D4E901219047206A401C7C
:100BD0002062761CAAF101005FEA000A0AD100F047
:100BE0005DF8C0680168405CD4E901219047206A43
:100BF000401C2062281EA5F10105DCDC07E0D4E9D9
:100C0000012118F8010B9047206A401C2062381E11
:100C1000A7F10107F3DC2046FFF748FB032011B0E2
:100C200041E6000001694A1C02610878704700B57E
:100C30008FB0CDE901310021059105497944CDE915
:100C4000031011466846FFF7D3FB0FB000BD00004C
:100C5000E5FFFFFF0A6802F8010B0A607047D1E95F
:100C600000239A4202D2531C0B601070704710B5DB
:100C7000436913B1AFF3008001E0FFF728FB0120C7
:100C800010BD127800F124010A7000224A7001227E
:100C9000EDE711684FF0FF32E9E7000000487047C8
:100CA0002C080020004870470C08002030B5B0F137
:100CB0000A024FEA900E71F100034EEA817EB0EB1A
:100CC0000E0061EB91014FEA101E4EEA017E10EB1F
:100CD0000E0041EB11114FEA102E4EEA016E10EB9F
:100CE0000E0041EB11214FEA104E4EEA014E10EB7F
:100CF0000E0041EB1141401841F100014FEAD000D4
:100D000040EA41704FEAD10110EB80054FEA8104BF
:100D100044EA907444EB01046D1944EB0404521B43
:100D2000A3414FF0000348BF0A3200D530BD401C3C
:100D300041F1000130BD00002DE9F0411F4604469D
:100D400003260168072A01F4006004DB08B116A538
:100D500005E016A503E008B115A500E015A521F0F2
:100D600010002060A069C01EA0610FB1401EA061EC
:100D70002046FFF785FA4FB1D4E901213846904764
:100D8000206A401C2062C01C206206E0206AFAE74C
:100D9000D4E9012115F8010B9047761EF8D22046C0
:100DA000FFF784FABDE8F0814E414E006E616E009F
:100DB000494E4600696E66002DE9F04781461646A9
:100DC0008AB0354878440DC88DE80D003248784423
:100DD000801C03AC0DC884E80D0041F69B3008442C
:100DE000372190FBF1F290FBF1F5A5F1800501FBB5
:100DF00012041B3C02D56442012000E00020DFF811
:100E000098A080460027FA44AAF1BE0A0EE0E00747
:100E10000AD03246684607EB470101230AEB8101FD
:100E200000F046FB8DE8070064107F1C002CEED11B
:100E3000194F7F44AE3F19E0E80715D007EB0410C7
:100E40000DF1180A90E80E008AE80E00C068F04222
:100E500001D1981908903246012306A903A800F091
:100E600027FB03AB83E807006D10641C002DE3D162
:100E70004FF0010332466946B8F1000F03A802D0D3
:100E800000F001FB01E000F013FBC9E90001C9F823
:100E900008200AB0BDE8F087ECD700000048704792
:100EA0000C0800207546FFF7F9FFAE4605006946BD
:100EB000534620F00700854618B020B5FFF7B2F979
:100EC000BDE820404FF000064FF000074FF000084B
:100ED0004FF0000B21F00701AC46ACE8C009ACE8CC
:100EE000C009ACE8C009ACE8C0098D46704710B530
:100EF0000446AFF300802046BDE81040FFF77DB9FF
:100F00004FF0013C50F8042B51F8043B9A4221D198
:100F1000A2EB0C03934313EACC1317D150F8042B24
:100F200051F8043B9A4215D1A2EB0C03934313EA08
:100F3000CC130BD150F8042B51F8043B9A4209D141
:100F4000A2EB0C03934313EACC13DBD04FF0000069
:100F5000704700BFD01A01BAB1FA81F101F018014F
:100F600022FA01F0CB40C1F12001DBB2C0B2C01ABD
:100F70002CFA01F3D11A914311EAC311E6D170475B
:100F800001491820ABBEFEE72600020070475FEA69
:100F9000400C08BF91F0000F4FEA8C234FEAC122AA
:100FA00043EA51514FEA1C5018BF00F5F0404FEA98
:100FB000300018BF41F000415FEA6C5C00F029800E
:100FC000BCF1FF3F08BF40F080407047130C06BFE4
:100FD00012044FF0100C4FF0000C130E04BF12025D
:100FE0000CF1080C130F04BF12010CF1040C930F49
:100FF00004BF92000CF1020CD30F04BF52000CF19D
:10100000010C11464FF00002A0F11F00A0EB0C00F4
:10101000704711F0004F08BF704731F000413FF4B6
:10102000D5AF0B0C06BF09044FF0100C4FF0000CAD
:101030000B0E04BF09020CF1080C0B0F04BF0901D1
:101040000CF1040C8B0F04BF89000CF1020CCB0FC8
:1010500004BF49000CF1010CCCF12003A0EB0C0003
:1010600022FA03F302FA0CF241EA030100F1010053
:10107000704720F07F4C80EA030023F07F47ACEB01
:10108000070303F57C5300F0004003F1FF032DE953
:1010900080494FEA154B09B44FEA144325EA0B4E39
:1010A00024EA03480FF2042606EB132749083E788A
:1010B0005FEA320203FB0667C7F5000707FB06F687
:1010C0004FEA54374FEAD64606F1020607FB066C94
:1010D000CCF1005C4FEA1C472CEA074C07FB06F4F6
:1010E0000CFB06F504EB15464FEA961634BF0020BC
:1010F0004FF000404FEAD13706FB07FC4FEA1C4C8B
:101100000CFB0BF7D21B03FB0CF761EB07010CFB8D
:101110000EF7B0EB074072EB17420CFB08F734BF39
:10112000A2EB0742B2EB074261EB17414FEA0C44D6
:101130004FEA910706FB07FC4FEA1C4C0CFB0BF730
:10114000B0EBC74072EB573203FB0CF734BFA2EB96
:10115000C742B2EBC74261EB57310CFB0EF7B0EB65
:10116000C70072EB57720CFB08F734BFA2EBC70243
:10117000B2EBC70261EB5771039F4FEA816141EA0D
:10118000921104EBCC044FEAD1374FEA826206FB9E
:1011900007FC42EA90124FEA80604FEA1C4C0CFBBD
:1011A0000BF7D21B03FB0CF761EB07010CFB0EF7EF
:1011B000B0EB074072EB17420CFB08F734BFA2EB11
:1011C0000742B2EB074261EB17414FEA8C554FEAF9
:1011D000910704EB9C2406FB07FC4FEA1C4C0CFB1C
:1011E0000BF7B0EBC74072EB573203FB0CF734BF81
:1011F000A2EBC742B2EBC74261EB57310CFB0EF7D3
:10120000B0EBC70072EB57720CFB08F734BFA2EBD0
:10121000C702B2EBC70261EB577115EB4C254FEAE1
:10122000816141EA92114FEA82624FEAD13742EA84
:10123000901206FB07FC44F100044FEA80604FEA7D
:101240001C4C0CFB0BF7D21B03FB0CF761EB0701EB
:101250000CFB0EF7B0EB074072EB17420CFB08F7E4
:1012600034BFA2EB0742B2EB074261EB174115EB2B
:101270001C154FEA813141EA92414FEA823242EA3B
:1012800090424FEA80304FEA0C7644F1000448EA7D
:1012900003434EEA0B484FF0000EB2EB080C71EB23
:1012A000030724BF624639464EEB0E0E4FF0000B8B
:1012B0000018524149414BEB0B0BB2EB080C71EBA0
:1012C00003077BF1000B24BF624639464EEB0E0E3E
:1012D0004FF0000B0018524149414BEB0B0BB2EBA6
:1012E000080C71EB03077BF1000B24BF6246394603
:1012F0004EEB0E0E51EA020718BF46F0010616EB40
:101300000E7655F1000254F1000103D5BDE88901C4
:10131000BDE80088BDE88901BDE80048B619524122
:1013200041EB0101A3F10103704780807F7E7D7C4A
:101330007B7A7978777676757473727171706F6E67
:101340006E6D6C6C6B6A6A69686867666665646412
:10135000636362616160605F5F5E5E5D5D5C5C5B9C
:101360005B5A5A595958585757565655555554540B
:10137000535352525251515050504F4F4F4E4E4D69
:101380004D4D4C4C4C4B4B4B4A4A4A4949494848B5
:1013900048474747474646464545454444444443F5
:1013A00043434342424242414141002B9C4630D498
:1013B00077002BD01CB54FEA370703B44FF010006D
:1013C0004FF01001BAF1000F06D0BCF1000FDCBFE6
:1013D00040F0080040F008014FF000000FBCBDE8ED
:1013E00010400BF1010BBBF1010F08BF5FEA1707BB
:1013F00022BF12F1010211F101014FF0004143F14E
:10140000000300F0004043EA00007047F9D357089A
:10141000D0E746EA064613F1400F4FEA16461FDDB5
:1014200013F1200FDFBF16430A46002120335B4231
:10143000BED0C3F1200746EA064602FA07F74FEA94
:10144000164646EA0706C3F1200722FA03F201FA1C
:1014500007F721FA03F14FF0000342EA0702A7E77A
:1014600046EA020646EA06464FEA164646EA0106FC
:10147000BCBF46EA0646360C4FF000034FF00002B0
:101480004FF0000194E72DE9804C9A46934670B4E2
:1014900091E8380007C831EA400C48BF34EA430CF1
:1014A00003D5FFF7E6FDFFF780FFF0BCBDE8008C39
:1014B0002DE9804C9A46934670B491E8380007C8ED
:1014C00010F0804F08BF13F0804F03D100F005F8F3
:1014D000FFF76BFFF0BCBDE8008C20F07F4780EA8F
:1014E000030023F07F4C07EB0C03A3F57C5300F0C3
:1014F0000040A3F1FE0392F0000F00F0B38095F0DE
:10150000000F00F077802DE901494FEA11404FEAC2
:10151000144621EA004800FB06FC24EA064708FBC3
:1015200006F607FB08F800FB07F718EB06484CEB3C
:10153000164C4FEA124B18EB07484FEA15464CEB96
:10154000174022EA0B4E0BFB06FC25EA06470EFB72
:1015500006F607FB0EFE0BFB07F71EEB064E4CEBE9
:10156000164C4FF000061EEB074E4CEB174B18EBDA
:101570000B0840F1000018EB0E0B58EB000840F18F
:1015800000008F1A4FF000013CBFC943661B14BF17
:10159000B5EB040C00213CBFC943F61B4FEA1744CE
:1015A0004EEA8E0E27EA04454FEA1C4704FB076209
:1015B0002CEA074C05FB07F70CFB05F604FB0CFCBB
:1015C00016EB074642EB174216EB0C4642EB1C4269
:1015D0001BEB060658EB0202414146EA9E0601D586
:1015E000BDE80189B619524141EB0101A3F10103A4
:1015F000BDE801894FEA14454FEA114724EA054640
:1016000021EA074C05FB07F406FB07F70CFB06F184
:1016100005FB0CFC11EB074144EB17444FEA124762
:1016200011EB0C4144EB1C4422EA074C05FB07F28A
:1016300006FB07F70CFB06F605FB0CFC16EB074652
:1016400042EB174216EB0C4642EB1C456A1854F16C
:10165000000148BF7047B619524141EB0101A3F1A7
:101660000103704795F0000F37D04FEA11424FEA5F
:10167000144721EA024624EA074C02FB07F106FB65
:1016800007F70CFB06F402FB0CFC14EB074441EBE0
:1016900017414FEA154714EB0C4441EB1C4125EA76
:1016A000074C02FB07F506FB07F70CFB06F602FBEF
:1016B0000CFC16EB074645EB174516EB0C4645EBC5
:1016C0001C42121951F1000148BF7047B61952412E
:1016D00041EB0101A3F1010370474FEA14454FEAC2
:1016E000114724EA054621EA074C05FB07F106FBF2
:1016F00007F70CFB06F24FF0000605FB0CFC12EBA3
:10170000074241EB174112EB0C4251EB1C4148BF21
:101710007047921841EB0101A3F10103704710B526
:1017200000F034FA10BD000010B540F20F6008F070
:10173000AFF9174807F0E2FA0021154807F0D3FA8D
:101740000021134807F0A8FB01221146104807F0BA
:10175000A7FA0523012200210D4807F0A7FB4FF44B
:10176000602201210A4807F022FB012211460848A5
:1017700007F0FEFA0121064807F0F2FB044807F0E3
:10178000EEFA012007F028FC014807F074FA10BDBA
:10179000003C014010B540F2026008F079F90223E4
:1017A00003220021014807F043FE10BD000801405C
:1017B00070B52DED028B05461DB90020BDEC028BE6
:1017C00070BD2148007830B9FFF7E4FFFFF7ACFFA8
:1017D00001201D49087001211C4807F0C1FB0026AB
:1017E00006E0761C42F21070864201D30020E5E745
:1017F0000221164807F0F6FA0028F2D00221134819
:1018000007F0EDFA114807F0A7FB044600EE104A76
:10181000F8EE400A9FED0E1A80EE810ADFED0D0A08
:1018200020EE200ADFED0C0A20EE208AB5EEC08AF9
:10183000F1EE10FA03D29FED090AB0EE408A85ED71
:10184000008A0120BAE7000034000020003C01407B
:1018500000F07F4533335340EB5FA54000000000AC
:1018600010B540F2096008F013F940F20A6008F080
:101870000FF92E4807F042FA2D4807F03FFA4FF4CF
:10188000C02007F0FBFA01221102284807F077FB7D
:1018900001221102264807F072FB0021234807F0BD
:1018A00022FA0021224807F01EFA00211F4807F003
:1018B000F3FA00211E4807F0EFFA05230622002163
:1018C0001A4807F0F3FA052307220021184807F009
:1018D000EDFA01221146154807F0E2F901221146FE
:1018E000134807F0DDF94FF4202201210F4807F0DB
:1018F0005EFA4FF4202201210D4807F058FA012228
:1019000011460A4807F034FA01221146084807F048
:101910002FFA064807F01EFA0221044807F069FA78
:1019200002220021122007F079FF10BD002401409F
:101930000028014000B587B04FF4A06008F0A8F877
:101940000021184807F0C8FB684607F03BFD164821
:10195000009000208DF818001448029001208DF8A6
:101960001900400201908000039000208DF81A00B9
:1019700004200490C00205906A460021094807F03F
:10198000F7FB0021074807F08EFB022200210548E3
:1019900007F085FC002211460B2007F03FFF07B03F
:1019A00000BD0000000002404C240140DC0000208B
:1019B00010B5022200210E4807F092FCB8B10222B5
:1019C00000210B4807F084FC01200A4908704103FC
:1019D000094807F08BFD28B14FF40051064807F085
:1019E00023FD04E04FF40051034807F01FFD10BD34
:1019F00000000240290000200010014010B540F214
:101A0000026008F045F840F2026008F041F8402317
:101A100003220021044807F00BFD8023032200214C
:101A2000014807F005FD10BD000801402DE9F04F09
:101A30002DED028B81B006468946144604259FEDA4
:101A40004E0AB0EE408A9FED4C0AF0EE408A06B195
:101A50002CB9012001B0BDEC028BBDE8F08F042C45
:101A600000DD04240021454807F0CDFC8046A5EBAD
:101A70000800B0FBF5F105FB110A0AEB0500401E5A
:101A8000B0FBF5F105FB110B002760E00BEB050047
:101A9000C01BB0FBF5FC05FB1C000090DFF8E0C0AC
:101AA00000985CF8203099B24FF6FF7000EA1342BC
:101AB000B9F1000F06D0B9F1010F14D0B9F1020F3E
:101AC00041D11FE000EE101AB8EE400A38EE000ACD
:101AD000B0EE408A00EE102AB8EE400A38EE800AD6
:101AE000F0EE408A31E0084600F0A6F830EE080A31
:101AF000B0EE408A104600F09FF830EE280AF0EE73
:101B0000408A22E0084600F097F8F0EE401A00F014
:101B100023F91C48D0ED000A30EE600A30EE080AC6
:101B2000B0EE408A104600F087F8F0EE401A00F060
:101B300013F91548D0ED000A30EE600A30EE280A9D
:101B4000F0EE408A01E0012084E700BF7F1CA7423D
:101B50009CD300EE104AB8EE400AC8EE000AC6ED6B
:101B6000000A00EE104AB8EE400AC8EE800AC6ED40
:101B7000010A00206EE700000000000000000240A3
:101B8000DC0000202C0000203000002010B50221D5
:101B9000044807F047F918B10221024807F03FF95D
:101BA00010BD00000024014070B5FFF727FFFFF7CC
:101BB000C1FEFFF755FE40F2046007F069FF4FF4E5
:101BC000005303221021164807F032FC4FF4005155
:101BD000134807F029FC40F2FF75284665F31F40C3
:101BE0000646002403E00F4840F82460641C042CDF
:101BF000F9D30D4807F0B3F80C4807F0B0F801200E
:101C000007F0EAF9084807F036F8084807F033F813
:101C100000200749087001200649087070BD0000C7
:101C200000100140DC000020002401400028014099
:101C3000290000202800002000EE100AB8EE400A1B
:101C4000DFED040A60EE200A9FED031A80EE810AA0
:101C5000704700003333534000F07F457CB50446A5
:101C60000D46164604B10DB901207CBD0EB9012602
:101C700002E0042E00DD0426324602216846FFF70A
:101C8000D5FE08B10120F0E79DED000A84ED000AC1
:101C90009DED010A85ED000A0020E6E770B50446D7
:101CA0000D461646324629462046FFF7D7FF08B9AB
:101CB000012070BD0020FCE710B52148007800B974
:101CC00010BD00211F4807F0A3F9042200211D4880
:101CD00007F086FB1C4A00211A4807F055FB1B4AF7
:101CE0000021184807F03EFB01220021154807F0AB
:101CF0002BFA01220021134807F0EAFA12211248B8
:101D00004C3807F06CF81221114807F068F80E48BB
:101D10004C3807F01FF800210A4807F092F9012219
:101D2000114609484C3807F023F8012211460848AB
:101D300007F01EF800200749087000BFC0E7000048
:101D400028000020000002404C240140DC0000205C
:101D50000028014029000020F0EE400A9FED040A0F
:101D600030EEC00A9FED031A20EE010A7047000012
:101D70003333D33F7CF04141024641EA02207047B1
:101D800010B503F0A5F810BD00EE100AB8EE400A39
:101D9000DFED020A20EE200A70470000DB0FC93A8F
:101DA00010B5044621460E2000F01EF810BD10B5F7
:101DB00004462046FFF7F4FF08B9012010BD0020BB
:101DC000FCE738B504460CB9002038BD6846FFF77B
:101DD000EEFF08B90020F8E7BDF80000FFF7D4FFD8
:101DE00084ED000A0120F0E7F8B504460D46022311
:101DF0006A4621466C2003F071F806460EB1304663
:101E0000F8BD9DF801109DF80000FFF7B5FFC0F385
:101E10000B0028800020F3E700BFFEE7002005E06C
:101E20000021044A42F82010411CC8B20428F7DB04
:101E3000704700000405002010B502F09DFC10BDA5
:101E40000148006870470000C000002000B5002075
:101E50000349088003490860FFF7E0FF00BD000068
:101E6000BC000020C000002010B52748007820B931
:101E7000FFF7E2FF01202449087002F0B5FC044698
:101E800022480088401C214908800846008800201C
:101E900028B91F48006810B11D49086880471B48D1
:101EA00000880521B0FBF1F201FB120028B91848A7
:101EB000406810B1164948688047144800880521D9
:101EC000B0FBF1F201FB120028B91148806810B193
:101ED0000F49886880470D480088B0F57A7F05D1A2
:101EE0000B48C06810B10A49C86880470748008895
:101EF000B0F57A7F02D300200449088002F074FC18
:101F0000001B0449086010BDC4000020BC00002074
:101F100004050020C0000020042802DA014A42F82B
:101F2000201070470405002010B5FFF741FD10BDDB
:101F300070470000F0B52DED048B83B007460D46C9
:101F40001446B0EE408A1FB114B12088A84203DBCA
:101F500003B0BDEC048BF0BD2088281A0C2800D2F9
:101F6000F6E718EE100A08F0ABFB41EC190B8DED0B
:101F7000009B2288A91AD01909A2FEF765F9064626
:101F8000002E00DAE4E7B0B22188691A884202DB49
:101F9000681E2080DCE720883044208000BFD7E71F
:101FA00020252E33660000000246114601B90121AA
:101FB000C82900D9C821C82303EB5103B3FBF1F3AF
:101FC00098B200B9012070470020084908800849EC
:101FD00008800849088008490880012007490880CE
:101FE000074908800020074908607047A4000020C6
:101FF000A6000020A8000020AA000020AC000020BD
:10200000AE000020B0000020024602B109B9002055
:10201000704792F8800010B192F8810008B9002052
:10202000F6E70120F4E700002DE9F0432DED028BE7
:1020300095B004460F4690469946002000904D46C4
:1020400004B127B915B0BDEC028BBDE8F083BDF833
:102050000020C2F1500101AABDF80030D018612360
:102060004CA2FEF7F1F80646002E06DBB0B2BDF832
:102070000010C1F15001884200D3E3E7BDF8000031
:10208000304480B2009005F0010040B1D4ED070A61
:10209000B0EE600A6A46502101A8FFF74BFF05F039
:1020A000020040B1D4ED0F0AB0EE600A6A4650213A
:1020B00001A8FFF73FFF05F0040040B1D4ED170A77
:1020C000B0EE600A6A46502101A8FFF733FF05F021
:1020D000080040B1D4ED1F0AB0EE600A6A465021F4
:1020E00001A8FFF727FF05F0100040B1D7ED0C0A5B
:1020F000B0EE600A6A46502101A8FFF71BFF05F009
:10210000200080B100EE108AB8EE400ADFED220A0E
:1021100080EE201AB0EE418AB0EE480A6A4650219D
:1021200001A8FFF707FF05F0800090B19FED1B0AA3
:10213000B0EE408A94F88C0018B194ED220AB0EE0B
:10214000408AB0EE480A6A46502101A8FFF7F2FE25
:1021500000BFBDF80000801D502819D2BDF8002036
:10216000C2F1500101AABDF80030D01862230CA2C0
:10217000FEF76AF80646002E06DBB0B2BDF8001086
:10218000C1F15001884200D35CE701A802F0A5FB31
:1021900000BF57E7256300000000F0420000000088
:1021A000202563200000000070B52DED028B9AB051
:1021B00004460D4634B95FA002F08FFB1AB0BDECA7
:1021C000028B70BD94F88000002839D094ED070A86
:1021D00010EE101A084608F073FA41EC180B8DED5A
:1021E000008B5BA2602102A8FEF72EF802A802F085
:1021F00074FB94ED0F0A10EE101A084608F060FA0E
:1022000041EC180B8DED008B5CA2602102A8FEF75B
:102210001BF802A802F061FB94ED170A10EE101AE9
:10222000084608F04DFA41EC180B8DED008B5EA2CC
:10223000602102A8FEF708F802A802F04EFB02E0B7
:1022400064A002F04AFB94F88100002826D094EDA7
:10225000180A10EE101A084608F032FA41EC180B72
:102260008DED008B65A2602102A8FDF7EDFF02A8AD
:1022700002F033FB94ED1F0A10EE101A084608F026
:102280001FFA41EC180B8DED008B67A2602102A8AC
:10229000FDF7DAFF02A802F020FB02E06EA002F0D8
:1022A0001CFB94F88C00002826D094ED210A10EE37
:1022B000101A084608F004FA41EC180B8DED008B5B
:1022C0006FA2602102A8FDF7BFFF02A802F005FB84
:1022D00094ED220A10EE101A084608F0F1F941ECCC
:1022E000180B8DED008B70A2602102A8FDF7ACFFEA
:1022F00002A802F0F2FA02E076A002F0EEFA00EE96
:10230000105AB8EE400ADFED7C0A80EE201A11EE7A
:10231000106A304608F0D4F941EC180B8DED008BB3
:1023200076A2602102A8FDF78FFF02A802F0D5FA7D
:1023300000BF43E7666565646261636B2E73746119
:102340007475733D696E76616C69640D0A000000F6
:102350006D6561737572656D656E742E70686173FD
:10236000655F63757272656E745F615F616D7065E4
:1023700072653D252E33660D0A0000006D656173A0
:102380007572656D656E742E70686173655F6375D7
:102390007272656E745F625F616D706572653D2516
:1023A0002E33660D0A0000006D6561737572656DF0
:1023B000656E742E70686173655F63757272656EA9
:1023C000745F635F616D706572653D252E33660DC8
:1023D0000A0000006D6561737572656D656E742E1F
:1023E00063757272656E742E7374617475733D6972
:1023F0006E76616C69640D0A000000006D656173A2
:102400007572656D656E742E656E636F6465725F5F
:10241000616E676C655F7261775F7261643D252EE6
:1024200033660D0A000000006D6561737572656D9D
:10243000656E742E656E636F6465725F616E676C46
:10244000655F66696C74657265645F7261643D2581
:102450002E33660D0A0000006D6561737572656D3F
:10246000656E742E656E636F6465722E737461742D
:1024700075733D696E76616C69640D0A0000000039
:102480006D6561737572656D656E742E76627573B8
:102490005F766F6C746167655F7261775F763D250B
:1024A0002E33660D0A0000006D6561737572656DEF
:1024B000656E742E766275735F766F6C7461676596
:1024C0005F66696C74657265645F763D252E336660
:1024D0000D0A00006D6561737572656D656E742E11
:1024E000766275732E7374617475733D696E76616F
:1024F0006C69640D0A0000000000F042636F6E74A6
:10250000726F6C2E657865637574696F6E5F746940
:102510006D655F75733D252E33660D0A0D0A00004B
:102520002DE9F0478046894616461C46294807682B
:102530001EB1707808B1BDE8F08704B32078F0B11F
:10254000658825480088854206D0234805802846AE
:10255000FFF72AFD2149088021480088401C2049B6
:102560000880084600881D490988884206DB00204B
:102570001B49088039464046FFF716FE00BF3CB3B2
:10258000607828B349464046FFF73EFDF8B1A5887C
:1025900014480088854206D0124805802846FFF777
:1025A00003FD1149088011480088401C0F4908802C
:1025B000084600880C490988884208DB00200B493E
:1025C0000880E3883A4649464046FFF72DFD00BFA4
:1025D00000BFB0E7B0000020A8000020AC00002041
:1025E000A4000020AA000020AE000020A6000020C9
:1025F0000149086070470000B000002070B52DED63
:10260000088B04460D46F0EE409AB0EE60AAF0EE5C
:10261000418A04B125B99FED550ABDEC088B70BD08
:10262000B0EE680A01F0BEFFF0EE408A39EECA8AC9
:10263000B0EEC80AD5ED020AB4EEE00AF1EE10FAE7
:102640000AD89FED4A0A84ED030A9FED480A84EDFB
:10265000040A9FED460AE0E794ED030A08EE280A13
:1026600084ED030AD5ED011AB0EE611AD5ED011A19
:10267000F1EE611AF0EE610AD4ED031AB0EE610AD0
:1026800002F0F4FD84ED030A94ED040A38EE400AEA
:1026900080EE289A94ED010AD4ED030A20EE200A78
:1026A000D4ED000A00EE880AD4ED020A00EE890A91
:1026B000F0EE40AA94ED060AB0EE401A94ED050A39
:1026C000F0EE400AB0EE6A0A02F0D0FDF0EE40AA49
:1026D00094ED010ADFED260AB4EEE00AF1EE10FAFD
:1026E0003EDD94ED050AD4ED000A00EEC80AD4EDF3
:1026F000020A00EEC90AD4ED010A80EE201AB0EEFB
:1027000041BA94ED060AD4ED000A00EEC80AD4EDF1
:10271000020A00EEC90AD4ED010A80EE201AF0EE9A
:1027200041BAD4ED030AB0EE600AB0EE6B1AF0EED7
:102730004B0A02F09BFD84ED030AD5ED011AB0EEC1
:10274000611AD5ED011AF1EE611AF0EE610AD4EDCD
:10275000031AB0EE610A02F089FD84ED030A00BF9E
:1027600084ED048AB0EE6A0A57E70000000000001A
:10277000BD37863510B58EB0044600F0BBFA1E4852
:1027800002F06FFF002005908DF818009FED1B0AE6
:102790008DED070A9FED190A8DED080A9FED170AC6
:1027A0008DED090A9FED150A8DED0A0A9FED130ABA
:1027B0008DED0B0A9FED110A8DED0C0A9FED0F0AAE
:1027C0008DED0D0A05A800210B460A46CDE9001043
:1027D0000949022002F04BFF5CB1002001900290F9
:1027E0000390049001208DF8100001A804F005FC6E
:1027F00000BF0EB010BD0000140500200000000056
:102800002DE9F0472DED028BBAB0002036903790BD
:102810003890399002F00CF801F0C2FF012108460F
:1028200002F037F80121022002F033F801210320E1
:1028300002F02FF801F098FFFFF708FB7C4802F048
:1028400022F87C490120FFF767FB7B490020FFF756
:1028500063FB7A490220FFF75FFB002002F00AF8D1
:1028600001F05AFF04F0C5FB754804F0BCFBBDF84D
:10287000D80040F00500ADF8D800724802F0EBFE39
:1028800071A002F02AF878A002F027F8BDF8D8006D
:1028900040F00200ADF8D800FFF796FBBDF8D80075
:1028A00040F00800ADF8D8009FED770A182002F03C
:1028B000B0FE764802F0BBFE744890F8800050B13C
:1028C000724890F8810030B1BDF8D80040F0100097
:1028D000ADF8D80005E0BDF8DA0040F01000ADF822
:1028E000DA006A4890ED220AF2EE000AB4EEE00A3D
:1028F000F1EE10FA06DDBDF8D80040F08000ADF82A
:10290000D80005E0BDF8DA0040F08000ADF8DA004C
:102910000221182002F075FE5D4801F0C2FFBDF8EB
:10292000D80040F02000ADF8D8000022FFEE001AD9
:1029300007219FED581ADFED580AB2EE080A414808
:1029400002F0DDFDBDF8D80040F04000ADF8D80041
:102950003B48524B524A534900903A4802F0EDFD31
:102960004A4890ED220A10EE101A084607F0A8FE19
:1029700041EC180B334890ED040AB5EEC00AF1EEB5
:1029800010FA06DDD0ED080A90ED041A80EE810AF7
:1029900001E09FED450A10EE104A204607F090FE38
:1029A0000E460546274890ED080A10EE101A084614
:1029B00007F086FE88460746224890ED040A10EE8E
:1029C000101A084607F07CFE8A4681461D4890EDA5
:1029D000020A10EE101A084607F072FECDE90C014B
:1029E0008DED0A8B1748CDE9049ACDE90678CDE93B
:1029F00008560079134991F90C10CDE90210DDE970
:102A00000C012A4ACDE90001A0210EA8FDF71CFC0B
:102A10000EA801F062FF01208DF8DC0036A804F05A
:102A2000ECFA00F085F93AB0BDEC028BBDE8F08716
:102A3000691E0008D57D0008295700088954000840
:102A4000A8070020140500200D0A3D3D3D20464FFB
:102A5000432053797374656D205374617274656497
:102A6000203D3D3D0D0A0000496E6974206D6F7474
:102A70006F722C706C6561736520776169742E2E9E
:102A80002E0D0A0D0A0000000000C042340600208E
:102A9000492B00083333534166663641E006002077
:102AA000FC060020C406002000000000DCE6000850
:102AB00038B51C48007870B100201A490870FFF73B
:102AC000BFF90446FFF794FD174B03F108021749BD
:102AD0001748FFF725FD1748007808B3002015496F
:102AE0000870012004F070FA10B10A201249088021
:102AF0000D48583890F8620090B10B4858380F4B89
:102B00000F4A10490090094802F0C4FC06485838A2
:102B1000D0ED040AB0EE600A02F0FAFD04F050FABB
:102B200038BD0000C9000020000800201405002066
:102B300034060020C8000020D8000020E006002055
:102B4000FC060020C406002030B52DED028B8BB0B2
:102B5000002502F0D9FD2D48007818B90BB0BDEC66
:102B6000028B30BD02242A480078401C2849087096
:102B700008460078A04200DAF0E7002024490870F7
:102B8000244890ED000A244880ED090A00EE104A1E
:102B9000B8EE400ADFED210A80EE208A02F057FDF0
:102BA00040B11F4802F04BFD1D4890F8800000B96D
:102BB000D4E71B4D029500208DF80C009FED190AFB
:102BC0008DED040A9FED170A8DED050A9FED150A9C
:102BD0008DED060A144890ED000A8DED070A9FED71
:102BE000110A8DED080A9FED0F0A8DED090A8DED92
:102BF0000A8A02A800210B460C4ACDE900100649BA
:102C0000012002F034FD00BFA8E70000CA00002048
:102C1000CB000020CC000020140500200080BB4623
:102C20001807002000000000D0000020C40600208B
:102C300010B58CB004460394204800788DF810003D
:102C40001E4890ED030A8DED050A90ED010A8DED09
:102C5000060A90ED020A8DED070A9FED190A8DED27
:102C6000080A9FED170A8DED090A9FED150A8DEDF3
:102C70000A0A9FED140A8DED0B0A03A81249134BA3
:102C8000134ACDE900101349002002F0F0FC18B9F6
:102C900000F030F80CB010BD0E4890ED090A0E4857
:102CA00080ED000A0B4890ED050A0C4880ED000A03
:102CB00001200B49087000BFECE70000A8070020C6
:102CC000000000006F12833AE0060020FC0600209E
:102CD000C406002014050020CC000020D0000020F5
:102CE000CA00002010B501F0EEFD012001F0C2FD88
:102CF00010BD00000020084908709FED080A084830
:102D000080ED000A074890ED050A074880ED000AAB
:102D10000020064908707047CA000020000000002B
:102D2000CC00002014050020D0000020CB000020A3
:102D300070B500240025244890F8610038B100BF28
:102D400001250020214908702149088021E01E4802
:102D500090F86000B8B11E48008863280BD30020AB
:102D60001B4908801948007808B9012000E00020BC
:102D70001649087004E016480088401C1449088071
:102D80001248047805E0002400201049087010491A
:102D900008802146012001F07CFD2946032001F036
:102DA00078FD0C48008848B10121022001F071FD36
:102DB00008480088401E0749088003E000210220DF
:102DC00001F067FD70BD0000A8070020D4000020BE
:102DD000D6000020D800002070B504460D461646E7
:102DE0000CB105B106B970BD1D48007890B994EDDD
:102DF000000A1C4880ED000A95ED000A1A4880ED93
:102E0000000A96ED000A194880ED000A01201449D5
:102E10000870E8E7D4ED000AB0EE600A1049DFED73
:102E2000140A104802F058FA84ED000AD5ED000AA1
:102E3000B0EE600A0A49DFED0E0A0B4802F04CFAC8
:102E400085ED000AD6ED000AB0EE600A0449DFED18
:102E5000080A064802F040FA86ED000A00BFC2E701
:102E600064000020680000206C000020700000203A
:102E7000CDCC4C3EF0B52DED048B83B004461CB98F
:102E800003B0BDEC048BF0BD94ED020AFFEE000A26
:102E9000B4EE600AF1EE10FA01D1012000E000204A
:102EA0000746207B08B9012000E000200546207974
:102EB00008B9012000E00020064617B90DB906B98F
:102EC000DEE7D4ED068A94ED079A94ED080ADFED6B
:102ED000390A20EE200AB0EE408A94ED080AB0EEDE
:102EE000401ADFED350AB0EE480A02F0BFF9B0EE45
:102EF000408A9FED310A84ED070A84ED068A5FB3AC
:102F00006B46182278219FED2C0A204601F02CFDFB
:102F100078B19DED000A84ED020A9DED000A84ED72
:102F20000C0A9DED000A84ED0D0A012084F838009A
:102F30001AE0BFEE000A84ED020A9FED1F0A84ED3D
:102F40000C0A9FED1D0A84ED0D0A002084F838005C
:102F50001AA001F0C2FC07E09FED170A204600F01E
:102F6000E4FA782001F0B3FC05B9BEB101AA02A9C8
:102F7000204600F0A9FE40B115B19DF9080020736C
:102F800066B19DF80400207108E00DB100202073A7
:102F90000EB100202071194801F09FFCC4ED068A93
:102FA00084ED079A9FED040A204600F0BEFA00BFA8
:102FB00066E700009A99193F00000000696E697485
:102FC0002E63616C69623A207A65726F2D6C6F6353
:102FD0006B2073616D706C696E67206661696C65EA
:102FE000642C206B656570207A65726F2061732098
:102FF000756E646566696E65640D0A00CCE500084F
:103000000146012901DA01207047202901DD202035
:10301000FAE7C8B2F8E7000070B52DED068B04465C
:10302000B0EE409A0D46B0EE490A02F0E9F9B0EE72
:10303000409A84ED059AD4ED040AB0EE601AD4EDFE
:10304000080AB0EE600ADFED4C0A02F00FF9F0EE6C
:10305000408AD4ED060A60EEA00A94ED071AD4ED7A
:10306000071A41EE210AB0EE600A05F0CAFDB0EE83
:10307000408A94ED060AB0EE40AA94ED070AF0EEFD
:1030800040AAB4EEE88AF1EE10FA15DD9FED3B0A96
:10309000B4EEC08AF1EE10FA0EDDC8EE880AB0EE8A
:1030A000600A6AEE000AB0EE60AA6AEE800AF0EEEC
:1030B00060AAB0EE688A00BF04F14401081FB0EEB8
:1030C000491AF0EE6A0AB0EE4A0A02F04BF994EDA2
:1030D000111AF0EE410A94ED101AB0EE410A04F113
:1030E0005002111F081F02F023F904F15002111FB2
:1030F000081FFFF771FEB0EE681ADFED1F0AB0EE91
:10310000480A02F0B3F8F0EE409ACDB1D4ED041ABB
:10311000B0EE612AD4ED141AB0EE611AD4ED131A90
:10312000F0EE610AD4ED121AB0EE610A04F15C030C
:103130001A1F111F181DF0EE691A04F069FB18E040
:10314000D4ED041AB0EE612AD4ED141AB0EE611A6F
:10315000D4ED131AF0EE610AD4ED121AB0EE610A42
:1031600004F15C031A1F111F181DF0EE691A04F018
:103170008AFBBDEC068B70BD00000000BD378635B4
:1031800010B52DED028B0446B0EE408A0121B0EE61
:10319000480A2046FFF740FFBDEC028B10BD10B57A
:1031A0002DED028B0446B0EE408A0021B0EE480AB5
:1031B0002046FFF731FFBDEC028B10BD70B5044611
:1031C00004B970BD9FED2A0A84ED190A9FED290A02
:1031D00084ED1A0A9FED280A84ED1B0A9FED270A49
:1031E00084ED1C0AB7EE000A84ED1D0A012084F864
:1031F00078000121792001557A2001557920005D60
:1032000010B99FED1F0A01E0B7EE000A84ED1F0A16
:103210009FED1C0A84ED200A9FED1B0A84ED210A14
:10322000204601F083FB002084F88C0000218D20D3
:1032300001558E2001554021902001539FED130A26
:1032400084ED250AB2EE000A84ED260A9FED100AED
:1032500084ED270A002506E0002104F1A00020F8F3
:103260001510681C85B2402DF6DB00BFA9E70000F1
:103270006F12833ACDCC4C3E0AD7A33B9A99193FA3
:10328000000000006666E63ECDCC4C3F0AD7233CEA
:103290003333B33E10B500F0F0F810BD70B52DED2E
:1032A000028B04460D461646B0EE408AF0EE608A68
:1032B000F0EE680AB0EE480A32462946204600F091
:1032C0006DFABDEC028B70BD10B52DED048B04467C
:1032D000B0EE409A24B99FED240ABDEC048B10BDDA
:1032E000207940B194ED020AFFEE000AB4EE600AC4
:1032F000F1EE10FA02D194ED050AEEE7207900EE26
:10330000100AB8EE400ADFED190AC0EE808AD4ED4B
:10331000020A79EE600AB0EE600A02F08FF8F0EE71
:10332000409AF0EE680A05F0D7FBB0EE408AB5EEA1
:10333000C08AF1EE10FA03D238EE280AB0EE408AC5
:1033400094F90C0000EE900AF8EEE00A20EE881ADC
:10335000207900EE900AF8EE600A61EE200AB0EEE5
:10336000600A02F04DF8B8E700000000DA0FC9402B
:1033700010B52DED028B0446B0EE408AF0EE608A67
:103380009FED051AF0EE680AB0EE480A204600F0FC
:1033900035F9BDEC028B10BD6F12833A2DE9F04771
:1033A0002DED048B8046894615461E46F0EE409A68
:1033B000F0EE608AB0EE419AB0EE618ADDE90C74FD
:1033C000B8F1000F01D005B127B90020BDEC048B86
:1033D000BDE8F0870EB90020F8E7012C02D00CB14F
:1033E0000020F3E71D48007820B91D480470012033
:1033F0001A4908701A480078844214D034B9D7EDBD
:103400001F0AB0EE600A404600F02CF8484601F072
:1034100071FA284601F06EFA304601F06BFA00F0BE
:1034200067F80F480470012C09D1F0EE480A3A46BB
:10343000B0EE690A2946404601F0D0FB0BE0B0EE41
:10344000481A3B46F0EE490AB0EE680A3246294671
:10345000404601F0FBFA0120B8E7000057000020C9
:103460005600002000B9704780ED0C0A80ED0D0A6F
:10347000012180F8381000BFF5E7012070470000F7
:1034800010B5044604B910BD204601F04FFA79206A
:10349000005D38B900217A2001559FED140A84EDB2
:1034A0001F0A20E07920005D012807D101217A2040
:1034B0000155B7EE000A84ED1F0A14E07A20005D82
:1034C00030B17A20005D012802D001217A20015517
:1034D0007A20005D012802D1B7EE000A01E09FEDDD
:1034E000030A84ED1F0A00BFCDE7000000000000C2
:1034F00010B501F023FA10BD00B9704700238D22EA
:1035000013548E22115400BFF7E770B504460D46E0
:1035100004B970BD0DB1012000E0002084F87800EE
:10352000204601F003FA00BFF3E710B52DED028B42
:103530000446B0EE408A14B9BDEC028B10BDB0EE6B
:10354000480A2046FFF71CFE00BFF5E770B52DEDD9
:10355000048B84B004460E461546B0EE408AD5ED85
:10356000171AB0EE611AD5ED0F1AF0EE610AD5ED1B
:10357000071AB0EE610A02A903A801F08DFE94EDCE
:10358000050AB0EE401A694601A8DDED020A9DED7C
:10359000030A01F00DFFD4ED040AB0EE601AD4ED79
:1035A000080AB0EE600ADFED140A01F05FFEF0EEEB
:1035B000408AD4ED090AB0EE600AB0EE481ADDED9B
:1035C000000A304600F026FAB0EE409A9DED000A5F
:1035D00084ED0A0A9FED080A84ED060AB0EE681A27
:1035E000F1EE680AB0EE490A01F040FE84ED070AE8
:1035F00004B0BDEC048B70BD0000000010B52DEDD3
:10360000048B0446B0EE409AF0EE608AB0EE418A38
:1036100014B9BDEC048B10BDB0EE480A00F0D2FF27
:10362000B0EE408ADFED1A0A28EEA01A207900EEEB
:10363000900AF8EE600A61EE200A20EE881A94F9EA
:103640000C0000EE900AF8EEE01AD4ED050A41EE07
:10365000210AB0EE600A01F0D3FE84ED050A9FED69
:103660000D0A84ED060A94ED080AB0EE401ADFED6B
:10367000090AB0EE490A01F0F9FD84ED070AD4ED1C
:10368000050AB0EE600A2046FFF789FD00BFC0E7DB
:10369000DA0FC940000000002DE9F0432DED088B42
:1036A00083B004460F469046F0EE408A9FED3A0AFA
:1036B0008DED020A9FED380A8DED010A9FED360A65
:1036C0008DED000A1CB117B1B8F1000F04D103B0A1
:1036D000BDEC088BBDE8F08304F1780504F188099E
:1036E000B0EE680A424639462046FFF72FFF94EDB8
:1036F000069AD4ED079A94ED0AAAD4ED090AB0EE21
:10370000600A6B4601AA02A9DFED230A204600F0F9
:1037100029F994ED090AB0EEC00AB0EE40BA284685
:1037200000F024FA0646012E02D1B7EE000A01E0AD
:103730009FED190AF0EE40AAD5ED010AB0EE600A3D
:10374000B0EE681AF0EE6A0A484600F077FAB0EE7A
:10375000408A85ED018A9DED020A79EE400A9DEDD1
:10376000020A00EE880A84ED060A9DED010A79EE50
:10377000C00A9DED010A00EE880A84ED070A9DED5E
:10378000000A7AEE400A9DED000A00EE880A84EDF8
:103790000A0A00BF9BE70000000000002DE9F0418D
:1037A0002DED028B04460E461746F0EE408AB0EE31
:1037B000608A1CB9BDEC028BBDE8F08104F188057C
:1037C000B0EE680A01F01CFE84ED050AB0EE480A6E
:1037D00000F0F8FEB0EE408A07B106B9EAE794F8C7
:1037E000780038B1B0EE480A3A4631462046FFF735
:1037F00053FF24E00DB1002028707920005D80B9CE
:1038000000217A2001559FED120A84ED1F0AD4EDA4
:10381000090AB0EE600ADFED0E0A204600F01AF841
:103820000DE001217A200155B7EE000A84ED1F0A50
:10383000B0EE480A3A4631462046FFF787FED4EDFF
:10384000050AB0EE600A2046FFF7A9FC00BFB1E709
:103850000000000010B52DED028B84B00446B0EEE0
:10386000408AF0EE608A9FED140A8DED030A9FED09
:10387000120A8DED020A9FED100A8DED010A1CB9A6
:1038800004B0BDEC028B10BD01AB02AA03A9F0EE9F
:10389000680AB0EE480A204600F064F89DED020A7E
:1038A00084ED070A9DED030A84ED060A9DED010AE9
:1038B00084ED0A0A00BFE3E70000000010B52DED1B
:1038C000048BB0EE408A9FED230AF0EE408A9FED14
:1038D000220AB0EE409AB7EE001ADFED1E0A9FED05
:1038E0001F0A01F0C3FCF0EE409A9FED1D0A38EE6E
:1038F000800AB4EEC90AF1EE10FA0CDBB4EEE88AE5
:10390000F1EE10FA04D8B0EE690ABDEC048B10BDDC
:10391000B7EE000AF9E7B4EEE88AF1EE10FA02D841
:10392000B0EE690AF1E7B4EEC98AF1EE10FA02DBF3
:10393000B7EE000AE9E738EE680A39EE681AC0EE19
:10394000010AB7EE000A30EE691AB0EE690A01EE1C
:10395000200ADAE700000000CDCCCC3FCDCCCC3D36
:10396000BD3786352DE9F0412DED088B0446B0EECC
:1039700040BAF0EE60AA0D4616461F4614B10DB1CE
:1039800006B11FB9BDEC088BBDE8F081D4ED040A87
:10399000B0EE601AD4ED080AB0EE600ADFED1B0A43
:1039A00001F064FCB0EE409A94ED000AB0EEC08ADB
:1039B0009FED170AB4EEC08AF1EE10FA03D29FED24
:1039C000140AB0EE408AC9EE088AB0EE681AF1EE29
:1039D000680AB0EE4B0A01F049FCF0EE409AB0EEF6
:1039E000681AF1EE680AB0EE6A0A01F03FFCB0EE28
:1039F00040AA29EE880A86ED000A2AEE080A85ED1B
:103A0000000AC7ED009A00BFBCE7000000000000FC
:103A1000BD37863510B52DED0C8B0446B0EE40AAAF
:103A2000F0EE60BAB0EE419A24B99FED4D0ABDECBC
:103A30000C8B10BDB0EE490A00F0C4FDB0EE409A08
:103A40007AEE6BAAB0EEEA0AF5EE000AB4EEE00AEE
:103A5000F1EE10FA02D89FED428A01E0B0EE6A8AD8
:103A6000B7EE001ADFED3E0A9FED3E0A01F0FEFBC5
:103A7000B0EE40BAB5EEC08AF1EE10FA06D194ED80
:103A8000030A20EE0B0A84ED030A05E094ED030A15
:103A900008EE090A84ED030AB0EECA0AB0EE40DA75
:103AA000FFF70CFFB0EE40CA94ED010A60EE0C8AFD
:103AB00094ED040A38EE400AC0EE099A94ED000A2B
:103AC00020EE080AD4ED030A08EEA00AD4ED020A9B
:103AD00000EEA90AF0EE40CA94ED060AB0EE401AD4
:103AE00094ED050AF0EE400AB0EE6C0A01F0BEFB60
:103AF000F0EE40CA9FED1C0AF4EEC08AF1EE10FA17
:103B000028DD94ED050AD4ED000A00EEC80AD4EDD4
:103B1000020A00EEE90AC0EE280AB0EE60DA94ED7F
:103B2000060AD4ED000A00EEC80AD4ED020A00EE3F
:103B3000E90AC0EE280AF0EE60DAD4ED030AB0EE2E
:103B4000600AB0EE6D1AF0EE4D0A01F08FFB84EDC5
:103B5000030A00BF84ED048AB0EE6C0A67E7000038
:103B60000000000048E17A3FBD37863510B52DEDE5
:103B7000048B0446F0EE408A607828B90020A070DB
:103B8000A078BDEC048B10BD6078012802D1A07034
:103B9000A078F6E7D4ED020AB0EE600A9FED241A91
:103BA000DFED240A01F062FBB0EE409AD4ED030A87
:103BB000B0EE600A9FED1E1ADFED1E0A01F056FB03
:103BC000B0EE408A9FED1C0A39EE000AB4EEC80A36
:103BD000F1EE10FA05DD9FED180A39EE000AB0EE9D
:103BE000408AA07868B1A07801280AD0F4EEC88A8B
:103BF000F1EE10FA01DB012000E00020A070A078B7
:103C0000BFE7A078012807D1F4EEC98AF1EE10FAD7
:103C100002D80020A07008E0A07830B9F4EEC88A7D
:103C2000F1EE10FA01DB0120A070A078A9E70000F6
:103C30000024744900000000BD37863510B52DED15
:103C4000048BB0EE408A0446B0EE609AF0EE418AF2
:103C5000B7EE001ADFED1A0AB0EE490A01F006FBD2
:103C6000B0EE409A44B1207830B901202070B0EE17
:103C7000490ABDEC048B10BD9FED120A38EE800A94
:103C8000C8EE800AF0EE609AB7EE001ADFED0C0A7B
:103C9000B0EE690A01F0EAFAF0EE409A79EE480ACD
:103CA000B0EE480A00EEA90AB0EE408AB7EE001A5C
:103CB000DFED030AB0EE480A01F0D8FAD9E70000B8
:103CC000000000009A99193F2DE9F0472DED088B6F
:103CD00082B007460D4616469FED5C0AF0EE40AAFC
:103CE0009FED5A0AB0EE40BA9FED580AB0EE408AF6
:103CF0009FED560AB0EE409A4FF000094FF01E08B3
:103D00009FED530AF0EE409A0FB105B12EB9002095
:103D100002B0BDEC088BBDE8F087002445E000EE62
:103D2000104AB8EE400A29EE800AF0EE408A01AB54
:103D300002220421B0EE680A384600F015FE00B9F0
:103D400031E0B9F1000F08D19DED010AF0EE40AA73
:103D5000B0EE68BA4FF0010925E0DDED010A70EE22
:103D6000EA0AB0EE600A01F069FBB0EE40AA38EE54
:103D7000CB0AF0EE40BAB0EECA0ADFED360AB4EE76
:103D8000E00AF1EE10FA07DB38EE0A0AB0EE408ADC
:103D900039EE2B0AB0EE409A9DED010AF0EE40AAF2
:103DA000B0EE68BA00BF601C84B24445B7DDB0EE27
:103DB000C80ADFED280AB4EEE00AF1EE10FA08D3E3
:103DC000B0EEC90ADFED240AB4EEE00AF1EE10FA13
:103DD00001D200209CE7B5EEC08AF1EE10FA01DBBB
:103DE000012001E04FF0FF30287089EE080AB0EEA4
:103DF000C00AF6EE000A30EE200ABDEEC00A10EE50
:103E000010AA5046FFF7FCF830709FED100A3846B4
:103E1000FFF7B6F9042000F05AFD444611E000EE29
:103E2000104AB8EE400A29EE800AF0EE408A01AB53
:103E300002220421B0EE680A384600F095FD601EAB
:103E400084B2002CEBD1012062E7000000000000EA
:103E50004F77563EA69BC43ABD37863510B52DED3B
:103E6000088BB0EE408AF0EE608A9FED3E0AF4EED9
:103E7000C08AF1EE10FA19DD9FED3B0AF4EEC08A1C
:103E8000F1EE10FA12D29FED370AB4EEC08AF1EECD
:103E900010FA0BDD9FED340AB4EEC08AF1EE10FA91
:103EA00004D29FED320ABDEC088B10BDF5EEC08A3E
:103EB000F1EE10FA02DBB0EE680A01E0B1EE680A3A
:103EC000F0EE409AB5EEC08AF1EE10FA02DBB0EEE9
:103ED000480A01E0B1EE480AB0EE40AADFED24AA9C
:103EE000F4EECA9AF1EE10FA0EDB9FED1F0A39EEDE
:103EF000800ACAEE000AB0EE60BAB0EE4B0A00F0DB
:103F0000C9F8B0EE409A0DE09FED170A3AEE000AAC
:103F1000C9EE800AB0EE60BAB0EE4B0A00F0BAF813
:103F20003AEEC09AF5EEC08AF1EE10FA0ADBB5EE71
:103F3000C08AF1EE10FA02DBB0EE490AB3E7B1EE47
:103F4000490AB0E7B5EEC08AF1EE10FA04DB9FED46
:103F5000090A30EE490AA6E79FED060A39EE400A43
:103F6000A1E70000BD3786B5BD37863500000000EB
:103F7000DA0FC93FDA0F494010B52DED088BB0EECE
:103F8000408AF0EE608A9FED3E0AF4EEC08AF1EEC0
:103F900010FA19DD9FED3B0AF4EEC08AF1EE10FA3B
:103FA00012D29FED370AB4EEC08AF1EE10FA0BDDA3
:103FB0009FED340AB4EEC08AF1EE10FA04D29FED00
:103FC000320ABDEC088B10BDF5EEC08AF1EE10FA96
:103FD00002DBB0EE680A01E0B1EE680AF0EE409A4A
:103FE000B5EEC08AF1EE10FA02DBB0EE480A01E04D
:103FF000B1EE480AB0EE40AADFED24AAF4EECA9A68
:10400000F1EE10FA0EDB9FED1F0A39EE800ACAEEC0
:10401000000AB0EE60BAB0EE4B0A00F065F8B0EE00
:10402000409A0DE09FED170A3AEE000AC9EE800AA9
:10403000B0EE60BAB0EE4B0A00F056F83AEEC09A15
:10404000F5EEC08AF1EE10FA0ADBB5EEC08AF1EEA9
:1040500010FA02DBB0EE490AB3E7B1EE490AB0E765
:10406000B5EEC08AF1EE10FA04DB9FED090A30EEDE
:10407000490AA6E79FED060A39EE400AA1E70000CB
:10408000BD3786B5BD37863500000000DA0FC93F61
:10409000DA0F494010B52DED028BB0EE408ADFED0E
:1040A0000F0AB6EE000A08EE200ABDEEC00A10EEB6
:1040B000104A4FF47A71204600F040F80446084850
:1040C00030F8140000EE100AB8EE400ADFED050AE1
:1040D00020EE200ABDEC028B10BD000000007A44E7
:1040E00010C900086F12833A10B52DED028BB0EEA7
:1040F000408ADFED0F0AB6EE000A08EE200ABDEE98
:10410000C00A10EE104A4FF47A71204600F021F8F0
:104110000446084830F8140000EE100AB8EE400AD1
:10412000DFED050A20EE200ABDEC028B10BD000079
:1041300000007A442ADD00086F12833A0246002A02
:1041400001DA002070478A4201D90846FAE790B2A6
:10415000F8E70246002A01DA002070478A4201D9B6
:104160000846FAE790B2F8E730B5F0EE401A9FED56
:104170003D0AB0EE402AB0EE610A05E09FED3A3A02
:1041800030EE433AB0EE430A9FED373AB4EEC30A3D
:10419000F1EE10FAF2DA05E09FED333A30EE033A31
:1041A000B0EE430AB5EEC00AF1EE10FAF4D3B0EE69
:1041B000401A81EE020ABCEEC00A10EE101AC8B214
:1041C000032800D9032000EE100AB8EE400AF0EEF2
:1041D000412A40EE422A9FED253AB6EE000A02EE51
:1041E000830ABDEEC00A10EE101A40F223640029C3
:1041F00001DA002504E0A14201D9254600E08DB294
:104200002A4640F22361891A8BB238B9184931F82D
:10421000121000EE101AF8EE400A1EE0012807D135
:10422000134931F8131000EE101AF8EE400A14E0AA
:10423000022809D10E4931F8121000EE101AB8EE1A
:10424000400AF1EE400A08E0094931F8131000EE87
:10425000101AB8EE400AF1EE400A9FED063A80EEE1
:10426000830A30BDDA0FC93FDA0FC94000007A4433
:10427000AEA8000800FEFF4670B52DED068BB0EE2F
:10428000409A9FED3B0AF0EE409AB0EE490A05E0F5
:10429000DFED380A70EE600AB0EE600ADFED350A35
:1042A000B4EEE00AF1EE10FAF2DA05E0DFED310AE1
:1042B00070EE200AB0EE600AB5EEC00AF1EE10FA18
:1042C000F4D3F0EE408A88EEA90ABCEEC00A10EEE4
:1042D000100AC4B2032C00D9032400EE104AB8EE31
:1042E000400AB0EE68AA00EE69AADFED230AB6EE36
:1042F000000A0AEE200ABDEEC00A10EE100A40F2D3
:104300002361FFF71BFF054640F22360401B86B286
:104310003CB91A4830F8150000EE100AB8EE408A91
:104320001EE0012C07D1154830F8160000EE100AE7
:10433000B8EE408A14E0022C09D1104830F815007C
:1043400000EE100AB8EE400AB1EE408A08E00B48D1
:1043500030F8160000EE100AB8EE400AB1EE408ABE
:10436000DFED070A88EE200ABDEC068B70BD000069
:10437000DA0FC93FDA0FC94000007A44C8BC000810
:1043800000FEFF4670B52DED068BB0EE409A9FED16
:104390003B0AF0EE409AB0EE490A05E0DFED380A3C
:1043A00070EE600AB0EE600ADFED350AB4EEE00AA6
:1043B000F1EE10FAF2DA05E0DFED310A70EE200AD4
:1043C000B0EE600AB5EEC00AF1EE10FAF4D3F0EEEA
:1043D000408A88EEA90ABCEEC00A10EE100AC4B2E8
:1043E000032C00D9032400EE104AB8EE400AB0EEC8
:1043F00068AA00EE69AADFED230AB6EE000A0AEE0B
:10440000200ABDEEC00A10EE100A40F22361FFF749
:10441000A0FE054640F22360401B86B23CB91A4814
:1044200030F8150000EE100AB8EE408A1EE0012CAC
:1044300007D1154830F8160000EE100AB8EE408A91
:1044400014E0022C09D1104830F8150000EE100AD3
:10445000B8EE400AB1EE408A08E00B4830F816008A
:1044600000EE100AB8EE400AB1EE408ADFED070A0E
:1044700088EE200ABDEC068B70BD0000DA0FC93F44
:10448000DA0FC94000007A44E2D0000800FEFF467F
:1044900070B52DED048B0446B0EE408AB0EE609A04
:1044A000F0EE419A0D46F0EE618A164614B9BDEC65
:1044B000048B70BDB5EEC08AF1EE10FA03D29FED09
:1044C000380AB0EE408AB0EE481ADFED350AB0EE99
:1044D000490A00F0CBFEB0EE409A9FED310A84ED20
:1044E000050A9FED2F0A84ED060A9FED2D0A84ED43
:1044F000070A84ED089A84ED048A9FED290A84ED69
:10450000090A9FED270A84ED0A0A9FED250A84ED2A
:104510000B0A9FED230A84ED0C0A9FED210A84ED1E
:104520000D0A002084F83800C4ED009A2571C4ED0E
:10453000028AC4ED0C8AC4ED0D8A012084F838008B
:1045400026739FED170A84ED100A9FED150A84ED7E
:10455000110A9FED130A84ED120A9FED110A84EDF2
:10456000130A9FED0F0A84ED140A9FED0D0A84EDE6
:10457000150A9FED0B0A84ED160A9FED090A84EDDA
:10458000170A002084F860002046FEF717FE204638
:10459000FEF770FC03212046FEF7AEFF00BF86E762
:1045A00000000000F0EE400AF5EEC00AF1EE10FA4D
:1045B00002DDB0EE600A70479FED010AFBE70000E4
:1045C0006F12833AF0EE400AF5EEC00AF1EE10FAEF
:1045D00002DDB0EE600A70479FED010AFBE70000C4
:1045E0006F12833A00B9704780ED000AC0ED010AEE
:1045F00080ED021ADFED062AC0ED032ADFED042A62
:10460000C0ED042AC0ED051A80ED062A00BFEAE7D6
:104610000000000010B52DED088B0446F0EE409A26
:10462000B0EE60AAF0EE418A24B99FED390ABDECE4
:10463000088B10BDB0EE680AFFF7B4FFF0EE408AB9
:1046400039EECA8A94ED030A08EE280A84ED030ABB
:1046500094ED040A38EE400A80EE289A94ED010A9F
:10466000D4ED030A20EE200AD4ED000A00EE880AF9
:10467000D4ED020A00EE890AF0EE40AA94ED060A93
:10468000B0EE401A94ED050AF0EE400AB0EE6A0A68
:1046900000F0ECFDF0EE40AA94ED010ADFED1D0AFA
:1046A000B4EEE00AF1EE10FA2CDD94ED050AD4ED3B
:1046B000000A00EEC80AD4ED020A00EEC90AD4EDE1
:1046C000010A80EE201AB0EE41BA94ED060AD4ED4C
:1046D000000A00EEC80AD4ED020A00EEC90AD4EDC1
:1046E000010A80EE201AF0EE41BAD4ED030AB0EED2
:1046F000600AB0EE6B1AF0EE4B0A00F0B7FD84EDE5
:10470000030A00BF84ED048AB0EE6A0A8FE7000056
:1047100000000000BD37863510B503F061FF04F0DE
:104720003BF910BD10B503F0B1FF10BD70B50446E4
:104730000D462946204603F0AFFF70BD10B504F0CA
:1047400083F910BD70B504460D462946204604F095
:1047500081F970BD0020704702460020704700209C
:10476000704702460020704710B542F6DF6109200D
:1047700003F058FC10BD00000748006840F080704E
:10478000054908600020054948600846006840F077
:104790000100086070470000FCED00E0001000E040
:1047A00010B500F035FD10BD70B504460D46294624
:1047B000204601F08FF870BD10B52DED048BB0EEE2
:1047C000408AF0EE608AB0EE419AB0EE491AF0EEFF
:1047D000680AB0EE480A01F0FBF8BDEC048B10BD8E
:1047E00010B501F047F910BD01484068704700005E
:1047F000001000E010B504462046FDF7E2FA10BDB7
:1048000070B504460D46182229462046FDF746FAA3
:1048100070BD70B504460D460C2229462046FDF7B2
:104820003DFA70BD10B504462046FCF7C1FF10BD2F
:1048300010B505F0EFF910BD70B5044604EB840027
:1048400040000B49B1FBF0F0451EFDF799FA2946EF
:10485000092003F06BFC03F09DFC2946092003F0BE
:10486000A5FC03F04DFDFDF79FF9FDF725FA70BD9E
:10487000C0D4010010B50446204603F01DFC2046BC
:1048800001F0E0F810BD10B50446204603F00EFC20
:1048900010BD70B504460D462946204600F0DAFCEE
:1048A00070BD10B50446204601F0C6F810BD10B525
:1048B0002DED028BB0EE408AB0EE480A03F0F2FC18
:1048C000BDEC028B10BD10B503F00CFC10BD10B593
:1048D0000446204604F080FB10BD10B50446204677
:1048E00003F02CFF10BD10B50446204603F0FCFE7B
:1048F00010BD000000B970479FED040A80ED030A67
:104900009FED020A80ED040A00BFF4E700000000FA
:1049100000B970479FED040A80ED030A9FED020A7B
:1049200080ED040A00BFF4E70000000000B9704702
:10493000002180F8881000BFF9E700009FED060A0B
:10494000064880ED000A9FED040A054880ED000A44
:104950000020044908707047000000005800002043
:104960005C000020600000202DE9F0412DED048B5B
:1049700082B00746B0EE409A884614461D469FED29
:10498000300AB0EE408A9FED2E0AF0EE408A0FB159
:1049900005B12CB9002002B0BDEC048BBDE8F0815C
:1049A000B0EE490A3846FEF7EBFB4046FFF78FFFB3
:1049B000002620E001A8FFF71DFF00B919E09DEDDA
:1049C000010AFFF759FC30EE080AB0EE408ADDED2F
:1049D000010A9FED1C1A70EE810AB0EE600AFFF723
:1049E0004BFC30EE280AF0EE408A0420FFF76FFF00
:1049F00000BF701C86B2A642DCDBB0EEC80ADFED59
:104A0000120AB4EEE00AF1EE10FA0AD2B0EEE80AA9
:104A1000DFED0D0AB4EEE00AF1EE10FA01D200204B
:104A2000B9E7F0EE680AB0EE480AFFF717FAF0EEC1
:104A3000409A00F0E5FC85ED000A0120ABE700009C
:104A400000000000DA0FC93FBD3786352DE9F0417F
:104A50002DED0C8B04460F469046F0EE409AB0EEDA
:104A600060AA1E46F0EE41CA24B11FB1B8F1000F92
:104A700000D01EB9BDEC0C8BBDE8F08104F16405DB
:104A8000B0EE6C0AFFF78EFDF0EE40CA94F90C0010
:104A900000EE100AB8EEC00A20EE290AF0EE409AA5
:104AA000D6ED1F0AB0EE600A204600F0D5F894F962
:104AB0000C0000EE100AB8EEC00AD4ED0C0A60EE4D
:104AC00020AA39EEEABAB0EECB9A95ED040AD5EDFC
:104AD000030A70EE60BA9FED3E0AF4EEC0BAF1EE42
:104AE00010FA03D29FED3A0AF0EE40BA95ED030AB0
:104AF000B4EEC90AF1EE10FA02DB9FED368A0FE040
:104B000095ED040AB4EEC90AF1EE10FA02D8B7EE38
:104B1000008A05E095ED030A39EE400A80EE2B8A03
:104B2000B5EEC0BAF1EE10FA02DBB0EECA0A03E04D
:104B3000B0EECA0AB1EE400A20EE08CA9FED260A7E
:104B4000B4EEC08AF1EE10FA07D23846FFF7E0FE65
:104B5000FFF7F4FEDFED1F8A17E0D6ED1F0AB0EE77
:104B6000600AB0EE6C1AF0EE4C0A204600F0A6F88F
:104B7000B0EE40DAB0EE6C1ADFED160AB0EE4D0A78
:104B80003846FFF747FDF0EE408AB0EE6C1AF0EEC3
:104B90006A0AB0EE690A29464046FDF72FFDF0EE9D
:104BA00040DAB7EE000A30EE480A20EE2D0A08EE91
:104BB000280A84ED090A84ED0BCAD6ED1F0AB0EE6F
:104BC000600A2046FEF780FB84ED050A00BF51E72E
:104BD000BD3786350000000017B7D13870B52DED10
:104BE000048B04460E461546B0EE408AF0EE608A0D
:104BF0000CB106B115B9BDEC048B70BDB0EE680AFE
:104C0000FFF7D0FCF0EE408AD5ED1F0AB0EE600A47
:104C1000B0EE681AF0EE480A204600F04FF8B0EE09
:104C2000409AB0EE681ADFED0B0AB0EE490A304642
:104C3000FFF7F0FC84ED090A84ED0B8AD5ED1F0A1D
:104C4000B0EE600A2046FEF73FFB84ED050A00BF88
:104C5000D1E700000000000010B52DED028B0446E6
:104C6000B0EE408A14B9BDEC028B10BD94F8380048
:104C700038B984ED0D8A84ED0C8A012084F838005F
:104C8000F1E7D4ED0D0A78EE600AB0EE600A00F0AC
:104C9000D5FBF0EE408AB0EEE80AD4ED190AB4EE86
:104CA000E00AF1EE10FA05DB94ED0C0A30EE280A6A
:104CB00084ED0C0A84ED0D8A00BFD4E710B52DED0C
:104CC000068B0446B0EE409AF0EE609AF0EE418A10
:104CD00024B99FED250ABDEC068B10BDB0EE680A25
:104CE000FFF760FCF0EE408A94F90C0000EE100A29
:104CF000B8EEC00A20EE098A1C48007868B91C4842
:104D000080ED008A9FED180A1A4880ED000A012004
:104D1000164908709FED140ADDE71548D0ED000A2A
:104D200078EE600AB0EE600A00F088FBF0EE40AA70
:104D30000F4880ED008A29EEA8AA3AEE6A0A0D48CB
:104D4000D0ED000A30EE200A80ED000A9FED0A1A2D
:104D5000DFED0A0A90ED000A00F088FA054880EDC0
:104D6000000A90ED000AB6E7000000006000002095
:104D70005C00002058000020DA0FC941DA0FC9C1D9
:104D800010B50446012C02D1FFF7CCFC10BD022C5B
:104D900002D1FFF7D3FCF9E7032C02D1FFF7DAFCCD
:104DA000F4E7042C02D1FFF7DAFCEFE70020EDE78F
:104DB00070B504460D461646012C04D131462846EE
:104DC000FFF7B4FC70BD022C04D131462846FFF732
:104DD000B9FCF7E7032C04D131462846FFF7BCFCA9
:104DE000F0E7042C04D131462846FFF7BAFCE9E786
:104DF0000020E7E72DE9F04105460F4615B90020F0
:104E0000BDE8F081012410E02046FFF7B9FF00B9AA
:104E100009E03A4629462046FFF7CAFF06460EB18A
:104E20003046EDE700BF601CC4B2042CECD9002072
:104E3000E6E700BFFEE708B5009002E00099491ED2
:104E4000009100990029F9D108BD000010B540F289
:104E5000157004F01DFE124804F068FC4FF4004188
:104E60000F4804F0A8FC00210D4804F0A4FC0C48F5
:104E700004F03CFC00F0E8F800220A49084804F07D
:104E80008DFB00231A461946054804F086FC0448A9
:104E900004F051FC4FF48061014804F077FB10BD31
:104EA00000540040E093040010B540F2036004F0A9
:104EB000EFFD402303221C21044804F0B9FA8023AB
:104EC00003221C21014804F0B3FA10BD000C01407C
:104ED00010B5FFF7E9FFFFF7B9FF10BD2DE9F04767
:104EE0008046894617461E4616B90020BDE8F08761
:104EF0000FB90120FAE700F087F804460CB120460C
:104F0000F4E76FF00101404600F062F804461CB17E
:104F100000F08EF82046E9E749462C4804F0E2FB11
:104F200042F6E062012140F2075000F0D3F8044657
:104F30001CB100F07DF82046D8E700F065F8044683
:104F40000CB12046D2E70121404600F041F804466A
:104F50001CB100F06DF82046C8E700251FE0701E68
:104F6000A84206D10021194804F010FB174804F0AC
:104F70002FFC42F6E062012140F2065000F0AAF850
:104F8000044634B14FF48061104804F0FFFA204623
:104F9000ACE70E4804F0A2FB7855681C85B2B54218
:104FA000DDDB42F6E06000F0ADF8044634B14FF4CA
:104FB0008061064804F0EAFA204697E74FF48061E2
:104FC000024804F0E3FA002090E70000005400409B
:104FD00070B504460D462A4621460A4804F0D3FB24
:104FE00042F6E062012140F2015000F073F80646FB
:104FF0000EB1304670BD40F20151024804F0A0FBF2
:105000000020F7E70054004010B5084804F0DBFB2F
:1050100042F6E06201214FF4A06000F05BF8044624
:105020000CB1204610BD0020FCE7000000540040F9
:1050300010B5044804F0CCFB42F6E06000F062F8E2
:1050400010BD00000054004010B5C02303221421FD
:105050001F4804F0EDF9C0211D4804F0E7F94FF4B2
:105060001670FFF7E8FE002411E04021184804F014
:10507000DBF94FF41670FFF7DEFE4021144804F010
:10508000D5F94FF41670FFF7D6FE601CC4B2092C98
:10509000EBDB80210E4804F0C7F94FF41670FFF7E0
:1050A000CAFE40210A4804F0C1F94FF41670FFF718
:1050B000C2FE8021064804F0B9F94FF41670FFF7DC
:1050C000BAFEC02303221C21014804F0B1F910BD2F
:1050D000000C01402DE9F04104460D4616463746C6
:1050E00006E027B9FFF7B2FE0220BDE8F0817F1E7F
:1050F0002146034804F038FBA842F2D10020F4E72F
:105100000054004070B50446254605E01DB9FFF780
:105110009DFE022070BD6D1E0348006800F4007003
:105120000028F3D100BFF5E700540040C0ED001A9D
:10513000C0ED011A9FED082A80ED022AC0ED030A96
:1051400080ED040A80ED051A9FED042A80ED062A01
:10515000C0ED071A704700006666663F0000000059
:1051600080ED000A90ED031AD0ED051A31EE211AF8
:1051700080ED031A90ED031AD0ED041A31EE211AD6
:10518000F0EE410A9FED201AF4EEC10AF1EE10FA9A
:1051900012D280ED010AB7EE001A80ED021A9FEDDF
:1051A0001B1A80ED031A90ED011AD0ED061A31EEAC
:1051B000611A80ED071A704790ED031AC1EE201AAC
:1051C000C0ED021A90ED011AD0ED021A90ED012AFD
:1051D00030EE422A01EE821A80ED011A90ED021A99
:1051E000F7EE001A31EEC11AD0ED031A21EE211AA2
:1051F00080ED031A90ED011AD0ED061A31EE611A16
:1052000080ED071A00BFD6E7BD37863500000000E5
:1052100010B540F2036004F03BFC40F2036004F080
:1052200037FC40F2036004F033FC202303221021FA
:10523000074804F0FDF8102303221946044804F03F
:10524000F7F8082303221021014804F0F1F810BDFB
:10525000000C014070B505460C461CB1284602F012
:10526000C7FD02E0284600F02FFF70BDF0EE401AA7
:10527000F4EEE01AF1EE10FA02D2B0EE600A7047D6
:10528000F4EEC11AF1EE10FA02DDB0EE410AF6E7D3
:10529000B0EE610AF3E7000080ED000A70EEC11A7B
:1052A0009FED032A61EE821AC1ED001A70470000DB
:1052B000D7B35D3F10B52DED028BB0EE408ADFED28
:1052C000050A78EE200AB0EE600AFEF74DFFBDEC4D
:1052D000028B10BDDA0FC93F00B5B0EE402AB0EE28
:1052E000603A00B111B9B0EE420A00BDB7EE001A43
:1052F000DFED0E0AB0EE430AFFF7B8FFF0EE402AEA
:105300000A7832B980ED002A01220A70B0EE420A12
:10531000EBE790ED000AD0ED000A72EE600A02EEB3
:10532000A00A80ED000A90ED000ADEE70000000010
:1053300080ED000ABEEE001A20EE011ADFED081A19
:1053400001EEA01A81ED001ABEEE001A20EE011A3D
:10535000DFED031A01EEE01A82ED001A704700003B
:10536000D7B35D3F70B52DED068BB0EE408AF0EE01
:10537000608AB0EE419A04460D46B0EE490AFEF747
:10538000F3FEF0EE409AB0EE490AFFF793FFB0EE5D
:1053900040AA28EE0A0A08EEE90A84ED000A28EE7F
:1053A000290A08EE8A0A85ED000ABDEC068B70BD5D
:1053B00070B52DED068BB0EE408AF0EE608AB0EE4F
:1053C000419A04460D46B0EE490AFEF7CDFEF0EED6
:1053D000409AB0EE490AFFF76DFFB0EE40AA28EE02
:1053E0000A0A08EEA90A84ED000AB1EE480A20EE86
:1053F000290A08EE8A0A85ED000ABDEC068B70BD0D
:1054000005E0DFED0D0A70EE600AB0EE600ADFED38
:105410000A0AB4EEE00AF1EE10FAF2DA05E0DFED86
:10542000060A70EE200AB0EE600AB5EEC00AF1EE90
:1054300010FAF4D370470000DA0FC94005E0DFED41
:105440000E0A70EE600AB0EE600ADFED0C0AB4EEF0
:10545000E00AF1EE10FAF2DC05E0DFED070A70EE8B
:10546000200AB0EE600ADFED060AB4EEE00AF1EEC3
:1054700010FAF2D370470000DA0FC940DA0F494042
:10548000DA0F49C000BFFEE70120014908707047EC
:10549000C90000202DE9F04104460D4616461F467E
:1054A000DDF818802CB125B11EB117B1B8F1000F8D
:1054B00001D1BDE8F08194ED080AB1EE400A85ED16
:1054C000050A94ED080A85ED060A94ED080AB1EE86
:1054D000400A87ED050A94ED080A87ED060A94ED67
:1054E000080AB1EE400A86ED050A94ED080A86ED39
:1054F000060A00212046FEF708F800BFD9E770B57C
:105500002DED048B04460D46B0EE408AF0EE608A25
:10551000B0EE419AF0EE619A16463246F0EE691A04
:105520002946B0EE491AF0EE680AB0EE480A204665
:10553000FEF7AEFFBDEC048B70BD2DE9F8430546C8
:105540000E4617469846089C2DB126B11FB1B8F1FA
:10555000000F00D00CB9BDE8F883D5ED082AB0EEF5
:10556000622AD5ED082AF1EE622AF0EE621AD4ED35
:10557000072AB0EE621AD4ED062AF0EE620AD4EDE4
:10558000052AB0EE620A3046FFF72CF8D5ED082A5E
:10559000B0EE622AD5ED082AF1EE622AF0EE621A28
:1055A000D4ED0A2AB0EE621AD4ED092AF0EE620AAE
:1055B000D4ED082AB0EE620A4046FFF713F8D5EDA5
:1055C000082AB0EE622AD5ED082AF1EE622AF0EE42
:1055D000621AD4ED0D2AB0EE621AD4ED0C2AF0EE68
:1055E000620AD4ED0B2AB0EE620A3846FEF7FAFFE3
:1055F00043463A46314628460094FFF74BFF00BF2A
:10560000A9E770B504460D462946204601F0C8FFBB
:1056100070BD10B52DED028B0446B0EE408AB0EEA1
:10562000480A204602F080F9BDEC028B10BD10B58F
:10563000044602F04BFA204602F06CF910BD10B59A
:10564000044602F04CFA204602F064F910BD10B591
:10565000FDF720FE10BD10B504462046FDF7AEFD57
:1056600010BD10B504462046FDF70AFF10BD2DE918
:10567000FC4705460E4617469846DDE90A9425B1D3
:10568000012D23D0022D3DD12FE020792168CDE9D5
:10569000001094ED082AF0EE421A94ED042AB0EEC0
:1056A000421A94ED032AF0EE420A94ED022AB0EE7B
:1056B000420A94F804C04B46424639463046D4F874
:1056C00000A0FDF76BFE0120BDE8FC8794ED081AF1
:1056D000F0EE410A94ED051AB0EE410A3946304623
:1056E0002268FDF7DBFD0120EEE794ED071AF0EEEE
:1056F000410A94ED061AB0EE410A3046FDF738FE35
:105700000120E1E70020DFE710B501F06BFF10BDDD
:1057100010B52DED028BB0EE408AB0EE480A02F0D3
:10572000EDF8BDEC028B10BD1FB5194890F8610073
:1057300018B10120FDF71EF81FBD1648FFF777FFCF
:105740000020009001900290039001208DF8050048
:10575000104890F880008DF806000E4890F88100FF
:105760008DF807000B4890ED220A8DED020A68467D
:1057700001F043FC064890F84C0018B90120FCF7F2
:10578000F9FFD9E70348FDF753FA00BFD4E700005B
:10579000A8070020340600207047000010B500283C
:1057A00007DA0A07140E054A00F00F031B1FD45432
:1057B00003E00A07130E024A135410BD18ED00E06F
:1057C00000E400E00346481C03FB00F26420B2FB47
:1057D000F0F28A4200D90A4690B270470146B5EE0F
:1057E000C00AF1EE10FA02D2DFED0F0A0BE0B7EEBD
:1057F000001AB4EEC10AF1EE10FA02DDF7EE000A6B
:1058000001E0F0EE400A481C01EE100AB8EE411A21
:1058100020EE811ABCEEC11A11EE102A8A4200D97C
:105820000A4690B2704700000000000010B5012148
:10583000014804F099FC10BD002C014010B540F265
:10584000026004F025F940F2026004F021F940F210
:10585000026004F01DF940F2036004F019F940F20F
:10586000036004F015F940F2036004F011F94FF4FD
:10587000C06004F00DF94FF480730322182113481F
:1058800003F0D6FD4FF40073032218210F4803F0F4
:10589000CFFD4FF48063032218210C4803F0C8FDAC
:1058A0004FF4005303221821094803F0C1FD4FF4BF
:1058B000804303221821064803F0BAFD4FF4004349
:1058C00003221821024803F0B3FD10BD0008014077
:1058D000000C014070B504460D46FFF7AFFF1348BA
:1058E000B0FBF4F0C0F34F0011490880084600886F
:1058F000411E002000F0DEF80D4800886843642156
:1059000090FBF1F086B2304600F014F80021084612
:1059100000F032F80021012000F02EF800210220D2
:1059200000F02AF8FFF782FF70BD0000C0D401002C
:10593000200000201FB50446FF2C00DDFF24684630
:1059400004F0A4F90020ADF80000ADF80200ADF8B5
:105950000440ADF80600ADF808004FF48070ADF8D3
:105960000A000020ADF80C006946024804F07FF9F7
:105970001FBD0000002C01402DE9F04106460C46F9
:10598000642C00DD64240F4884550F4801882046AC
:10599000FFF718FF074626B1012E04D0022E06D1CC
:1059A00003E0002505E0012503E0022501E0BDE854
:1059B000F08100BF3A462946044804F094FA00BF3B
:1059C000F5E700001C00002020000020002C014012
:1059D00010B52DED048BB0EE409AB0EE608AF0EE7B
:1059E000418A13480088B0EE490AFFF7F7FE0446E3
:1059F000224600210F4804F076FA0D480088B0EEE8
:105A0000480AFFF7EBFE044622460121094804F04C
:105A10006AFA07480088B0EE680AFFF7DFFE04461E
:105A200022460221034804F05EFABDEC048B10BD4F
:105A300020000020002C0140014908607047000050
:105A40002400002010B504464CB10121084804F0A0
:105A500061FB00220121192003F0E0FE06E0012194
:105A6000034804F053FB192003F0CAFE10BD0000E8
:105A7000002C014010B5024804F0EEFA10BD000001
:105A8000002C014010B50121084804F04AFB00B980
:105A900010BD0121054804F041FB0548006810B124
:105AA00003480068804700BFF2E70000002C014077
:105AB0002400002030B587B005460C4640F20B604C
:105AC00003F0E6FF304804F059FAA8B2ADF8000040
:105AD0004020ADF802000020ADF804000294ADF8BB
