:020000040800F2
:10000000D81700200902000855570008B54D000810
:1000100055530008051E0008A58B000800000000CD
:1000200000000000000000000000000079710008DE
:100030001D1F000800000000A35B00082D7F0008C2
:1000400023020008230200082302000823020008FC
:1000500023020008230200082302000823020008EC
:10006000230200082302000823020008151F0008CD
:1000700023020008230200082302000823020008CC
:1000800023020008230200081F17000823020008AB
:1000900023020008230200082302000823020008AC
:1000A000230200087D8000082302000823020008C4
:1000B000858000088D8000089580000823020008D4
:1000C000230200082302000823020008230200087C
:1000D000230200082302000859860008118A00083C
:1000E000230200082302000823020008230200085C
:1000F000230200082302000823020008230200084C
:10010000230200082302000823020008230200083B
:10011000230200082302000823020008230200082B
:10012000230200082302000823020008230200081B
:1001300000F002F800F058F80AA090E8000C8244A1
:100140008344AAF10107DA4501D100F04DF8AFF27E
:10015000090EBAE80F0013F0010F18BFFB1A43F0A5
:1001600001031847FCE600001CE70000103A24BF1A
:1001700078C878C1FAD8520724BF30C830C144BF0C
:1001800004680C607047000000230024002500264E
:10019000103A28BF78C1FBD8520728BF30C148BFEA
:1001A0000B60704766290AF00084642900F0B8806B
:1001B000752900F0B580782900F0EE80632900F001
:1001C0006085732900F06585002070471FB50AF02F
:1001D00068FB00F063FD0400002000210AF088F9AC
:1001E000E0601FBD10B510BD00F05CFE1146FFF7CA
:1001F000EDFF09F073FB00F07AFE03B4FFF7F2FFA6
:1002000003BC00F0BDFE00000948804709480047D4
:10021000FEE7FEE7FEE7FEE7FEE7FEE7FEE7FEE7B6
:10022000FEE7FEE704480549054A064B7047000013
:10023000357F000831010008D8070020D8170020BA
:10024000D80F0020D80F00200FB47CB50C0009AAED
:10025000009001D02044401E084B7B446946019029
:10026000089800F0E4FC05461CB10020694600F047
:10027000F1FC28467CBC5DF814FB0000010A00007C
:1002800070B5044685690068C10601D5302600E0D6
:100290002026C00707D070BDD4E901213046904721
:1002A000206A401C20626D1EF6D570BD70B50446F4
:1002B00085690078C00707D170BDD4E901212020ED
:1002C0009047206A401C20626D1EF6D570BD70B547
:1002D0000C460546012A05D02878800600D5EA6933
:1002E000002302E0012305E05B1C934202D2E05CA4
:1002F0000028F9D1A869E618C01AA861286A18442C
:1003000028622846FFF7BCFF04E0D5E9012114F874
:10031000010B9047B442F8D32846FFF7C7FF70BDE2
:100320002DE9F0410646002410687529314616A5CE
:1003300010D0AFF30080002802DA404213A507E096
:1003400031688A0701D512A502E0490704D511A535
:10035000012401E0AFF3008000210A2206F1240706
:1003600009E0B0FBF2FCB0FBF2F302FB1C00303002
:1003700078541846491C0028F3D123462A463046B3
:10038000BDE8F04100F0E5B9000000002D000000DC
:100390002B0000002000000070B504460D462146E9
:1003A0001068AFF300802188090502D50F4A7A440E
:1003B00002E00E4A7A440E32002104F1240305E0E3
:1003C00000F00F060009965D5E54491C0028F7D125
:1003D00020780023000704D5702D02D009B1022334
:1003E00011322046BDE8704000F0B3B94AE2000087
:1003F0002DE9F05F894604464FF0000ADFF874B13A
:10040000FB44C0F820A02046E1688847002874D04B
:10041000252806D0D4E901219047206A401C20629B
:10042000F1E700265F462046E16888472028054618
:1004300007DB312D05D2781910F8200C08B10643DE
:10044000F1E7B00701D526F00406C4F81CA0002788
:10045000C4F818A02A2D09D0284608F077FC38B334
:1004600004EB8708303DC8F8185019E059F8041B10
:10047000204604EB87029161E1688847012F054619
:1004800018D1E069002820DA26F020061DE0D8F80F
:10049000180000EB800005EB40003038C8F8180069
:1004A0002046E1688847054608F050FC0028EED158
:1004B000012F0AD02E2D08D12046E16888477F1CE5
:1004C0000546022F46F02006C4DBA069002803DAA7
:1004D000404246F00106A061F00701D026F0100668
:1004E0006C2D0BD0682D09D04C2D39D06A2D35D00C
:1004F000742D35D07A2D33D016E038E0E1682F46E0
:1005000020468847B842054609D16C2F26D04FF4C3
:100510008060E168064320468847054604E06C2F6A
:100520001AD04FF4807006430DB3A5F1410019288D
:1005300002D8203546F400664A4629462046266001
:100540004E46FFF72FFE80B101280BD0F61D26F096
:10055000070000F1080956E74020E4E78020D8E7CB
:100560000020D6E706F104094DE7284652E7206A45
:10057000BDE8F09F20E2000010B5431C02E010F837
:10058000011B71B18107FAD14FF0013202C88C1AF8
:100590008C4314EAC211F9D0C01A0A0603D0C01E57
:1005A00010BDC01A10BD0A0401D0801E10BD090282
:1005B000FCD0401E10BD032A40F2308010F0030C26
:1005C00000F0158011F8013BBCF1020F624498BFA6
:1005D00011F801CB00F8013B38BF11F8013BA2F143
:1005E000040298BF00F801CB38BF00F8013B11F0BE
:1005F000030300F02580083AC0F0088051F8043B5E
:10060000083A51F804CBA0E80810F5E7121D5CBFCA
:1006100051F8043B40F8043BAFF30080D20724BFFD
:1006200011F8013B11F801CB48BF11F8012B24BF91
:1006300000F8013B00F801CB48BF00F8012B7047E0
:1006400010B5203AC0F00B80B1E81850203AA0E86D
:100650001850B1E81850A0E81850BFF4F5AF5FEAA1
:10066000027C24BFB1E81850A0E8185044BF18C954
:1006700018C0BDE810405FEA827C24BF51F8043BFB
:1006800040F8043B08BF7047D20728BF31F8023B4F
:1006900048BF11F8012B28BF20F8023B48BF00F8E3
:1006A000012B70474FF000020429C0F0128010F0B7
:1006B000030C00F01B80CCF1040CBCF1020F18BF3E
:1006C00000F8012BA8BF20F8022BA1EB0C0100F0D1
:1006D0000DB85FEAC17C24BF00F8012B00F8012BA4
:1006E00048BF00F8012B70474FF0000200B51346D9
:1006F00094469646203922BFA0E80C50A0E80C5042
:10070000B1F12001BFF4F7AF090728BFA0E80C50F2
:1007100048BF0CC05DF804EB890028BF40F8042BEB
:1007200008BF704748BF20F8022B11F0804F18BF58
:1007300000F8012B704770477047704710B500F004
:10074000B1FA006810BD10B5044600F0ABFA0460C1
:1007500010BD2DE9F0470D4699469246044600F13A
:1007600024080168880604D5E06921F010012160A1
:1007700000E00120A84201DD471B00E00027A1693D
:100780007A1902EB0900081AA0612078C00602D489
:100790002046FFF775FD002608E0D4E901211AF88C
:1007A00006009047206A401C761C20624E45F4DB10
:1007B0002078C0060AD52046FFF762FD06E0D4E99E
:1007C000012130209047206A401C2062381EA7F18A
:1007D0000107F4DC07E0D4E9012118F8050090478F
:1007E000206A401C2062281EA5F10105F3DC20468A
:1007F000FFF75CFD2078000602D50220BDE8F087F7
:100800000120FBE770472DE9FF4F0C461E464FF0D5
:10081000FF378BB0D2E90001DDF860800A908A468C
:10082000C1F30A5505B93D46002108464FF00000C6
:10083000BAF1000F00F4400005DA00EB80004FF43D
:10084000400101EA50004FEA9059B9F1010F00DD73
:10085000B9460A9850EA4A000ED044F61050A5F264
:10086000FF3545432F14B8F1000F1ED07542291EE5
:100870001EDDC9F100021CE0B8F1010F4FF00000CD
:1008800001D0302103E0F24305E02154401CB04286
:10089000FBDB30460022002121540B99C1F808806F
:1008A000C1E900200FB0BDE8F08FBD1B6D1CDEE775
:1008B0004A4600DA694206A800F07EFA06AB93E8E1
:1008C000070003AB83E8070050460A9900F05FFB7E
:1008D0008DE80700A0F500501F3800900398002D08
:1008E0000ADD42F21F014A460844002303A903908F
:1008F000684600F0C8FD09E0A0F500504A461F38E0
:10090000002303A90390684600F0D2FD8DE807009C
:100910000004000C03D04FF0FF30410800E0104607
:10092000B8F1000F03D00022009215461EE0751E9C
:1009300005D400F0BBF9303262556D1EF9D5B346CF
:100940000122084302D000227F1C04E020783028D6
:1009500001D100227F1E002A099784D01DE0112DAD
:1009600007DA00F0A3F9303262556D1C50EA01023B
:10097000F5D1084302D00098C8B10EE00021681EEE
:1009800005E0235C625C63542254401E491C814292
:10099000F7DBAB46A81B401E0990002004F80B00B3
:1009A0000B98099AC0F80880C0E9002B7AE7112655
:1009B0004FF0000857E72DE9F04F88460446D21D56
:1009C00022F0070191B0D1E90001CDE90A0108F058
:1009D000EBF802460B98C00F01D02D2007E02068ED
:1009E000810701D52B2002E0202101EAC000032A63
:1009F000099001D0072A05DB03464146204600F056
:100A00009BF90BE12078800601D5E06900E0062023
:100A1000B8F1650F814606D0B8F1660F18D0B8F16D
:100A2000670F70D131E00020B9F1110F009001DBA8
:100A3000112301E009F101030AAA01A90CA8FFF79B
:100A4000E2FEDDE90C70002609F10105834647E06E
:100A500001204B4600904FF000470AAA01A90CA8BC
:100A6000FFF7D1FEDDE90DB00C995D46002610B907
:100A700009F101000D18B9EB050003D4C0F1FF36F0
:100A800009F10105A5EB09002BE0B9F1010F01DA2D
:100A90004FF001090020B9F1110F0090484601DD27
:100AA000112300E003460AAA01A90CA8FFF7ABFE38
:100AB000DDE90C704D4600268346207800070AD4F5
:100AC000AB4500DA5D4601A8012D04DD411911F89E
:100AD000011C302907D04F4502DA17F1040F04DA60
:100AE000012082460FE06D1EEEE7002F02DCED1BB9
:100AF0003E4403E0781CA84200DD7D1CB81B00F1D9
:100B0000010A4FF000472078000703D4AA4501DB13
:100B10004FF0FF3A0021B7F1004F0DF143088DF877
:100B2000431024D002202B23002F01DA7F422D23F3
:100B30000A21021EA0F1010000DC5FB197FBF1FC6D
:100B400097FBF1F201FB1C7C17460CF1300C08F806
:100B500001CDEEE7A8F1010003702188090501D558
:100B6000452100E06521A0F1010800F8011C099869
:100B70000FA9A1EB0807FF1D00B10120411901EBEE
:100B8000EA70A1693844081A401EA0612078C006A6
:100B900002D42046FFF774FB099828B1D4E901215B
:100BA0009047206A401C20622078C00622D520464B
:100BB000FFF766FB1EE0002E04DBB34502DD01A853
:100BC000805D00E03020D4E901219047206A401C7C
:100BD0002062761CAAF101005FEA000A0AD100F047
:100BE0005DF8C0680168405CD4E901219047206A43
:100BF000401C2062281EA5F10105DCDC07E0D4E9D9
:100C0000012118F8010B9047206A401C2062381E11
:100C1000A7F10107F3DC2046FFF748FB032011B0E2
:100C200041E6000001694A1C02610878704700B57E
:100C30008FB0CDE901310021059105497944CDE915
:100C4000031011466846FFF7D3FB0FB000BD00004C
:100C5000E5FFFFFF0A6802F8010B0A607047D1E95F
:100C600000239A4202D2531C0B601070704710B5DB
:100C7000436913B1AFF3008001E0FFF728FB0120C7
:100C800010BD127800F124010A7000224A7001227E
:100C9000EDE711684FF0FF32E9E7000000487047C8
:100CA00094070020004870477407002030B5B0F169
:100CB0000A024FEA900E71F100034EEA817EB0EB1A
:100CC0000E0061EB91014FEA101E4EEA017E10EB1F
:100CD0000E0041EB11114FEA102E4EEA016E10EB9F
:100CE0000E0041EB11214FEA104E4EEA014E10EB7F
:100CF0000E0041EB1141401841F100014FEAD000D4
:100D000040EA41704FEAD10110EB80054FEA8104BF
:100D100044EA907444EB01046D1944EB0404521B43
:100D2000A3414FF0000348BF0A3200D530BD401C3C
:100D300041F1000130BD00002DE9F0411F4604469D
:100D400003260168072A01F4006004DB08B116A538
:100D500005E016A503E008B115A500E015A521F0F2
:100D600010002060A069C01EA0610FB1401EA061EC
:100D70002046FFF785FA4FB1D4E901213846904764
:100D8000206A401C2062C01C206206E0206AFAE74C
:100D9000D4E9012115F8010B9047761EF8D22046C0
:100DA000FFF784FABDE8F0814E414E006E616E009F
:100DB000494E4600696E66002DE9F04781461646A9
:100DC0008AB0354878440DC88DE80D003248784423
:100DD000801C03AC0DC884E80D0041F69B3008442C
:100DE000372190FBF1F290FBF1F5A5F1800501FBB5
:100DF00012041B3C02D56442012000E00020DFF811
:100E000098A080460027FA44AAF1BE0A0EE0E00747
:100E10000AD03246684607EB470101230AEB8101FD
:100E200000F046FB8DE8070064107F1C002CEED11B
:100E3000194F7F44AE3F19E0E80715D007EB0410C7
:100E40000DF1180A90E80E008AE80E00C068F04222
:100E500001D1981908903246012306A903A800F091
:100E600027FB03AB83E807006D10641C002DE3D162
:100E70004FF0010332466946B8F1000F03A802D0D3
:100E800000F001FB01E000F013FBC9E90001C9F823
:100E900008200AB0BDE8F087ECD800000048704791
:100EA000740700207546FFF7F9FFAE460500694656
:100EB000534620F00700854618B020B5FFF7B2F979
:100EC000BDE820404FF000064FF000074FF000084B
:100ED0004FF0000B21F00701AC46ACE8C009ACE8CC
:100EE000C009ACE8C009ACE8C0098D46704710B530
:100EF0000446AFF300802046BDE81040FFF77DB9FF
:100F00004FF0013C50F8042B51F8043B9A4221D198
:100F1000A2EB0C03934313EACC1317D150F8042B24
:100F200051F8043B9A4215D1A2EB0C03934313EA08
:100F3000CC130BD150F8042B51F8043B9A4209D141
:100F4000A2EB0C03934313EACC13DBD04FF0000069
:100F5000704700BFD01A01BAB1FA81F101F018014F
:100F600022FA01F0CB40C1F12001DBB2C0B2C01ABD
:100F70002CFA01F3D11A914311EAC311E6D170475B
:100F800001491820ABBEFEE72600020070475FEA69
:100F9000400C08BF91F0000F4FEA8C234FEAC122AA
:100FA00043EA51514FEA1C5018BF00F5F0404FEA98
:100FB000300018BF41F000415FEA6C5C00F029800E
:100FC000BCF1FF3F08BF40F080407047130C06BFE4
:100FD00012044FF0100C4FF0000C130E04BF12025D
:100FE0000CF1080C130F04BF12010CF1040C930F49
:100FF00004BF92000CF1020CD30F04BF52000CF19D
:10100000010C11464FF00002A0F11F00A0EB0C00F4
:10101000704711F0004F08BF704731F000413FF4B6
:10102000D5AF0B0C06BF09044FF0100C4FF0000CAD
:101030000B0E04BF09020CF1080C0B0F04BF0901D1
:101040000CF1040C8B0F04BF89000CF1020CCB0FC8
:1010500004BF49000CF1010CCCF12003A0EB0C0003
:1010600022FA03F302FA0CF241EA030100F1010053
:10107000704720F07F4C80EA030023F07F47ACEB01
:10108000070303F57C5300F0004003F1FF032DE953
:1010900080494FEA154B09B44FEA144325EA0B4E39
:1010A00024EA03480FF2042606EB132749083E788A
:1010B0005FEA320203FB0667C7F5000707FB06F687
:1010C0004FEA54374FEAD64606F1020607FB066C94
:1010D000CCF1005C4FEA1C472CEA074C07FB06F4F6
:1010E0000CFB06F504EB15464FEA961634BF0020BC
:1010F0004FF000404FEAD13706FB07FC4FEA1C4C8B
:101100000CFB0BF7D21B03FB0CF761EB07010CFB8D
:101110000EF7B0EB074072EB17420CFB08F734BF39
:10112000A2EB0742B2EB074261EB17414FEA0C44D6
:101130004FEA910706FB07FC4FEA1C4C0CFB0BF730
:10114000B0EBC74072EB573203FB0CF734BFA2EB96
:10115000C742B2EBC74261EB57310CFB0EF7B0EB65
:10116000C70072EB57720CFB08F734BFA2EBC70243
:10117000B2EBC70261EB5771039F4FEA816141EA0D
:10118000921104EBCC044FEAD1374FEA826206FB9E
:1011900007FC42EA90124FEA80604FEA1C4C0CFBBD
:1011A0000BF7D21B03FB0CF761EB07010CFB0EF7EF
:1011B000B0EB074072EB17420CFB08F734BFA2EB11
:1011C0000742B2EB074261EB17414FEA8C554FEAF9
:1011D000910704EB9C2406FB07FC4FEA1C4C0CFB1C
:1011E0000BF7B0EBC74072EB573203FB0CF734BF81
:1011F000A2EBC742B2EBC74261EB57310CFB0EF7D3
:10120000B0EBC70072EB57720CFB08F734BFA2EBD0
:10121000C702B2EBC70261EB577115EB4C254FEAE1
:10122000816141EA92114FEA82624FEAD13742EA84
:10123000901206FB07FC44F100044FEA80604FEA7D
:101240001C4C0CFB0BF7D21B03FB0CF761EB0701EB
:101250000CFB0EF7B0EB074072EB17420CFB08F7E4
:1012600034BFA2EB0742B2EB074261EB174115EB2B
:101270001C154FEA813141EA92414FEA823242EA3B
:1012800090424FEA80304FEA0C7644F1000448EA7D
:1012900003434EEA0B484FF0000EB2EB080C71EB23
:1012A000030724BF624639464EEB0E0E4FF0000B8B
:1012B0000018524149414BEB0B0BB2EB080C71EBA0
:1012C00003077BF1000B24BF624639464EEB0E0E3E
:1012D0004FF0000B0018524149414BEB0B0BB2EBA6
:1012E000080C71EB03077BF1000B24BF6246394603
:1012F0004EEB0E0E51EA020718BF46F0010616EB40
:101300000E7655F1000254F1000103D5BDE88901C4
:10131000BDE80088BDE88901BDE80048B619524122
:1013200041EB0101A3F10103704780807F7E7D7C4A
:101330007B7A7978777676757473727171706F6E67
:101340006E6D6C6C6B6A6A69686867666665646412
:10135000636362616160605F5F5E5E5D5D5C5C5B9C
:101360005B5A5A595958585757565655555554540B
:10137000535352525251515050504F4F4F4E4E4D69
:101380004D4D4C4C4C4B4B4B4A4A4A4949494848B5
:1013900048474747474646464545454444444443F5
:1013A00043434342424242414141002B9C4630D498
:1013B00077002BD01CB54FEA370703B44FF010006D
:1013C0004FF01001BAF1000F06D0BCF1000FDCBFE6
:1013D00040F0080040F008014FF000000FBCBDE8ED
:1013E00010400BF1010BBBF1010F08BF5FEA1707BB
:1013F00022BF12F1010211F101014FF0004143F14E
:10140000000300F0004043EA00007047F9D357089A
:10141000D0E746EA064613F1400F4FEA16461FDDB5
:1014200013F1200FDFBF16430A46002120335B4231
:10143000BED0C3F1200746EA064602FA07F74FEA94
:10144000164646EA0706C3F1200722FA03F201FA1C
:1014500007F721FA03F14FF0000342EA0702A7E77A
:1014600046EA020646EA06464FEA164646EA0106FC
:10147000BCBF46EA0646360C4FF000034FF00002B0
:101480004FF0000194E72DE9804C9A46934670B4E2
:1014900091E8380007C831EA400C48BF34EA430CF1
:1014A00003D5FFF7E6FDFFF780FFF0BCBDE8008C39
:1014B0002DE9804C9A46934670B491E8380007C8ED
:1014C00010F0804F08BF13F0804F03D100F005F8F3
:1014D000FFF76BFFF0BCBDE8008C20F07F4780EA8F
:1014E000030023F07F4C07EB0C03A3F57C5300F0C3
:1014F0000040A3F1FE0392F0000F00F0B38095F0DE
:10150000000F00F077802DE901494FEA11404FEAC2
:10151000144621EA004800FB06FC24EA064708FBC3
:1015200006F607FB08F800FB07F718EB06484CEB3C
:10153000164C4FEA124B18EB07484FEA15464CEB96
:10154000174022EA0B4E0BFB06FC25EA06470EFB72
:1015500006F607FB0EFE0BFB07F71EEB064E4CEBE9
:10156000164C4FF000061EEB074E4CEB174B18EBDA
:101570000B0840F1000018EB0E0B58EB000840F18F
:1015800000008F1A4FF000013CBFC943661B14BF17
:10159000B5EB040C00213CBFC943F61B4FEA1744CE
:1015A0004EEA8E0E27EA04454FEA1C4704FB076209
:1015B0002CEA074C05FB07F70CFB05F604FB0CFCBB
:1015C00016EB074642EB174216EB0C4642EB1C4269
:1015D0001BEB060658EB0202414146EA9E0601D586
:1015E000BDE80189B619524141EB0101A3F10103A4
:1015F000BDE801894FEA14454FEA114724EA054640
:1016000021EA074C05FB07F406FB07F70CFB06F184
:1016100005FB0CFC11EB074144EB17444FEA124762
:1016200011EB0C4144EB1C4422EA074C05FB07F28A
:1016300006FB07F70CFB06F605FB0CFC16EB074652
:1016400042EB174216EB0C4642EB1C456A1854F16C
:10165000000148BF7047B619524141EB0101A3F1A7
:101660000103704795F0000F37D04FEA11424FEA5F
:10167000144721EA024624EA074C02FB07F106FB65
:1016800007F70CFB06F402FB0CFC14EB074441EBE0
:1016900017414FEA154714EB0C4441EB1C4125EA76
:1016A000074C02FB07F506FB07F70CFB06F602FBEF
:1016B0000CFC16EB074645EB174516EB0C4645EBC5
:1016C0001C42121951F1000148BF7047B61952412E
:1016D00041EB0101A3F1010370474FEA14454FEAC2
:1016E000114724EA054621EA074C05FB07F106FBF2
:1016F00007F70CFB06F24FF0000605FB0CFC12EBA3
:10170000074241EB174112EB0C4251EB1C4148BF21
:101710007047921841EB0101A3F10103704710B526
:1017200000F038FA10BD000010B540F20F6008F06C
:101730002FFA174807F062FB0021154807F053FB0A
:101740000021134807F028FC01221146104807F039
:1017500027FB0523012200210D4807F027FC4FF449
:10176000602201210A4807F0A2FB01221146084825
:1017700007F07EFB0121064807F072FC044807F0E1
:101780006EFB012007F0A8FC014807F0F4FA10BD39
:10179000003C014010B540F2026008F0F9F9022364
:1017A00003220021014807F0C3FE10BD00080140DC
:1017B00070B52DED028B05461DB90020BDEC028BE6
:1017C00070BD2148007830B9FFF7E4FFFFF7ACFFA8
:1017D00001201D49087001211C4807F041FC00262A
:1017E00006E0761C42F21070864201D30020E5E745
:1017F0000221164807F076FB0028F2D00221134898
:1018000007F06DFB114807F027FC044600EE104A74
:10181000F8EE400A9FED0E1A80EE810ADFED0D0A08
:1018200020EE200ADFED0C0A20EE208AB5EEC08AF9
:10183000F1EE10FA03D29FED090AB0EE408A85ED71
:10184000008A0120BAE7000034000020003C01407B
:1018500000F07F4533335340EB5FA54000000000AC
:1018600010B540F2096008F093F940F20A6008F000
:101870008FF92E4807F0C2FA2D4807F0BFFA4FF44F
:10188000C02007F07BFB01221102284807F0F7FB7C
:1018900001221102264807F0F2FB0021234807F03D
:1018A000A2FA0021224807F09EFA00211F4807F003
:1018B00073FB00211E4807F06FFB05230622002161
:1018C0001A4807F073FB052307220021184807F088
:1018D0006DFB01221146154807F062FA01221146FC
:1018E000134807F05DFA4FF4202201210F4807F05A
:1018F000DEFA4FF4202201210D4807F0D8FA012228
:1019000011460A4807F0B4FA01221146084807F0C8
:10191000AFFA064807F09EFA0221044807F0E9FAF8
:1019200002220021122007F0F9FF10BD002401401F
:101930000028014000B587B04FF4A06008F028F9F6
:101940000021184807F048FC684607F0BBFD164820
:10195000009000208DF818001448029001208DF8A6
:101960001900400201908000039000208DF81A00B9
:1019700004200490C00205906A460021094807F03F
:1019800077FC0021074807F00EFC022200210548E1
:1019900007F005FD002211460B2007F0BFFF07B03E
:1019A00000BD0000000002404C240140D400002093
:1019B00010B5022200210D4807F012FDA8B1022245
:1019C00000210A4807F004FD4FF40051084807F0D1
:1019D0000DFE28B14FF40051054807F0A5FD04E0C5
:1019E0004FF40051024807F0A1FD10BD0000024075
:1019F0000010014010B540F2026008F0C9F840F252
:101A0000026008F0C5F8402303220021044807F0D3
:101A10008FFD802303220021014807F089FD10BDBE
:101A2000000801402DE9F04F2DED028B81B00646F4
:101A30008946144604259FED520AB0EE408A9FED78
:101A4000500AF0EE408A06B12CB9012001B0BDEC7D
:101A5000028BBDE8F08F042C00DD042400214948EE
:101A600007F051FD8046A5EB0800B0FBF5F105FB42
:101A7000110A0AEB0500401EB0FBF5F105FB110B46
:101A8000002768E00BEB0500C01BB0FBF5FC05FB75
:101A90001C000090DFF8F0C000985CF8203099B28C
:101AA0004FF6FF7000EA1342B9F1000F06D0B9F10A
:101AB000010F14D0B9F1020F49D11FE000EE101A46
:101AC000B8EE400A38EE000AB0EE408A00EE102A66
:101AD000B8EE400A38EE800AF0EE408A39E0084657
:101AE00000F0A8F830EE080AB0EE408A104600F088
:101AF000A1F830EE280AF0EE408A2AE0084600F00D
:101B000099F8F0EE401A00F01FF92048D0ED000AD5
:101B100070EE600ABFEE001AB0EE480A00EE810ACD
:101B2000B0EE408A104600F085F8F0EE401A00F062
:101B30000BF91748D0ED000A70EE600ABFEE001AEC
:101B4000B0EE680A00EE810AF0EE408A01E0012062
:101B50007CE700BF7F1CA74294D300EE104AB8EE8A
:101B6000400AC8EE000AC6ED000A00EE104AB8EEC0
:101B7000400AC8EE800AC6ED010A002066E70000B0
:101B80000000000000000240D40000202C000020D3
:101B90003000002010B50221044807F0C3F918B145
:101BA0000221024807F0BBF910BD000000240140EB
:101BB00070B5FFF71FFFFFF7BDFEFFF751FE40F2C4
:101BC000046007F0E5FF4FF400530322102114488E
:101BD00007F0AEFC4FF40051114807F0A5FC40F2AD
:101BE000FF75284665F31F400646002403E00D48B4
:101BF00040F82460641C042CF9D30B4807F02FF93B
:101C00000A4807F02CF9012007F066FA064807F0A9
:101C1000B2F8064807F0AFF801200549087070BD1A
:101C200000100140D40000200024014000280140A1
:101C30002800002000EE100AB8EE400ADFED040A8A
:101C400060EE200A9FED031A80EE810A70470000C3
:101C50003333534000F07F457CB504460D461646AD
:101C600004B10DB901207CBD0EB9012602E0042E9D
:101C700000DD0426324602216846FFF7D3FE08B194
:101C80000120F0E79DED000A84ED000A9DED010AB8
:101C900085ED000A0020E6E770B504460D461646BD
:101CA000324629462046FFF7D7FF08B9012070BD0C
:101CB0000020FCE710B51F48007800B910BD0021D6
:101CC0001D4807F025FA042200211B4807F008FCF4
:101CD0001A4A0021184807F0D7FB194A0021164874
:101CE00007F0C0FB01220021134807F0ADFA0122E2
:101CF0000021114807F06CFB122110484C3807F006
:101D0000EEF812210F4807F0EAF80C484C3807F0BB
:101D1000A1F80021084807F014FA012211460748EB
:101D20004C3807F0A5F801221146064807F0A0F844
:101D300000BFC3E728000020000002404C240140FF
:101D4000D400002000280140F0EE400A9FED040A74
:101D500030EEC00AB2EE041A20EE010A704700000D
:101D60003333D33F024641EA0220704710B503F0F7
:101D70006FF810BD00EE100AB8EE400ADFED020A5F
:101D800020EE200A70470000DB0FC93A10B5044668
:101D900021460E2000F01EF810BD10B50446204666
:101DA000FFF7F4FF08B9012010BD0020FCE738B5AB
:101DB00004460CB9002038BD6846FFF7EEFF08B9AD
:101DC0000020F8E7BDF80000FFF7D4FF84ED000A1B
:101DD0000120F0E7F8B504460D4602236A46214685
:101DE0006C2003F03BF806460EB13046F8BD9DF876
:101DF00001109DF80000FFF7B5FFC0F30B0028802D
:101E00000020F3E700BFFEE7002005E00021044AC0
:101E100042F82010411CC8B20428F7DB70470000CC
:101E2000FC04002010B502F06BFC10BD01480068F6
:101E300070470000B400002000B50020034908806E
:101E400003490860FFF7E0FF00BD0000B00000207C
:101E5000B400002010B52748007820B9FFF7E2FF52
:101E600001202449087002F083FC044622480088BF
:101E7000401C2149088008460088002028B91F48D6
:101E8000006810B11D49086880471B48008805217B
:101E9000B0FBF1F201FB120028B91848406810B1FC
:101EA000164948688047144800880521B0FBF1F2C4
:101EB00001FB120028B91148806810B10F498868E9
:101EC00080470D480088B0F57A7F05D10B48C0687F
:101ED00010B10A49C868804707480088B0F57A7F82
:101EE00002D300200449088002F042FC001B044990
:101EF000086010BDB8000020B0000020FC040020E5
:101F0000B4000020042802DA014A42F82010704789
:101F1000FC04002010B5FFF74BFD10BD704700001A
:101F2000F0B52DED048B83B007460D461446B0EE98
:101F3000408A1FB114B12088A84203DB03B0BDEC76
:101F4000048BF0BD2088281A0C2800D2F6E718EE82
:101F5000100A08F035FC41EC190B8DED009B22882E
:101F6000A91AD01909A2FEF76FF90646002E00DA69
:101F7000E4E7B0B22188691A884202DB681E20803B
:101F8000DCE720883044208000BFD7E720252E33AF
:101F9000660000000246114601B90121C82900D996
:101FA000C821C82303EB5103B3FBF1F398B200B986
:101FB0000120704700200849088008490880084926
:101FC00008800849088001200749088007490880DF
:101FD00000200749086070479C0000209E000020F8
:101FE000A0000020A2000020A4000020A6000020E5
:101FF000A8000020024602B109B90020704792F8FB
:10200000800010B192F8810008B90020F6E70120A5
:10201000F4E700002DE9F0432DED028B95B0054665
:102020000F4690469946002000904C4605B127B9CE
:1020300015B0BDEC028BBDE8F083BDF80020C2F105
:10204000500101AABDF80030D018612358A2FEF754
:10205000FBF80646002E06DBB0B2BDF80010C1F159
:102060005001884200D3E3E7BDF80000304480B25D
:10207000009004F0010040B1D5ED070AB0EE600A0F
:102080006A46502101A8FFF74BFF04F0020040B15F
:10209000D5ED0F0AB0EE600A6A46502101A8FFF79D
:1020A0003FFF04F0040040B1D5ED170AB0EE600A1E
:1020B0006A46502101A8FFF733FF04F0080040B141
:1020C000D5ED1F0AB0EE600A6A46502101A8FFF75D
:1020D00027FF04F0100040B1D7ED0C0AB0EE600A03
:1020E0006A46502101A8FFF71BFF04F0200080B1D1
:1020F00000EE108AB8EE400ADFED2E0A80EE201ABC
:10210000B0EE418AB0EE480A6A46502101A8FFF7B6
:1021100007FF04F0800090B19FED270AB0EE408ADF
:1021200095F88C0018B195ED220AB0EE408AB0EE19
:10213000480A6A46502101A8FFF7F2FE00BF04F4E6
:10214000807040B1D7ED090AB0EE600A6A465021AE
:1021500001A8FFF7E5FE04F4007040B1D7ED0A0ACC
:10216000B0EE600A6A46502101A8FFF7D9FEBDF81B
:102170000000801D502819D2BDF80020C2F1500186
:1021800001AABDF80030D01862230CA2FEF75CF85B
:102190000646002E06DBB0B2BDF80010C1F15001BA
:1021A000884200D344E701A802F05BFB00BF3FE791
:1021B000256300000000F04200000000202563209D
:1021C0000000000070B52DED028B9AB004460D465C
:1021D00034B95FA002F045FB1AB0BDEC028B70BDB4
:1021E00094F88000002839D094ED070A10EE101AF8
:1021F000084608F0E5FA41EC180B8DED008B5BA268
:10220000602102A8FEF720F802A802F02AFB94ED54
:102210000F0A10EE101A084608F0D2FA41EC180B1B
:102220008DED008B5CA2602102A8FEF70DF802A8DC
:1022300002F017FB94ED170A10EE101A084608F08A
:10224000BFFA41EC180B8DED008B5EA2602102A855
:10225000FDF7FAFF02A802F004FB02E064A002F01E
:1022600000FB94F88100002826D094ED180A10EEA7
:10227000101A084608F0A4FA41EC180B8DED008BFB
:1022800065A2602102A8FDF7DFFF02A802F0E9FACB
:1022900094ED1F0A10EE101A084608F091FA41EC6E
:1022A000180B8DED008B67A2602102A8FDF7CCFF13
:1022B00002A802F0D6FA02E06EA002F0D2FA94F878
:1022C0008C00002826D094ED210A10EE101A084642
:1022D00008F076FA41EC180B8DED008B6FA26021AF
:1022E00002A8FDF7B1FF02A802F0BBFA94ED220AA2
:1022F00010EE101A084608F063FA41EC180B8DED49
:10230000008B70A2602102A8FDF79EFF02A802F0D8
:10231000A8FA02E076A002F0A4FA00EE105AB8EE95
:10232000400ADFED7C0A80EE201A11EE106A30467A
:1023300008F046FA41EC180B8DED008B76A2602177
:1023400002A8FDF781FF02A802F08BFA00BF43E765
:10235000666565646261636B2E7374617475733D49
:10236000696E76616C69640D0A0000006D656173C9
:102370007572656D656E742E70686173655F6375E7
:102380007272656E745F615F616D706572653D2527
:102390002E33660D0A0000006D6561737572656D00
:1023A000656E742E70686173655F63757272656EB9
:1023B000745F625F616D706572653D252E33660DD9
:1023C0000A0000006D6561737572656D656E742E2F
:1023D00070686173655F63757272656E745F635F69
:1023E000616D706572653D252E33660D0A00000033
:1023F0006D6561737572656D656E742E637572724D
:10240000656E742E7374617475733D696E76616C5C
:1024100069640D0A000000006D6561737572656D79
:10242000656E742E656E636F6465725F616E676C56
:10243000655F7261775F7261643D252E33660D0AB8
:10244000000000006D6561737572656D656E742EB8
:10245000656E636F6465725F616E676C655F666908
:102460006C74657265645F7261643D252E33660D20
:102470000A0000006D6561737572656D656E742E7E
:10248000656E636F6465722E7374617475733D69F4
:102490006E76616C69640D0A000000006D65617301
:1024A0007572656D656E742E766275735F766F6C8E
:1024B000746167655F7261775F763D252E33660DC7
:1024C0000A0000006D6561737572656D656E742E2E
:1024D000766275735F766F6C746167655F66696C51
:1024E00074657265645F763D252E33660D0A0000C3
:1024F0006D6561737572656D656E742E7662757348
:102500002E7374617475733D696E76616C69640DC8
:102510000A0000000000F042636F6E74726F6C2E50
:10252000657865637574696F6E5F74696D655F75F5
:10253000733D252E33660D0A0D0A00002DE9F04784
:102540008046894616461C46294807681EB17078A1
:1025500008B1BDE8F08704B32078F0B1658825485C
:102560000088854206D0234805802846FFF712FDE3
:102570002149088021480088401C204908800846DD
:1025800000881D490988884206DB00201B49088015
:1025900039464046FFF716FE00BF3CB3607828B3CB
:1025A00049464046FFF726FDF8B1A5881448008843
:1025B000854206D0124805802846FFF7EBFC1149FA
:1025C000088011480088401C0F4908800846008890
:1025D0000C490988884208DB00200B490880E38801
:1025E0003A4649464046FFF715FD00BF00BFB0E739
:1025F000A8000020A0000020A40000209C000020D3
:10260000A2000020A60000209E00002001490860D2
:1026100070470000A800002070B52DED088B04461F
:102620000D46F0EE409AB0EE60AAF0EE418A04B199
:1026300025B99FED550ABDEC088B70BDB0EE680A58
:1026400001F074FFF0EE408A39EECA8AB0EEC80A93
:10265000D5ED020AB4EEE00AF1EE10FA0AD89FEDC9
:102660004A0A84ED030A9FED480A84ED040A9FEDAF
:10267000460AE0E794ED030A08EE280A84ED030A0F
:10268000D5ED011AB0EE611AD5ED011AF1EE611A1D
:10269000F0EE610AD4ED031AB0EE610A02F04EFDCD
:1026A00084ED030A94ED040A38EE400A80EE289A7D
:1026B00094ED010AD4ED030A20EE200AD4ED000ABD
:1026C00000EE880AD4ED020A00EE890AF0EE40AA74
:1026D00094ED060AB0EE401A94ED050AF0EE400AB9
:1026E000B0EE6A0A02F02AFDF0EE40AA94ED010A6B
:1026F000DFED260AB4EEE00AF1EE10FA3EDD94EDCD
:10270000050AD4ED000A00EEC80AD4ED020A00EE74
:10271000C90AD4ED010A80EE201AB0EE41BA94ED58
:10272000060AD4ED000A00EEC80AD4ED020A00EE53
:10273000C90AD4ED010A80EE201AF0EE41BAD4EDB8
:10274000030AB0EE600AB0EE6B1AF0EE4B0A02F02C
:10275000F5FC84ED030AD5ED011AB0EE611AD5ED52
:10276000011AF1EE611AF0EE610AD4ED031AB0EE2F
:10277000610A02F0E3FC84ED030A00BF84ED048AE1
:10278000B0EE6A0A57E7000000000000BD3786354A
:102790001FB5044600F006FB0C4802F037FFDFEDE2
:1027A0000C0A9FED0B0A094802F04CFF02F04EFEA6
:1027B0005CB10020009001900290039001208DF800
:1027C0000C00684604F0D2FC00BF1FBD0C050020C1
:1027D000000000002DE9F0472DED028BBAB000207B
:1027E000369037903890399001F0E6FF01F09CFF69
:1027F0000121022002F011F80121084602F00DF833
:102800000121032002F009F801F072FFFFF714FB29
:10281000734801F0FCFF73490120FFF773FB724915
:102820000020FFF76FFB71490220FFF76BFB0020D0
:1028300001F0E4FF01F034FF04F094FC6C4804F074
:102840008BFCBDF8D80040F00500ADF8D800694811
:1028500002F0D6FE68A002F004F86FA002F001F8C2
:10286000BDF8D80040F00200ADF8D800FFF7A2FB99
:10287000BDF8D80040F00800ADF8D8009FED6E0A12
:10288000182002F09BFE6D4802F0A6FE6B4890F8FF
:10289000800050B1694890F8810030B1BDF8D8008F
:1028A00040F01000ADF8D80005E0BDF8DA0040F0C7
:1028B0001000ADF8DA00614890ED220AF1EE080A46
:1028C000B4EEE00AF1EE10FA06DDBDF8D80040F0F3
:1028D0008000ADF8D80005E0BDF8DA0040F08000D7
:1028E000ADF8DA000521182002F060FE544801F02E
:1028F0009CFFBDF8D80040F02000ADF8D80000F0F3
:10290000A5F8BDF8D80040F04000ADF8D8004B481D
:1029100090ED220A10EE101A084607F051FF41EC24
:10292000180B344890ED040AB5EEC00AF1EE10FA27
:1029300006DDD0ED080A90ED041A80EE810A01E070
:102940009FED400A10EE104A204607F039FF0E4670
:102950000546284890ED080A10EE101A084607F0C0
:102960002FFF88460746234890ED040A10EE101A00
:10297000084607F025FF8A4681461E4890ED020A68
:1029800010EE101A084607F01BFFCDE90C018DED83
:102990000A8B1848CDE9049ACDE90678CDE90856A6
:1029A0000079144991F90C10CDE90210DDE90C0110
:1029B000254ACDE90001A0210EA8FDF745FC0EA88F
:1029C00001F04FFF01208DF8DC0036A804F0CEFBAB
:1029D00000F006FA3AB0BDEC028BBDE8F0870000CB
:1029E000551E0008D57E0008D95600085953000826
:1029F0000C0700200C0500200D0A3D3D3D20464FF0
:102A0000432053797374656D2053746172746564E7
:102A1000203D3D3D0D0A0000496E6974206D6F74C4
:102A20006F722C706C6561736520776169742E2EEE
:102A30002E0D0A0D0A000000000034429805002007
:102A4000452B000800000000DCE7000808B5002264
:102A5000FFEE001A07219FED091ADFED090AB2EE19
:102A6000080A084802F000FD0748084B084A0949CF
:102A70000090044802F016FD08BD000033335341B6
:102A8000666616410C0500200C070020D4060020C5
:102A9000F0060020B806002038B52148007870B153
:102AA00000201F490870FFF7C1F90446FFF7AEFD8B
:102AB0001C4B03F108021C491C48FFF73FFD1C4852
:102AC000007860B300201A4908701648583890F80A
:102AD000640028B100F08CF81248583804F03CFB30
:102AE000012004F02AFB10B10A20124908800D4889
:102AF000583890F8620090B10A4858380E4B0F4A87
:102B00000F490090084802F02DFC06485838D0EDD7
:102B1000040AB0EE600A02F0D3FD04F00AFB38BDEF
:102B2000BD000020640700200C050020980500204F
:102B3000BC000020CA000020D4060020F0060020BF
:102B4000B806002070B52DED028B00251F480078D7
:102B500010B1BDEC028B70BD1D48007800B9F8E7DC
:102B600002F0AAFD02241B480078401C1949087095
:102B700008460078A04200DAEBE70020154908700B
:102B8000154890ED000A154880ED090A00EE104A3C
:102B9000B8EE400ADFED120A80EE208A02F02CFD2A
:102BA00040B1104802F020FD0E4890F8800000B9B6
:102BB000CFE70C4DF0EE480A0B4890ED000A2A468C
:102BC0000A49064802F028FD00BFC2E7C8000020FD
:102BD000BE000020BF000020C00000200C05002027
:102BE0000080BB4628060020C4000020B806002054
:102BF00000B52DED048BA5B022A001F032FE00F04F
:102C0000D1F8284802F002FDDFED270A9FED260AE1
:102C1000244802F017FD02F019FC01202349087036
:102C2000FFF714FF002021490870214890ED220A87
:102C300010EE101A084607F0C3FD41EC180B1948B6
:102C400090ED020A10EE101A084607F0B9FD41ECAB
:102C5000190B8DED048B13480079124991F90C1072
:102C6000CDE902108DED009B12A2782107A8FDF797
:102C7000EBFA07A801F0F5FD04F057FA25B0BDEC1A
:102C8000048B00BD0D0A3D3D3D205265496E6974BF
:102C90004D6F746F722073746172746564203D3D72
:102CA0003D0D0A000C05002000000000C8000020B7
:102CB000980500207265696E697420646F6E653ACC
:102CC000206D6563685F7A65726F3D252E346620DE
:102CD0007261642C206469723D25642C20706F6CD5
:102CE00065733D25642C20766275733D252E326612
:102CF000560D0A0030B52DED028B83B005461B48FA
:102D000004781B480078844204D01A4802F07EFC04
:102D1000174804709FED188A1448CDE90054D0ED8F
:102D2000021AB0EE611AD0ED011AF0EE610AD0ED90
:102D3000031AB0EE610AF0EE481A104B104A11491E
:102D40000C4802F091FC0B4890ED090A0E4880ED0A
:102D5000000A084890ED050A0C4880ED000A0120A1
:102D60000B49087003B0BDEC028B30BD0C0700208E
:102D7000D00000200C0500206F12833AD4060020FA
:102D8000F0060020B8060020C0000020C40000208B
:102D9000BE00002010B501F05AFD012001F02EFD0B
:102DA00010BD00000020084908709FED080A08487F
:102DB00080ED000A074890ED050A074880ED000AFB
:102DC0000020064908707047BE0000200000000087
:102DD000C00000200C050020C4000020BF0000201F
:102DE00070B500240025244890F8610038B100BF78
:102DF00001250020214908702149088021E01E4852
:102E000090F86000B8B11E48008863280BD30020FA
:102E10001B4908801948007808B9012000E000200B
:102E20001649087004E016480088401C14490880C0
:102E30001248047805E00024002010490870104969
:102E400008802146022001F0E8FC2946032001F019
:102E5000E4FC0C48008848B10121084601F0DDFC83
:102E600008480088401E0749088003E0002101202F
:102E700001F0D3FC70BD00000C070020CC00002046
:102E8000CE000020CA000020F0B52DED048B83B0E9
:102E900004461CB903B0BDEC048BF0BD94ED020AEE
:102EA000FFEE000AB4EE600AF1EE10FA01D1012043
:102EB00000E000200746207B08B9012000E0002048
:102EC0000546207908B9012000E00020064617B920
:102ED0000DB906B9DEE7D4ED068A94ED079A94EDB4
:102EE000080ADFED390A20EE200AB0EE408A94EDA0
:102EF000080AB0EE401ADFED350AB0EE480A02F0DB
:102F00001DF9B0EE408A9FED310A84ED070A84ED89
:102F1000068A5FB36B46182278219FED2C0A204663
:102F200001F0E6FC78B19DED000A84ED020A9DED0A
:102F3000000A84ED0C0A9DED000A84ED0D0A0120C3
:102F400084F838001AE0BFEE000A84ED020A9FED13
:102F50001F0A84ED0C0A9FED1D0A84ED0D0A002066
:102F600084F838001AA001F07CFC07E09FED170AF6
:102F7000204600F0E6FA782001F06DFC05B9BEB1FC
:102F800001AA02A9204600F067FE40B115B19DF9E3
:102F90000800207366B19DF80400207108E00DB1AF
:102FA000002020730EB100202071194801F059FC57
:102FB000C4ED068A84ED079A9FED040A204600F0CE
:102FC000C0FA00BF66E70000CDCCCC3E0000000098
:102FD000696E69742E63616C69623A207A65726FFA
:102FE0002D6C6F636B2073616D706C696E6720660A
:102FF00061696C65642C206B656570207A65726F01
:1030000020617320756E646566696E65640D0A00E3
:10301000CCE600080146012901DA01207047202989
:1030200001DD2020FAE7C8B2F8E7000070B52DED09
:10303000068B0446B0EE409A0D46B0EE490A02F007
:1030400047F9B0EE409A84ED059AD4ED040AB0EE4B
:10305000601AD4ED080AB0EE600ADFED490A02F00A
:103060006DF8F0EE408AD4ED060A60EEA00A94ED09
:10307000071AD4ED071A41EE210AB0EE600A05F0F6
:1030800040FEB0EE408A94ED060AB0EE40AA94ED00
:10309000070AF0EE40AAB4EEE88AF1EE10FA15DD68
:1030A0009FED380AB4EEC08AF1EE10FA0EDDC8EEDC
:1030B000880AB0EE600A6AEE000AB0EE60AA6AEE14
:1030C000800AF0EE60AAB0EE688A00BF04F1440105
:1030D000081FB0EE491AF0EE6A0AB0EE4A0A02F092
:1030E000A9F894ED111AF0EE410A94ED101AB0EE21
:1030F000410A04F15002111F081F02F081F8B0EEDE
:10310000681ADFED1F0AB0EE480A02F017F8F0EE79
:10311000409ACDB1D4ED041AB0EE612AD4ED141A60
:10312000B0EE611AD4ED131AF0EE610AD4ED121A62
:10313000B0EE610A04F15C031A1F111F181DF0EEB6
:10314000691A04F01FFC18E0D4ED041AB0EE612AED
:10315000D4ED141AB0EE611AD4ED131AF0EE610A30
:10316000D4ED121AB0EE610A04F15C031A1F111FAC
:10317000181DF0EE691A04F040FCBDEC068B70BD22
:1031800000000000BD37863510B52DED028B0446DA
:10319000B0EE408A0121B0EE480A2046FFF746FF14
:1031A000BDEC028B10BD10B52DED028B0446B0EEC8
:1031B000408A0021B0EE480A2046FFF737FFBDECF9
:1031C000028B10BD10B5044604B910BD9FED190A5D
:1031D00084ED190A9FED180A84ED1A0A9FED170A6B
:1031E00084ED1B0AB7EE000A84ED1C0AB0EE000A5B
:1031F00084ED1D0A012084F8780001217920015511
:103200007A2001557920005D10B99FED0D0A01E08B
:10321000B7EE000A84ED1F0A9FED0A0A84ED200A2A
:103220009FED090A84ED210A204601F043FB00BF0F
:10323000CBE700006F12833A8FC2F53C0AD7A33B5D
:1032400000000000CDCC4C3E9A99193F10B500F01B
:10325000E6F810BD70B52DED028B04460D461646FE
:10326000B0EE408AF0EE608AF0EE680AB0EE480AEE
:1032700032462946204600F077FABDEC028B70BD3D
:1032800010B52DED048B0446B0EE409A24B99FEDA5
:10329000240ABDEC048B10BD207940B194ED020AE4
:1032A000FFEE000AB4EE600AF1EE10FA02D194EDDE
:1032B000050AEEE7207900EE100AB8EE400ADFEDCD
:1032C000190AC0EE808AD4ED020A79EE600AB0EEE7
:1032D000600A02F01BF8F0EE409AF0EE680A05F082
:1032E0007BFCB0EE408AB5EEC08AF1EE10FA03D254
:1032F00038EE280AB0EE408A94F90C0000EE900AED
:10330000F8EEE00A20EE881A207900EE900AF8EE36
:10331000600A61EE200AB0EE600A01F0D9FFB8E75A
:1033200000000000DA0FC94010B52DED028B0446F5
:10333000B0EE408AF0EE608A9FED051AF0EE680A62
:10334000B0EE480A204600F03BF9BDEC028B10BD00
:103350006F12833A2DE9F0472DED048B81468846A4
:1033600015461E46F0EE409AF0EE608AB0EE419AA5
:10337000B0EE618ADDE90C74012C05D024B1002087
:10338000BDEC048BBDE8F0871D48007820B91D48CE
:10339000047001201A4908701A480078844214D039
:1033A00034B9D7ED1F0AB0EE600A484600F02CF899
:1033B000404601F063FA284601F060FA304601F019
:1033C0005DFA00F067F80F480470012C09D1F0EEA7
:1033D000480A3A46B0EE690A2946484601F0C2FB5F
:1033E0000BE0B0EE481A3B46F0EE490AB0EE680A30
:1033F00032462946484601F0EDFA0120C0E70000B8
:10340000570000205600002000B9704780ED0C0ADC
:1034100080ED0D0A012180F8381000BFF5E701208A
:103420007047000010B5044604B910BD204601F0F5
:1034300041FA7920005D38B900217A2001559FEDCD
:10344000140A84ED1F0A20E07920005D012807D1CD
:1034500001217A200155B7EE000A84ED1F0A14E01D
:103460007A20005D30B17A20005D012802D0012170
:103470007A2001557A20005D012802D1B7EE000ABA
:1034800001E09FED030A84ED1F0A00BFCDE70000B5
:103490000000000010B501F015FA10BDB5EEC00A2D
:1034A000F1EE10FA02D29FED061A01E0B0EE401ADA
:1034B000F0EE410A00B97047C0ED210A00BFFAE7FB
:1034C00000000000B5EEC00AF1EE10FA02D29FED46
:1034D000061A01E0B0EE401AF0EE410A00B970475A
:1034E000C0ED200A00BFFAE70000000070B50446F6
:1034F0000D4604B970BD0DB1012000E00020064664
:1035000094F87800B04204D084F87860204601F046
:10351000D1F900BFEEE770B505460C4605B970BDA0
:1035200024B1012C02D0022C00D001247920445572
:10353000022C01D07A204455284601F0BBF900BF87
:10354000EDE710B52DED028B0446B0EE408A14B9BC
:10355000BDEC028B10BDB0EE480A2046FFF714FE0A
:1035600000BFF5E770B52DED028B82B004460D4625
:103570001646B0EE408AD4ED050AB0EE600A01A905
:10358000304600F08BF9D4ED090AB0EE600AB0EED7
:10359000481ADDED010A284600F014FAF0EE408AE0
:1035A0009DED010A84ED0A0A9FED040A84ED060AE6
:1035B000C4ED078A02B0BDEC028B70BD00000000B4
:1035C00010B52DED048B0446B0EE409AF0EE608A03
:1035D000B0EE418A14B9BDEC048B10BDB0EE480AC0
:1035E00000F0B4FFB0EE408ADFED1C0A28EEA01A0E
:1035F000207900EE900AF8EE600A61EE200A20EED3
:10360000881A94F90C0000EE900AF8EEE01AD4ED56
:10361000050A41EE210AB0EE600A01F059FE84ED80
:10362000050A9FED0F0A84ED060A94ED080AB0EE34
:10363000401A94ED080AB1EE400AF0EE400AB0EEEE
:10364000490A01F07BFD84ED070AD4ED050AB0EECE
:10365000600A2046FFF7A7FD00BFBCE7DA0FC940AC
:10366000000000002DE9F0432DED088B83B00446E7
:103670000F469046F0EE408A9FED3A0A8DED020A21
:103680009FED380A8DED010A9FED360A8DED000A97
:103690001CB117B1B8F1000F04D103B0BDEC088B19
:1036A000BDE8F08304F1780504F18809B0EE680AFA
:1036B000424639462046FFF755FF94ED069AD4ED71
:1036C000079A94ED0AAAD4ED090AB0EE600A6B4697
:1036D00001AA02A9DFED230A204600F01BF994EDB0
:1036E000090AB0EEC00AB0EE40BA284600F018FA57
:1036F0000646012E02D1B7EE000A01E09FED190A3D
:10370000F0EE40AAD5ED010AB0EE600AB0EE681AFC
:10371000F0EE6A0A484600F059FAB0EE408A85EDAC
:10372000018A9DED020A79EE400A9DED020A00EE43
:10373000880A84ED060A9DED010A79EEC00A9DED26
:10374000010A00EE880A84ED070A9DED000A7AEE70
:10375000400A9DED000A00EE880A84ED0A0A00BFC7
:103760009BE70000000000002DE9F0412DED028BE9
:1037700004460F461546F0EE408AB0EE608A1CB94A
:10378000BDEC028BBDE8F08104F18806B0EE680A5A
:1037900001F09EFD84ED050AB0EE480A00F0D6FE69
:1037A000B0EE408A05B107B9EAE794F8780038B17D
:1037B000B0EE480A2A4639462046FFF753FF2EE06E
:1037C0000EB1002030707920005D01280ED101215A
:1037D0007A200155B7EE000A84ED1F0AB0EE480AC0
:1037E0002A4639462046FFF7BDFE18E000217A2020
:1037F00001559FED0F0A84ED1F0AD4ED090AB0EEC2
:10380000600ADFED0B0A204600F014F8D4ED050A3B
:10381000B0EE600A04F12801284600F03FF8D4ED2C
:10382000050AB0EE600A2046FFF7BDFC00BFA7E71F
:103830000000000010B52DED028B84B00446B0EE00
:10384000408AF0EE608A9FED140A8DED030A9FED29
:10385000120A8DED020A9FED100A8DED010A1CB9C6
:1038600004B0BDEC028B10BD01AB02AA03A9F0EEBF
:10387000680AB0EE480A204600F04CF89DED020AB6
:1038800084ED070A9DED030A84ED060A9DED010A09
:1038900084ED0A0A00BFE3E70000000030B52DED1B
:1038A000028B83B00446B0EE408A0D4604B11DB9C8
:1038B00003B0BDEC028B30BDD4ED171AB0EE611A27
:1038C000D4ED0F1AF0EE610AD4ED071AB0EE610ADA
:1038D00001A902A801F048FC29466846B0EE481A42
:1038E000DDED010A9DED020A01F0CAFCD5ED000AEA
:1038F000B0EE600A0449DFED050A054801F054FC0A
:1039000085ED000A00BFD3E7640000203333333F66
:10391000680000202DE9F0412DED088B0446B0EE43
:1039200040BAF0EE60AA0D4616461F4614B10DB11E
:1039300006B11FB9BDEC088BBDE8F081D4ED040AD7
:10394000B0EE601AD4ED080AB0EE600ADFED1B0A93
:1039500001F0F4FBB0EE409A94ED000AB0EEC08A9C
:103960009FED170AB4EEC08AF1EE10FA03D29FED74
:10397000140AB0EE408AC9EE088AB0EE681AF1EE79
:10398000680AB0EE4B0A01F0D9FBF0EE409AB0EEB7
:10399000681AF1EE680AB0EE6A0A01F0CFFBB0EEE9
:1039A00040AA29EE880A86ED000A2AEE080A85ED6B
:1039B000000AC7ED009A00BFBCE70000000000004D
:1039C000BD37863510B52DED0A8B0446F0EE40AAC2
:1039D000B0EE60BAF0EE418A24B99FED4D0ABDEC1D
:1039E0000A8B10BDB0EE680A00F0B0FDF0EE408A20
:1039F0007AEECB9AB0EEE90ADFED460AB4EEE00AC1
:103A0000F1EE10FA02D89FED428A01E0B0EE698A29
:103A1000B7EE001ADFED3E0A9FED3F0A01F08EFB84
:103A2000B0EE40AAB5EEC08AF1EE10FA06D194EDE0
:103A3000030A20EE0A0A84ED030A05E094ED030A66
:103A400008EE280A84ED030A94ED040A38EE400AD1
:103A500080EE289A94ED010AD4ED030A20EE200AA4
:103A6000D4ED000A00EE880AD4ED020A00EE890ABD
:103A7000F0EE40BA94ED060AB0EE401A94ED050A55
:103A8000F0EE400AB0EE6B0A01F058FBF0EE40BADF
:103A900094ED010ADFED210AB4EEE00AF1EE10FA2E
:103AA0002CDD94ED050AD4ED000A00EEC80AD4ED31
:103AB000020A00EEC90AD4ED010A80EE201AB0EE27
:103AC00041CA94ED060AD4ED000A00EEC80AD4ED0E
:103AD000020A00EEC90AD4ED010A80EE201AF0EEC7
:103AE00041CAD4ED030AB0EE600AB0EE6C1AF0EEF3
:103AF0004C0A01F023FB84ED030A03E09FED040A66
:103B000084ED030A84ED048AB0EE6B0A67E70000D7
:103B100000000000CDCC4C3DCDCCCC3DBD37863532
:103B200010B52DED048B0446B0EE408A607828B9BC
:103B30000020A070A078BDEC048B10BD6078012837
:103B400002D1A070A078F6E7D4ED020AB0EE600AC8
:103B50009FED1C1ADFED1C0A01F0F0FAB0EE409A5E
:103B6000D4ED030AB0EE600A9FED161ADFED160AD7
:103B700001F0E4FAF0EE408AA07868B1A07801285C
:103B80000AD0B4EEE88AF1EE10FA01DB012000E081
:103B90000020A070A078CEE7A078012807D1B4EE6D
:103BA000C98AF1EE10FA02D80020A07008E0A078CF
:103BB00030B9B4EEE88AF1EE10FA01DB0120A07012
:103BC000A078B8E7002474490000000010B52DED7E
:103BD000048BB0EE408A0446B0EE609AF0EE418A63
:103BE000B7EE001ADFED1A0AB0EE490A01F0A6FAA4
:103BF000B0EE409A44B1207830B901202070B0EE88
:103C0000490ABDEC048B10BD9FED120A38EE800A04
:103C1000C8EE800AF0EE609AB7EE001ADFED0C0AEB
:103C2000B0EE690A01F08AFAF0EE409A79EE480A9D
:103C3000B0EE480A00EEA90AB0EE408AB7EE001ACC
:103C4000DFED030AB0EE480A01F078FAD9E7000088
:103C5000000000009A99193F2DE9F0472DED088BDF
:103C600082B007460D4616469FED5C0AF0EE40AA6C
:103C70009FED5A0AB0EE40BA9FED580AB0EE408A66
:103C80009FED560AB0EE409A4FF000094FF01E0823
:103C90009FED530AF0EE409A0FB105B12EB9002006
:103CA00002B0BDEC088BBDE8F087002445E000EED3
:103CB000104AB8EE400A29EE800AF0EE408A01ABC5
:103CC00002220421B0EE680A384600F011FE00B965
:103CD00031E0B9F1000F08D19DED010AF0EE40AAE4
:103CE000B0EE68BA4FF0010925E0DDED010A70EE93
:103CF000EA0AB0EE600A01F009FBB0EE40AA38EE25
:103D0000CB0AF0EE40BAB0EECA0ADFED360AB4EEE6
:103D1000E00AF1EE10FA07DB38EE0A0AB0EE408A4C
:103D200039EE2B0AB0EE409A9DED010AF0EE40AA62
:103D3000B0EE68BA00BF601C84B24445B7DDB0EE97
:103D4000C80ADFED280AB4EEE00AF1EE10FA08D353
:103D5000B0EEC90ADFED240AB4EEE00AF1EE10FA83
:103D600001D200209CE7B5EEC08AF1EE10FA01DB2B
:103D7000012001E04FF0FF30287089EE080AB0EE14
:103D8000C00AF6EE000A30EE200ABDEEC00A10EEC0
:103D900010AA5046FFF73EF930709FED100A3846E2
:103DA000FFF7F2F9042000F056FD444611E000EE62
:103DB000104AB8EE400A29EE800AF0EE408A01ABC4
:103DC00002220421B0EE680A384600F091FD601E20
:103DD00084B2002CEBD1012062E70000000000005B
:103DE0004F77563EA69BC43ABD37863510B52DEDAC
:103DF000088BB0EE408AF0EE608A9FED3E0AF4EE4A
:103E0000C08AF1EE10FA19DD9FED3B0AF4EEC08A8C
:103E1000F1EE10FA12D29FED370AB4EEC08AF1EE3D
:103E200010FA0BDD9FED340AB4EEC08AF1EE10FA01
:103E300004D29FED320ABDEC088B10BDF5EEC08AAE
:103E4000F1EE10FA02DBB0EE680A01E0B1EE680AAA
:103E5000F0EE409AB5EEC08AF1EE10FA02DBB0EE59
:103E6000480A01E0B1EE480AB0EE40AADFED24AA0C
:103E7000F4EECA9AF1EE10FA0EDB9FED1F0A39EE4E
:103E8000800ACAEE000AB0EE60BAB0EE4B0A00F04B
:103E9000C9F8B0EE409A0DE09FED170A3AEE000A1D
:103EA000C9EE800AB0EE60BAB0EE4B0A00F0BAF884
:103EB0003AEEC09AF5EEC08AF1EE10FA0ADBB5EEE2
:103EC000C08AF1EE10FA02DBB0EE490AB3E7B1EEB8
:103ED000490AB0E7B5EEC08AF1EE10FA04DB9FEDB7
:103EE000090A30EE490AA6E79FED060A39EE400AB4
:103EF000A1E70000BD3786B5BD378635000000005C
:103F0000DA0FC93FDA0F494010B52DED088BB0EE3E
:103F1000408AF0EE608A9FED3E0AF4EEC08AF1EE30
:103F200010FA19DD9FED3B0AF4EEC08AF1EE10FAAB
:103F300012D29FED370AB4EEC08AF1EE10FA0BDD13
:103F40009FED340AB4EEC08AF1EE10FA04D29FED70
:103F5000320ABDEC088B10BDF5EEC08AF1EE10FA06
:103F600002DBB0EE680A01E0B1EE680AF0EE409ABA
:103F7000B5EEC08AF1EE10FA02DBB0EE480A01E0BD
:103F8000B1EE480AB0EE40AADFED24AAF4EECA9AD8
:103F9000F1EE10FA0EDB9FED1F0A39EE800ACAEE31
:103FA000000AB0EE60BAB0EE4B0A00F065F8B0EE71
:103FB000409A0DE09FED170A3AEE000AC9EE800A1A
:103FC000B0EE60BAB0EE4B0A00F056F83AEEC09A86
:103FD000F5EEC08AF1EE10FA0ADBB5EEC08AF1EE1A
:103FE00010FA02DBB0EE490AB3E7B1EE490AB0E7D6
:103FF000B5EEC08AF1EE10FA04DB9FED090A30EE4F
:10400000490AA6E79FED060A39EE400AA1E700003B
:10401000BD3786B5BD37863500000000DA0FC93FD1
:10402000DA0F494010B52DED028BB0EE408ADFED7E
:104030000F0AB6EE000A08EE200ABDEEC00A10EE26
:10404000104A4FF47A71204600F040F804460848C0
:1040500030F8140000EE100AB8EE400ADFED050A51
:1040600020EE200ABDEC028B10BD000000007A4457
:1040700010CA00086F12833A10B52DED028BB0EE16
:10408000408ADFED0F0AB6EE000A08EE200ABDEE08
:10409000C00A10EE104A4FF47A71204600F021F861
:1040A0000446084830F8140000EE100AB8EE400A42
:1040B000DFED050A20EE200ABDEC028B10BD0000EA
:1040C00000007A442ADE00086F12833A0246002A72
:1040D00001DA002070478A4201D90846FAE790B217
:1040E000F8E70246002A01DA002070478A4201D927
:1040F0000846FAE790B2F8E730B5F0EE401A9FEDC7
:104100003D0AB0EE402AB0EE610A05E09FED3A3A72
:1041100030EE433AB0EE430A9FED373AB4EEC30AAD
:10412000F1EE10FAF2DA05E09FED333A30EE033AA1
:10413000B0EE430AB5EEC00AF1EE10FAF4D3B0EED9
:10414000401A81EE020ABCEEC00A10EE101AC8B284
:10415000032800D9032000EE100AB8EE400AF0EE62
:10416000412A40EE422A9FED253AB6EE000A02EEC1
:10417000830ABDEEC00A10EE101A40F22364002933
:1041800001DA002504E0A14201D9254600E08DB204
:104190002A4640F22361891A8BB238B9184931F89E
:1041A000121000EE101AF8EE400A1EE0012807D1A6
:1041B000134931F8131000EE101AF8EE400A14E01B
:1041C000022809D10E4931F8121000EE101AB8EE8B
:1041D000400AF1EE400A08E0094931F8131000EEF8
:1041E000101AB8EE400AF1EE400A9FED063A80EE52
:1041F000830A30BDDA0FC93FDA0FC94000007A44A4
:10420000AEA9000800FEFF4670B52DED068BB0EE9E
:10421000409A9FED3B0AF0EE409AB0EE490A05E065
:10422000DFED380A70EE600AB0EE600ADFED350AA5
:10423000B4EEE00AF1EE10FAF2DA05E0DFED310A51
:1042400070EE200AB0EE600AB5EEC00AF1EE10FA88
:10425000F4D3F0EE408A88EEA90ABCEEC00A10EE54
:10426000100AC4B2032C00D9032400EE104AB8EEA1
:10427000400AB0EE68AA00EE69AADFED230AB6EEA6
:10428000000A0AEE200ABDEEC00A10EE100A40F243
:104290002361FFF71BFF054640F22360401B86B2F7
:1042A0003CB91A4830F8150000EE100AB8EE408A02
:1042B0001EE0012C07D1154830F8160000EE100A58
:1042C000B8EE408A14E0022C09D1104830F81500ED
:1042D00000EE100AB8EE400AB1EE408A08E00B4842
:1042E00030F8160000EE100AB8EE400AB1EE408A2F
:1042F000DFED070A88EE200ABDEC068B70BD0000DA
:10430000DA0FC93FDA0FC94000007A44C8BD00087F
:1043100000FEFF4670B52DED068BB0EE409A9FED86
:104320003B0AF0EE409AB0EE490A05E0DFED380AAC
:1043300070EE600AB0EE600ADFED350AB4EEE00A16
:10434000F1EE10FAF2DA05E0DFED310A70EE200A44
:10435000B0EE600AB5EEC00AF1EE10FAF4D3F0EE5A
:10436000408A88EEA90ABCEEC00A10EE100AC4B258
:10437000032C00D9032400EE104AB8EE400AB0EE38
:1043800068AA00EE69AADFED230AB6EE000A0AEE7B
:10439000200ABDEEC00A10EE100A40F22361FFF7BA
:1043A000A0FE054640F22360401B86B23CB91A4885
:1043B00030F8150000EE100AB8EE408A1EE0012C1D
:1043C00007D1154830F8160000EE100AB8EE408A02
:1043D00014E0022C09D1104830F8150000EE100A44
:1043E000B8EE400AB1EE408A08E00B4830F81600FB
:1043F00000EE100AB8EE400AB1EE408ADFED070A7F
:1044000088EE200ABDEC068B70BD0000DA0FC93FB4
:10441000DA0FC94000007A44E2D1000800FEFF46EE
:1044200070B52DED048B0446B0EE408AB0EE609A74
:10443000F0EE419A0D46F0EE618A164614B9BDECD5
:10444000048B70BDB5EEC08AF1EE10FA03D29FED79
:10445000360AB0EE408AB0EE481ADFED330AB0EE0D
:10446000490A00F06BFEB0EE409A9FED2F0A84EDF2
:10447000050A9FED2D0A84ED060A9FED2B0A84EDB7
:10448000070A84ED089A84ED048A9FED270A84EDDB
:10449000090A9FED250A84ED0A0A9FED230A84ED9F
:1044A0000B0A9FED210A84ED0C0A9FED1F0A84ED93
:1044B0000D0A002084F83800C4ED009A2571C4ED7F
:1044C000028AC4ED0C8AC4ED0D8A012084F83800FC
:1044D00026739FED150A84ED100A9FED130A84EDF3
:1044E000110A9FED110A84ED120A9FED0F0A84ED67
:1044F000130A9FED0D0A84ED140A9FED0B0A84ED5B
:10450000150A9FED090A84ED160A9FED070A84ED4E
:10451000170A002084F860002046FEF753FE20466C
:10452000FEF7B2FC00BF8AE700000000F0EE400A90
:10453000F5EEC00AF1EE10FA02DDB0EE600A704747
:104540009FED010AFBE700006F12833AF0EE400A8C
:10455000F5EEC00AF1EE10FA02DDB0EE600A704727
:104560009FED010AFBE700006F12833A00B9704724
:1045700080ED000AC0ED010A80ED021ADFED062A87
:10458000C0ED032ADFED042AC0ED042AC0ED051AB0
:1045900080ED062A00BFEAE70000000010B52DED0F
:1045A000088B0446F0EE409AB0EE60AAF0EE418A25
:1045B00024B99FED390ABDEC088B10BDB0EE680A36
:1045C000FFF7B4FFF0EE408A39EECA8A94ED030A91
:1045D00008EE280A84ED030A94ED040A38EE400A36
:1045E00080EE289A94ED010AD4ED030A20EE200A09
:1045F000D4ED000A00EE880AD4ED020A00EE890A22
:10460000F0EE40AA94ED060AB0EE401A94ED050AC9
:10461000F0EE400AB0EE6A0A00F090FDF0EE40AA1B
:1046200094ED010ADFED1D0AB4EEE00AF1EE10FA96
:104630002CDD94ED050AD4ED000A00EEC80AD4ED95
:10464000020A00EEC90AD4ED010A80EE201AB0EE8B
:1046500041BA94ED060AD4ED000A00EEC80AD4ED82
:10466000020A00EEC90AD4ED010A80EE201AF0EE2B
:1046700041BAD4ED030AB0EE600AB0EE6B1AF0EE68
:104680004B0A00F05BFD84ED030A00BF84ED048A51
:10469000B0EE6A0A8FE7000000000000BD378635E3
:1046A00010B504F01DF804F0F7F910BD10B504F0D2
:1046B0006DF810BD70B504460D462946204604F03D
:1046C0006BF870BD10B504F03FFA10BD70B504462C
:1046D0000D462946204604F03DFA70BD0020704783
:1046E00002460020704700207047024600207047B5
:1046F00010B542F6DF61092003F014FD10BD000083
:104700000748006840F080700549086000200549AE
:1047100048600846006840F00100086070470000EB
:10472000FCED00E0001000E010B500F0D9FC10BD79
:1047300070B504460D462946204601F0A9F870BD23
:1047400010B52DED048BB0EE408AF0EE608AB0EE2D
:10475000419AB0EE491AF0EE680AB0EE480A01F04C
:1047600015F9BDEC048B10BD10B501F061F910BD59
:104770000148406870470000001000E010B5044692
:104780002046FDF714FB10BD70B504460D461822F7
:1047900029462046FDF780FA70BD70B504460D46E7
:1047A000022229462046FDF777FA70BD10B504466F
:1047B0002046FCF7FDFF10BD10B505F0ABFA10BDAB
:1047C00070B5044604EB840040000B49B1FBF0F0E7
:1047D000451EFDF7CBFA2946092003F027FD03F01B
:1047E00059FD2946092003F061FD03F009FEFDF79C
:1047F000DFF9FDF75FFA70BDC0D4010010B50446C3
:10480000204603F0D9FC204601F0FAF810BD10B59F
:104810000446204603F0CAFC10BD70B504460D46A0
:104820002946204600F07EFC70BD10B504462046A7
:1048300001F0E0F810BD10B52DED028BB0EE408A0E
:10484000B0EE480A03F0AEFDBDEC028B10BD10B512
:1048500003F0C8FC10BD10B50446204604F03CFC33
:1048600010BD10B50446204603F0E8FF10BD10B59A
:104870000446204603F0B8FF10BD000000B97047A1
:104880009FED040A80ED030A9FED020A80ED040A01
:1048900000BFF4E70000000000B970479FED040A74
:1048A00080ED030A9FED020A80ED040A00BFF4E7E1
:1048B0000000000000B97047002180F8881000BF98
:1048C000F9E700009FED060A064880ED000A9FED1B
:1048D000040A054880ED000A00200449087070476A
:1048E00000000000580000205C0000206000002054
:1048F0002DE9F0412DED048B82B00746B0EE409AD1
:10490000884614461D469FED300AB0EE408A9FED62
:104910002E0AF0EE408A0FB105B12CB9002002B08A
:10492000BDEC048BBDE8F081B0EE490A3846FEF7D5
:104930002BFC4046FFF78FFF002620E001A8FFF781
:104940001DFF00B919E09DED010AFFF75DFC30EE97
:10495000080AB0EE408ADDED010A9FED1C1A70EEE8
:10496000810AB0EE600AFFF74FFC30EE280AF0EE45
:10497000408A0420FFF76FFF00BF701C86B2A6427A
:10498000DCDBB0EEC80ADFED120AB4EEE00AF1EEAD
:1049900010FA0AD2B0EEE80ADFED0D0AB4EEE00A32
:1049A000F1EE10FA01D20020B9E7F0EE680AB0EE9D
:1049B000480AFFF71BFAF0EE409A00F089FC85EDFB
:1049C000000A0120ABE7000000000000DA0FC93F39
:1049D000BD3786352DE9F0412DED0C8B04460F4691
:1049E0009046F0EE409AB0EE60AA1E46F0EE41CA44
:1049F00024B11FB1B8F1000F00D01EB9BDEC0C8B73
:104A0000BDE8F08104F16405B0EE6C0AFFF78EFD9D
:104A1000F0EE40CA94F90C0000EE100AB8EEC00A9D
:104A200020EE290AF0EE409AD6ED1F0AB0EE600A99
:104A3000204600F0D5F894F90C0000EE100AB8EE0C
:104A4000C00AD4ED0C0A60EE20AA39EEEABAB0EE44
:104A5000CB9A95ED040AD5ED030A70EE60BA9FED8E
:104A60003E0AF4EEC0BAF1EE10FA03D29FED3A0A14
:104A7000F0EE40BA95ED030AB4EEC90AF1EE10FA71
:104A800002DB9FED368A0FE095ED040AB4EEC90A09
:104A9000F1EE10FA02D8B7EE008A05E095ED030AB0
:104AA00039EE400A80EE2B8AB5EEC0BAF1EE10FA6C
:104AB00002DBB0EECA0A03E0B0EECA0AB1EE400A69
:104AC00020EE08CA9FED260AB4EEC08AF1EE10FA75
:104AD00007D23846FFF7E0FEFFF7F4FEDFED1F8A4E
:104AE00017E0D6ED1F0AB0EE600AB0EE6C1AF0EED9
:104AF0004C0A204600F0A6F8B0EE40DAB0EE6C1A90
:104B0000DFED160AB0EE4D0A3846FFF747FDF0EE2E
:104B1000408AB0EE6C1AF0EE6A0AB0EE690A2946D5
:104B20004046FDF779FDF0EE40DAB7EE000A30EED0
:104B3000480A20EE2D0A08EE280A84ED090A84EDC1
:104B40000BCAD6ED1F0AB0EE600A2046FEF798FBAE
:104B500084ED050A00BF51E7BD378635000000002F
:104B600017B7D13870B52DED048B04460E461546A7
:104B7000B0EE408AF0EE608A0CB106B115B9BDEC1A
:104B8000048B70BDB0EE680AFFF7D0FCF0EE408AEF
:104B9000D5ED1F0AB0EE600AB0EE681AF0EE480AD2
:104BA000204600F04FF8B0EE409AB0EE681ADFED04
:104BB0000B0AB0EE490A3046FFF7F0FC84ED090A13
:104BC00084ED0B8AD5ED1F0AB0EE600A2046FEF791
:104BD00057FB84ED050A00BFD1E70000000000008C
:104BE00010B52DED028B0446B0EE408A14B9BDEC31
:104BF000028B10BD94F8380038B984ED0D8A84ED2D
:104C00000C8A012084F83800F1E7D4ED0D0A78EE23
:104C1000600AB0EE600A00F079FBF0EE408AB0EE78
:104C2000E80AD4ED190AB4EEE00AF1EE10FA05DB59
:104C300094ED0C0A30EE280A84ED0C0A84ED0D8AFE
:104C400000BFD4E710B52DED068B0446B0EE409AB8
:104C5000F0EE609AF0EE418A24B99FED250ABDEC92
:104C6000068B10BDB0EE680AFFF760FCF0EE408ADC
:104C700094F90C0000EE100AB8EEC00A20EE098A82
:104C80001C48007868B91C4880ED008A9FED180A1E
:104C90001A4880ED000A0120164908709FED140A99
:104CA000DDE71548D0ED000A78EE600AB0EE600A44
:104CB00000F02CFBF0EE40AA0F4880ED008A29EEB0
:104CC000A8AA3AEE6A0A0D48D0ED000A30EE200A92
:104CD00080ED000A9FED0A1ADFED0A0A90ED000A46
:104CE00000F02CFA054880ED000A90ED000AB6E7C6
:104CF00000000000600000205C0000205800002040
:104D0000DA0FC941DA0FC9C110B50446012C02D12E
:104D1000FFF7CCFC10BD022C02D1FFF7D3FCF9E762
:104D2000032C02D1FFF7DAFCF4E7042C02D1FFF7E1
:104D3000DAFCEFE70020EDE770B504460D461646B5
:104D4000012C04D131462846FFF7B4FC70BD022C7B
:104D500004D131462846FFF7B9FCF7E7032C04D10C
:104D600031462846FFF7BCFCF0E7042C04D131465D
:104D70002846FFF7BAFCE9E70020E7E72DE9F04114
:104D800006460F46012411E02046FFF7BDFF00B99B
:104D90000AE03A4631462046FFF7CEFF054615B1F8
:104DA0002846BDE8F08100BF601CC4B2042CEBD9DA
:104DB0000020F6E700BFFEE708B5009002E000998A
:104DC000491E009100990029F9D108BD10B540F2A3
:104DD000157004F0DDFE124804F028FD4FF4004188
:104DE0000F4804F068FD00210D4804F064FD0C48F4
:104DF00004F0FCFC00F0E8F800220A49084804F03E
:104E00004DFC00231A461946054804F046FD0448A7
:104E100004F011FD4FF48061014804F037FC10BD2F
:104E200000540040E093040010B540F2036004F029
:104E3000AFFE402303221C21044804F079FB8023A9
:104E400003221C21014804F073FB10BD000C01403B
:104E500010B5FFF7E9FFFFF7B9FF10BD2DE9F047E7
:104E60008046894617461E4616B90020BDE8F087E1
:104E70000FB90120FAE700F087F804460CB120468C
:104E8000F4E76FF00101404600F062F804461CB1FF
:104E900000F08EF82046E9E749462C4804F0A2FCD1
:104EA00042F6E062012140F2075000F0D3F80446D8
:104EB0001CB100F07DF82046D8E700F065F8044604
:104EC0000CB12046D2E70121404600F041F80446EB
:104ED0001CB100F06DF82046C8E700251FE0701EE9
:104EE000A84206D10021194804F0D0FB174804F06D
:104EF000EFFC42F6E062012140F2065000F0AAF811
:104F0000044634B14FF48061104804F0BFFB2046E2
:104F1000ACE70E4804F062FC7855681C85B2B542D7
:104F2000DDDB42F6E06000F0ADF8044634B14FF44A
:104F30008061064804F0AAFB204697E74FF48061A1
:104F4000024804F0A3FB002090E70000005400405A
:104F500070B504460D462A4621460A4804F093FCE3
:104F600042F6E062012140F2015000F073F806467B
:104F70000EB1304670BD40F20151024804F060FCB1
:104F80000020F7E70054004010B5084804F09BFCEF
:104F900042F6E06201214FF4A06000F05BF80446A5
:104FA0000CB1204610BD0020FCE70000005400407A
:104FB00010B5044804F08CFC42F6E06000F062F8A2
:104FC00010BD00000054004010B5C023032214217E
:104FD0001F4804F0ADFAC0211D4804F0A7FA4FF4B1
:104FE0001670FFF7E9FE002411E04021184804F094
:104FF0009BFA4FF41670FFF7DFFE4021144804F0CF
:1050000095FA4FF41670FFF7D7FE601CC4B2092C56
:10501000EBDB80210E4804F087FA4FF41670FFF79F
:10502000CBFE40210A4804F081FA4FF41670FFF7D6
:10503000C3FE8021064804F079FA4FF41670FFF79A
:10504000BBFEC02303221C21014804F071FA10BDED
:10505000000C01402DE9F04104460D461646374646
:1050600006E027B9FFF7B2FE0220BDE8F0817F1EFF
:105070002146034804F0F8FBA842F2D10020F4E7EF
:105080000054004070B50446254605E01DB9FFF701
:105090009DFE022070BD6D1E0348006800F4007084
:1050A0000028F3D100BFF5E700540040C0ED001A1E
:1050B000C0ED011A9FED082A80ED022AC0ED030A17
:1050C00080ED040A80ED051A9FED042A80ED062A82
:1050D000C0ED071A704700006666663F00000000DA
:1050E00010B540F2036004F053FD40F2036004F099
:1050F0004FFD40F2036004F04BFD01230322102119
:10510000074804F015FA022303221021044804F092
:105110000FFA042303221021014804F009FA10BDFC
:10512000000C014070B505460C461CB1284602F043
:10513000DFFE02E0284600F0DFFF70BDF0EE401A0F
:10514000F4EEE01AF1EE10FA02D2B0EE600A704707
:10515000F4EEC11AF1EE10FA02DDB0EE410AF6E704
:10516000B0EE610AF3E7000080ED000A70EEC11AAC
:105170009FED032AC1EE822AC1ED002A704700008C
:10518000D7B3DD3F10B52DED028BB0EE408ADFEDD9
:10519000050A78EE200AB0EE600AFEF7ADFFBDEC1E
:1051A000028B10BDDA0FC93F00B5B0EE402AB0EE59
:1051B000603A00B111B9B0EE420A00BDB7EE001A74
:1051C000DFED0E0AB0EE430AFFF7B8FFF0EE402A1B
:1051D0000A7832B980ED002A01220A70B0EE420A44
:1051E000EBE790ED000AD0ED000A72EE600A02EEE5
:1051F000A00A80ED000A90ED000ADEE70000000042
:1052000080ED000ABEEE001A20EE011ADFED081A4A
:1052100001EEA01A81ED001ABEEE001A20EE011A6E
:10522000DFED031A01EEE01A82ED001A704700006C
:10523000D7B35D3F70B52DED068BB0EE408AF0EE32
:10524000608AB0EE419A04460D46B0EE490AFEF778
:1052500053FFF0EE409AB0EE490AFFF793FFB0EE2D
:1052600040AA28EE0A0A08EEE90A84ED000A28EEB0
:10527000290A08EE8A0A85ED000ABDEC068B70BD8E
:1052800070B52DED068BB0EE408AF0EE608AB0EE80
:10529000419A04460D46B0EE490AFEF72DFFF0EEA6
:1052A000409AB0EE490AFFF76DFFB0EE40AA28EE33
:1052B0000A0A08EEA90A84ED000AB1EE480A20EEB7
:1052C000290A08EE8A0A85ED000ABDEC068B70BD3E
:1052D00005E0DFED0D0A70EE600AB0EE600ADFED6A
:1052E0000A0AB4EEE00AF1EE10FAF2DA05E0DFEDB8
:1052F000060A70EE200AB0EE600AB5EEC00AF1EEC2
:1053000010FAF4D370470000DA0FC94005E0DFED72
:105310000E0A70EE600AB0EE600ADFED0C0AB4EE21
:10532000E00AF1EE10FAF2DC05E0DFED070A70EEBC
:10533000200AB0EE600ADFED060AB4EEE00AF1EEF4
:1053400010FAF2D370470000DA0FC940DA0F494073
:10535000DA0F49C000BFFEE701200149087070471D
:10536000BD0000202DE9F04105460E46174698463F
:10537000069C2DB126B11FB1B8F1000F00D00CB9B9
:10538000BDE8F08194ED050A86ED000A94ED060A69
:1053900086ED010A94ED070A86ED020A95ED080AEA
:1053A000B1EE400A86ED050A95ED080A86ED060A7B
:1053B00095ED001AB0EEC11ADFED221AB4EEE11A33
:1053C000F1EE10FA04DD95ED001AB0EEC11A01E01D
:1053D0009FED1C1AF0EE410A95ED081A81EE200AA5
:1053E000B5EEC00AF1EE10FA03D29FED171AB0EE37
:1053F000410AB1EE401A88ED051A88ED060AB1EEB1
:10540000401A87ED051A87ED060A94F84E102846D3
:10541000FEF781F8D4ED140AB0EE600A2846FEF7D4
:1054200051F8D4ED150AB0EE600A2846FEF736F8BA
:1054300094F84D102846FEF759F82846FDF7F2FF7C
:1054400000BF9DE7BD3786350000000010B59FED19
:10545000051ADFED040A9FED030A002001F08EFE1D
:1054600010BD00000000000070B52DED048B044657
:105470000D46B0EE408AF0EE608AB0EE419AF0EE52
:10548000619A16463246F0EE691A2946B0EE491A7C
:10549000F0EE680AB0EE480A2046FEF7C1FFBDEC08
:1054A000048B70BD2DE9F0412DED028B82B00546D5
:1054B0000E46174698460A9C2DB126B11FB1B8F189
:1054C000000F00D024B902B0BDEC028BBDE8F08122
:1054D00095ED000AB0EEC00ADFED320AB4EEE00A44
:1054E000F1EE10FA04DD95ED000AB0EEC00A01E01D
:1054F0009FED2C0AF0EE408A95ED080A80EE288A8E
:10550000B5EEC08AF1EE10FA03D29FED270AB0EE95
:10551000408AD5ED082AB0EE622AD5ED082AF1EED0
:10552000622AF0EE621AD4ED072AB0EE621AD4EDC8
:10553000062AF0EE620AD4ED052AB0EE620A304681
:10554000FFF714F8D4ED0A1AB0EE611AD4ED091A77
:10555000F0EE610AD4ED081AB0EE610AB0EE482A06
:10556000F1EE481A4046FFF701F8D4ED0D1AB0EEFF
:10557000611AD4ED0C1AF0EE610AD4ED0B1AB0EEFC
:10558000610AB0EE482AF1EE481A3846FEF7EEFFFF
:1055900043463A46314628460094FFF7E3FE00BFF3
:1055A00091E70000BD3786350000000070B5044665
:1055B0000D462946204602F0ADF870BD10B52DED20
:1055C000028B0446B0EE408AB0EE480A204602F054
:1055D00065FABDEC028B10BD10B5044602F006FB67
:1055E000204602F051FA10BD10B5044602F007FB48
:1055F000204602F049FA10BD10B5FDF727FE10BD98
:1056000010B504462046FDF7DDFD10BD10B504467B
:105610002046FDF707FF10BD70B52DED028B044647
:105620000D461646B0EE408AF0EE608AF0EE680A4B
:10563000B0EE480A324629462046FDF70BFEBDEC87
:10564000028B70BD10B52DED028B0446B0EE408A82
:10565000F0EE608AF0EE680AB0EE480A2046FDF7E8
:1056600063FEBDEC028B10BD2DE9F0432DED048BE4
:1056700083B004460D4616461F46B0EE408AF0EE53
:10568000608AB0EE419AF0EE619ADDE90E89F0EEA3
:10569000691AB0EE491AF0EE680AB0EE480A3B46C5
:1056A000324629462046CDE90089FDF753FE03B076
:1056B000BDEC048BBDE8F08310B502F04DF810BDD1
:1056C00010B52DED028BB0EE408AB0EE480A02F024
:1056D000CFF9BDEC028B10BD1FB51B48007800B19F
:1056E0001FBD1A4890F8610018B10120FDF750F86D
:1056F000F6E71748FFF770FF002000900190029036
:10570000039001208DF80500114890F880008DF875
:1057100006000F4890F881008DF807000C4890EDC6
:10572000220A8DED020A684601F020FD074890F834
:105730004C0018B90120FDF72BF8D1E70448FDF71C
:10574000D9FA00BFCCE70000C80000200C070020F9
:10575000980500207047000010B5002807DA0A07F6
:10576000140E054A00F00F031B1FD45403E00A0770
:10577000130E024A135410BD18ED00E000E400E0DF
:105780000346481C03FB00F26420B2FBF0F28A429D
:1057900000D90A4690B270470146B5EEC00AF1EE54
:1057A00010FA02D2DFED0F0A0BE0B7EE001AB4EEEA
:1057B000C10AF1EE10FA02DDF7EE000A01E0F0EEA8
:1057C000400A481C01EE100AB8EE411A20EE811A78
:1057D000BCEEC11A11EE102A8A4200D90A4690B2D4
:1057E000704700000000000010B50121014804F0DE
:1057F0003BFD10BD002C014010B540F2026004F0EA
:10580000C7F940F2026004F0C3F940F2026004F00C
:10581000BFF940F2036004F0BBF940F2036004F00A
:10582000B7F940F2036004F0B3F94FF4C06004F03C
:10583000AFF94FF4807303221821134803F078FE68
:105840004FF40073032218210F4803F071FE4FF448
:105850008063032218210C4803F06AFE4FF40053C2
:1058600003221821094803F063FE4FF4804303220A
:105870001821064803F05CFE4FF400430322182170
:10588000024803F055FE10BD00080140000C014025
:1058900070B504460D46FFF7AFFF1348B0FBF4F0B8
:1058A000C0F34F001149088008460088411E0020BF
:1058B00000F0DEF80D4800886843642190FBF1F0A9
:1058C00086B2304600F014F80021084600F032F8A5
:1058D0000021012000F02EF80021022000F02AF81B
:1058E000FFF782FF70BD0000C0D40100200000203F
:1058F0001FB50446FF2C00DDFF24684604F046FA7D
:105900000020ADF80000ADF80200ADF80440ADF89D
:105910000600ADF808004FF48070ADF80A000020D2
:10592000ADF80C006946024804F021FA1FBD0000E2
:10593000002C01402DE9F04106460C46642C00DDA8
:1059400064240F4884550F4801882046FFF718FF4C
:10595000074626B1012E04D0022E06D103E0002511
:1059600005E0012503E0022501E0BDE8F08100BF6C
:105970003A462946044804F036FB00BFF5E700002C
:105980001C00002020000020002C014010B52DED4F
:10599000048BB0EE409AB0EE608AF0EE418A134874
:1059A0000088B0EE490AFFF7F7FE044622460021C0
:1059B0000F4804F018FB0D480088B0EE480AFFF7C6
:1059C000EBFE044622460121094804F00CFB07487F
:1059D0000088B0EE680AFFF7DFFE04462246022187
:1059E000034804F000FBBDEC048B10BD2000002038
:1059F000002C01400149086070470000240000208D
:105A000010B504464CB10121084804F003FC002203
:105A10000121192003F082FF06E00121034804F070
:105A2000F5FB192003F06CFF10BD0000002C0140B5
:105A300010B5024804F090FB10BD0000002C01409E
:105A400010B50121084804F0ECFB00B910BD01219C
:105A5000054804F0E3FB0548006810B103480068FE
:105A6000804700BFF2E70000002C01402400002026
:105A700030B587B005460C4640F20B6004F088F85C
:105A8000304804F0FBFAA8B2ADF800004020ADF8B1
:105A900002000020ADF804000294ADF806008DF875
:105AA0000C006946274804F05DFB0421254804F0FA
:105AB000E7FB0021234804F0CAFB2021214804F021
:105AC0009DFB0120ADF810000420ADF8120000206D
:105AD000ADF81400ADF81600ADF81800ADF81A00D6
