:020000040800F2
:10000000E817002009020008BD5900086D4F0008DC
:10001000BD550008311E00085D8D0008000000007D
:10002000000000000000000000000000E573000870
:10003000491F0008000000000B5E0008E580000872
:1000400023020008230200082302000823020008FC
:1000500023020008230200082302000823020008EC
:10006000230200082302000823020008411F0008A1
:1000700023020008230200082302000823020008CC
:1000800023020008230200081F17000823020008AB
:1000900023020008230200082302000823020008AC
:1000A000230200083582000823020008230200080A
:1000B0003D820008458200084D82000823020008A6
:1000C000230200082302000823020008230200087C
:1000D000230200082302000811880008C98B0008C9
:1000E000230200082302000823020008230200085C
:1000F000230200082302000823020008230200084C
:10010000230200082302000823020008230200083B
:10011000230200082302000823020008230200082B
:10012000230200082302000823020008230200081B
:1001300000F002F800F058F80AA090E8000C8244A1
:100140008344AAF10107DA4501D100F04DF8AFF27E
:10015000090EBAE80F0013F0010F18BFFB1A43F0A5
:1001600001031847FCE800001CE90000103A24BF16
:1001700078C878C1FAD8520724BF30C830C144BF0C
:1001800004680C607047000000230024002500264E
:10019000103A28BF78C1FBD8520728BF30C148BFEA
:1001A0000B60704766290AF00085642900F0B8806A
:1001B000752900F0B580782900F0EE80632900F001
:1001C0006085732900F06585002070471FB50AF02F
:1001D00068FC00F063FD0400002000210AF088FAAA
:1001E000E0601FBD10B510BD00F05CFE1146FFF7CA
:1001F000EDFF09F073FC00F07AFE03B4FFF7F2FFA5
:1002000003BC00F0BDFE00000948804709480047D4
:10021000FEE7FEE7FEE7FEE7FEE7FEE7FEE7FEE7B6
:10022000FEE7FEE704480549054A064B7047000013
:10023000ED80000831010008E8070020E8170020E1
:10024000E80F0020E80F00200FB47CB50C0009AACD
:10025000009001D02044401E084B7B446946019029
:10026000089800F0E4FC05461CB10020694600F047
:10027000F1FC28467CBC5DF814FB0000010A00007C
:1002800070B5044685690068C10601D5302600E0D6
:100290002026C00707D070BDD4E901213046904721
:1002A000206A401C20626D1EF6D570BD70B50446F4
:1002B00085690078C00707D170BDD4E901212020ED
:1002C0009047206A401C20626D1EF6D570BD70B547
:1002D0000C460546012A05D02878800600D5EA6933
:1002E000002302E0012305E05B1C934202D2E05CA4
:1002F0000028F9D1A869E618C01AA861286A18442C
:1003000028622846FFF7BCFF04E0D5E9012114F874
:10031000010B9047B442F8D32846FFF7C7FF70BDE2
:100320002DE9F0410646002410687529314616A5CE
:1003300010D0AFF30080002802DA404213A507E096
:1003400031688A0701D512A502E0490704D511A535
:10035000012401E0AFF3008000210A2206F1240706
:1003600009E0B0FBF2FCB0FBF2F302FB1C00303002
:1003700078541846491C0028F3D123462A463046B3
:10038000BDE8F04100F0E5B9000000002D000000DC
:100390002B0000002000000070B504460D462146E9
:1003A0001068AFF300802188090502D50F4A7A440E
:1003B00002E00E4A7A440E32002104F1240305E0E3
:1003C00000F00F060009965D5E54491C0028F7D125
:1003D00020780023000704D5702D02D009B1022334
:1003E00011322046BDE8704000F0B3B94AE4000085
:1003F0002DE9F05F894604464FF0000ADFF874B13A
:10040000FB44C0F820A02046E1688847002874D04B
:10041000252806D0D4E901219047206A401C20629B
:10042000F1E700265F462046E16888472028054618
:1004300007DB312D05D2781910F8200C08B10643DE
:10044000F1E7B00701D526F00406C4F81CA0002788
:10045000C4F818A02A2D09D0284608F053FD38B357
:1004600004EB8708303DC8F8185019E059F8041B10
:10047000204604EB87029161E1688847012F054619
:1004800018D1E069002820DA26F020061DE0D8F80F
:10049000180000EB800005EB40003038C8F8180069
:1004A0002046E1688847054608F02CFD0028EED17B
:1004B000012F0AD02E2D08D12046E16888477F1CE5
:1004C0000546022F46F02006C4DBA069002803DAA7
:1004D000404246F00106A061F00701D026F0100668
:1004E0006C2D0BD0682D09D04C2D39D06A2D35D00C
:1004F000742D35D07A2D33D016E038E0E1682F46E0
:1005000020468847B842054609D16C2F26D04FF4C3
:100510008060E168064320468847054604E06C2F6A
:100520001AD04FF4807006430DB3A5F1410019288D
:1005300002D8203546F400664A4629462046266001
:100540004E46FFF72FFE80B101280BD0F61D26F096
:10055000070000F1080956E74020E4E78020D8E7CB
:100560000020D6E706F104094DE7284652E7206A45
:10057000BDE8F09F20E4000010B5431C02E010F835
:10058000011B71B18107FAD14FF0013202C88C1AF8
:100590008C4314EAC211F9D0C01A0A0603D0C01E57
:1005A00010BDC01A10BD0A0401D0801E10BD090282
:1005B000FCD0401E10BD032A40F2308010F0030C26
:1005C00000F0158011F8013BBCF1020F624498BFA6
:1005D00011F801CB00F8013B38BF11F8013BA2F143
:1005E000040298BF00F801CB38BF00F8013B11F0BE
:1005F000030300F02580083AC0F0088051F8043B5E
:10060000083A51F804CBA0E80810F5E7121D5CBFCA
:1006100051F8043B40F8043BAFF30080D20724BFFD
:1006200011F8013B11F801CB48BF11F8012B24BF91
:1006300000F8013B00F801CB48BF00F8012B7047E0
:1006400010B5203AC0F00B80B1E81850203AA0E86D
:100650001850B1E81850A0E81850BFF4F5AF5FEAA1
:10066000027C24BFB1E81850A0E8185044BF18C954
:1006700018C0BDE810405FEA827C24BF51F8043BFB
:1006800040F8043B08BF7047D20728BF31F8023B4F
:1006900048BF11F8012B28BF20F8023B48BF00F8E3
:1006A000012B70474FF000020429C0F0128010F0B7
:1006B000030C00F01B80CCF1040CBCF1020F18BF3E
:1006C00000F8012BA8BF20F8022BA1EB0C0100F0D1
:1006D0000DB85FEAC17C24BF00F8012B00F8012BA4
:1006E00048BF00F8012B70474FF0000200B51346D9
:1006F00094469646203922BFA0E80C50A0E80C5042
:10070000B1F12001BFF4F7AF090728BFA0E80C50F2
:1007100048BF0CC05DF804EB890028BF40F8042BEB
:1007200008BF704748BF20F8022B11F0804F18BF58
:1007300000F8012B704770477047704710B500F004
:10074000B1FA006810BD10B5044600F0ABFA0460C1
:1007500010BD2DE9F0470D4699469246044600F13A
:1007600024080168880604D5E06921F010012160A1
:1007700000E00120A84201DD471B00E00027A1693D
:100780007A1902EB0900081AA0612078C00602D489
:100790002046FFF775FD002608E0D4E901211AF88C
:1007A00006009047206A401C761C20624E45F4DB10
:1007B0002078C0060AD52046FFF762FD06E0D4E99E
:1007C000012130209047206A401C2062381EA7F18A
:1007D0000107F4DC07E0D4E9012118F8050090478F
:1007E000206A401C2062281EA5F10105F3DC20468A
:1007F000FFF75CFD2078000602D50220BDE8F087F7
:100800000120FBE770472DE9FF4F0C461E464FF0D5
:10081000FF378BB0D2E90001DDF860800A908A468C
:10082000C1F30A5505B93D46002108464FF00000C6
:10083000BAF1000F00F4400005DA00EB80004FF43D
:10084000400101EA50004FEA9059B9F1010F00DD73
:10085000B9460A9850EA4A000ED044F61050A5F264
:10086000FF3545432F14B8F1000F1ED07542291EE5
:100870001EDDC9F100021CE0B8F1010F4FF00000CD
:1008800001D0302103E0F24305E02154401CB04286
:10089000FBDB30460022002121540B99C1F808806F
:1008A000C1E900200FB0BDE8F08FBD1B6D1CDEE775
:1008B0004A4600DA694206A800F07EFA06AB93E8E1
:1008C000070003AB83E8070050460A9900F05FFB7E
:1008D0008DE80700A0F500501F3800900398002D08
:1008E0000ADD42F21F014A460844002303A903908F
:1008F000684600F0C8FD09E0A0F500504A461F38E0
:10090000002303A90390684600F0D2FD8DE807009C
:100910000004000C03D04FF0FF30410800E0104607
:10092000B8F1000F03D00022009215461EE0751E9C
:1009300005D400F0BBF9303262556D1EF9D5B346CF
:100940000122084302D000227F1C04E020783028D6
:1009500001D100227F1E002A099784D01DE0112DAD
:1009600007DA00F0A3F9303262556D1C50EA01023B
:10097000F5D1084302D00098C8B10EE00021681EEE
:1009800005E0235C625C63542254401E491C814292
:10099000F7DBAB46A81B401E0990002004F80B00B3
:1009A0000B98099AC0F80880C0E9002B7AE7112655
:1009B0004FF0000857E72DE9F04F88460446D21D56
:1009C00022F0070191B0D1E90001CDE90A0108F058
:1009D000C7F902460B98C00F01D02D2007E0206810
:1009E000810701D52B2002E0202101EAC000032A63
:1009F000099001D0072A05DB03464146204600F056
:100A00009BF90BE12078800601D5E06900E0062023
:100A1000B8F1650F814606D0B8F1660F18D0B8F16D
:100A2000670F70D131E00020B9F1110F009001DBA8
:100A3000112301E009F101030AAA01A90CA8FFF79B
:100A4000E2FEDDE90C70002609F10105834647E06E
:100A500001204B4600904FF000470AAA01A90CA8BC
:100A6000FFF7D1FEDDE90DB00C995D46002610B907
:100A700009F101000D18B9EB050003D4C0F1FF36F0
:100A800009F10105A5EB09002BE0B9F1010F01DA2D
:100A90004FF001090020B9F1110F0090484601DD27
:100AA000112300E003460AAA01A90CA8FFF7ABFE38
:100AB000DDE90C704D4600268346207800070AD4F5
:100AC000AB4500DA5D4601A8012D04DD411911F89E
:100AD000011C302907D04F4502DA17F1040F04DA60
:100AE000012082460FE06D1EEEE7002F02DCED1BB9
:100AF0003E4403E0781CA84200DD7D1CB81B00F1D9
:100B0000010A4FF000472078000703D4AA4501DB13
:100B10004FF0FF3A0021B7F1004F0DF143088DF877
:100B2000431024D002202B23002F01DA7F422D23F3
:100B30000A21021EA0F1010000DC5FB197FBF1FC6D
:100B400097FBF1F201FB1C7C17460CF1300C08F806
:100B500001CDEEE7A8F1010003702188090501D558
:100B6000452100E06521A0F1010800F8011C099869
:100B70000FA9A1EB0807FF1D00B10120411901EBEE
:100B8000EA70A1693844081A401EA0612078C006A6
:100B900002D42046FFF774FB099828B1D4E901215B
:100BA0009047206A401C20622078C00622D520464B
:100BB000FFF766FB1EE0002E04DBB34502DD01A853
:100BC000805D00E03020D4E901219047206A401C7C
:100BD0002062761CAAF101005FEA000A0AD100F047
:100BE0005DF8C0680168405CD4E901219047206A43
:100BF000401C2062281EA5F10105DCDC07E0D4E9D9
:100C0000012118F8010B9047206A401C2062381E11
:100C1000A7F10107F3DC2046FFF748FB032011B0E2
:100C200041E6000001694A1C02610878704700B57E
:100C30008FB0CDE901310021059105497944CDE915
:100C4000031011466846FFF7D3FB0FB000BD00004C
:100C5000E5FFFFFF0A6802F8010B0A607047D1E95F
:100C600000239A4202D2531C0B601070704710B5DB
:100C7000436913B1AFF3008001E0FFF728FB0120C7
:100C800010BD127800F124010A7000224A7001227E
:100C9000EDE711684FF0FF32E9E7000000487047C8
:100CA000A8070020004870478807002030B5B0F141
:100CB0000A024FEA900E71F100034EEA817EB0EB1A
:100CC0000E0061EB91014FEA101E4EEA017E10EB1F
:100CD0000E0041EB11114FEA102E4EEA016E10EB9F
:100CE0000E0041EB11214FEA104E4EEA014E10EB7F
:100CF0000E0041EB1141401841F100014FEAD000D4
:100D000040EA41704FEAD10110EB80054FEA8104BF
:100D100044EA907444EB01046D1944EB0404521B43
:100D2000A3414FF0000348BF0A3200D530BD401C3C
:100D300041F1000130BD00002DE9F0411F4604469D
:100D400003260168072A01F4006004DB08B116A538
:100D500005E016A503E008B115A500E015A521F0F2
:100D600010002060A069C01EA0610FB1401EA061EC
:100D70002046FFF785FA4FB1D4E901213846904764
:100D8000206A401C2062C01C206206E0206AFAE74C
:100D9000D4E9012115F8010B9047761EF8D22046C0
:100DA000FFF784FABDE8F0814E414E006E616E009F
:100DB000494E4600696E66002DE9F04781461646A9
:100DC0008AB0354878440DC88DE80D003248784423
:100DD000801C03AC0DC884E80D0041F69B3008442C
:100DE000372190FBF1F290FBF1F5A5F1800501FBB5
:100DF00012041B3C02D56442012000E00020DFF811
:100E000098A080460027FA44AAF1BE0A0EE0E00747
:100E10000AD03246684607EB470101230AEB8101FD
:100E200000F046FB8DE8070064107F1C002CEED11B
:100E3000194F7F44AE3F19E0E80715D007EB0410C7
:100E40000DF1180A90E80E008AE80E00C068F04222
:100E500001D1981908903246012306A903A800F091
:100E600027FB03AB83E807006D10641C002DE3D162
:100E70004FF0010332466946B8F1000F03A802D0D3
:100E800000F001FB01E000F013FBC9E90001C9F823
:100E900008200AB0BDE8F087ECDA0000004870478F
:100EA000880700207546FFF7F9FFAE460500694642
:100EB000534620F00700854618B020B5FFF7B2F979
:100EC000BDE820404FF000064FF000074FF000084B
:100ED0004FF0000B21F00701AC46ACE8C009ACE8CC
:100EE000C009ACE8C009ACE8C0098D46704710B530
:100EF0000446AFF300802046BDE81040FFF77DB9FF
:100F00004FF0013C50F8042B51F8043B9A4221D198
:100F1000A2EB0C03934313EACC1317D150F8042B24
:100F200051F8043B9A4215D1A2EB0C03934313EA08
:100F3000CC130BD150F8042B51F8043B9A4209D141
:100F4000A2EB0C03934313EACC13DBD04FF0000069
:100F5000704700BFD01A01BAB1FA81F101F018014F
:100F600022FA01F0CB40C1F12001DBB2C0B2C01ABD
:100F70002CFA01F3D11A914311EAC311E6D170475B
:100F800001491820ABBEFEE72600020070475FEA69
:100F9000400C08BF91F0000F4FEA8C234FEAC122AA
:100FA00043EA51514FEA1C5018BF00F5F0404FEA98
:100FB000300018BF41F000415FEA6C5C00F029800E
:100FC000BCF1FF3F08BF40F080407047130C06BFE4
:100FD00012044FF0100C4FF0000C130E04BF12025D
:100FE0000CF1080C130F04BF12010CF1040C930F49
:100FF00004BF92000CF1020CD30F04BF52000CF19D
:10100000010C11464FF00002A0F11F00A0EB0C00F4
:10101000704711F0004F08BF704731F000413FF4B6
:10102000D5AF0B0C06BF09044FF0100C4FF0000CAD
:101030000B0E04BF09020CF1080C0B0F04BF0901D1
:101040000CF1040C8B0F04BF89000CF1020CCB0FC8
:1010500004BF49000CF1010CCCF12003A0EB0C0003
:1010600022FA03F302FA0CF241EA030100F1010053
:10107000704720F07F4C80EA030023F07F47ACEB01
:10108000070303F57C5300F0004003F1FF032DE953
:1010900080494FEA154B09B44FEA144325EA0B4E39
:1010A00024EA03480FF2042606EB132749083E788A
:1010B0005FEA320203FB0667C7F5000707FB06F687
:1010C0004FEA54374FEAD64606F1020607FB066C94
:1010D000CCF1005C4FEA1C472CEA074C07FB06F4F6
:1010E0000CFB06F504EB15464FEA961634BF0020BC
:1010F0004FF000404FEAD13706FB07FC4FEA1C4C8B
:101100000CFB0BF7D21B03FB0CF761EB07010CFB8D
:101110000EF7B0EB074072EB17420CFB08F734BF39
:10112000A2EB0742B2EB074261EB17414FEA0C44D6
:101130004FEA910706FB07FC4FEA1C4C0CFB0BF730
:10114000B0EBC74072EB573203FB0CF734BFA2EB96
:10115000C742B2EBC74261EB57310CFB0EF7B0EB65
:10116000C70072EB57720CFB08F734BFA2EBC70243
:10117000B2EBC70261EB5771039F4FEA816141EA0D
:10118000921104EBCC044FEAD1374FEA826206FB9E
:1011900007FC42EA90124FEA80604FEA1C4C0CFBBD
:1011A0000BF7D21B03FB0CF761EB07010CFB0EF7EF
:1011B000B0EB074072EB17420CFB08F734BFA2EB11
:1011C0000742B2EB074261EB17414FEA8C554FEAF9
:1011D000910704EB9C2406FB07FC4FEA1C4C0CFB1C
:1011E0000BF7B0EBC74072EB573203FB0CF734BF81
:1011F000A2EBC742B2EBC74261EB57310CFB0EF7D3
:10120000B0EBC70072EB57720CFB08F734BFA2EBD0
:10121000C702B2EBC70261EB577115EB4C254FEAE1
:10122000816141EA92114FEA82624FEAD13742EA84
:10123000901206FB07FC44F100044FEA80604FEA7D
:101240001C4C0CFB0BF7D21B03FB0CF761EB0701EB
:101250000CFB0EF7B0EB074072EB17420CFB08F7E4
:1012600034BFA2EB0742B2EB074261EB174115EB2B
:101270001C154FEA813141EA92414FEA823242EA3B
:1012800090424FEA80304FEA0C7644F1000448EA7D
:1012900003434EEA0B484FF0000EB2EB080C71EB23
:1012A000030724BF624639464EEB0E0E4FF0000B8B
:1012B0000018524149414BEB0B0BB2EB080C71EBA0
:1012C00003077BF1000B24BF624639464EEB0E0E3E
:1012D0004FF0000B0018524149414BEB0B0BB2EBA6
:1012E000080C71EB03077BF1000B24BF6246394603
:1012F0004EEB0E0E51EA020718BF46F0010616EB40
:101300000E7655F1000254F1000103D5BDE88901C4
:10131000BDE80088BDE88901BDE80048B619524122
:1013200041EB0101A3F10103704780807F7E7D7C4A
:101330007B7A7978777676757473727171706F6E67
:101340006E6D6C6C6B6A6A69686867666665646412
:10135000636362616160605F5F5E5E5D5D5C5C5B9C
:101360005B5A5A595958585757565655555554540B
:10137000535352525251515050504F4F4F4E4E4D69
:101380004D4D4C4C4C4B4B4B4A4A4A4949494848B5
:1013900048474747474646464545454444444443F5
:1013A00043434342424242414141002B9C4630D498
:1013B00077002BD01CB54FEA370703B44FF010006D
:1013C0004FF01001BAF1000F06D0BCF1000FDCBFE6
:1013D00040F0080040F008014FF000000FBCBDE8ED
:1013E00010400BF1010BBBF1010F08BF5FEA1707BB
:1013F00022BF12F1010211F101014FF0004143F14E
:10140000000300F0004043EA00007047F9D357089A
:10141000D0E746EA064613F1400F4FEA16461FDDB5
:1014200013F1200FDFBF16430A46002120335B4231
:10143000BED0C3F1200746EA064602FA07F74FEA94
:10144000164646EA0706C3F1200722FA03F201FA1C
:1014500007F721FA03F14FF0000342EA0702A7E77A
:1014600046EA020646EA06464FEA164646EA0106FC
:10147000BCBF46EA0646360C4FF000034FF00002B0
:101480004FF0000194E72DE9804C9A46934670B4E2
:1014900091E8380007C831EA400C48BF34EA430CF1
:1014A00003D5FFF7E6FDFFF780FFF0BCBDE8008C39
:1014B0002DE9804C9A46934670B491E8380007C8ED
:1014C00010F0804F08BF13F0804F03D100F005F8F3
:1014D000FFF76BFFF0BCBDE8008C20F07F4780EA8F
:1014E000030023F07F4C07EB0C03A3F57C5300F0C3
:1014F0000040A3F1FE0392F0000F00F0B38095F0DE
:10150000000F00F077802DE901494FEA11404FEAC2
:10151000144621EA004800FB06FC24EA064708FBC3
:1015200006F607FB08F800FB07F718EB06484CEB3C
:10153000164C4FEA124B18EB07484FEA15464CEB96
:10154000174022EA0B4E0BFB06FC25EA06470EFB72
:1015500006F607FB0EFE0BFB07F71EEB064E4CEBE9
:10156000164C4FF000061EEB074E4CEB174B18EBDA
:101570000B0840F1000018EB0E0B58EB000840F18F
:1015800000008F1A4FF000013CBFC943661B14BF17
:10159000B5EB040C00213CBFC943F61B4FEA1744CE
:1015A0004EEA8E0E27EA04454FEA1C4704FB076209
:1015B0002CEA074C05FB07F70CFB05F604FB0CFCBB
:1015C00016EB074642EB174216EB0C4642EB1C4269
:1015D0001BEB060658EB0202414146EA9E0601D586
:1015E000BDE80189B619524141EB0101A3F10103A4
:1015F000BDE801894FEA14454FEA114724EA054640
:1016000021EA074C05FB07F406FB07F70CFB06F184
:1016100005FB0CFC11EB074144EB17444FEA124762
:1016200011EB0C4144EB1C4422EA074C05FB07F28A
:1016300006FB07F70CFB06F605FB0CFC16EB074652
:1016400042EB174216EB0C4642EB1C456A1854F16C
:10165000000148BF7047B619524141EB0101A3F1A7
:101660000103704795F0000F37D04FEA11424FEA5F
:10167000144721EA024624EA074C02FB07F106FB65
:1016800007F70CFB06F402FB0CFC14EB074441EBE0
:1016900017414FEA154714EB0C4441EB1C4125EA76
:1016A000074C02FB07F506FB07F70CFB06F602FBEF
:1016B0000CFC16EB074645EB174516EB0C4645EBC5
:1016C0001C42121951F1000148BF7047B61952412E
:1016D00041EB0101A3F1010370474FEA14454FEAC2
:1016E000114724EA054621EA074C05FB07F106FBF2
:1016F00007F70CFB06F24FF0000605FB0CFC12EBA3
:10170000074241EB174112EB0C4251EB1C4148BF21
:101710007047921841EB0101A3F10103704710B526
:1017200000F04EFA10BD000010B540F20F6008F056
:101730002FFB174807F03EFC0021154807F02FFC4F
:101740000021134807F028FD01221146104807F038
:1017500003FC0523012200210D4807F027FD4FF46B
:10176000602201210A4807F07EFC01221146084848
:1017700007F05AFC0121064807F072FD044807F003
:101780004AFC012007F0A8FD014807F0D0FB10BD7E
:10179000003C014010B540F2026008F0F9FA022363
:1017A00003220021014807F0C3FF10BD00080140DB
:1017B00070B52DED028B05461DB90020BDEC028BE6
:1017C00070BD2148007830B9FFF7E4FFFFF7ACFFA8
:1017D00001201D49087001211C4807F041FD002629
:1017E00006E0761C42F21070864201D30020E5E745
:1017F0000221164807F052FC0028F2D002211348BB
:1018000007F049FC114807F027FD044600EE104A96
:10181000F8EE400A9FED0E1A80EE810ADFED0D0A08
:1018200020EE200ADFED0C0A20EE208AB5EEC08AF9
:10183000F1EE10FA03D29FED090AB0EE408A85ED71
:10184000008A0120BAE7000029000020003C014086
:1018500000F07F4585EB5140EB5FA54000000000A4
:1018600010B540F2096008F093FA40F20A6008F0FF
:101870008FFA374807F09EFB364807F09BFB4FF482
:10188000C02007F057FC01221102314807F0F7FC95
:10189000012211022F4807F0F2FC00212C4807F02A
:1018A0007EFB00212B4807F07AFB0021284807F037
:1018B00073FC0021274807F06FFC08230022114623
:1018C000234807F045FC082300221146214807F071
:1018D0003FFC1F4807F059FC1E4807F056FC052343
:1018E000062200211A4807F061FC05230722002187
:1018F000184807F05BFC01221146154807F02CFB45
:1019000001221146134807F027FB4FF42022012142
:101910000F4807F0A8FB4FF4202201210D4807F0E3
:10192000A2FB012211460A4807F07EFB0122114664
:10193000084807F079FB064807F068FB02210448D5
:1019400007F0B3FB02220021122008F0E7F810BDD7
:10195000002401400028014000EE100AB8EE400AC1
:10196000DFED040A60EE200A9FED031A80EE810A83
:101970007047000085EB514000F0FF4600B587B08E
:101980004FF4A06008F004FA0021184807F024FD85
:10199000684607F097FE1648009000208DF8180062
:1019A0001448029001208DF8190040020190800037
:1019B000039000208DF81A0004200490C0020590C6
:1019C0006A460021094807F053FD0021074807F047
:1019D000EAFC02220021054807F0E1FD0022114641
:1019E0000B2008F09BF807B000BD0000000002408B
:1019F0004C240140C800002010B5022200210D48EF
:101A000007F0EEFDA8B1022200210A4807F0E0FD30
:101A10004FF40051084807F0E9FE28B14FF4005197
:101A2000054807F081FE04E04FF40051024807F03A
:101A30007DFE10BD000002400010014010B540F2D4
:101A4000026008F0A5F940F2026008F0A1F9402315
:101A500003220021044807F06BFE802303220021AB
:101A6000014807F065FE10BD000801402DE9F04F68
:101A70002DED028B81B006468946144604259FED64
:101A80004D0AB0EE408A9FED4B0AF0EE408A06B157
:101A90002CB9012001B0BDEC028BBDE8F08F042C05
:101AA00000DD04240021444807F02DFE8046A5EB0C
:101AB0000800B0FBF5F105FB110A0AEB0500401E1A
:101AC000B0FBF5F105FB110B00275EE00BEB050009
:101AD000C01BB0FBF5FC05FB1C000090DFF8DCC070
:101AE00000985CF8203099B24FF6FF7000EA13427C
:101AF000B9F1000F06D0B9F1010F14D0B9F1020FFE
:101B00003FD11FE000EE101AB8EE400A38EE000A8E
:101B1000B0EE408A00EE102AB8EE400A38EE800A95
:101B2000F0EE408A2FE00846FFF716FF30EE080A75
:101B3000B0EE408A1046FFF70FFF30EE280AF0EEB5
:101B4000408A20E00846FFF707FFF0EE401A00F059
:101B5000FFF8BFEE001AF0EE480A40EE010AB0EEC0
:101B6000608A1046FFF7F8FEF0EE401A00F000F928
:101B7000BFEE001AF0EE680A40EE010AF0EE608A4D
:101B800001E0012086E700BF7F1CA7429ED300EE44
:101B9000104AB8EE400AC8EE000AC6ED000A00EE90
:101BA000104AB8EE400AC8EE800AC6ED010A0020CD
:101BB00070E700000000000000000240C8000020A4
:101BC00010B50221044807F089FA18B10221024831
:101BD00007F081FA10BD00000024014070B5FFF746
:101BE0002DFFFFF7CBFEFFF73BFE40F2046008F04D
:101BF000CFF84FF4005303221021144807F098FD4A
:101C00004FF40051114807F08FFD43F6FC7528464C
:101C100065F31F400646002403E00D4840F82460A9
:101C2000641C042CF9D30B4807F0F5F90A4807F0B7
:101C3000F2F9012007F050FB064807F078F9064852
:101C400007F075F901200549087070BD00100140CA
:101C5000C800002000240140002801402800002086
:101C60007CB504460D46164604B10DB901207CBD75
:101C70000EB9012602E0042E00DD042632460221C0
:101C80006846FFF7F3FE08B10120F0E79DED000A7A
:101C900084ED000A9DED010A85ED000A0020E6E7CB
:101CA00070B504460D461646324629462046FFF7D3
:101CB000D7FF08B9012070BD0020FCE710B51F4810
:101CC000007800B910BD00211D4807F021FB042257
:101CD00000211B4807F004FD1A4A0021184807F0AC
:101CE000D3FC194A0021164807F0BCFC0122002150
:101CF000134807F0A9FB01220021114807F068FCF6
:101D0000122110484C3807F0C6F912210F4807F08D
:101D1000C2F90C484C3807F079F90021084807F05F
:101D200010FB0122114607484C3807F07DF90122CB
:101D30001146064807F078F900BFC3E728000020E5
:101D4000000002404C240140C8000020002801404F
:101D5000F0EE400A9FED040A30EEC00A9FED031A30
:101D600020EE010A7047000085EBD13FCEC700404E
:101D7000F0EE400A9FED040A30EEC00A9FED031A10
:101D800020EE010A7047000085EBD13FCEC700402E
:101D9000024641EA0220704710B503F035F910BD44
:101DA00000EE100AB8EE400ADFED020A20EE200A2B
:101DB00070470000DB0FC93A10B5044621460E20DB
:101DC00000F01EF810BD10B504462046FFF7F4FFE2
:101DD00008B9012010BD0020FCE738B504460CB955
:101DE000002038BD6846FFF7EEFF08B90020F8E78D
:101DF000BDF80000FFF7D4FF84ED000A0120F0E7F2
:101E0000F8B504460D4602236A4621466C2003F0CD
:101E100001F906460EB13046F8BD9DF801109DF857
:101E20000000FFF7B5FFC0F30B0028800020F3E7A8
:101E300000BFFEE7002005E00021044A42F8201020
:101E4000411CC8B20428F7DB70470000F0040020F2
:101E500010B502F031FD10BD014800687047000068
:101E6000A800002000B5002003490880034908604D
:101E7000FFF7E0FF00BD0000A4000020A800002044
:101E800010B52748007820B9FFF7E2FF0120244968
:101E9000087002F049FD044622480088401C214990
:101EA000088008460088002028B91F48006810B143
:101EB0001D49086880471B4800880521B0FBF1F2E6
:101EC00001FB120028B91848406810B1164948684B
:101ED0008047144800880521B0FBF1F201FB120095
:101EE00028B91148806810B10F49886880470D48AB
:101EF0000088B0F57A7F05D10B48C06810B10A4957
:101F0000C868804707480088B0F57A7F02D3002070
:101F10000449088002F008FD001B0449086010BD58
:101F2000AC000020A4000020F0040020A800002045
:101F3000042802DA014A42F820107047F004002019
:101F400010B5FFF759FD10BD70470000F0B52DED3D
:101F5000048B83B007460D461446B0EE408A1FB18D
:101F600014B12088A84203DB03B0BDEC048BF0BDA4
:101F70002088281A0C2800D2F6E718EE100A08F07C
:101F80001FFD41EC190B8DED009B2288A91AD01979
:101F900009A2FEF759F90646002E00DAE4E7B0B2CE
:101FA0002188691A884202DB681E2080DCE72088CD
:101FB0003044208000BFD7E720252E336600000084
:101FC0000246114601B90121C82900D9C821C823F8
:101FD00003EB5103B3FBF1F398B200B90120704752
:101FE00000200849088008490880084908800849F5
:101FF0000880012007490880074908800020074918
:10200000086070479000002092000020940000209B
:1020100096000020980000209A0000209C000020DC
:10202000024602B109B90020704792F8800010B151
:1020300092F8810008B90020F6E70120F4E70000DB
:102040002DE9F0432DED028B95B005460F469046E5
:102050009946002000904C4605B127B915B0BDEC5B
:10206000028BBDE8F083BDF80020C2F1500101AA47
:10207000BDF80030D018612358A2FEF7E5F80646F7
:10208000002E06DBB0B2BDF80010C1F1500188424D
:1020900000D3E3E7BDF80000304480B2009004F0C4
:1020A000010040B1D5ED070AB0EE600A6A46502142
:1020B00001A8FFF74BFF04F0020040B1D5ED0F0A75
:1020C000B0EE600A6A46502101A8FFF73FFF04F016
:1020D000040040B1D5ED170AB0EE600A6A465021FF
:1020E00001A8FFF733FF04F0080040B1D5ED1F0A47
:1020F000B0EE600A6A46502101A8FFF727FF04F0FE
:10210000100040B1D7ED0C0AB0EE600A6A465021CB
:1021100001A8FFF71BFF04F0200080B100EE108A39
:10212000B8EE400ADFED2E0A80EE201AB0EE418AAA
:10213000B0EE480A6A46502101A8FFF707FF04F0F5
:10214000800090B19FED270AB0EE408A95F88C0090
:1021500018B195ED220AB0EE408AB0EE480A6A4600
:10216000502101A8FFF7F2FE00BF04F4807040B1D7
:10217000D7ED090AB0EE600A6A46502101A8FFF7C0
:10218000E5FE04F4007040B1D7ED0A0AB0EE600A33
:102190006A46502101A8FFF7D9FEBDF80000801D56
:1021A000502819D2BDF80020C2F1500101AABDF893
:1021B0000030D01862230CA2FEF746F80646002E27
:1021C00006DBB0B2BDF80010C1F15001884200D367
:1021D00044E701A802F021FC00BF3FE725630000AF
:1021E0000000F042000000002025632000000000F5
:1021F00070B52DED028B9AB004460D4634B95FA040
:1022000002F00BFC1AB0BDEC028B70BD94F880009C
:10221000002839D094ED070A10EE101A084608F08D
:10222000CFFB41EC180B8DED008B5BA2602102A867
:10223000FEF70AF802A802F0F0FB94ED0F0A10EE88
:10224000101A084608F0BCFB41EC180B8DED008B12
:102250005CA2602102A8FDF7F7FF02A802F0DDFBF7
:1022600094ED170A10EE101A084608F0A9FB41EC8D
:10227000180B8DED008B5EA2602102A8FDF7E4FF34
:1022800002A802F0CAFB02E064A002F0C6FB94F8C8
:102290008100002826D094ED180A10EE101A084686
:1022A00008F08EFB41EC180B8DED008B65A26021D0
:1022B00002A8FDF7C9FF02A802F0AFFB94ED1F0AC8
:1022C00010EE101A084608F07BFB41EC180B8DED60
:1022D000008B67A2602102A8FDF7B6FF02A802F0FA
:1022E0009CFB02E06EA002F098FB94F88C000028A2
:1022F00026D094ED210A10EE101A084608F060FB73
:1023000041EC180B8DED008B6FA2602102A8FDF748
:102310009BFF02A802F081FB94ED220A10EE101A36
:10232000084608F04DFB41EC180B8DED008B70A2B8
:10233000602102A8FDF788FF02A802F06EFB02E010
:1023400076A002F06AFB00EE105AB8EE400ADFED0C
:102350007C0A80EE201A11EE106A304608F030FB3D
:1023600041EC180B8DED008B76A2602102A8FDF7E1
:102370006BFF02A802F051FB00BF43E7666565648E
:102380006261636B2E7374617475733D696E7661FF
:102390006C69640D0A0000006D6561737572656D8E
:1023A000656E742E70686173655F63757272656EB9
:1023B000745F615F616D706572653D252E33660DDA
:1023C0000A0000006D6561737572656D656E742E2F
:1023D00070686173655F63757272656E745F625F6A
:1023E000616D706572653D252E33660D0A00000033
:1023F0006D6561737572656D656E742E706861735D
:10240000655F63757272656E745F635F616D706541
:1024100072653D252E33660D0A0000006D656173FF
:102420007572656D656E742E63757272656E742E4D
:102430007374617475733D696E76616C69640D0ABD
:10244000000000006D6561737572656D656E742EB8
:10245000656E636F6465725F616E676C655F726104
:10246000775F7261643D252E33660D0A000000001F
:102470006D6561737572656D656E742E656E636FE3
:102480006465725F616E676C655F66696C746572C6
:1024900065645F7261643D252E33660D0A0000009D
:1024A0006D6561737572656D656E742E656E636FB3
:1024B0006465722E7374617475733D696E76616CB8
:1024C00069640D0A000000006D6561737572656DC9
:1024D000656E742E766275735F766F6C7461676576
:1024E0005F7261775F763D252E33660D0A0000002E
:1024F0006D6561737572656D656E742E7662757348
:102500005F766F6C746167655F66696C7465726530
:10251000645F763D252E33660D0A00006D6561739C
:102520007572656D656E742E766275732E73746147
:102530007475733D696E76616C69640D0A00000004
:102540000000F042636F6E74726F6C2E6578656385
:102550007574696F6E5F74696D655F75733D252E67
:1025600033660D0A0D0A00002DE9F04780468946C2
:1025700016461C46294807681EB1707808B1BDE8A8
:10258000F08704B32078F0B165882548008885423B
:1025900006D0234805802846FFF712FD2149088010
:1025A00021480088401C20490880084600881D49B1
:1025B0000988884206DB00201B49088039464046CE
:1025C000FFF716FE00BF3CB3607828B3494640468B
:1025D000FFF726FDF8B1A58814480088854206D08B
:1025E000124805802846FFF7EBFC11490880114886
:1025F0000088401C0F490880084600880C4909885B
:10260000884208DB00200B490880E3883A464946A7
:102610004046FFF715FD00BF00BFB0E79C0000205B
:1026200094000020980000209000002096000020D8
:102630009A000020920000200149086070470000C5
:102640009C00002070B52DED088B04460D46F0EE81
:10265000409AB0EE60AAF0EE418A04B125B99FED30
:10266000550ABDEC088B70BDB0EE680A02F024F884
:10267000F0EE408A39EECA8AB0EEC80AD5ED020AF9
:10268000B4EEE00AF1EE10FA0AD89FED4A0A84EDA2
:10269000030A9FED480A84ED040A9FED460AE0E72D
:1026A00094ED030A08EE280A84ED030AD5ED011A19
:1026B000B0EE611AD5ED011AF1EE611AF0EE610A81
:1026C000D4ED031AB0EE610A02F06CFE84ED030A49
:1026D00094ED040A38EE400A80EE289A94ED010A3F
:1026E000D4ED030A20EE200AD4ED000A00EE880A99
:1026F000D4ED020A00EE890AF0EE40AA94ED060A33
:10270000B0EE401A94ED050AF0EE400AB0EE6A0A07
:1027100002F048FEF0EE40AA94ED010ADFED260A31
:10272000B4EEE00AF1EE10FA3EDD94ED050AD4EDC8
:10273000000A00EEC80AD4ED020A00EEC90AD4ED80
:10274000010A80EE201AB0EE41BA94ED060AD4EDEB
:10275000000A00EEC80AD4ED020A00EEC90AD4ED60
:10276000010A80EE201AF0EE41BAD4ED030AB0EE71
:10277000600AB0EE6B1AF0EE4B0A02F013FE84ED25
:10278000030AD5ED011AB0EE611AD5ED011AF1EE8A
:10279000611AF0EE610AD4ED031AB0EE610A02F09C
:1027A00001FE84ED030A00BF84ED048AB0EE6A0ADC
:1027B00057E7000000000000BD3786351FB504460E
:1027C00000F006FB0C4803F055F8DFED0C0A9FED16
:1027D0000B0A094803F06AF802F06CFF5CB10020B4
:1027E000009001900290039001208DF80C00684643
:1027F00004F0F2FD00BF1FBD000500200000000036
:102800002DE9F0472DED028BBAB0002036903790BD
:102810003890399002F0ACF802F062F80121022001
:1028200002F0D7F80121084602F0D3F80121032075
:1028300002F0CFF802F038F8FFF714FB734802F00B
:10284000C2F873490120FFF773FB72490020FFF7BC
:102850006FFB71490220FFF76BFB002002F0AAF822
:1028600001F0FAFF04F0B4FD6C4804F0ABFDBDF8D4
:10287000D80040F00500ADF8D800694802F0F4FF38
:1028800068A002F0CAF86FA002F0C7F8BDF8D8003F
:1028900040F00200ADF8D800FFF7A2FBBDF8D80069
:1028A00040F00800ADF8D8009FED6E0A182002F045
:1028B000B9FF6D4802F0C4FF6B4890F8800050B13A
:1028C000694890F8810030B1BDF8D80040F01000A0
:1028D000ADF8D80005E0BDF8DA0040F01000ADF822
:1028E000DA00614890ED220AF1EE080AB4EEE00A3F
:1028F000F1EE10FA06DDBDF8D80040F08000ADF82A
:10290000D80005E0BDF8DA0040F08000ADF8DA004C
:102910000521182002F07EFF544802F062F8BDF84D
:10292000D80040F02000ADF8D80000F0A5F8BDF8C0
:10293000D80040F04000ADF8D8004B4890ED220A96
:1029400010EE101A084608F03BF841EC180B34481A
:1029500090ED040AB5EEC00AF1EE10FA06DDD0EDF6
:10296000080A90ED041A80EE810A01E09FED400A0A
:1029700010EE104A204608F023F80E460546284877
:1029800090ED080A10EE101A084608F019F888466B
:102990000746234890ED040A10EE101A084608F086
:1029A0000FF88A4681461E4890ED020A10EE101A72
:1029B000084608F005F8CDE90C018DED0A8B1848A2
:1029C000CDE9049ACDE90678CDE908560079144995
:1029D00091F90C10CDE90210DDE90C01254ACDE991
:1029E0000001A0210EA8FDF72FFC0EA802F015F89B
:1029F00001208DF8DC0036A804F0EEFC00F006FAA9
:102A00003AB0BDEC028BBDE8F0870000811E0008E3
:102A10008D80000841590008C1550008200700209A
:102A2000000500200D0A3D3D3D20464F43205379CF
:102A30007374656D2053746172746564203D3D3D0F
:102A40000D0A0000496E6974206D6F746F722C70EE
:102A50006C6561736520776169742E2E2E0D0A0DE9
:102A60000A00000000000C42AC050020712B000899
:102A700000000000DCE9000808B50022FFEE001AA3
:102A800007219FED091ADFED090AB2EE080A08488E
:102A900002F01EFE0748084B084A09490090044806
:102AA00002F034FE08BD0000333353416666364100
:102AB0000005002020070020E80600200407002071
:102AC000CC06002038B52148007870B100201F499D
:102AD0000870FFF7C1F90446FFF7AEFD1C4B03F188
:102AE00008021C491C48FFF73FFD1C48007860B3F2
:102AF00000201A4908701648583890F8640028B128
:102B000000F08CF81248583804F05CFC012004F006
:102B10004AFC10B10A20124908800D48583890F834
:102B2000620090B10A4858380E4B0F4A0F49009086
:102B3000084802F04BFD06485838D0ED040AB0EEC4
:102B4000600A02F0F1FE04F02AFC38BDB10000205A
:102B50007807002000050020AC050020B000002010
:102B6000BE000020E806002004070020CC0600205C
:102B700070B52DED028B00251F48007810B1BDEC1B
:102B8000028B70BD1D48007800B9F8E702F0C8FE5E
:102B900002241B480078401C194908700846007838
:102BA000A04200DAEBE7002015490870154890EDC7
:102BB000000A154880ED090A00EE104AB8EE400AF6
:102BC000DFED120A80EE208A02F04AFE40B1104882
:102BD00002F03EFE0E4890F8800000B9CFE70C4DA1
:102BE000F0EE480A0B4890ED000A2A460A490648CA
:102BF00002F046FE00BFC2E7BC000020B200002089
:102C0000B3000020B4000020000500200080BB4677
:102C10003C060020B8000020CC06002000B52DEDB9
:102C2000048BA5B022A001F0F8FE00F0D1F82848EE
:102C300002F020FEDFED270A9FED260A244802F06D
:102C400035FE02F037FD012023490870FFF714FF1D
:102C5000002021490870214890ED220A10EE101A38
:102C6000084607F0ADFE41EC180B194890ED020A3A
:102C700010EE101A084607F0A3FE41EC190B8DED7B
:102C8000048B13480079124991F90C10CDE9021018
:102C90008DED009B12A2782107A8FDF7D5FA07A8B1
:102CA00001F0BBFE04F077FB25B0BDEC048B00BD4A
:102CB0000D0A3D3D3D205265496E69744D6F746F3C
:102CC000722073746172746564203D3D3D0D0A008D
:102CD0000005002000000000BC000020AC05002022
:102CE0007265696E697420646F6E653A206D656304
:102CF000685F7A65726F3D252E3466207261642CA0
:102D0000206469723D25642C20706F6C65733D25CD
:102D1000642C20766275733D252E3266560D0A00AE
:102D200030B52DED028B83B005461B4804781B4857
:102D30000078844204D01A4802F09CFD17480470C1
:102D40009FED188A1448CDE90054D0ED021AB0EE78
:102D5000611AD0ED011AF0EE610AD0ED031AB0EE5F
:102D6000610AF0EE481A104B104A11490C4802F063
:102D7000AFFD0B4890ED090A0E4880ED000A0848A7
:102D800090ED050A0C4880ED000A01200B490870FF
:102D900003B0BDEC028B30BD20070020C400002032
:102DA000000500206F12833AE80600200407002087
:102DB000CC060020B4000020B8000020B2000020A3
:102DC00010B501F020FE012001F0F4FD10BD00005F
:102DD0000020084908709FED080A084880ED000AA5
:102DE000074890ED050A074880ED000A00200649D3
:102DF00008707047B200002000000000B4000020FE
:102E000000050020B8000020B300002070B50024A9
:102E10000025244890F8610038B100BF012500204A
:102E2000214908702149088021E01E4890F860007F
:102E3000B8B11E48008863280BD300201B490880C6
:102E40001948007808B9012000E0002016490870F0
:102E500004E016480088401C144908801248047891
:102E600005E0002400201049087010490880214620
:102E7000022001F0AEFD2946032001F0AAFD0C4816
:102E8000008848B10121084601F0A3FD08480088E8
:102E9000401E0749088003E00021012001F099FD50
:102EA00070BD000020070020C0000020C2000020EC
:102EB000BE000020F0B52DED048B83B004461CB994
:102EC00003B0BDEC048BF0BD94ED020AFFEE000AE6
:102ED000B4EE600AF1EE10FA01D1012000E000200A
:102EE0000746207B08B9012000E000200546207934
:102EF00008B9012000E00020064617B90DB906B94F
:102F0000DEE7D4ED068A94ED079A94ED080ADFED2A
:102F1000390A20EE200AB0EE408A94ED080AB0EE9D
:102F2000401ADFED350AB0EE480A02F03BFAB0EE87
:102F3000408A9FED310A84ED070A84ED068A5FB36B
:102F40006B46182278219FED2C0A204601F0ACFD3B
:102F500078B19DED000A84ED020A9DED000A84ED32
:102F60000C0A9DED000A84ED0D0A012084F838005A
:102F70001AE0BFEE000A84ED020A9FED1F0A84EDFD
:102F80000C0A9FED1D0A84ED0D0A002084F838001C
:102F90001AA001F042FD07E09FED170A204600F05D
:102FA000E6FA782001F033FD05B9BEB101AA02A905
:102FB000204600F0F9FE40B115B19DF908002073DC
:102FC00066B19DF80400207108E00DB10020207367
:102FD0000EB100202071194801F01FFDC4ED068AD2
:102FE00084ED079A9FED040A204600F0C0FA00BF66
:102FF00066E70000CDCCCC3E00000000696E69742D
:103000002E63616C69623A207A65726F2D6C6F6312
:103010006B2073616D706C696E67206661696C65A9
:10302000642C206B656570207A65726F2061732057
:10303000756E646566696E65640D0A00CCE800080B
:103040000146012901DA01207047202901DD2020F5
:10305000FAE7C8B2F8E7000070B52DED068B04461C
:10306000B0EE409A0D46B0EE490A02F065FAB0EEB5
:10307000409A84ED059AD4ED040AB0EE601AD4EDBE
:10308000080AB0EE600ADFED490A02F08BF9F0EEB3
:10309000408AD4ED060A60EEA00A94ED071AD4ED3A
:1030A000071A41EE210AB0EE600A05F006FFB0EE05
:1030B000408A94ED060AB0EE40AA94ED070AF0EEBD
:1030C00040AAB4EEE88AF1EE10FA15DD9FED380A59
:1030D000B4EEC08AF1EE10FA0EDDC8EE880AB0EE4A
:1030E000600A6AEE000AB0EE60AA6AEE800AF0EEAC
:1030F00060AAB0EE688A00BF04F14401081FB0EE78
:10310000491AF0EE6A0AB0EE4A0A02F0C7F994EDE5
:10311000111AF0EE410A94ED101AB0EE410A04F1D2
:103120005002111F081F02F09FF9B0EE681ADFED80
:103130001F0AB0EE480A02F035F9F0EE409ACDB120
:10314000D4ED041AB0EE612AD4ED141AB0EE611A6F
:10315000D4ED131AF0EE610AD4ED121AB0EE610A42
:1031600004F15C031A1F111F181DF0EE691A04F018
:103170003FFD18E0D4ED041AB0EE612AD4ED141A24
:10318000B0EE611AD4ED131AF0EE610AD4ED121A02
:10319000B0EE610A04F15C031A1F111F181DF0EE56
:1031A000691A04F060FDBDEC068B70BD00000000E4
:1031B000BD37863510B52DED028B0446B0EE408A42
:1031C0000121B0EE480A2046FFF746FFBDEC028B16
:1031D00010BD10B52DED028B0446B0EE408A0021E3
:1031E000B0EE480A2046FFF737FFBDEC028B10BD5A
:1031F00010B5044604B910BD9FED190A84ED190AF3
:103200009FED180A84ED1A0A9FED170A84ED1B0A38
:10321000B7EE000A84ED1C0AB0EE000A84ED1D0A28
:10322000012084F878000021792001557A20015589
:103230007920005D10B99FED0D0A01E0B7EE000A9C
:1032400084ED1F0A9FED0A0A84ED200A9FED090A0A
:1032500084ED210A204601F009FC00BFCBE7000005
:103260006F12833A8FC2F53C0AD7A33B00000000DF
:10327000CDCC4C3E9A99193F10B500F0E6F810BD40
:1032800070B52DED028B04460D461646B0EE408A11
:10329000F0EE608AF0EE680AB0EE480A324629463F
:1032A000204600F07BFABDEC028B70BD10B52DED11
:1032B000048B0446B0EE409A24B99FED240ABDEC7D
:1032C000048B10BD207940B194ED020AFFEE000A94
:1032D000B4EE600AF1EE10FA02D194ED050AEEE7C1
:1032E000207900EE100AB8EE400ADFED190AC0EEB0
:1032F000808AD4ED020A79EE600AB0EE600A02F02C
:1033000039F9F0EE409AF0EE680A05F041FDB0EEB2
:10331000408AB5EEC08AF1EE10FA03D238EE280AE0
:10332000B0EE408A94F90C0000EE900AF8EEE00A44
:1033300020EE881A207900EE900AF8EE600A61EE1D
:10334000200AB0EE600A02F0F7F8B8E700000000CB
:10335000DA0FC94010B52DED028B0446B0EE408A5D
:10336000F0EE608A9FED051AF0EE680AB0EE480AAA
:10337000204600F03FF9BDEC028B10BD6F12833A7E
:103380002DE9F0472DED048B8146884615461E46F3
:10339000F0EE409AF0EE608AB0EE419AB0EE618AAB
:1033A000DDE90C74012C05D024B10020BDEC048BA8
:1033B000BDE8F0871D48007820B91D480470012041
:1033C0001A4908701A480078844214D034B9D7EDED
:1033D0001F0AB0EE600A484600F02CF8404601F0A3
:1033E00029FB284601F026FB304601F023FB00F0C4
:1033F00067F80F480470012C09D1F0EE480A3A46EC
:10340000B0EE690A2946484601F088FC0BE0B0EEB0
:10341000481A3B46F0EE490AB0EE680A32462946A1
:10342000484601F0B3FB0120C0E700004B0000203C
:103430004A00002000B9704780ED0C0A80ED0D0AAB
:10344000012180F8381000BFF5E701207047000027
:1034500010B5044604B910BD204601F007FB7920E1
:10346000005D38B900217A2001559FED140A84EDE2
:103470001F0A20E07920005D012807D101217A2070
:103480000155B7EE000A84ED1F0A14E07A20005DB2
:1034900030B17A20005D012802D001217A20015547
:1034A0007A20005D012802D1B7EE000A01E09FED0D
:1034B000030A84ED1F0A00BFCDE7000000000000F2
:1034C00010B501F0DBFA10BDB5EEC00AF1EE10FA4E
:1034D00002D29FED061A01E0B0EE401AF0EE410A6A
:1034E00000B97047C0ED210A00BFFAE700000000F4
:1034F000B5EEC00AF1EE10FA02D29FED061A01E015
:10350000B0EE401AF0EE410A00B97047C0ED200A53
:1035100000BFFAE70000000070B504460D4604B98C
:1035200070BD0DB1012000E00020064694F878003F
:10353000B04204D084F87860204601F097FA00BFCA
:10354000EEE770B505460C4605B970BD24B1012CF7
:1035500002D0022C00D0012479204455022C01D045
:103560007A204455284601F081FA00BFEDE710B5F6
:103570002DED028B0446B0EE408A14B9BDEC028BEF
:1035800010BDB0EE480A2046FFF714FE00BFF5E775
:1035900070B52DED048B82B004460D461646B0EE94
:1035A000408A94ED050AB0EE409A224601A9B0EE99
:1035B000490A304600F042FAD4ED090AB0EE600A3A
:1035C000B0EE481ADDED010A284600F0DFFAF0EE11
:1035D000408A9DED010A84ED0A0A9FED050A84EDFB
:1035E000060AC4ED078A02B0BDEC048B70BD000072
:1035F0000000000010B52DED048B0446B0EE409A9B
:10360000F0EE608AB0EE418A14B9BDEC048B10BDB7
:10361000B0EE480A01F060F8B0EE408ADFED1C0A17
:1036200028EEA01A207900EE900AF8EE600A61EE0A
:10363000200A20EE881A94F90C0000EE900AF8EEA9
:10364000E01AD4ED050A41EE210AB0EE600A01F05D
:1036500073FF84ED050A9FED0F0A84ED060A94EDD1
:10366000080AB0EE401A94ED080AB1EE400AF0EEF6
:10367000400AB0EE490A01F095FE84ED070AD4ED48
:10368000050AB0EE600A2046FFF7A3FD00BFBCE7C5
:10369000DA0FC940000000002DE9F0432DED088B42
:1036A00083B004460F469046F0EE408A9FED3A0AFA
:1036B0008DED020A9FED380A8DED010A9FED360A65
:1036C0008DED000A1CB117B1B8F1000F04D103B0A1
:1036D000BDEC088BBDE8F08304F1780504F188099E
:1036E000B0EE680A424639462046FFF751FF94ED96
:1036F000069AD4ED079A94ED0AAAD4ED090AB0EE21
:10370000600A6B4601AA02A9DFED230A204600F0F9
:10371000E5F994ED090AB0EEC00AB0EE40BA2846C9
:1037200000F0A6FA0646012E02D1B7EE000A01E02B
:103730009FED190AF0EE40AAD5ED010AB0EE600A3D
:10374000B0EE681AF0EE6A0A484600F0E7FAB0EE0A
:10375000408A85ED018A9DED020A79EE400A9DEDD1
:10376000020A00EE880A84ED060A9DED010A79EE50
:10377000C00A9DED010A00EE880A84ED070A9DED5E
:10378000000A7AEE400A9DED000A00EE880A84EDF8
:103790000A0A00BF9BE70000000000002DE9F0418D
:1037A0002DED0A8B04460F461546F0EE40BAF0EEBA
:1037B000609A1CB9BDEC0A8BBDE8F08104F1880663
:1037C000B0EE6B0A01F0B8FEB0EE409A84ED059AB7
:1037D000B0EE690A00F080FFF0EE409A002D7DD037
:1037E00095F88100002879D095ED1F0AB0EE40AA27
:1037F00094ED250A3AEE400AB0EE408A9FED700A39
:10380000B4EEC08AF1EE10FA06DD9FED6E0A38EED6
:10381000400AB0EE408A0CE09FED6B0AB4EEC08A1D
:10382000F1EE10FA05D29FED670A38EE000AB0EE0D
:10383000408AB5EEC08AF1EE10FA02DBB0EE480A1B
:1038400001E0B1EE480AB0EE40CA94ED260A30EE2F
:103850000C0A84ED260AD4ED260A207900EE100A1F
:10386000B8EE400A20EE800ADFED560AB4EEE00A18
:10387000F1EE10FA49DBB4F89C0080B38C34D4ED3F
:10388000050A208A00EE100AB8EE400AC0EE80AAAF
:10389000D4ED060A208A00EE100AB8EE400A80EE47
:1038A00080BAB7EE001ADFED490A9FED490A01F030
:1038B00079FDF0EE408A94ED000AD4ED000A7AEE2C
:1038C000E00A08EEA00A84ED000A94ED010AD4EDA6
:1038D000010A7BEE600A08EEA00A01E02DE004E098
:1038E00084ED010A012020778C3C9FED380A84ED9D
:1038F000280A9FED360A84ED290A0020A4F89C00CE
:103900009FED320A84ED260A00BF94ED280AD5ED1A
:10391000010A30EE200A84ED280A94ED290AD5ED3B
:10392000090A30EE200A84ED290AB4F89C00401CF4
:10393000A4F89C0084ED25AA00BF05B107B939E7BA
:1039400094F8780038B1B0EE690A2A463946204624
:10395000FFF7A2FE2DE00EB1002030707920005D4F
:1039600001280ED101217A200155B7EE000A84ED1D
:103970001F0AB0EE690A2A4639462046FFF708FEBC
:1039800017E000217A2001559FED100A84ED1F0AEF
:10399000D4ED090AB0EE600ADFED0C0A204600F013
:1039A00019F8224604F12801B0EE490A284600F031
:1039B00045F8B0EE490A2046FFF70BFC00BFF9E6D8
:1039C000DA0F4940DA0FC940DA0F49C000000000A1
:1039D000CDCC4C3F10B52DED028B84B00446B0EE3B
:1039E000408AF0EE608A9FED140A8DED030A9FED88
:1039F000120A8DED020A9FED100A8DED010A1CB925
:103A000004B0BDEC028B10BD01AB02AA03A9F0EE1D
:103A1000680AB0EE480A204600F060F89DED020A00
:103A200084ED070A9DED030A84ED060A9DED010A67
:103A300084ED0A0A00BFE3E70000000070B52DED39
:103A4000048B84B00446B0EE409A0E4615460CB185
:103A500006B11DB904B0BDEC048B70BD95F8A8008B
:103A600060B194ED070AD5ED230A30EE608A94ED3B
:103A70000F0AD5ED240A70EE608A03E094ED078A00
:103A8000D4ED0F8A38EE280AF1EE409A02A903A875
:103A9000B0EE691AF0EE680AB0EE480A01F098FC40
:103AA000314601A8B0EE491ADDED020A9DED030A88
:103AB00001F01AFDD6ED000AB0EE600A0449DFED10
:103AC000050A054801F0A4FC86ED000A00BFC1E725
:103AD000580000203333333F5C0000202DE9F041D3
:103AE0002DED088B0446B0EE40BAF0EE60AA0D460C
:103AF00016461F4614B10DB106B11FB9BDEC088BB7
:103B0000BDE8F081D4ED040AB0EE601AD4ED080AE5
:103B1000B0EE600ADFED1B0A01F044FCB0EE409A03
:103B200094ED000AB0EEC08A9FED170AB4EEC08A89
:103B3000F1EE10FA03D29FED140AB0EE408AC9EEFE
:103B4000088AB0EE681AF1EE680AB0EE4B0A01F08E
:103B500029FCF0EE409AB0EE681AF1EE680AB0EE79
:103B60006A0A01F01FFCB0EE40AA29EE880A86ED31
:103B7000000A2AEE080A85ED000AC7ED009A00BF88
:103B8000BCE7000000000000BD37863510B52DED04
:103B9000088B0446B0EE409AF0EE609AF0EE418A4F
:103BA00024B99FED310ABDEC088B10BDB0EE680A58
:103BB00000F092FDF0EE408A39EE698A94ED030A36
:103BC00008EE280A84ED030A94ED040A38EE400A50
:103BD00080EE28AA84ED048A94ED010AD4ED030A4C
:103BE00020EE200AD4ED000A00EE880AD4ED020A85
:103BF00000EE8A0AB0EE40BA94ED060AB0EE401A22
:103C000094ED050AF0EE400AB0EE4B0A01F0CAFB53
:103C1000B0EE40BA94ED010ADFED140AB4EEE00A0A
:103C2000F1EE10FA18DD94ED060AD4ED050A30EE37
:103C3000600AD4ED010A80EE201AF0EE41AAD4ED1C
:103C4000030AB0EE600AB0EE6A1AF1EE6A0A01F0F9
:103C5000A9FB84ED030A03E09FED030A84ED030A48
:103C6000B0EE4B0A9FE7000000000000BD3786352C
:103C700010B52DED048B0446B0EE408A607828B96B
:103C80000020A070A078BDEC048B10BD60780128E6
:103C900002D1A070A078F6E7D4ED020AB0EE600A77
:103CA0009FED1C1ADFED1C0A01F07CFBB0EE409A80
:103CB000D4ED030AB0EE600A9FED161ADFED160A86
:103CC00001F070FBF0EE408AA07868B1A07801287E
:103CD0000AD0B4EEE88AF1EE10FA01DB012000E030
:103CE0000020A070A078CEE7A078012807D1B4EE1C
:103CF000C98AF1EE10FA02D80020A07008E0A0787E
:103D000030B9B4EEE88AF1EE10FA01DB0120A070C0
:103D1000A078B8E7002474490000000010B52DED2C
:103D2000048BB0EE408A0446B0EE609AF0EE418A11
:103D3000B7EE001ADFED1A0AB0EE490A01F032FBC5
:103D4000B0EE409A44B1207830B901202070B0EE36
:103D5000490ABDEC048B10BD9FED120A38EE800AB3
:103D6000C8EE800AF0EE609AB7EE001ADFED0C0A9A
:103D7000B0EE690A01F016FBF0EE409A79EE480ABF
:103D8000B0EE480A00EEA90AB0EE408AB7EE001A7B
:103D9000DFED030AB0EE480A01F004FBD9E70000AA
:103DA000000000009A99193F2DE9F0472DED088B8E
:103DB00082B007460D4616469FED5C0AF0EE40AA1B
:103DC0009FED5A0AB0EE40BA9FED580AB0EE408A15
:103DD0009FED560AB0EE409A4FF000094FF01E08D2
:103DE0009FED530AF0EE409A0FB105B12EB90020B5
:103DF00002B0BDEC088BBDE8F087002445E000EE82
:103E0000104AB8EE400A29EE800AF0EE408A01AB73
:103E100002220421B0EE680A384600F045FE00B9DF
:103E200031E0B9F1000F08D19DED010AF0EE40AA92
:103E3000B0EE68BA4FF0010925E0DDED010A70EE41
:103E4000EA0AB0EE600A01F095FBB0EE40AA38EE47
:103E5000CB0AF0EE40BAB0EECA0ADFED360AB4EE95
:103E6000E00AF1EE10FA07DB38EE0A0AB0EE408AFB
:103E700039EE2B0AB0EE409A9DED010AF0EE40AA11
:103E8000B0EE68BA00BF601C84B24445B7DDB0EE46
:103E9000C80ADFED280AB4EEE00AF1EE10FA08D302
:103EA000B0EEC90ADFED240AB4EEE00AF1EE10FA32
:103EB00001D200209CE7B5EEC08AF1EE10FA01DBDA
:103EC000012001E04FF0FF30287089EE080AB0EEC3
:103ED000C00AF6EE000A30EE200ABDEEC00A10EE6F
:103EE00010AA5046FFF7ACF830709FED100A384624
:103EF000FFF760F9042000F08AFD444611E000EE6F
:103F0000104AB8EE400A29EE800AF0EE408A01AB72
:103F100002220421B0EE680A384600F0C5FD601E9A
:103F200084B2002CEBD1012062E700000000000009
:103F30004F77563EA69BC43ABD37863510B52DED5A
:103F4000088BB0EE408AF0EE608A9FED3E0AF4EEF8
:103F5000C08AF1EE10FA19DD9FED3B0AF4EEC08A3B
:103F6000F1EE10FA12D29FED370AB4EEC08AF1EEEC
:103F700010FA0BDD9FED340AB4EEC08AF1EE10FAB0
:103F800004D29FED320ABDEC088B10BDF5EEC08A5D
:103F9000F1EE10FA02DBB0EE680A01E0B1EE680A59
:103FA000F0EE409AB5EEC08AF1EE10FA02DBB0EE08
:103FB000480A01E0B1EE480AB0EE40AADFED24AABB
:103FC000F4EECA9AF1EE10FA0EDB9FED1F0A39EEFD
:103FD000800ACAEE000AB0EE60BAB0EE4B0A00F0FA
:103FE000C9F8B0EE409A0DE09FED170A3AEE000ACC
:103FF000C9EE800AB0EE60BAB0EE4B0A00F0BAF833
:104000003AEEC09AF5EEC08AF1EE10FA0ADBB5EE90
:10401000C08AF1EE10FA02DBB0EE490AB3E7B1EE66
:10402000490AB0E7B5EEC08AF1EE10FA04DB9FED65
:10403000090A30EE490AA6E79FED060A39EE400A62
:10404000A1E70000BD3786B5BD378635000000000A
:10405000DA0FC93FDA0F494010B52DED088BB0EEED
:10406000408AF0EE608A9FED3E0AF4EEC08AF1EEDF
:1040700010FA19DD9FED3B0AF4EEC08AF1EE10FA5A
:1040800012D29FED370AB4EEC08AF1EE10FA0BDDC2
:104090009FED340AB4EEC08AF1EE10FA04D29FED1F
:1040A000320ABDEC088B10BDF5EEC08AF1EE10FAB5
:1040B00002DBB0EE680A01E0B1EE680AF0EE409A69
:1040C000B5EEC08AF1EE10FA02DBB0EE480A01E06C
:1040D000B1EE480AB0EE40AADFED24AAF4EECA9A87
:1040E000F1EE10FA0EDB9FED1F0A39EE800ACAEEE0
:1040F000000AB0EE60BAB0EE4B0A00F065F8B0EE20
:10410000409A0DE09FED170A3AEE000AC9EE800AC8
:10411000B0EE60BAB0EE4B0A00F056F83AEEC09A34
:10412000F5EEC08AF1EE10FA0ADBB5EEC08AF1EEC8
:1041300010FA02DBB0EE490AB3E7B1EE490AB0E784
:10414000B5EEC08AF1EE10FA04DB9FED090A30EEFD
:10415000490AA6E79FED060A39EE400AA1E70000EA
:10416000BD3786B5BD37863500000000DA0FC93F80
:10417000DA0F494010B52DED028BB0EE408ADFED2D
:104180000F0AB6EE000A08EE200ABDEEC00A10EED5
:10419000104A4FF47A71204600F040F8044608486F
:1041A00030F8140000EE100AB8EE400ADFED050A00
:1041B00020EE200ABDEC028B10BD000000007A4406
:1041C00010CC00086F12833A10B52DED028BB0EEC3
:1041D000408ADFED0F0AB6EE000A08EE200ABDEEB7
:1041E000C00A10EE104A4FF47A71204600F021F810
:1041F0000446084830F8140000EE100AB8EE400AF1
:10420000DFED050A20EE200ABDEC028B10BD000098
:1042100000007A442AE000086F12833A0246002A1E
:1042200001DA002070478A4201D90846FAE790B2C5
:10423000F8E70246002A01DA002070478A4201D9D5
:104240000846FAE790B2F8E730B5F0EE401A9FED75
:104250003D0AB0EE402AB0EE610A05E09FED3A3A21
:1042600030EE433AB0EE430A9FED373AB4EEC30A5C
:10427000F1EE10FAF2DA05E09FED333A30EE033A50
:10428000B0EE430AB5EEC00AF1EE10FAF4D3B0EE88
:10429000401A81EE020ABCEEC00A10EE101AC8B233
:1042A000032800D9032000EE100AB8EE400AF0EE11
:1042B000412A40EE422A9FED253AB6EE000A02EE70
:1042C000830ABDEEC00A10EE101A40F223640029E2
:1042D00001DA002504E0A14201D9254600E08DB2B3
:1042E0002A4640F22361891A8BB238B9184931F84D
:1042F000121000EE101AF8EE400A1EE0012807D155
:10430000134931F8131000EE101AF8EE400A14E0C9
:10431000022809D10E4931F8121000EE101AB8EE39
:10432000400AF1EE400A08E0094931F8131000EEA6
:10433000101AB8EE400AF1EE400A9FED063A80EE00
:10434000830A30BDDA0FC93FDA0FC94000007A4452
:10435000AEAB000800FEFF4670B52DED068BB0EE4B
:10436000409A9FED3B0AF0EE409AB0EE490A05E014
:10437000DFED380A70EE600AB0EE600ADFED350A54
:10438000B4EEE00AF1EE10FAF2DA05E0DFED310A00
:1043900070EE200AB0EE600AB5EEC00AF1EE10FA37
:1043A000F4D3F0EE408A88EEA90ABCEEC00A10EE03
:1043B000100AC4B2032C00D9032400EE104AB8EE50
:1043C000400AB0EE68AA00EE69AADFED230AB6EE55
:1043D000000A0AEE200ABDEEC00A10EE100A40F2F2
:1043E0002361FFF71BFF054640F22360401B86B2A6
:1043F0003CB91A4830F8150000EE100AB8EE408AB1
:104400001EE0012C07D1154830F8160000EE100A06
:10441000B8EE408A14E0022C09D1104830F815009B
:1044200000EE100AB8EE400AB1EE408A08E00B48F0
:1044300030F8160000EE100AB8EE400AB1EE408ADD
:10444000DFED070A88EE200ABDEC068B70BD000088
:10445000DA0FC93FDA0FC94000007A44C8BF00082C
:1044600000FEFF4670B52DED068BB0EE409A9FED35
:104470003B0AF0EE409AB0EE490A05E0DFED380A5B
:1044800070EE600AB0EE600ADFED350AB4EEE00AC5
:10449000F1EE10FAF2DA05E0DFED310A70EE200AF3
:1044A000B0EE600AB5EEC00AF1EE10FAF4D3F0EE09
:1044B000408A88EEA90ABCEEC00A10EE100AC4B207
:1044C000032C00D9032400EE104AB8EE400AB0EEE7
:1044D00068AA00EE69AADFED230AB6EE000A0AEE2A
:1044E000200ABDEEC00A10EE100A40F22361FFF769
:1044F000A0FE054640F22360401B86B23CB91A4834
:1045000030F8150000EE100AB8EE408A1EE0012CCB
:1045100007D1154830F8160000EE100AB8EE408AB0
:1045200014E0022C09D1104830F8150000EE100AF2
:10453000B8EE400AB1EE408A08E00B4830F81600A9
:1045400000EE100AB8EE400AB1EE408ADFED070A2D
:1045500088EE200ABDEC068B70BD0000DA0FC93F63
:10456000DA0FC94000007A44E2D3000800FEFF469B
:1045700070B52DED048B0446B0EE408AB0EE609A23
:10458000F0EE419A0D46F0EE618A164614B9BDEC84
:10459000048B70BDB5EEC08AF1EE10FA03D29FED28
:1045A000450AB0EE408AB0EE481ADFED420AB0EE9E
:1045B000490A00F0F7FEB0EE409A9FED3E0A84ED06
:1045C000050A9FED3C0A84ED060A9FED3A0A84ED48
:1045D000070A84ED089A84ED048A9FED360A84ED7B
:1045E000090A9FED340A84ED0A0A9FED320A84ED30
:1045F0000B0A9FED300A84ED0C0A9FED2E0A84ED24
:104600000D0A002084F83800C4ED009A2571C4ED2D
:10461000028AC4ED0C8AC4ED0D8A012084F83800AA
:1046200026739FED240A84ED100A9FED220A84ED83
:10463000110A9FED200A84ED120A9FED1E0A84EDF7
:10464000130A9FED1C0A84ED140A9FED1A0A84EDEB
:10465000150A9FED180A84ED160A9FED160A84EDDF
:10466000170A002084F860002046FEF7C1FD2046AE
:10467000FEF720FC9FED0F0A84ED230A9FED0D0A43
:1046800084ED240A9FED0B0A84ED250A9FED090AAB
:1046900084ED260A0020A4F89C009FED060A84ED14
:1046A000280A9FED040A84ED290A84F8A80000BFB7
:1046B0006DE7000000000000F0EE400AF5EEC00AD1
:1046C000F1EE10FA02DDB0EE600A70479FED010ACC
:1046D000FBE700006F12833AF0EE400AF5EEC00AE5
:1046E000F1EE10FA02DDB0EE600A70479FED010AAC
:1046F000FBE700006F12833A00B9704780ED000AB3
:10470000C0ED010A80ED021ADFED062AC0ED032A92
:10471000DFED042AC0ED042AC0ED051A80ED062A5B
:1047200000BFEAE70000000010B52DED088B04463D
:10473000B0EE40AAF0EE60AAF0EE418A24B99FEDF7
:10474000440ABDEC088B10BDB0EE680AFFF7B4FF59
:10475000F0EE408A3AEE6A8A94ED030A08EE280ADF
:1047600084ED030A94ED040A38EE400A80EE289A9C
:1047700094ED010AD4ED030A20EE200AD4ED000ADC
:1047800000EE880AD4ED020A00EE890AF0EE409AA3
:1047900094ED060AB0EE401A94ED050AF0EE400AD8
:1047A000B0EE690A00F0FEFDF0EE409A94ED010AC9
:1047B000DFED280AB4EEE00AF1EE10FA42DD94EDE6
:1047C000050ADFED240A30EE200AB4EEE90AF1EE24
:1047D00010FA0ADA94ED060ADFED1E0A30EE600ADE
:1047E000B4EEE90AF1EE10FA2CD894ED050AD4EDF6
:1047F000000A00EEC80AD4ED020A00EEC90AD4EDA0
:10480000010A80EE201AB0EE41BA94ED060AD4ED0A
:10481000000A00EEC80AD4ED020A00EEC90AD4ED7F
:10482000010A80EE201AF0EE41BAD4ED030AB0EE90
:10483000600AB0EE6B1AF0EE4B0A00F0B3FD84EDA7
:10484000030A00BF84ED048AB0EE690A79E700002C
:1048500000000000BD37863510B504F01DF804F0E7
:10486000F7F910BD10B504F06DF810BD70B5044631
:104870000D462946204604F06BF870BD10B504F0D3
:104880003FFA10BD70B504460D462946204604F097
:104890003DFA70BD0020704702460020704700209E
:1048A000704702460020704710B542F6DF610920CC
:1048B00003F014FD10BD00000748006840F0807050
:1048C000054908600020054948600846006840F036
:1048D0000100086070470000FCED00E0001000E0FF
:1048E00010B500F031FD10BD70B504460D462946E7
:1048F000204601F001F970BD10B52DED048BB0EE2E
:10490000408AF0EE608AB0EE419AB0EE491AF0EEBD
:10491000680AB0EE480A01F06DF9BDEC048B10BDD9
:1049200010B501F0B9F910BD0148406870470000AA
:10493000001000E010B504462046FDF74EFA10BD09
:1049400070B504460D46182229462046FDF7A8F901
:1049500070BD70B504460D46022229462046FDF77B
:104960009FF970BD10B504462046FCF721FF10BD2D
:1049700010B505F0CFFA10BD70B5044604EB840005
:1049800040000B49B1FBF0F0451EFDF705FA294642
:10499000092003F027FD03F059FD2946092003F003
:1049A00061FD03F009FEFDF719F9FDF787F970BD08
:1049B000C0D4010010B50446204603F0D9FC2046BF
:1049C00001F052F910BD10B50446204603F0CAFCB0
:1049D00010BD70B504460D462946204600F0D6FCB1
:1049E00070BD10B50446204601F038F910BD10B571
:1049F0002DED028BB0EE408AB0EE480A03F0AEFD1A
:104A0000BDEC028B10BD10B503F0C8FC10BD10B595
:104A10000446204604F060FC10BD10B50446204654
:104A200003F0E8FF10BD10B50446204603F0B8FFC0
:104A300010BD000000B970479FED040A80ED030A25
:104A40009FED020A80ED040A00BFF4E700000000B9
:104A500000B970479FED040A80ED030A9FED020A3A
:104A600080ED040A00BFF4E70000000000B97047C1
:104A7000002180F8881000BFF9E700009FED060ACA
:104A8000064880ED000A9FED040A054880ED000A03
:104A90000020044908707047000000004C0000200E
:104AA00050000020540000202DE9F0412DED048B32
:104AB00082B00746B0EE409A884614461D469FEDE8
:104AC000300AB0EE408A9FED2E0AF0EE408A0FB118
:104AD00005B12CB9002002B0BDEC048BBDE8F0811B
:104AE000B0EE490A3846FEF765FB4046FFF78FFFF8
:104AF000002620E001A8FFF71DFF00B919E09DED99
:104B0000010AFFF729FC30EE080AB0EE408ADDED1D
:104B1000010A9FED1C1A70EE810AB0EE600AFFF7E1
:104B20001BFC30EE280AF0EE408A0420FFF76FFFEE
:104B300000BF701C86B2A642DCDBB0EEC80ADFED17
:104B4000120AB4EEE00AF1EE10FA0AD2B0EEE80A68
:104B5000DFED0D0AB4EEE00AF1EE10FA01D200200A
:104B6000B9E7F0EE680AB0EE480AFFF7E7F9F0EEB1
:104B7000409A00F0E1FC85ED000A0120ABE700005F
:104B800000000000DA0FC93FBD3786352DE9F0413E
:104B90002DED0C8B04460F469046F0EE409AB0EE99
:104BA00060AA1E46F0EE41CA24B11FB1B8F1000F51
:104BB00000D01EB9BDEC0C8BBDE8F08104F164059A
:104BC000B0EE6C0AFFF778FDF0EE40CA94F90C00E5
:104BD00000EE100AB8EEC00A20EE290AF0EE409A64
:104BE000D6ED1F0AB0EE600A204600F0D5F894F921
:104BF0000C0000EE100AB8EEC00AD4ED0C0A60EE0C
:104C000020AA39EEEABAB0EECB9A95ED040AD5EDBA
:104C1000030A70EE60BA9FED3E0AF4EEC0BAF1EE00
:104C200010FA03D29FED3A0AF0EE40BA95ED030A6E
:104C3000B4EEC90AF1EE10FA02DB9FED368A0FE0FE
:104C400095ED040AB4EEC90AF1EE10FA02D8B7EEF7
:104C5000008A05E095ED030A39EE400A80EE2B8AC2
:104C6000B5EEC0BAF1EE10FA02DBB0EECA0A03E00C
:104C7000B0EECA0AB1EE400A20EE08CA9FED260A3D
:104C8000B4EEC08AF1EE10FA07D23846FFF7E0FE24
:104C9000FFF7F4FEDFED1F8A17E0D6ED1F0AB0EE36
:104CA000600AB0EE6C1AF0EE4C0A204600F0A6F84E
:104CB000B0EE40DAB0EE6C1ADFED160AB0EE4D0A37
:104CC0003846FFF731FDF0EE408AB0EE6C1AF0EE98
:104CD0006A0AB0EE690A29464046FDF7B3FCF0EED9
:104CE00040DAB7EE000A30EE480A20EE2D0A08EE50
:104CF000280A84ED090A84ED0BCAD6ED1F0AB0EE2E
:104D0000600A2046FEF7D2FA84ED050A00BF51E79B
:104D1000BD3786350000000017B7D13870B52DEDCE
:104D2000048B04460E461546B0EE408AF0EE608ACB
:104D30000CB106B115B9BDEC048B70BDB0EE680ABC
:104D4000FFF7BAFCF0EE408AD5ED1F0AB0EE600A1C
:104D5000B0EE681AF0EE480A204600F04FF8B0EEC8
:104D6000409AB0EE681ADFED0B0AB0EE490A304601
:104D7000FFF7DAFC84ED090A84ED0B8AD5ED1F0AF2
:104D8000B0EE600A2046FEF791FA84ED050A00BFF6
:104D9000D1E700000000000010B52DED028B0446A5
:104DA000B0EE408A14B9BDEC028B10BD94F8380007
:104DB00038B984ED0D8A84ED0C8A012084F838001E
:104DC000F1E7D4ED0D0A78EE600AB0EE600A00F06B
:104DD000D1FBF0EE408AB0EEE80AD4ED190AB4EE49
:104DE000E00AF1EE10FA05DB94ED0C0A30EE280A29
:104DF00084ED0C0A84ED0D8A00BFD4E710B52DEDCB
:104E0000068B0446B0EE409AF0EE609AF0EE418ACE
:104E100024B99FED250ABDEC068B10BDB0EE680AE3
:104E2000FFF74AFCF0EE408A94F90C0000EE100AFD
:104E3000B8EEC00A20EE098A1C48007868B91C4800
:104E400080ED008A9FED180A1A4880ED000A0120C3
:104E5000164908709FED140ADDE71548D0ED000AE9
:104E600078EE600AB0EE600A00F084FBF0EE40AA33
:104E70000F4880ED008A29EEA8AA3AEE6A0A0D488A
:104E8000D0ED000A30EE200A80ED000A9FED0A1AEC
:104E9000DFED0A0A90ED000A00F084FA054880ED83
:104EA000000A90ED000AB6E7000000005400002060
:104EB000500000204C000020DA0FC941DA0FC9C1B0
:104EC00010B50446012C02D1FFF7CCFC10BD022C1A
:104ED00002D1FFF7D3FCF9E7032C02D1FFF7DAFC8C
:104EE000F4E7042C02D1FFF7DAFCEFE70020EDE74E
:104EF00070B504460D461646012C04D131462846AD
:104F0000FFF7B4FC70BD022C04D131462846FFF7F0
:104F1000B9FCF7E7032C04D131462846FFF7BCFC67
:104F2000F0E7042C04D131462846FFF7BAFCE9E744
:104F30000020E7E72DE9F04106460F46012411E085
:104F40002046FFF7BDFF00B90AE03A463146204649
:104F5000FFF7CEFF054615B12846BDE8F08100BF3A
:104F6000601CC4B2042CEBD90020F6E700BFFEE7BA
:104F700008B5009002E00099491E009100990029AF
:104F8000F9D108BD10B540F2157004F001FF1248C8
:104F900004F04CFD4FF400410F4804F08CFD00215B
:104FA0000D4804F088FD0C4804F020FD00F0E8F8FE
:104FB00000220A49084804F071FC00231A461946E9
:104FC000054804F06AFD044804F035FD4FF48061A3
:104FD000014804F05BFC10BD00540040E093040065
:104FE00010B540F2036004F0D3FE402303221C21DD
:104FF000044804F09DFB802303221C21014804F097
:1050000097FB10BD000C014010B5FFF7E9FFFFF75B
:10501000B9FF10BD2DE9F0478046894617461E4668
:1050200016B90020BDE8F0870FB90120FAE700F0BB
:1050300087F804460CB12046F4E76FF001014046C2
:1050400000F062F804461CB100F08EF82046E9E753
:1050500049462C4804F0C6FC42F6E062012140F2C9
:10506000075000F0D3F804461CB100F07DF820464C
:10507000D8E700F065F804460CB12046D2E70121DC
:10508000404600F041F804461CB100F06DF820469F
:10509000C8E700251FE0701EA84206D1002119486C
:1050A00004F0F4FB174804F013FD42F6E06201211E
:1050B00040F2065000F0AAF8044634B14FF4806183
:1050C000104804F0E3FB2046ACE70E4804F086FCF1
:1050D0007855681C85B2B542DDDB42F6E06000F031
:1050E000ADF8044634B14FF48061064804F0CEFBBD
:1050F000204697E74FF48061024804F0C7FB002088
:1051000090E700000054004070B504460D462A4662
:1051100021460A4804F0B7FC42F6E062012140F261
:10512000015000F073F806460EB1304670BD40F2F3
:105130000151024804F084FC0020F7E700540040CD
:1051400010B5084804F0BFFC42F6E06201214FF4BC
:10515000A06000F05BF804460CB1204610BD0020B2
:10516000FCE700000054004010B5044804F0B0FC17
:1051700042F6E06000F062F810BD0000005400400C
:1051800010B5C023032214211F4804F0D1FAC02116
:105190001D4804F0CBFA4FF41670FFF7E9FE002427
:1051A00011E04021184804F0BFFA4FF41670FFF7E1
:1051B000DFFE4021144804F0B9FA4FF41670FFF7EF
:1051C000D7FE601CC4B2092CEBDB80210E4804F032
:1051D000ABFA4FF41670FFF7CBFE40210A4804F0FB
:1051E000A5FA4FF41670FFF7C3FE8021064804F0BD
:1051F0009DFA4FF41670FFF7BBFEC02303221C215B
:10520000014804F095FA10BD000C01402DE9F04171
:1052100004460D461646374606E027B9FFF7B2FEAC
:105220000220BDE8F0817F1E2146034804F01CFCEB
:10523000A842F2D10020F4E70054004070B50446C3
:10524000254605E01DB9FFF79DFE022070BD6D1ECD
:105250000348006800F400700028F3D100BFF5E7B0
:1052600000540040C0ED001AC0ED011A9FED082A5D
:1052700080ED022AC0ED030A80ED040A80ED051AD4
:105280009FED042A80ED062AC0ED071A7047000042
:105290006666663F0000000080ED000A90ED031A8C
:1052A000D0ED051A31EE211A80ED031A90ED031AA4
:1052B000D0ED041A31EE211AF0EE410A9FED201ACA
:1052C000F4EEC10AF1EE10FA12D280ED010AB7EE47
:1052D000001A80ED021A9FED1B1A80ED031A90ED63
:1052E000011AD0ED061A31EE611A80ED071A7047E7
:1052F00090ED031AC1EE201AC0ED021A90ED011ACA
:10530000D0ED021A90ED012A30EE422A01EE821A07
:1053100080ED011A90ED021AF7EE001A31EEC11A73
:10532000D0ED031A21EE211A80ED031A90ED011A37
:10533000D0ED061A31EE611A80ED071A00BFD6E7EC
:10534000BD3786350000000010B540F2036004F060
:105350001FFD40F2036004F01BFD40F2036004F007
:1053600017FD012303221021074804F0E1F902236D
:1053700003221021044804F0DBF904230322102146
:10538000014804F0D5F910BD000C014070B5054688
:105390000C461CB1284602F087FE02E0284600F0C9
:1053A000DFFF70BDF0EE401AF4EEE01AF1EE10FAF5
:1053B00002D2B0EE600A7047F4EEC11AF1EE10FAB4
:1053C00002DDB0EE410AF6E7B0EE610AF3E7000055
:1053D00080ED000A70EEC11A9FED032AC1EE822A09
:1053E000C1ED002A70470000D7B3DD3F10B52DEDA9
:1053F000028BB0EE408ADFED050A78EE200AB0EEAF
:10540000600AFEF721FFBDEC028B10BDDA0FC93F29
:1054100000B5B0EE402AB0EE603A00B111B9B0EE7E
:10542000420A00BDB7EE001ADFED0E0AB0EE430AE5
:10543000FFF7B8FFF0EE402A0A7832B980ED002A73
:1054400001220A70B0EE420AEBE790ED000AD0EDBF
:10545000000A72EE600A02EEA00A80ED000A90EDEA
:10546000000ADEE70000000080ED000ABEEE001A30
:1054700020EE011ADFED081A01EEA01A81ED001AE4
:10548000BEEE001A20EE011ADFED031A01EEE01A5B
:1054900082ED001A70470000D7B35D3F70B52DED67
:1054A000068BB0EE408AF0EE608AB0EE419A044678
:1054B0000D46B0EE490AFEF7C7FEF0EE409AB0EE98
:1054C000490AFFF793FFB0EE40AA28EE0A0A08EE59
:1054D000E90A84ED000A28EE290A08EE8A0A85ED19
:1054E000000ABDEC068B70BD70B52DED068BB0EEDD
:1054F000408AF0EE608AB0EE419A04460D46B0EE66
:10550000490AFEF7A1FEF0EE409AB0EE490AFFF715
:105510006DFFB0EE40AA28EE0A0A08EEA90A84ED53
:10552000000AB1EE480A20EE290A08EE8A0A85ED43
:10553000000ABDEC068B70BD05E0DFED0D0A70EED4
:10554000600AB0EE600ADFED0A0AB4EEE00AF1EE9E
:1055500010FAF2DA05E0DFED060A70EE200AB0EE8E
:10556000600AB5EEC00AF1EE10FAF4D370470000FD
:10557000DA0FC94005E0DFED0E0A70EE600AB0EE0A
:10558000600ADFED0C0AB4EEE00AF1EE10FAF2DC8C
:1055900005E0DFED070A70EE200AB0EE600ADFEDED
:1055A000060AB4EEE00AF1EE10FAF2D370470000FA
:1055B000DA0FC940DA0F4940DA0F49C000BFFEE7F1
:1055C0000120014908707047B10000202DE9F04129
:1055D00005460E4617469846069C2DB126B11FB1CA
:1055E000B8F1000F00D00CB9BDE8F08194ED050AC8
:1055F00086ED000A94ED060A86ED010A94ED070A8D
:1056000086ED020A95ED080AB1EE400A86ED050A1C
:1056100095ED080A86ED060A95ED001AB0EEC11A5E
:10562000DFED221AB4EEE11AF1EE10FA04DD95ED89
:10563000001AB0EEC11A01E09FED1C1AF0EE410A0B
:1056400095ED081A81EE200AB5EEC00AF1EE10FAC7
:1056500003D29FED171AB0EE410AB1EE401A88ED61
:10566000051A88ED060AB1EE401A87ED051A87ED96
:10567000060A94F84E102846FDF763FFD4ED140A8D
:10568000B0EE600A2846FDF733FFD4ED150AB0EE00
:10569000600A2846FDF718FF94F84D102846FDF7DC
:1056A0003BFF2846FDF7D4FE00BF9DE7BD3786359A
:1056B0000000000010B59FED051ADFED040A9FED14
:1056C000030A002001F090FE10BD00000000000061
:1056D00070B52DED048B04460D46B0EE408AF0EE19
:1056E000608AB0EE419AF0EE619A16463246F0EECC
:1056F000691A2946B0EE491AF0EE680AB0EE480A77
:105700002046FEF735FFBDEC048B70BD2DE9F0415E
:105710002DED028B82B005460E46174698460A9C30
:105720002DB126B11FB1B8F1000F00D024B902B0DD
:10573000BDEC028BBDE8F08195ED000AB0EEC00A29
:10574000DFED320AB4EEE00AF1EE10FA04DD95ED79
:10575000000AB0EEC00A01E09FED2C0AF0EE408A8C
:1057600095ED080A80EE288AB5EEC08AF1EE10FAAF
:1057700003D29FED270AB0EE408AD5ED082AB0EE9D
:10578000622AD5ED082AF1EE622AF0EE621AD4ED13
:10579000072AB0EE621AD4ED062AF0EE620AD4EDC2
:1057A000052AB0EE620A3046FEF7A6FFD4ED0A1ACB
:1057B000B0EE611AD4ED091AF0EE610AD4ED081AC0
:1057C000B0EE610AB0EE482AF1EE481A4046FEF704
:1057D00093FFD4ED0D1AB0EE611AD4ED0C1AF0EE71
:1057E000610AD4ED0B1AB0EE610AB0EE482AF1EE70
:1057F000481A3846FEF780FF43463A463146284667
:105800000094FFF7E3FE00BF91E70000BD37863547
:105810000000000070B504460D462946204602F0FF
:10582000AFF870BD10B52DED028B0446B0EE408A86
:10583000B0EE480A204602F067FABDEC028B10BDBC
:1058400010B5044602F002FB204602F053FA10BDE8
:1058500010B5044602F003FB204602F04BFA10BDDF
:1058600010B5FDF709FD10BD10B504462046FDF743
:10587000BFFC10BD10B504462046FDF7E9FD10BD84
:1058800070B52DED028B04460D461646B0EE408AEB
:10589000F0EE608AF0EE680AB0EE480A3246294619
:1058A0002046FDF7EDFCBDEC028B70BD10B52DED73
:1058B000028B0446B0EE408AF0EE608AF0EE680A91
:1058C000B0EE480A2046FDF745FDBDEC028B10BD49
:1058D0002DE9F0432DED048B83B004460D461646AA
:1058E0001F46B0EE408AF0EE608AB0EE419AF0EECC
:1058F000619ADDE90E89F0EE691AB0EE491AF0EE10
:10590000680AB0EE480A3B46324629462046CDE9B1
:105910000089FDF735FD03B0BDEC048BBDE8F083D5
:1059200010B502F04FF810BD10B52DED028BB0EEA2
:10593000408AB0EE480A02F0D1F9BDEC028B10BDEE
:105940001FB51B48007800B11FBD1A4890F86100D0
:1059500018B10120FCF732FFF6E71748FFF770FF98
:105960000020009001900290039001208DF8050026
:10597000114890F880008DF806000F4890F88100DB
:105980008DF807000C4890ED220A8DED020A68465A
:1059900001F022FD074890F84C0018B90120FCF7EF
:1059A0000DFFD1E70448FDF7BBF900BFCCE70000CD
:1059B000BC00002020070020AC050020704700003C
:1059C00010B5002807DA0A07140E054A00F00F0385
:1059D0001B1FD45403E00A07130E024A135410BDD0
:1059E00018ED00E000E400E00346481C03FB00F271
:1059F0006420B2FBF0F28A4200D90A4690B27047A6
:105A00000146B5EEC00AF1EE10FA02D2DFED0F0A40
:105A10000BE0B7EE001AB4EEC10AF1EE10FA02DDA7
:105A2000F7EE000A01E0F0EE400A481C01EE100A11
:105A3000B8EE411A20EE811ABCEEC11A11EE102AFE
:105A40008A4200D90A4690B2704700000000000068
:105A500010B50121014804F007FD10BD002C0140E4
:105A600010B540F2026004F093F940F2026004F0D5
:105A70008FF940F2026004F08BF940F2036004F009
:105A800087F940F2036004F083F940F2036004F008
:105A90007FF94FF4C06004F07BF94FF48073032268
:105AA0001821134803F044FE4FF400730322182119
:105AB0000F4803F03DFE4FF48063032218210C4889
:105AC00003F036FE4FF4005303221821094803F077
:105AD0002FFE4FF4804303221821064803F028FECE
