:020000040800F2
:10000000D80E002009020008E5560008E54E000859
:10001000ED550008B11C00087176000800000000D2
:10002000000000000000000000000000BD5F0008AC
:10003000A52F000800000000755A0008A56A0008F6
:1000400023020008230200082302000823020008FC
:1000500023020008230200082302000823020008EC
:100060002302000823020008230200089D2F000835
:1000700023020008230200082302000823020008CC
:1000800023020008230200081F17000823020008AB
:1000900023020008230200082302000823020008AC
:1000A000230200082302000823020008230200089C
:1000B000F56B0008FD6B000823020008230200080E
:1000C000230200082302000823020008230200087C
:1000D000230200082302000825710008DD740008CF
:1000E000230200082302000823020008230200085C
:1000F000230200082302000823020008230200084C
:10010000230200082302000823020008230200083B
:10011000230200082302000823020008230200082B
:10012000230200082302000823020008230200081B
:1001300000F002F800F058F80AA090E8000C8244A1
:100140008344AAF10107DA4501D100F04DF8AFF27E
:10015000090EBAE80F0013F0010F18BFFB1A43F0A5
:100160000103184708B3000028B30000103A24BF69
:1001700078C878C1FAD8520724BF30C830C144BF0C
:1001800004680C607047000000230024002500264E
:10019000103A28BF78C1FBD8520728BF30C148BFEA
:1001A0000B60704766290AF0A287642900F0B880C6
:1001B000752900F0B580782900F0EE80632900F001
:1001C0006085732900F06585002070471FB50AF02F
:1001D0000AFF00F063FD0400002000210AF024F96A
:1001E000E0601FBD10B510BD00F05CFE1146FFF7CA
:1001F000EDFF09F021FB00F07AFE03B4FFF7F2FFF8
:1002000003BC00F0BDFE00000948804709480047D4
:10021000FEE7FEE7FEE7FEE7FEE7FEE7FEE7FEE7B6
:10022000FEE7FEE704480549054A064B7047000013
:10023000AD6A000831010008D8060020D80E002061
:10024000D80A0020D80A00200FB47CB50C0009AAF7
:10025000009001D02044401E084B7B446946019029
:10026000089800F0E4FC05461CB10020694600F047
:10027000F1FC28467CBC5DF814FB0000010A00007C
:1002800070B5044685690068C10601D5302600E0D6
:100290002026C00707D070BDD4E901213046904721
:1002A000206A401C20626D1EF6D570BD70B50446F4
:1002B00085690078C00707D170BDD4E901212020ED
:1002C0009047206A401C20626D1EF6D570BD70B547
:1002D0000C460546012A05D02878800600D5EA6933
:1002E000002302E0012305E05B1C934202D2E05CA4
:1002F0000028F9D1A869E618C01AA861286A18442C
:1003000028622846FFF7BCFF04E0D5E9012114F874
:10031000010B9047B442F8D32846FFF7C7FF70BDE2
:100320002DE9F0410646002410687529314616A5CE
:1003300010D0AFF30080002802DA404213A507E096
:1003400031688A0701D512A502E0490704D511A535
:10035000012401E0AFF3008000210A2206F1240706
:1003600009E0B0FBF2FCB0FBF2F302FB1C00303002
:1003700078541846491C0028F3D123462A463046B3
:10038000BDE8F04100F0E5B9000000002D000000DC
:100390002B0000002000000070B504460D462146E9
:1003A0001068AFF300802188090502D50F4A7A440E
:1003B00002E00E4A7A440E32002104F1240305E0E3
:1003C00000F00F060009965D5E54491C0028F7D125
:1003D00020780023000704D5702D02D009B1022334
:1003E00011322046BDE8704000F0B3B940AD0000C6
:1003F0002DE9F05F894604464FF0000ADFF874B13A
:10040000FB44C0F820A02046E1688847002874D04B
:10041000252806D0D4E901219047206A401C20629B
:10042000F1E700265F462046E16888472028054618
:1004300007DB312D05D2781910F8200C08B10643DE
:10044000F1E7B00701D526F00406C4F81CA0002788
:10045000C4F818A02A2D09D0284608F029FC38B382
:1004600004EB8708303DC8F8185019E059F8041B10
:10047000204604EB87029161E1688847012F054619
:1004800018D1E069002820DA26F020061DE0D8F80F
:10049000180000EB800005EB40003038C8F8180069
:1004A0002046E1688847054608F002FC0028EED1A6
:1004B000012F0AD02E2D08D12046E16888477F1CE5
:1004C0000546022F46F02006C4DBA069002803DAA7
:1004D000404246F00106A061F00701D026F0100668
:1004E0006C2D0BD0682D09D04C2D39D06A2D35D00C
:1004F000742D35D07A2D33D016E038E0E1682F46E0
:1005000020468847B842054609D16C2F26D04FF4C3
:100510008060E168064320468847054604E06C2F6A
:100520001AD04FF4807006430DB3A5F1410019288D
:1005300002D8203546F400664A4629462046266001
:100540004E46FFF72FFE80B101280BD0F61D26F096
:10055000070000F1080956E74020E4E78020D8E7CB
:100560000020D6E706F104094DE7284652E7206A45
:10057000BDE8F09F16AD000010B5431C02E010F876
:10058000011B71B18107FAD14FF0013202C88C1AF8
:100590008C4314EAC211F9D0C01A0A0603D0C01E57
:1005A00010BDC01A10BD0A0401D0801E10BD090282
:1005B000FCD0401E10BD032A40F2308010F0030C26
:1005C00000F0158011F8013BBCF1020F624498BFA6
:1005D00011F801CB00F8013B38BF11F8013BA2F143
:1005E000040298BF00F801CB38BF00F8013B11F0BE
:1005F000030300F02580083AC0F0088051F8043B5E
:10060000083A51F804CBA0E80810F5E7121D5CBFCA
:1006100051F8043B40F8043BAFF30080D20724BFFD
:1006200011F8013B11F801CB48BF11F8012B24BF91
:1006300000F8013B00F801CB48BF00F8012B7047E0
:1006400010B5203AC0F00B80B1E81850203AA0E86D
:100650001850B1E81850A0E81850BFF4F5AF5FEAA1
:10066000027C24BFB1E81850A0E8185044BF18C954
:1006700018C0BDE810405FEA827C24BF51F8043BFB
:1006800040F8043B08BF7047D20728BF31F8023B4F
:1006900048BF11F8012B28BF20F8023B48BF00F8E3
:1006A000012B70474FF000020429C0F0128010F0B7
:1006B000030C00F01B80CCF1040CBCF1020F18BF3E
:1006C00000F8012BA8BF20F8022BA1EB0C0100F0D1
:1006D0000DB85FEAC17C24BF00F8012B00F8012BA4
:1006E00048BF00F8012B70474FF0000200B51346D9
:1006F00094469646203922BFA0E80C50A0E80C5042
:10070000B1F12001BFF4F7AF090728BFA0E80C50F2
:1007100048BF0CC05DF804EB890028BF40F8042BEB
:1007200008BF704748BF20F8022B11F0804F18BF58
:1007300000F8012B704770477047704710B500F004
:10074000B1FA006810BD10B5044600F0ABFA0460C1
:1007500010BD2DE9F0470D4699469246044600F13A
:1007600024080168880604D5E06921F010012160A1
:1007700000E00120A84201DD471B00E00027A1693D
:100780007A1902EB0900081AA0612078C00602D489
:100790002046FFF775FD002608E0D4E901211AF88C
:1007A00006009047206A401C761C20624E45F4DB10
:1007B0002078C0060AD52046FFF762FD06E0D4E99E
:1007C000012130209047206A401C2062381EA7F18A
:1007D0000107F4DC07E0D4E9012118F8050090478F
:1007E000206A401C2062281EA5F10105F3DC20468A
:1007F000FFF75CFD2078000602D50220BDE8F087F7
:100800000120FBE770472DE9FF4F0C461E464FF0D5
:10081000FF378BB0D2E90001DDF860800A908A468C
:10082000C1F30A5505B93D46002108464FF00000C6
:10083000BAF1000F00F4400005DA00EB80004FF43D
:10084000400101EA50004FEA9059B9F1010F00DD73
:10085000B9460A9850EA4A000ED044F61050A5F264
:10086000FF3545432F14B8F1000F1ED07542291EE5
:100870001EDDC9F100021CE0B8F1010F4FF00000CD
:1008800001D0302103E0F24305E02154401CB04286
:10089000FBDB30460022002121540B99C1F808806F
:1008A000C1E900200FB0BDE8F08FBD1B6D1CDEE775
:1008B0004A4600DA694206A800F07EFA06AB93E8E1
:1008C000070003AB83E8070050460A9900F05FFB7E
:1008D0008DE80700A0F500501F3800900398002D08
:1008E0000ADD42F21F014A460844002303A903908F
:1008F000684600F0C8FD09E0A0F500504A461F38E0
:10090000002303A90390684600F0D2FD8DE807009C
:100910000004000C03D04FF0FF30410800E0104607
:10092000B8F1000F03D00022009215461EE0751E9C
:1009300005D400F0BBF9303262556D1EF9D5B346CF
:100940000122084302D000227F1C04E020783028D6
:1009500001D100227F1E002A099784D01DE0112DAD
:1009600007DA00F0A3F9303262556D1C50EA01023B
:10097000F5D1084302D00098C8B10EE00021681EEE
:1009800005E0235C625C63542254401E491C814292
:10099000F7DBAB46A81B401E0990002004F80B00B3
:1009A0000B98099AC0F80880C0E9002B7AE7112655
:1009B0004FF0000857E72DE9F04F88460446D21D56
:1009C00022F0070191B0D1E90001CDE90A0106F05A
:1009D00051FE02460B98C00F01D02D2007E0206881
:1009E000810701D52B2002E0202101EAC000032A63
:1009F000099001D0072A05DB03464146204600F056
:100A00009BF90BE12078800601D5E06900E0062023
:100A1000B8F1650F814606D0B8F1660F18D0B8F16D
:100A2000670F70D131E00020B9F1110F009001DBA8
:100A3000112301E009F101030AAA01A90CA8FFF79B
:100A4000E2FEDDE90C70002609F10105834647E06E
:100A500001204B4600904FF000470AAA01A90CA8BC
:100A6000FFF7D1FEDDE90DB00C995D46002610B907
:100A700009F101000D18B9EB050003D4C0F1FF36F0
:100A800009F10105A5EB09002BE0B9F1010F01DA2D
:100A90004FF001090020B9F1110F0090484601DD27
:100AA000112300E003460AAA01A90CA8FFF7ABFE38
:100AB000DDE90C704D4600268346207800070AD4F5
:100AC000AB4500DA5D4601A8012D04DD411911F89E
:100AD000011C302907D04F4502DA17F1040F04DA60
:100AE000012082460FE06D1EEEE7002F02DCED1BB9
:100AF0003E4403E0781CA84200DD7D1CB81B00F1D9
:100B0000010A4FF000472078000703D4AA4501DB13
:100B10004FF0FF3A0021B7F1004F0DF143088DF877
:100B2000431024D002202B23002F01DA7F422D23F3
:100B30000A21021EA0F1010000DC5FB197FBF1FC6D
:100B400097FBF1F201FB1C7C17460CF1300C08F806
:100B500001CDEEE7A8F1010003702188090501D558
:100B6000452100E06521A0F1010800F8011C099869
:100B70000FA9A1EB0807FF1D00B10120411901EBEE
:100B8000EA70A1693844081A401EA0612078C006A6
:100B900002D42046FFF774FB099828B1D4E901215B
:100BA0009047206A401C20622078C00622D520464B
:100BB000FFF766FB1EE0002E04DBB34502DD01A853
:100BC000805D00E03020D4E901219047206A401C7C
:100BD0002062761CAAF101005FEA000A0AD100F047
:100BE0005DF8C0680168405CD4E901219047206A43
:100BF000401C2062281EA5F10105DCDC07E0D4E9D9
:100C0000012118F8010B9047206A401C2062381E11
:100C1000A7F10107F3DC2046FFF748FB032011B0E2
:100C200041E6000001694A1C02610878704700B57E
:100C30008FB0CDE901310021059105497944CDE915
:100C4000031011466846FFF7D3FB0FB000BD00004C
:100C5000E5FFFFFF0A6802F8010B0A607047D1E95F
:100C600000239A4202D2531C0B601070704710B5DB
:100C7000436913B1AFF3008001E0FFF728FB0120C7
:100C800010BD127800F124010A7000224A7001227E
:100C9000EDE711684FF0FF32E9E7000000487047C8
:100CA00098060020004870477806002030B5B0F163
:100CB0000A024FEA900E71F100034EEA817EB0EB1A
:100CC0000E0061EB91014FEA101E4EEA017E10EB1F
:100CD0000E0041EB11114FEA102E4EEA016E10EB9F
:100CE0000E0041EB11214FEA104E4EEA014E10EB7F
:100CF0000E0041EB1141401841F100014FEAD000D4
:100D000040EA41704FEAD10110EB80054FEA8104BF
:100D100044EA907444EB01046D1944EB0404521B43
:100D2000A3414FF0000348BF0A3200D530BD401C3C
:100D300041F1000130BD00002DE9F0411F4604469D
:100D400003260168072A01F4006004DB08B116A538
:100D500005E016A503E008B115A500E015A521F0F2
:100D600010002060A069C01EA0610FB1401EA061EC
:100D70002046FFF785FA4FB1D4E901213846904764
:100D8000206A401C2062C01C206206E0206AFAE74C
:100D9000D4E9012115F8010B9047761EF8D22046C0
:100DA000FFF784FABDE8F0814E414E006E616E009F
:100DB000494E4600696E66002DE9F04781461646A9
:100DC0008AB0354878440DC88DE80D003248784423
:100DD000801C03AC0DC884E80D0041F69B3008442C
:100DE000372190FBF1F290FBF1F5A5F1800501FBB5
:100DF00012041B3C02D56442012000E00020DFF811
:100E000098A080460027FA44AAF1BE0A0EE0E00747
:100E10000AD03246684607EB470101230AEB8101FD
:100E200000F046FB8DE8070064107F1C002CEED11B
:100E3000194F7F44AE3F19E0E80715D007EB0410C7
:100E40000DF1180A90E80E008AE80E00C068F04222
:100E500001D1981908903246012306A903A800F091
:100E600027FB03AB83E807006D10641C002DE3D162
:100E70004FF0010332466946B8F1000F03A802D0D3
:100E800000F001FB01E000F013FBC9E90001C9F823
:100E900008200AB0BDE8F087C4A5000000487047EC
:100EA000780600207546FFF7F9FFAE460500694653
:100EB000534620F00700854618B020B5FFF7B2F979
:100EC000BDE820404FF000064FF000074FF000084B
:100ED0004FF0000B21F00701AC46ACE8C009ACE8CC
:100EE000C009ACE8C009ACE8C0098D46704710B530
:100EF0000446AFF300802046BDE81040FFF77DB9FF
:100F00004FF0013C50F8042B51F8043B9A4221D198
:100F1000A2EB0C03934313EACC1317D150F8042B24
:100F200051F8043B9A4215D1A2EB0C03934313EA08
:100F3000CC130BD150F8042B51F8043B9A4209D141
:100F4000A2EB0C03934313EACC13DBD04FF0000069
:100F5000704700BFD01A01BAB1FA81F101F018014F
:100F600022FA01F0CB40C1F12001DBB2C0B2C01ABD
:100F70002CFA01F3D11A914311EAC311E6D170475B
:100F800001491820ABBEFEE72600020070475FEA69
:100F9000400C08BF91F0000F4FEA8C234FEAC122AA
:100FA00043EA51514FEA1C5018BF00F5F0404FEA98
:100FB000300018BF41F000415FEA6C5C00F029800E
:100FC000BCF1FF3F08BF40F080407047130C06BFE4
:100FD00012044FF0100C4FF0000C130E04BF12025D
:100FE0000CF1080C130F04BF12010CF1040C930F49
:100FF00004BF92000CF1020CD30F04BF52000CF19D
:10100000010C11464FF00002A0F11F00A0EB0C00F4
:10101000704711F0004F08BF704731F000413FF4B6
:10102000D5AF0B0C06BF09044FF0100C4FF0000CAD
:101030000B0E04BF09020CF1080C0B0F04BF0901D1
:101040000CF1040C8B0F04BF89000CF1020CCB0FC8
:1010500004BF49000CF1010CCCF12003A0EB0C0003
:1010600022FA03F302FA0CF241EA030100F1010053
:10107000704720F07F4C80EA030023F07F47ACEB01
:10108000070303F57C5300F0004003F1FF032DE953
:1010900080494FEA154B09B44FEA144325EA0B4E39
:1010A00024EA03480FF2042606EB132749083E788A
:1010B0005FEA320203FB0667C7F5000707FB06F687
:1010C0004FEA54374FEAD64606F1020607FB066C94
:1010D000CCF1005C4FEA1C472CEA074C07FB06F4F6
:1010E0000CFB06F504EB15464FEA961634BF0020BC
:1010F0004FF000404FEAD13706FB07FC4FEA1C4C8B
:101100000CFB0BF7D21B03FB0CF761EB07010CFB8D
:101110000EF7B0EB074072EB17420CFB08F734BF39
:10112000A2EB0742B2EB074261EB17414FEA0C44D6
:101130004FEA910706FB07FC4FEA1C4C0CFB0BF730
:10114000B0EBC74072EB573203FB0CF734BFA2EB96
:10115000C742B2EBC74261EB57310CFB0EF7B0EB65
:10116000C70072EB57720CFB08F734BFA2EBC70243
:10117000B2EBC70261EB5771039F4FEA816141EA0D
:10118000921104EBCC044FEAD1374FEA826206FB9E
:1011900007FC42EA90124FEA80604FEA1C4C0CFBBD
:1011A0000BF7D21B03FB0CF761EB07010CFB0EF7EF
:1011B000B0EB074072EB17420CFB08F734BFA2EB11
:1011C0000742B2EB074261EB17414FEA8C554FEAF9
:1011D000910704EB9C2406FB07FC4FEA1C4C0CFB1C
:1011E0000BF7B0EBC74072EB573203FB0CF734BF81
:1011F000A2EBC742B2EBC74261EB57310CFB0EF7D3
:10120000B0EBC70072EB57720CFB08F734BFA2EBD0
:10121000C702B2EBC70261EB577115EB4C254FEAE1
:10122000816141EA92114FEA82624FEAD13742EA84
:10123000901206FB07FC44F100044FEA80604FEA7D
:101240001C4C0CFB0BF7D21B03FB0CF761EB0701EB
:101250000CFB0EF7B0EB074072EB17420CFB08F7E4
:1012600034BFA2EB0742B2EB074261EB174115EB2B
:101270001C154FEA813141EA92414FEA823242EA3B
:1012800090424FEA80304FEA0C7644F1000448EA7D
:1012900003434EEA0B484FF0000EB2EB080C71EB23
:1012A000030724BF624639464EEB0E0E4FF0000B8B
:1012B0000018524149414BEB0B0BB2EB080C71EBA0
:1012C00003077BF1000B24BF624639464EEB0E0E3E
:1012D0004FF0000B0018524149414BEB0B0BB2EBA6
:1012E000080C71EB03077BF1000B24BF6246394603
:1012F0004EEB0E0E51EA020718BF46F0010616EB40
:101300000E7655F1000254F1000103D5BDE88901C4
:10131000BDE80088BDE88901BDE80048B619524122
:1013200041EB0101A3F10103704780807F7E7D7C4A
:101330007B7A7978777676757473727171706F6E67
:101340006E6D6C6C6B6A6A69686867666665646412
:10135000636362616160605F5F5E5E5D5D5C5C5B9C
:101360005B5A5A595958585757565655555554540B
:10137000535352525251515050504F4F4F4E4E4D69
:101380004D4D4C4C4C4B4B4B4A4A4A4949494848B5
:1013900048474747474646464545454444444443F5
:1013A00043434342424242414141002B9C4630D498
:1013B00077002BD01CB54FEA370703B44FF010006D
:1013C0004FF01001BAF1000F06D0BCF1000FDCBFE6
:1013D00040F0080040F008014FF000000FBCBDE8ED
:1013E00010400BF1010BBBF1010F08BF5FEA1707BB
:1013F00022BF12F1010211F101014FF0004143F14E
:10140000000300F0004043EA00007047F9D357089A
:10141000D0E746EA064613F1400F4FEA16461FDDB5
:1014200013F1200FDFBF16430A46002120335B4231
:10143000BED0C3F1200746EA064602FA07F74FEA94
:10144000164646EA0706C3F1200722FA03F201FA1C
:1014500007F721FA03F14FF0000342EA0702A7E77A
:1014600046EA020646EA06464FEA164646EA0106FC
:10147000BCBF46EA0646360C4FF000034FF00002B0
:101480004FF0000194E72DE9804C9A46934670B4E2
:1014900091E8380007C831EA400C48BF34EA430CF1
:1014A00003D5FFF7E6FDFFF780FFF0BCBDE8008C39
:1014B0002DE9804C9A46934670B491E8380007C8ED
:1014C00010F0804F08BF13F0804F03D100F005F8F3
:1014D000FFF76BFFF0BCBDE8008C20F07F4780EA8F
:1014E000030023F07F4C07EB0C03A3F57C5300F0C3
:1014F0000040A3F1FE0392F0000F00F0B38095F0DE
:10150000000F00F077802DE901494FEA11404FEAC2
:10151000144621EA004800FB06FC24EA064708FBC3
:1015200006F607FB08F800FB07F718EB06484CEB3C
:10153000164C4FEA124B18EB07484FEA15464CEB96
:10154000174022EA0B4E0BFB06FC25EA06470EFB72
:1015500006F607FB0EFE0BFB07F71EEB064E4CEBE9
:10156000164C4FF000061EEB074E4CEB174B18EBDA
:101570000B0840F1000018EB0E0B58EB000840F18F
:1015800000008F1A4FF000013CBFC943661B14BF17
:10159000B5EB040C00213CBFC943F61B4FEA1744CE
:1015A0004EEA8E0E27EA04454FEA1C4704FB076209
:1015B0002CEA074C05FB07F70CFB05F604FB0CFCBB
:1015C00016EB074642EB174216EB0C4642EB1C4269
:1015D0001BEB060658EB0202414146EA9E0601D586
:1015E000BDE80189B619524141EB0101A3F10103A4
:1015F000BDE801894FEA14454FEA114724EA054640
:1016000021EA074C05FB07F406FB07F70CFB06F184
:1016100005FB0CFC11EB074144EB17444FEA124762
:1016200011EB0C4144EB1C4422EA074C05FB07F28A
:1016300006FB07F70CFB06F605FB0CFC16EB074652
:1016400042EB174216EB0C4642EB1C456A1854F16C
:10165000000148BF7047B619524141EB0101A3F1A7
:101660000103704795F0000F37D04FEA11424FEA5F
:10167000144721EA024624EA074C02FB07F106FB65
:1016800007F70CFB06F402FB0CFC14EB074441EBE0
:1016900017414FEA154714EB0C4441EB1C4125EA76
:1016A000074C02FB07F506FB07F70CFB06F602FBEF
:1016B0000CFC16EB074645EB174516EB0C4645EBC5
:1016C0001C42121951F1000148BF7047B61952412E
:1016D00041EB0101A3F1010370474FEA14454FEAC2
:1016E000114724EA054621EA074C05FB07F106FBF2
:1016F00007F70CFB06F24FF0000605FB0CFC12EBA3
:10170000074241EB174112EB0C4251EB1C4148BF21
:101710007047921841EB0101A3F10103704710B526
:1017200000F098F910BD000010B540F2096008F013
:10173000CFF940F20A6008F0CBF92E4807F010FB11
:101740002D4807F00DFB4FF4C02007F0C3FB01222A
:101750001102284807F02CFC01221102264807F04C
:1017600027FC0021234807F0F0FA0021224807F067
:10177000ECFA00211F4807F0BBFB00211E4807F0D0
:10178000B7FB0523062200211A4807F0BBFB0523FF
:1017900007220021184807F0B5FB01221146154821
:1017A00007F0B0FA01221146134807F0ABFA4FF4E4
:1017B000202201210F4807F02CFB4FF420220121A9
:1017C0000D4807F026FB012211460A4807F002FBEC
:1017D00001221146084807F0FDFA064807F0ECFA26
:1017E0000221044807F030FB01220021122008F0FA
:1017F00035F810BD002401400028014000B587B035
:101800004FF4A06008F064F90021184807F086FC46
:10181000684607F0F9FD1648009000208DF8180082
:101820001448029001208DF81900400201908000B8
:10183000039000208DF81A00182004904FF40050F7
:1018400005906A460021094807F0B4FC00210748CA
:1018500007F04BFC02220021044807F042FD02225F
:1018600000210B2007F0FAFF07B000BD0000024086
:101870004C2401401803002010B5022200210E481C
:1018800007F050FDB8B1022200210B4807F042FDDD
:1018900001200A4908700102094807F055FE28B1E5
:1018A0004FF48071064807F0EDFD04E04FF48071BD
:1018B000034807F0E9FD10BD000002408D00002044
:1018C000000C014010B540F2026008F001F940F24E
:1018D000026008F0FDF8402303220021044807F0CD
:1018E000D5FD802303220021014807F0CFFD10BD64
:1018F000000801402DE9F04F2DED028B81B0064626
:101900008946144618259FED4E0AB0EE408A9FED99
:101910004C0AF0EE408A06B12CB9012001B0BDECB2
:10192000028BBDE8F08F182C00DD182400214548FB
:1019300007F08BFD8046A5EB0800B0FBF5F105FB39
:10194000110A0AEB0500401EB0FBF5F105FB110B77
:10195000002760E00BEB0500C01BB0FBF5FC05FBAE
:101960001C000090DFF8E0C000985CF8203099B2CD
:101970004FF6FF7000EA1342B9F1000F06D0B9F13B
:10198000010F14D0B9F1020F41D11FE000EE101A7F
:10199000B8EE400A38EE000AB0EE408A00EE102A97
:1019A000B8EE400A38EE800AF0EE408A31E0084690
:1019B00000F094F830EE080AB0EE408A104600F0CD
:1019C0008DF830EE280AF0EE408A22E0084600F05A
:1019D00085F8F0EE401A00F00BF91C48D0ED000A33
:1019E00030EE600A30EE080AB0EE408A104600F091
:1019F00075F8F0EE401A00F0FBF81548D0ED000A3B
:101A000030EE600A30EE280AF0EE408A01E0012054
:101A100084E700BF7F1CA7429CD300EE104AB8EEBB
:101A2000400AC8EE000AC6ED000A00EE104AB8EE01
:101A3000400AC8EE800AC6ED010A00206EE70000E9
:101A40000000000000000240180300209000002069
:101A50009400002010B50221044807F00EFA18B1D6
:101A60000221024807F006FA10BD000000240140E0
:101A700070B5FFF727FFFFF7C1FEFFF755FE40F2F5
:101A8000FF75284665F31F400646002403E00E4814
:101A900040F82460641C182CF9D30C4807F091F925
:101AA0000B4807F08EF9012007F0B8FA074807F055
:101AB00014F9074807F011F90020064908700120C1
:101AC0000549087070BD0000180300200024014083
:101AD000002801408D0000208C00002000EE100A3C
:101AE000B8EE400ADFED040A60EE200A9FED031A0B
:101AF00080EE810A704700003333534000F07F4589
:101B00007CB504460D46164604B10DB901207CBDD6
:101B1000324602216846FFF7EDFE08B10120F6E7E4
:101B20009DED000A84ED000A9DED010A85ED000A95
:101B30000020ECE770B504460D46164632462946AD
:101B40002046FFF7DDFF08B9012070BD0020FCE74B
:101B500010B52148007800B910BD00211F4807F0DA
:101B600079FA182200211D4807F05CFC1C4A00216C
:101B70001A4807F02BFC1B4A0021184807F014FCF8
:101B800001220021154807F001FB01220021134822
:101B900007F0C0FB122112484C3807F052F912210D
:101BA000114807F04EF90E484C3807F005F90021AE
:101BB0000A4807F068FA0122114609484C3807F034
:101BC00009F901221146084807F004F900200749E5
:101BD000087000BFC0E700008C0000200000024039
:101BE0004C24014018030020002801408D000020F3
:101BF000F0EE400A9FED040A30EEC00A9FED031A92
:101C000020EE010A704700003333D33F7CF041419E
:101C1000024641EA0220704710B503F0B1F910BD49
:101C200000EE100AB8EE400ADFED020A20EE200AAC
:101C300070470000DB0FC93A10B5044621460E205C
:101C400000F01EF810BD10B504462046FFF7F4FF63
:101C500008B9012010BD0020FCE738B504460CB9D6
:101C6000002038BD6846FFF7EEFF08B90020F8E70E
:101C7000BDF80000FFF7D4FF84ED000A0120F0E773
:101C8000F8B504460D4602236A4621466C2003F04F
:101C90007DF906460EB13046F8BD9DF801109DF85D
:101CA0000000FFF7B5FFC0F30B0028800020F3E72A
:101CB00000BFFEE70020014908767047940200202B
:101CC00070B5AAB0044694F82A0028B9452002F05D
:101CD0005AFE02202AB070BD207857281DD194F8F2
:101CE000280020B9502002F04EFE0120F2E7D4ED8A
:101CF000090AB0EE600A607800F010FF20B95020A9
:101D000002F041FE0120E5E7D4ED090AB0EE600AD9
:101D1000607800F019FC0020DCE72078522811D10F
:101D20006078582803D100F005FE0020D2E76078E3
:101D300000F0E4FE20B9502002F025FE0120C9E7A2
:101D40000020C7E72078512824D100F0E5FA0546A5
:101D5000287900F00BF906466B89D5E903216869FB
:101D6000CDE90632CDE90810E878697E2A7ECDE912
:101D70000406CDE90221A8786978CDE900102B7816
:101D80001B4A80210AA8FEF75FFA0AA802F0F5FDB7
:101D900000209FE72078462825D1607843281DD170
:101DA00000F08AFDC0B100F0B7FA0546287900F0CE
:101DB000DDF80646D5E903206969CDE90062CDE981
:101DC00002012B780B4A80210AA8FEF73DFA0AA8E7
:101DD00002F0D3FD00207DE702207BE7502002F0D7
:101DE000D2FD012076E7492002F0CDFD022071E707
:101DF000A4B3000820B4000810B5A2B02248C188DE
:101E00007F2020EA01042048C08868B900201E49CC
:101E1000C87002200870062008711CA220A122A010
:101E200000F056FB22B010BD1748008938B934B90C
:101E300001201549C87008700020087105E00220D3
:101E40001149C87008700620087154B17F202346DC
:101E500016A28021009002A8FEF7F6F902A802F06F
:101E60008CFD094800890849C988CDE90010064859
:101E7000C37819A2802102A8FEF7E6F902A802F0B1
:101E80007CFD00BFCEE70000940200206E6F20634F
:101E90006865636B732065786563757465640000BD
:101EA000696E697400000000455252006469616700
:101EB0002E696E69742E6D697373696E673D307833
:101EC000253034582072657175697265643D3078CB
:101ED000253034580D0A0000646961672E696E6907
:101EE000742E726573756C743D2575206368656327
:101EF0006B733D307825303458206661696C733DD2
:101F00003078253034580D0A00000000014890ED6B
:101F10000A0A7047B0020020014890ED090A704794
:101F2000B0020020014890ED080A7047B00200207E
:101F3000014890ED010A7047B0020020014890F876
:101F400038007047B0020020014890ED070A704742
:101F5000B0020020014890ED060A7047B002002050
:101F6000014890ED050A7047B0020020014607299C
:101F700013D2DFE801F00406080A0C0E100008A0D6
:101F8000704709A0FCE70DA0FAE712A0F8E715A03A
:101F9000F6E718A0F4E71BA0F2E71DA0F0E70000A9
:101FA0004E4F4E450000000053454E534F525F4187
:101FB00044435F494E56414C4944000053454E53FB
:101FC0004F525F454E434F4445525F494E56414C38
:101FD00049440000554E444552564F4C54414745E4
:101FE0000000000050524F544F434F4C5F46524147
:101FF0004D450000504152414D5F494E56414C49BC
:1020000044000000494E49545F4641494C45440054
:10201000554E4B4E4F574E000148008A7047000006
:10202000B00200200148C08970470000B0020020C3
:102030000146A1F141001A283ED2DFE800F00D313F
:102040001D39333523151F2125132F271B293B3D10
:102050000F372B2D113D171918A070471CA0FCE756
:1020600022A0FAE729A0F8E730A0F6E738A0F4E7C5
:102070003DA0F2E743A0F0E748A0EEE74BA0ECE775
:102080004EA0EAE751A0E8E754A0E6E757A0E4E74E
:102090005AA0E2E75DA0E0E760A0DEE763A0DCE72E
:1020A0006CA0DAE774A0D8E77CA0D6E786A0D4E7D6
:1020B0008FA0D2E792A0D0E795A0CEE774617267B7
:1020C00065745F616E676C655F726164000000003B
:1020D000616E676C655F706F736974696F6E5F7353
:1020E000706565645F7261645F73000073656E7331
:1020F0006F725F73616D706C655F6F666673657438
:102100005F70657263656E740000000073656D61D9
:102110006E7469635F7265706F72745F6672657109
:1021200075656E63795F687A000000006F7363699C
:102130006C6C6F73636F70655F7265706F72745FE4
:102140006672657175656E63795F687A000000007C
:1021500073656D616E7469635F7265706F72745FD1
:10216000656E61626C6564006F7363696C6C6F733C
:10217000636F70655F7265706F72745F656E6162C8
:102180006C6564006F7363696C6C6F73636F70650B
:102190005F706172616D5F6D61736B007069645F28
:1021A00063757272656E745F6B7000007069645F56
:1021B00063757272656E745F6B6900007069645F4D
:1021C00063757272656E745F6B6400007069645F42
:1021D000616E676C655F6B70000000007069645F22
:1021E000616E676C655F6B69000000007069645F19
:1021F000616E676C655F6B64000000007069645F0E
:1022000073706565645F6B70000000007069645FE7
:1022100073706565645F6B69000000007069645FDE
:1022200073706565645F6B6400000000636F6E74BB
:10223000726F6C5F6D696E5F6D6563685F616E671D
:102240006C655F616363756D5F64656C74615F721B
:1022500061640000636F6E74726F6C5F616E676CB7
:10226000655F686F6C645F696E74656772616C5FEF
:102270006C696D6974000000636F6E74726F6C5FDF
:10228000616E676C655F686F6C645F7069645F64E2
:1022900065616462616E645F72616400636F6E7435
:1022A000726F6C5F73706565645F616E676C655FAC
:1022B0007472616E736974696F6E5F737461727446
:1022C0005F72616400000000636F6E74726F6C5F18
:1022D00073706565645F616E676C655F7472616E73
:1022E000736974696F6E5F656E645F72616400002C
:1022F000636F6E74726F6C5F6D6F646500000000D9
:102300006D6F746F725F656E61626C6500000000D6
:10231000756E6B6E6F776E000048704794020020F8
:102320000148808970470000B0020020014890ED0C
:10233000020A7047B0020020014890ED0D0A704774
:10234000B0020020014890ED0C0A7047B002002056
:10235000014890ED0B0A7047B0020020014890ED53
:10236000000A7047B002002010B503F0C1FB002046
:102370002B4908704870012088700020C8700871CF
:10238000C88008814881C86008614861087648763D
:102390009FED240A244880ED000AB2EE000A80ED89
:1023A000010A9FED220A80ED020A02201E4988815F
:1023B0003220C8811820088200208874C8749FEDDC
:1023C0001C0A084680ED050A9FED190A80ED060AF1
:1023D0009FED170A80ED070AB0EE000A80ED080AAB
:1023E0009FED140A80ED090A9FED130A80ED0A0A99
:1023F000B7EE080A80ED0B0A9FED0E0A80ED0C0A7D
:102400009FED0D0A80ED0D0A002081F838000120B3
:1024100081F8390001F058FE00F0CCFA10BD000040
:1024200094020020C3F54840B00200200000C042E2
:1024300000000000CDCC4C3F0AD7233C0146512977
:1024400006D0592902D05A2904D100E000BF00BFAC
:10245000012070470020FCE7B4EEE00AF1EE10FA2C
:1024600004D3B4EEC10AF1EE10FA01DD002070478A
:102470000120FCE701464F2912D006DC442910D088
:1024800048290AD04C290FD106E051290AD05929F0
:1024900004D05A2908D102E000BF00BF00BF00BF2E
:1024A00000BF00BF012070470020FCE7014890F802
:1024B00039007047B00200200148C07C704700001E
:1024C000B00200200148807C70470000B00200206C
:1024D00070B5A2B004460D4616460EB1304600E077
:1024E0000AA00DB1294600E00AA1CDE900100CB107
:1024F000204600E009A003460AA2802102A8FDF7B9
:10250000A3FE02A802F039FA22B070BD6E6F6E65AC
:102510000000000067656E6572616C00494E464FB1
:1025200000000000646961672E6C6576656C3D256E
:1025300073206D6F64756C653D25732064657461EF
:10254000696C3D25730D0A0030B52DED048BA3B0E9
:102550000446B0EE408A2046FFF770FFC8B120461F
:10256000FFF766FD0546B5EEC08AF1EE10FA01D020
:1025700021A000E022A02B4623A28021009003A8E6
:10258000FDF762FE03A802F0F8F923B0BDEC048B5E
:1025900030BD2046FFF76EFFB8B12046FFF748FD7B
:1025A0000546B5EEC08AF1EE10FA01D2002004E033
:1025B000BCEEC80A10EE100A80B22B4617A280218A
:1025C000009003A8FDF740FE11E018EE100A08F095
:1025D00099FC41EC190B2046FFF72AFD05468DEDCD
:1025E000009B2B4612A2802103A8FDF72DFE03A815
:1025F00002F0C3F900BFC8E7454E41424C45000018
:1026000044495341424C4500706172616D65746587
:10261000722E25733D25730D0A00000070617261F2
:102620006D657465722E25733D25750D0A000000D9
:10263000706172616D657465722E25733D252E3350
:10264000660D0A0070B503F04FFA054615B195F80E
:10265000290000B970BD0120244948702846FFF7C1
:102660002FFB04460CB9012000E000201F494876EA
:10267000CCB102204870012C08D100BF0846006987
:10268000401C086100BF0520087108E000BF174822
:10269000C068401C1549C86000BF0420087114A020
:1026A00002F06BF902E00120104948701A48807C62
:1026B00030B11948C07C18B103200C49887010E073
:1026C0001548807C18B101200849887009E012483B
:1026D000C07C18B102200549887002E0002003493F
:1026E000887003F0C9F900BFB4E70000940200202D
:1026F0004552522066616C6C6261636B3A206B6577
:1027000065702070726576696F7573207061726193
:102710006D730D0A00000000B002002070B5054680
:102720000C460CB9002070BDA5F141001A2871D2E9
:10273000DFE800F00D8A4CA691985E285258641F7D
:10274000836A4371B0BA139F777D19BA313A5948F9
:1027500090ED000A84ED000AA8E0564890ED010AC9
:1027600084ED000AA2E0534890ED020A84ED000ACD
:102770009CE05048808900EE100AB8EE400A84EDD3
:10278000000A93E04B48C08900EE100AB8EE400AF8
:1027900084ED000A8AE04748807C00EE100AB8EE1B
:1027A000400A84ED000A81E04248C07C00EE100A35
:1027B000B8EE400A84ED000A78E03E48008A00EE58
:1027C000100AB8EE400A84ED000A6FE0394890ED37
:1027D000050A84ED000A69E0364890ED060A84EDAA
:1027E000000A63E0334890ED070A84ED000A5DE0DB
:1027F000304890ED080A84ED000A57E02D4890ED2E
:10280000090A84ED000A51E02A4890ED0A0A84ED95
:10281000000A4BE048E0274890ED0B0A84ED000ADF
:1028200044E0244890ED0C0A84ED000A3EE0214883
:1028300090ED0D0A84ED000A38E001F067FC90EDA0
:10284000000A84ED000A31E001F060FC90ED010A1D
:1028500084ED000A2AE001F059FC90ED020A84EDB3
:10286000000A23E001F052FC90ED030A84ED000A17
:102870001CE001F04BFC90ED040A84ED000A15E029
:102880000C4890F8380000EE100AB8EE400A84EDCB
:10289000000A0BE0074890F8390000EE100AB8EE85
:1028A000400A84ED000A01E000203CE700BF01205F
:1028B00039E70000B002002010B5A2B00020104996
:1028C0004881C8600861486108714870012008703B
:1028D0000876487601F0F8FB09490879FFF746FBCE
:1028E000044600900648037806A2802102A8FDF75E
:1028F000ABFC02A802F041F8012022B010BD00009C
:1029000094020020646961672E7265696E69743D86
:10291000534F46545F444941475F52455345542005
:1029200073746174653D2575206661756C743D2511
:10293000730D0A0010B588B018220CA101A8FDF78C
:102940007FFE00240DE001A9085D07A9FFF7E6FE60
:1029500028B101A9085D9DED070AFFF7F5FD601C90
:1029600084B2182CEFDB08B010BD00004153574C67
:1029700048595A4F43494A474B4E5055564D424588
:102980004654445100BF03484069401C0149486116
:1029900000BF704794020020054AD2880243044BCE
:1029A000DA8019B91A46128902431A817047000069
:1029B0009402002010B505A001F0DFFF0BA001F08C
:1029C000DCFF13A001F0D9FF10BD0000646961674E
:1029D0002E636F6D6D616E645F6D616E61676572B0
:1029E0003D52454144590D0A000000006469616789
:1029F0002E70726F746F636F6C5F657865633D4EA8
:102A00004F545F45584543555445440D0A00000056
:102A1000646961672E66616C6C6261636B3D4B45F6
:102A200045505F4C4153545F56414C49440D0A0098
:102A300000BF0448C068401C0249C86000BF0420B1
:102A4000087170479402002030B5A1B004460D46CD
:102A50005CB155B100201B49488108460078022826
:102A600001D00020087121B030BD00BF1548406979
:102A7000401C1449486100BF08464089401C4881F9
:102A800014B90120087102E002200E4908710D48B6
:102A90004089142813D30B48007802280FD0022055
:102AA000084908700846438907A2802101A8FDF75C
:102AB000CBFB01AA0EA110A0FFF70AFD00BF00BFCB
:102AC000D1E700009402002073656E736F72206975
:102AD0006E76616C6964207468726573686F6C648B
:102AE00020726561636865643A2025750000000006
:102AF00073656E736F7200004552520038B504461C
:102B000069462046FFF70AFE08B9002038BD9DED52
:102B1000000A2046FFF718FD0120F7E710B52DED5C
:102B2000028B0446B0EE408AA4F141001A2872D20A
:102B3000DFE800F00DF596F4F3F2C353A5B4D23CF0
:102B4000F1E181FAEF711EEEEDEC2D716A769FEDE9
:102B5000C71ADFEDC70AB0EE480AFFF77DFC18B9C7
:102B60000020BDEC028B10BDC24880ED008A77E1E9
:102B70009FEDC11ADFEDC10AB0EE480AFFF76CFC09
:102B800008B90020EDE7BB4880ED018A68E19FEDC0
:102B9000BC1ADFEDBA0AB0EE480AFFF75DFC08B9CF
:102BA0000020DEE7B34880ED028A59E1B7EE000A63
:102BB000B4EEC08AF1EE10FA06D39FEDAF0AB4EE80
:102BC000C08AF1EE10FA01DD0020CAE7BCEEC80AA7
:102BD00010EE100AA749888142E1B7EE000AB4EE70
:102BE000C08AF1EE10FA06D39FEDA30AB4EEC08AB4
:102BF000F1EE10FA01DD0020B3E7BCEEC80A10EEDA
:102C0000100A9C49C8812BE1B5EEC08AF1EE10FA9A
:102C100002D0012001E021E10020964988741FE1E3
:102C2000B5EEC08AF1EE10FA01D0012000E00020DC
:102C30009049C87414E1B5EEC08AF1EE10FA06D3DB
:102C40009FED900AB4EEC08AF1EE10FA01DD00208B
:102C500087E7BCEEC80A10EE100A86490882FFE03A
:102C60009FED891ADFED850AB0EE480AFFF7F4FB05
:102C700008B9002075E77F4880ED058AF0E09FEDF8
:102C8000821ADFED7E0AB0EE480AFFF7E5FB08B9CD
:102C9000002066E7774880ED068AE1E0B2EE041A8C
:102CA000DFED760AB0EE480AFFF7D6FB08B9002040
:102CB00057E7704880ED078AD2E09FED731ADFED89
:102CC0006F0AB0EE480AFFF7C7FB08B9002048E7D3
:102CD000684880ED088AC3E09FED6B1ADFED670A54
:102CE000B0EE480AFFF7B8FB08B9002039E76148A1
:102CF00080ED098AB4E0B2EE041ADFED600AB0EEAE
:102D0000480AFFF7A9FB58B900202AE72AE01AE091
:102D100067E097E008E034E057E04AE06DE03CE02F
:102D2000544880ED0A8A9BE09FED571ADFED530A65
:102D3000B0EE480AFFF790FB08B9002011E74D48B4
:102D400080ED0B8A8CE09FED501ADFED4C0AB0EE5F
:102D5000480AFFF781FB08B9002002E7454880EDEB
:102D60000C8A7DE0B2EE041ADFED440AB0EE480AA8
:102D7000FFF772FB08B90020F3E63E4880ED0D8AAC
:102D80006EE0B5EEC08AF1EE10FA01D20020E8E65E
:102D9000B0EE480A01F046FA62E0B5EEC08AF1EE04
:102DA00010FA01D20020DCE6B0EE480A01F016FA73
:102DB00056E0B5EEC08AF1EE10FA01D20020D0E65E
:102DC000B0EE480A01F01CFA4AE0B5EEC08AF1EE16
:102DD00010FA01D20020C4E6B0EE480A01F046FA2B
:102DE0003EE0B5EEC08AF1EE10FA01D20020B8E65E
:102DF000B0EE480A01F028FA32E0B5EEC08AF1EEF2
:102E000010FA06D3B7EE000AB4EEC08AF1EE10FA5B
:102E100001DD0020A5E6BCEEC80A10EE100AC0B223
:102E2000012807D0BCEEC80A10EE100AC0B208B1E3
:102E3000002096E6BCEEC80A10EE100A0D4981F893
:102E400038000DE0B5EEC08AF1EE10FA01D0012095
:102E500000E00020074981F8390001E0002080E609
:102E600000BF01200949087600BF7AE6560E4941A5
:102E7000560E49C1B0020020000048430000000087
:102E80000000C84200FF7F47000048429402002033
:102E9000002005E00021044A42F82010411CC8B27D
:102EA0000428F7DB70470000B800002010B501F0DF
:102EB000BBFC10BD01480068704700000400002002
:102EC00000B500200349088003490860FFF7E0FFD0
:102ED00000BD0000000000200400002010B52748BD
:102EE000007820B9FFF7E2FF01202449087001F0C3
:102EF000E3FC044622480088401C2149088008461B
:102F00000088002028B91F48006810B11D490868D2
:102F100080471B4800880A21B0FBF1F201FB120038
:102F200028B91848406810B11649486880471448C5
:102F300000880521B0FBF1F201FB120028B911480D
:102F4000806810B10F49886880470D480088B0F547
:102F50007A7F05D10B48C06810B10A49C86880471C
:102F600007480088B0F57A7F02D300200449088022
:102F700001F0A2FC001B0449086010BD08000020FD
:102F800000000020B800002004000020042802DA1D
:102F9000014A42F820107047B800002010B5FEF733
:102FA0006BFC10BD70470000F0B52DED048B83B0B5
:102FB00007460D461446B0EE408A1FB114B1208872
:102FC000A84203DB03B0BDEC048BF0BD2088281AB7
:102FD0000C2800D2F6E718EE100A07F093FF41EC38
:102FE000190B8DED009B2288A91AD01909A2FDF7B3
:102FF0002BF90646002E00DAE4E7B0B22188691A00
:10300000884202DB681E2080DCE720883044208074
:1030100000BFD7E720252E33660000000246114688
:1030200001B90121C82900D9C821C82303EB5103E4
:10303000B3FBF1F398B200B90120704700200749B3
:10304000088007490880074908800749088001204F
:103050000649088006490880704700006400002087
:1030600066000020680000206A0000206C0000203C
:103070006E000020024602B109B90020704792F8A4
:10308000800010B192F8810008B90020F6E7012015
:10309000F4E70000F0B52DED028B95B005460F4624
:1030A00000200090FEF7B8FF0646FFF703FF08EE8A
:1030B000100A05B11FB915B0BDEC028BF0BDBDF80B
:1030C0000020C2F1500101AABDF80030D0186123E0
:1030D00040A2FDF7B9F80446002C06DBA0B2BDF80B
:1030E0000010C1F15001884200D3E4E7BDF80000B0
:1030F000204480B2009006F0010040B1D5ED070AEF
:10310000B0EE600A6A46502101A8FFF74DFF06F0B5
:10311000020040B1D5ED0F0AB0EE600A6A465021B8
:1031200001A8FFF741FF06F0040040B1D5ED170AF2
:10313000B0EE600A6A46502101A8FFF735FF06F09D
:10314000080040B1D5ED1F0AB0EE600A6A46502172
:1031500001A8FFF729FF06F0100040B1D7ED0B0AD8
:10316000B0EE600A6A46502101A8FFF71DFF06F085
:10317000200070B1B8EE480ADFED170A80EE201A81
:10318000F0EE418AB0EE680A6A46502101A8FFF7C6
:103190000BFFBDF80000801D502819D2BDF800209B
:1031A000C2F1500101AABDF80030D01862230BA271
:1031B000FDF74AF80446002C06DBA0B2BDF800106B
:1031C000C1F15001884200D375E701A801F0D5FB99
:1031D00000BF70E7256300000000F0422025632057
:1031E0000000000070B52DED028B9AB0044634B992
:1031F00049A001F0C2FB1AB0BDEC028B70BD94F87F
:103200008000002839D094ED070A10EE101A084605
:1032100007F078FE41EC180B8DED008B45A2602184
:1032200002A8FDF711F802A801F0A7FB94ED0F0A20
:1032300010EE101A084607F065FE41EC180B8DEDF4
:10324000008B47A2602102A8FCF7FEFF02A801F054
:1032500094FB94ED170A10EE101A084607F052FE80
:1032600041EC180B8DED008B48A2602102A8FCF701
:10327000EBFF02A801F081FB02E04FA001F07DFB13
:1032800094F88100002826D094ED180A10EE101A48
:10329000084607F037FE41EC180B8DED008B50A26D
:1032A000602102A8FCF7D0FF02A801F066FB94EDB4
:1032B0001F0A10EE101A084607F024FE41EC180B06
:1032C0008DED008B51A2602102A8FCF7BDFF02A882
:1032D00001F053FB02E059A001F04FFBFFF7EAFDBC
:1032E000054600EE105AB8EE400ADFED5E0A80EEA9
:1032F000201A11EE106A304607F004FE41EC180B5C
:103300008DED008B58A2602102A8FCF79DFF02A85A
:1033100001F033FB00BF6EE7666565646261636B55
:103320002E7374617475733D696E76616C69640D9A
:103330000A0000006D6561737572656D656E742EAF
:1033400070686173655F63757272656E745F615FEB
:10335000616D706572653D252E33660D0A000000B3
:103360006D6561737572656D656E742E70686173DD
:10337000655F63757272656E745F625F616D7065C3
:1033800072653D252E33660D0A0000006D65617380
:103390007572656D656E742E70686173655F6375B7
:1033A0007272656E745F635F616D706572653D25F5
:1033B0002E33660D0A0000006D6561737572656DD0
:1033C000656E742E63757272656E742E737461749B
:1033D00075733D696E76616C69640D0A00000000CA
:1033E0006D6561737572656D656E742E656E636F64
:1033F0006465725F616E676C655F7261775F726151
:10340000643D252E33660D0A000000006D65617372
:103410007572656D656E742E656E636F6465725F3F
:10342000616E676C655F66696C74657265645F7216
:1034300061643D252E33660D0A0000006D656173E1
:103440007572656D656E742E656E636F6465722E40
:103450007374617475733D696E76616C69640D0A8D
:10346000000000000000F042636F6E74726F6C2EFB
:10347000657865637574696F6E5F74696D655F7596
:10348000733D252E33660D0A0D0A00002DE9F0412B
:1034900006460F46FEF740FF054625B1287802286C
:1034A00001D1BDE8F081FFF70DF8F8B1FEF738FF64
:1034B000044624480088844206D0224804802046DE
:1034C000FFF7ACFD2049088020480088401C1F49B8
:1034D0000880084600881C490988884205DB0020CE
:1034E0001A4908803046FFF77DFE00BFFEF7E4FF73
:1034F00028B339463046FFF7BDFDF8B1FEF792FD1F
:10350000044613480088844206D0114804802046AF
:10351000FFF784FD0F4908800F480088401C0E49C2
:103520000880084600880B490988884206DB00208D
:103530000949088039463046FFF7ACFD00BF00BF9F
:10354000AFE70000680000206C000020640000204D
:103550006A0000206E0000206600002010B52DEDEE
:10356000088B0446F0EE409AB0EE60AAF0EE418A75
:1035700024B99FED580ABDEC088B10BDF5EEC08A4A
:10358000F1EE10FA03D89FED540AF0EE408A39EEBE
:10359000CA8AB0EEC80A5148D0ED020AB4EEE00A79
:1035A000F1EE10FA0AD89FED4B0A84ED030A9FED65
:1035B000490A84ED040A9FED470ADCE794ED030A0B
:1035C00008EE280A84ED030A4448D0ED011AB0EE53
:1035D000611AD0ED011AF1EE611AF0EE610AD4ED34
:1035E000031AB0EE610A01F033FF84ED030A94ED93
:1035F000040A38EE400A80EE289A94ED010AD4EDD0
:10360000030A20EE200AD4ED000A00EE880AD4ED69
:10361000020A00EE890AF0EE40AA94ED060AB0EE26
:10362000401A94ED050AF0EE400AB0EE6A0A01F085
:103630000FFFF0EE40AA94ED010ADFED290AB4EE87
:10364000E00AF1EE10FA3FDD94ED050AD4ED000A30
:1036500000EEC80AD4ED020A00EEC90AD4ED010A50
:1036600080EE201AB0EE41BA94ED060AD4ED000ABD
:1036700000EEC80AD4ED020A00EEC90AD4ED010A30
:1036800080EE201AF0EE41BAD4ED030AB0EE600AE3
:10369000B0EE6B1AF0EE4B0A01F0DAFE84ED030A8D
:1036A0000E48D0ED011AB0EE611AD0ED011AF1EE1C
:1036B000611AF0EE610AD4ED031AB0EE610A01F06E
:1036C000C7FE84ED030A00BF84ED048AB0EE6A0AE7
:1036D00051E70000000000006F12833A2000002034
:1036E000BD37863510B5FEF73BFC2B4880ED000A50
:1036F000FEF730FC284880ED010AFEF725FC26483D
:1037000080ED020AFEF70EFC244880ED000AFEF769
:1037100003FC224880ED010AFEF7F8FB1F4880ED0C
:10372000020AFEF715FE1E4880ED000AFEF70AFEAB
:103730001B4880ED010AFEF7FFFD194880ED020AE3
:10374000184890ED080AB1EE400A134880ED050ACA
:10375000144890ED080A104880ED060A114890EDD3
:10376000080AB1EE400A0D4880ED050A0D4890EDBB
:10377000080A0A4880ED060A0A4890ED080AB1EEE8
:10378000400A074880ED050A064890ED080A0448FB
:1037900080ED060A10BD0000AC010020C801002029
:1037A000E4010020C800002000B52DED048BA5B079
:1037B00001F097F801F05CF80121084601F0BAF831
:1037C0000121022001F0B6F80121032001F0B2F836
:1037D000182001F03DF801F01FF8FFF771FB844855
:1037E00001F09CF883490120FFF7D0FB82490020BB
:1037F000FFF7CCFB81490220FFF7C8FB00F0E2FF96
:10380000FEF7B2FD01210420FFF7C6F801210846AA
:10381000FFF7C2F87AA001F0B0F881A001F0ADF88E
:1038200088A001F0AAF897A001F0A7F8A4A001F0E1
:10383000A4F8B2A001F0A1F8B9A001F09EF8C1A0CF
:1038400001F09BF8C8A001F098F801210220FFF7D1
:10385000A3F8FFF7F3FB01210820FFF79DF89FED88
:10386000CA0A182002F050FF03F00CF8C74802F013
:103870003DFF78B1C54890F8800028B1C34890F862
:10388000810008B1012000E0002001461020FFF770
:1038900083F803E000211020FFF77EF802211820B2
:1038A00002F018FC01212020FFF776F8B84801F05B
:1038B0003BF801F057F84FF0FF32DFEDB61A072161
:1038C0009FEDB51ADFEDB50AB2EE080AB44800F074
:1038D00027FE01214020FFF75FF8FEF735FBB0EE31
:1038E000408AFEF737FBF0EE408AFEF739FBB0EE78
:1038F000409AAB4890ED080AB0EE402A90ED080AD5
:10390000B1EE400AF0EE401AB0EE481AF0EE680A46
:10391000B0EE490AA34800F0B7FEFEF7F7FAB0EEA2
:10392000408AFEF7F9FAF0EE408AFEF7FBFAB0EEB5
:10393000409A9B4890ED080AB0EE402A90ED080AA4
:10394000B1EE400AF0EE401AB0EE481AF0EE680A06
:10395000B0EE490A944800F097FEFEF7EDFCB0EE99
:10396000408AFEF7EFFCF0EE408AFEF7F1FCB0EE85
:10397000409A8B4890ED080AB0EE402A90ED080A74
:10398000B1EE400AF0EE401AB0EE481AF0EE680AC6
:10399000B0EE490A854800F077FE814890ED020AB2
:1039A00010EE101A084607F0ADFA41EC180B7C48EF
:1039B00000797B4991F90C10CDE902108DED008B57
:1039C0007BA2802105A8FCF73FFC05A800F0D5FFED
:1039D000FEF712FAFEF7B2FA854908700120854910
:1039E000087000F0CFF925B0BDEC048B00BD0000DD
:1039F000DD2E00085D6A0008FD550008F15500083D
:103A00000D0A3D3D3D20464F432053797374656D4B
:103A10002053746172746564203D3D3D0D0A0000C1
:103A20005553415254312074656C656D65747279DB
:103A3000206368616E6E656C20656E61626C6564A2
:103A40000D0A0000486967682D72617465206D6F0A
:103A500064756C6174696F6E20636C6F636B206159
:103A6000637469766520617420636F6E666967753B
:103A70007265642050574D206672657175656E637E
:103A8000790D0A0050574D20627269646765207293
:103A9000756E6E696E6720696E2063656E746572FF
:103AA0002D616C69676E656420636F6D706C656D08
:103AB000656E74617279206D6F64650D0A00000097
:103AC000436F6E74726F6C207363686564756C65A8
:103AD000722072756E6E696E6720617420316B485A
:103AE0007A207769746820686561727462656174B0
:103AF0002063616C6C6261636B0D0A004D61676EDF
:103B00006574696320656E636F64657220666565C0
:103B1000646261636B20656E61626C65640D0A00AE
:103B200043757272656E742073616D706C696E6737
:103B300020706970656C696E6520656E61626C6588
:103B4000640D0A00436F6E74726F6C206465627559
:103B5000672074656C656D6574727920656E61624D
:103B60006C65640D0A000000496E69742066656525
:103B7000646261636B20706970656C696E652E2E7E
:103B80002E0D0A0D0A0000000000C042280100208E
:103B9000196100084A0C4A40333353416666364186
:103BA000C8000020AC010020C8010020E401002072
:103BB0006D656368207A65726F20617420656C653D
:103BC00063303A20252E3466207261642C206469AB
:103BD00072656374696F6E3A202564202C706F6C77
:103BE000652070616972733A2025640D0A00000037
:103BF000120000200D00002010B52DED028B0648AC
:103C000090ED040AB0EE408AB0EE480A00F0AEFE35
:103C10000020BDEC028B10BDC800002010B501F0E3
:103C200095FF08B100F01CF80948007820B1002089
:103C30000749087000F0A6F80648007830B1002067
:103C40000449087004490548FFF720FC10BD000036
:103C50000A0000200B000020C800002028010020DE
:103C600010B5002411E002F079F801F037FF0228C6
:103C700001D1FEF7DDFEFEF7E5FCFEF74DFB407ED1
:103C800008B100F079F8601CC4B201F05FFF08B120
:103C9000002CE8D010BD000030B52DED028B83B0B4
:103CA0000546FEF74BF904462A480078844226D0A0
:103CB00034B9D5ED1F0AB0EE600A274800F07EFA4D
:103CC0009FED260A264880ED030A9FED240A80ED29
:103CD000040A9FED220A234880ED030A9FED1F0A84
:103CE00080ED040A9FED1D0A1F4880ED030A9FED39
:103CF0001B0A80ED040A00F06CFA16480470012CCF
:103D00000ED1FEF715F9B0EE408A0120DFED170A5B
:103D10002B46134A144900900F4800F099FF15E014
:103D2000A4B9FEF705F9B0EE408AFEF717FBF0EEF6
:103D3000408A01209FED0D1AF0EE480A084B094A0F
:103D40000949CDE90050044800F0B2FE03B0BDECD3
:103D5000028B30BD12000020C800002000000000CF
:103D6000AC010020C8010020E40100206F12833A5A
:103D700010B500F0F3FD10BD0A200149088070471E
:103D80001000002070B500250026FEF7C5FA044695
:103D90002948007838B901250120284908700020F9
:103DA000274908802DE054B12078022807D100254A
:103DB00001260020214908702149088021E0D4B162
:103DC0002078012817D11E48008863280BD30020D3
:103DD0001B4908801948007808B9012000E000203C
:103DE0001649087004E016480088401C14490880F1
:103DF0001248057805E00025002010490870104998
:103E000008802946012000F095FD3146032000F08E
:103E100091FD0C48008848B10121022000F08AFD84
:103E200008480088401E0749088003E0002102205E
:103E300000F080FD70BD00000D0000200C0000208F
:103E40000E0000201000002070470000F0B52DED9E
:103E5000048B83B004461CB903B0BDEC048BF0BDE9
:103E600094ED020AFFEE000AB4EE600AF1EE10FAD9
:103E700001D1012000E000200746207B08B9012085
:103E800000E000200546207908B9012000E000206C
:103E9000064617B90DB906B9DEE7D4ED068A94EDEA
:103EA000079A94ED080ADFED340A20EE208AB6EE78
:103EB000000AB4EEC08AF1EE10FA03D2B6EE000AA0
:103EC000B0EE408AB0EE040AB4EEC08AF1EE10FA09
:103ED00003DDB0EE040AB0EE408A9FED280A84EDBF
:103EE000070A84ED068A01AA02A9204600F050FACA
:103EF00040B115B19DF9080020734EB19DF8040042
:103F0000207105E00DB1012020730EB10120207158
:103F10003FB36B4618223C219FED180A204600F063
:103F20005DFD78B19DED000A84ED020A9DED000A69
:103F300084ED0B0A9DED000A84ED0C0A012084F843
:103F400034000EE09FED0D0A84ED020A9FED0B0A8E
:103F500084ED0B0A9FED090A84ED0C0A012084F818
:103F60003400C4ED068A84ED079A9FED040A2046CA
:103F700000F012F800BF6FE7CDCC4C3E000000000F
:103F80000146012901DA01207047202901DD2020A6
:103F9000FAE7C8B2F8E7000010B52DED068B04462D
:103FA000B0EE409AB0EE490A01F0DEFAB0EE409A67
:103FB00084ED059AD4ED040AB0EE601AD4ED080A37
:103FC000B0EE600ADFED3E0A01F042FAF0EE408A00
:103FD000D4ED060A60EEA00A94ED071AD4ED071A94
:103FE00041EE210AB0EE600A04F067F9B0EE408AB3
:103FF00094ED060AB0EE40AA94ED070AF0EE40AA4E
:10400000B4EEE88AF1EE10FA15DD9FED2E0AB4EE5B
:10401000C08AF1EE10FA0EDDC8EE880AB0EE600A32
:104020006AEE000AB0EE60AA6AEE800AF0EE60AABC
:10403000B0EE688A00BF04F14001081FB0EE491AD3
:10404000F0EE6A0AB0EE4A0A01F040FA94ED101A56
:10405000F0EE410A94ED0F1AB0EE410A04F14C0261
:10406000111F081F01F018FA04F14C02111F081F5C
:10407000FFF7EAFEB0EE681ADFED110AB0EE480A6B
:1040800001F0E6F9F0EE409AD4ED041AB0EE612AA0
:10409000D4ED131AB0EE611AD4ED121AF0EE610AE3
:1040A000D4ED111AB0EE610A04F158031A1F111F62
:1040B000181DF0EE691A02F0D3F8BDEC068B10BDA6
:1040C00000000000BD3786359FED0A0A0A4880EDE2
:1040D000000A9FED0A0A80ED010A9FED090A80EDB2
:1040E000020A9FED080A80ED030A9FED070A80EDA2
:1040F000040A70476F12833A20000020CDCC4C3E5A
:104100000AD7A33BCDCCCC3E9A99193F00487047C3
:104110002000002010B52DED048B0446B0EE409A2F
:1041200024B99FED240ABDEC048B10BD207940B169
:1041300094ED020AFFEE000AB4EE600AF1EE10FA06
:1041400002D194ED050AEEE7207900EE100AB8EEF0
:10415000400ADFED190AC0EE808AD4ED020A79EE3A
:10416000600AB0EE600A01F01DFAF0EE409AF0EE3F
:10417000680A03F0E1FEB0EE408AB5EEC08AF1EEC7
:1041800010FA03D238EE280AB0EE408A94F90C00F7
:1041900000EE900AF8EEE00A20EE881A207900EE90
:1041A000900AF8EE600A61EE200AB0EE600A01F0B3
:1041B000DBF9B8E700000000DA0FC94000B970472A
:1041C00080ED0B0A80ED0C0A012180F8341000BF4D
:1041D000F5E710B500F0ECFB10BD0000B5EEC00A2D
:1041E000F1EE10FA02D2DFED040A01E0F0EE400A2F
:1041F0000248C0ED010A70470000000020000020C6
:10420000B5EEC00AF1EE10FA02D2DFED040A01E0C9
:10421000F0EE400A0248C0ED020A704700000000BC
:1042200020000020B5EEC00AF1EE10FA02D2DFED58
:10423000040A01E0F0EE400A0248C0ED000A7047AF
:104240000000000020000020B5EEC00AF1EE10FAD8
:1042500002D2DFED040A01E0F0EE400A0248C0EDB0
:10426000040A70470000000020000020B5EEC00ADC
:10427000F1EE10FA02D2DFED040A01E0F0EE400A9E
:104280000248C0ED030A7047000000002000002033
:1042900010B52DED048B0446B0EE408AF0EE608A36
:1042A000B0EE419AB0EE491AF0EE680AB0EE480A54
:1042B000204600F001FABDEC048B10BD70B52DED69
:1042C000068B84B004460E461546B0EE408AF0EEEA
:1042D000608AF0EE41AA04B11DB904B0BDEC068BB2
:1042E00070BD06B9F9E7D5ED171AB0EE611AD5ED34
:1042F0000F1AF0EE610AD5ED071AB0EE610A02A9B5
:1043000003A801F0BBF8694601A8B0EE681ADDED1C
:10431000020A9DED030A01F0FFF8D4ED040AB0EEA5
:10432000601AD4ED080AB0EE600ADFED180A01F059
:104330008FF8B0EE409A94ED000A60EE089AB0EE65
:104340006A1ADDED000AB0EE480A3046FFF7A0FF1A
:1043500030EE29AAB0EE680A01F006F984ED050AEC
:104360009FED0A0A84ED060AB0EE491AF1EE490AF9
:10437000B0EE4A0A01F06CF884ED070A84ED098A70
:104380009DED000A84ED0A0A00BFA6E700000000C8
:104390002DE9F0432DED088B81B007460D461646FA
:1043A0009FED5B0AB0EE40AA9FED590AF0EE40AADD
:1043B0009FED570AB0EE408A9FED550AB0EE409A45
:1043C0004FF000080FB105B12EB9002001B0BDECCF
:1043D000088BBDE8F083002447E000EE104AB8EEF9
:1043E000400ADFED4C0A20EE200AF0EE408A6B46D0
:1043F00006220821B0EE680A384600F0EFFA00B94C
:1044000031E0B8F1000F08D19DED000AB0EE40AAEE
:10441000F0EE68AA4FF0010825E0DDED000A70EE2D
:10442000CA0AB0EE600A01F0BDF8F0EE409A38EE2C
:10443000EA0AB0EE40BAB0EEE90ADFED370AB4EEB0
:10444000E00AF1EE10FA07DB38EE290AB0EE408AF6
:1044500039EE0B0AB0EE409A9DED000AB0EE40AA8C
:10446000F0EE68AA00BF601C84B2142CB5D9B0EE7F
:10447000C80ADFED290AB4EEE00AF1EE10FA08D31B
:10448000B0EEC90ADFED250AB4EEE00AF1EE10FA4B
:1044900001D200209AE7B5EEC08AF1EE10FA01DBF6
:1044A000012001E04FF0FF30287089EE080AB0EEDD
:1044B000C00AF6EE000A30EE200ABDEEC00A10EE89
:1044C000109A4846FFF75CFD30709FED110A3846A0
:1044D000FFF762FD082000F04AFA142413E000EE12
:1044E000104AB8EE400ADFED0B0A20EE200AF0EE8B
:1044F000408A6B4606220821B0EE680A384600F072
:104500006DFA601E84B2002CE9DC01205EE7000039
:10451000000000007BD9A03EA69BC43ABD3786357B
:1045200070B52DED048B0446F0EE408AB0EE609A33
:10453000F0EE419A0D46B0EE618A164614B9BDEC14
:10454000048B70BD9FED2B0A84ED050A9FED290AAF
:1045500084ED060AB7EE000A84ED070A84ED089A96
:10456000C4ED048A9FED230A84ED090A9FED210A18
:1045700084ED0A0A9FED1F0A84ED0B0A9FED1D0AC8
:1045800084ED0C0A002084F83400C4ED009A2571F3
:1045900084ED028A84ED0B8A84ED0C8A012084F874
:1045A000340026739FED130A84ED0F0A9FED110A64
:1045B00084ED100A9FED0F0A84ED110A9FED0D0A9C
:1045C00084ED120A9FED0B0A84ED130A9FED090A90
:1045D00084ED140A9FED070A84ED150A9FED050A84
:1045E00084ED160A002084F85C002046FFF72EFCBC
:1045F00000BFA4E70000000010B52DED028B0446BB
:10460000F0EE408AB0EE608ADFED1C0A28EE201A38
:10461000207900EE900AF8EE600A61EE200A9FED24
:10462000181A20EE811A94F90C0000EE900AF8EEA8
:10463000E01AD4ED050A41EE210AB0EE600A00F05E
:1046400093FF84ED050A9FED0F0A84ED060A94EDB1
:10465000080AB0EE401ADFED0B0AB0EE680A00F06F
:10466000F7FE84ED070AD4ED050AB0EE600A204695
:10467000FFF792FCBDEC028B10BD0000DA0FC940C1
:104680006F12833A0000000000B9704780ED000A05
:10469000C0ED010A80ED021ADFED062AC0ED032A03
:1046A000DFED042AC0ED042AC0ED051A80ED062ACC
:1046B00000BFEAE70000000010B52DED088B0446AE
:1046C000F0EE409AB0EE60AAF0EE418A24B99FED78
:1046D0003A0ABDEC088B10BDF5EEC08AF1EE10FA77
:1046E00003D89FED360AF0EE408A39EECA8A94ED7F
:1046F000030A08EE280A84ED030A94ED040A38EE52
:10470000400A80EE289A94ED010AD4ED030A20EEC7
:10471000200AD4ED000A00EE880AD4ED020A00EE69
:10472000890AF0EE40AA94ED060AB0EE401A94ED24
:10473000050AF0EE400AB0EE6A0A00F089FEF0EEDB
:1047400040AA94ED010ADFED1E0AB4EEE00AF1EE94
:1047500010FA2CDD94ED050AD4ED000A00EEC80A2B
:10476000D4ED020A00EEC90AD4ED010A80EE201A47
:10477000B0EE41BA94ED060AD4ED000A00EEC80A84
:10478000D4ED020A00EEC90AD4ED010A80EE201A27
:10479000F0EE41BAD4ED030AB0EE600AB0EE6B1A47
:1047A000F0EE4B0A00F054FE84ED030A00BF84EDE6
:1047B000048AB0EE6A0A8CE7000000006F12833AA8
:1047C000BD37863510B502F0F1FC02F0CBFE10BD0E
:1047D00070B504460D462946204602F03DFD70BDE9
:1047E00010B50446204602F097FD10BD70B5044692
:1047F0000D462946204602F00DFF70BD10B5044657
:10480000204602F02FFF10BD02460020704770477F
:10481000024600207047704710B542F6DF6109205C
:1048200002F016FA10BD00000748006840F08070E2
:10483000054908600020054948600846006840F0C6
:104840000100086070470000FCED00E0001000E08F
:1048500070B5044604EB840040000449B1FBF0F05D
:10486000451E2946092002F05BFA70BDC0D4010044
:1048700010B500F0BFFD10BD70B504460D462946C9
:10488000204600F0CDFF70BD10B52DED048BB0EECD
:10489000408AF0EE608AB0EE419AB0EE491AF0EE2E
:1048A000680AB0EE480A01F039F8BDEC048B10BD7F
:1048B00010B501F067F810BD01484068704700006E
:1048C000001000E010B504462046FDF7C6F910BD03
:1048D00070B504460D46182229462046FDF72AF9F0
:1048E00070BD10B505F0B6F910BD000070B50446F6
:1048F000FDF792F904EB840040000749B1FBF0F0AA
:10490000451E2946092002F051FA02F0DFFAFDF7B0
:10491000AFF8FDF71DF970BDC0D4010010B5044615
:10492000204602F0D3F910BD10B50446204602F02F
:104930002BFA10BD70B504460D462946204600F0FE
:104940007BFD70BD10B52DED028BB0EE408AB0EE50
:10495000480A02F08DFABDEC028B10BD10B502F0D2
:10496000BBF910BD10B502F015FA10BD704710B5B7
:104970000446204604F052FB10BD10B50446204604
:1049800002F0BCFC10BD10B50446204602F08CFCC1
:1049900010BD000000B970479FED040A80ED030AC6
:1049A0009FED020A80ED040A00BFF4E7000000005A
:1049B0009FED060A064880ED000A9FED040A0548AF
:1049C00080ED000A002004490870704700000000D4
:1049D00014000020180000201C0000202DE9F041E8
:1049E0002DED048B82B00746B0EE409A88461446FF
:1049F0001D469FED2D0AB0EE408A9FED2B0AF0EE8A
:104A0000408A0FB105B12CB9002002B0BDEC048B77
:104A1000BDE8F081B0EE490A3846FFF7BDFA4046DE
:104A2000FFF7A5FF00261AE001A8FFF74BFF00B92A
:104A300013E09DED010A03F03BFB30EE080AB0EEF7
:104A4000408A9DED010A03F0CFF930EE280AF0EE1E
:104A5000408A0420FFF78BFF00BF701C86B2A6427D
:104A6000E2DBB0EEC80ADFED110AB4EEE00AF1EEC7
:104A700010FA0AD2B0EEE80ADFED0C0AB4EEE00A52
:104A8000F1EE10FA01D20020BFE7F0EE680AB0EEB6
:104A9000480A03F081F8F0EE409A00F065FD85EDDC
:104AA000000A0120B1E7000000000000BD37863594
:104AB0002DE9F0472DED0E8B04460E46174698461D
:104AC000F0EE409AB0EE60AAF0EE41AADDE9165988
:104AD00014B10EB107B11DB9BDEC0E8BBDE8F08766
:104AE000F5EEC0AAF1EE10FA03D89FED540AF0EEED
:104AF00040AA94F90C0000EE100AB8EEC00A20EEAD
:104B0000290AF0EE409AD5ED1F0AB0EE600A204661
:104B100000F04AF994F90C0000EE100AB8EEC00A51
:104B2000D4ED0B0A20EE20BA79EECBBAB0EEEB9AB8
:104B3000434890ED040AD0ED030A30EE60CA9FEDC1
:104B4000410AB4EEC0CAF1EE10FA03D29FED3D0A5D
:104B5000B0EE40CA3A4890ED030AB4EEC90AF1EE4D
:104B600010FA02DB9FED388A11E0354890ED040A17
:104B7000B4EEC90AF1EE10FA02D8B7EE008A06E0E8
:104B80002F4890ED030A39EE400A80EE0C8AF5EECC
:104B9000C0BAF1EE10FA02DBB0EECA0A03E0B0EEE2
:104BA000CA0AB1EE400A20EE08DA9FED280AB4EEF8
:104BB000C08AF1EE10FA07D23046FFF7EBFEFFF79E
:104BC000F7FEDFED218A17E0D5ED1F0AB0EE600A8F
:104BD000B0EE6A1AF0EE4D0A204600F01BF9B0EE76
:104BE00040EAB0EE6A1ADFED180AB0EE4E0A30461F
:104BF000FFF762FDF0EE408AB0EE6A1AF0EE4B0A63
:104C0000B0EE690A3846FEF7A9FCF0EE40DAB7EEDE
:104C1000000A30EE480A20EE2D0AF0EE40CA48EEB7
:104C200028CA4B46F0EE6A0A2A46B0EE6C0A4146A4
:104C3000204600F053F800BF4EE700006F12833AA1
:104C400020000020BD3786350000000017B7D1389E
:104C50002DE9F0412DED048B06460D461746F0EE8A
:104C6000408A1C46B0EE608ADDF828800EB105B19E
:104C70001CB9BDEC048BBDE8F081B5EEC08AF1EE45
:104C800010FA03D89FED130AB0EE408AD4ED1F0A44
:104C9000B0EE600AB0EE481AF0EE680A304600F056
:104CA000B9F8F0EE409AB0EE481ADFED0B0AB0EE1C
:104CB000690A2846FFF700FDB0EE409A4346F0EE41
:104CC000480A2246B0EE490A3946304600F006F856
:104CD00000BFCEE76F12833A000000002DE9F041DB
:104CE0002DED068B04460E46B0EE409A1546F0EECA
:104CF000608A1F4604B11DB9BDEC068BBDE8F0818A
:104D0000D5ED1F9AF5EEC08AF1EE10FA03D89FEDAB
:104D1000240AF0EE408AB0EE690A2046FFF7FAF95D
:104D200084ED050AD4ED040AB0EE601AD4ED080A49
:104D3000B0EE600ADFED1B0A00F08AFBB0EE408A9D
:104D4000012F0ED16EB194ED050AF0EE400AB0EEDF
:104D5000681A2A46B0EE490A31462046FFF7AEFAF5
:104D600014E094ED000A20EE090AB0EE40AAB0EE7D
:104D7000481AF1EE480AB0EE4A0A00F069FB84EDE9
:104D8000070A9FED080A84ED060A00BFD4ED050A64
:104D9000B0EE600A2046FFF7FFF800BFACE7000066
:104DA0006F12833A0000000010B52DED028B04460F
:104DB000B0EE408A14B9BDEC028B10BD94F83400FB
:104DC00038B984ED0C8A84ED0B8A012084F8340014
:104DD000F1E7D4ED0C0A78EE600AB0EE600A00F05C
:104DE000E1FBF0EE408AB0EEE80A0948D0ED000A97
:104DF000B4EEE00AF1EE10FA05DB94ED0B0A30EEAA
:104E0000280A84ED0B0A84ED0C8A00BFD3E700006A
:104E10002000002010B52DED068B0446B0EE409A20
:104E2000F0EE609AF0EE418A24B99FED270ABDECBE
:104E3000068B10BDF5EEC08AF1EE10FA03D89FED97
:104E4000230AF0EE408A94F90C0000EE100AB8EE46
:104E5000C00A20EE098A1E48007868B91D4880ED16
:104E6000008A9FED190A1C4880ED000A01201849AC
:104E700008709FED150ADAE71648D0ED000A78EEC3
:104E8000600AB0EE600A00F08DFBB0EE40AA114857
:104E900080ED008A69EEA8AA3AEECA0A0E48D0ED63
:104EA000000A30EE200A80ED000A9FED0C1ADFEDBB
:104EB0000C0A90ED000A00F0CBFA074880ED000ADA
:104EC00090ED000AB3E70000000000006F12833A83
:104ED0001C0000201800002014000020DA0FC94137
:104EE000DA0FC9C100BFFEE708B5009002E00099E3
:104EF000491E009100990029F9D108BD10B540F272
:104F0000157004F0E5FD124804F03EFC4FF400413A
:104F10000F4804F07EFC00210D4804F07AFC0C4898
:104F200004F012FC00F0E8F800220A49084804F0F6
:104F300063FB00231A461946054804F05CFC04484C
:104F400004F027FC4FF48061014804F04DFB10BDD4
:104F500000540040E093040010B540F2036004F0F8
:104F6000B7FD402303221C21044804F08FFA80235C
:104F700003221C21014804F089FA10BD000C0140F5
:104F800010B5FFF7E9FFFFF7B9FF10BD2DE9F047B6
:104F90008046894617461E4616B90020BDE8F087B0
:104FA0000FB90120FAE700F087F804460CB120465B
:104FB000F4E76FF00101404600F062F804461CB1CE
:104FC00000F08EF82046E9E749462C4804F0B8FB8B
:104FD00042F6E062012140F2075000F0D3F80446A7
:104FE0001CB100F07DF82046D8E700F065F80446D3
:104FF0000CB12046D2E70121404600F041F80446BA
:105000001CB100F06DF82046C8E700251FE0701EB7
:10501000A84206D10021194804F0E6FA174804F026
:1050200005FC42F6E062012140F2065000F0AAF8C9
:10503000044634B14FF48061104804F0D5FA20469C
:10504000ACE70E4804F078FB7855681C85B2B54291
:10505000DDDB42F6E06000F0ADF8044634B14FF419
:105060008061064804F0C0FA204697E74FF480615B
:10507000024804F0B9FA002090E700000054004014
:1050800070B504460D462A4621460A4804F0A9FB9D
:1050900042F6E062012140F2015000F073F806464A
:1050A0000EB1304670BD40F20151024804F076FB6B
:1050B0000020F7E70054004010B5084804F0B1FBA9
:1050C00042F6E06201214FF4A06000F05BF8044674
:1050D0000CB1204610BD0020FCE700000054004049
:1050E00010B5044804F0A2FB42F6E06000F062F85C
:1050F00010BD00000054004010B5C023032214214D
:105100001F4804F0C3F9C0211D4804F0BDF94FF455
:105110001670FFF7E9FE002411E04021184804F062
:10512000B1F94FF41670FFF7DFFE4021144804F088
:10513000ABF94FF41670FFF7D7FE601CC4B2092C10
:10514000EBDB80210E4804F09DF94FF41670FFF759
:10515000CBFE40210A4804F097F94FF41670FFF790
:10516000C3FE8021064804F08FF94FF41670FFF754
:10517000BBFEC02303221C21014804F087F910BDA7
:10518000000C01402DE9F04104460D461646374615
:1051900006E027B9FFF7B2FE0220BDE8F0817F1ECE
:1051A0002146034804F00EFBA842F2D10020F4E7A8
:1051B0000054004070B50446254605E01DB9FFF7D0
:1051C0009DFE022070BD6D1E0348006800F4007053
:1051D0000028F3D100BFF5E700540040C0ED001AED
:1051E000C0ED011A9FED082A80ED022AC0ED030AE6
:1051F00080ED040A80ED051A9FED042A80ED062A51
:10520000C0ED071A704700006666663F00000000A8
:1052100080ED000A90ED031AD0ED051A31EE211A47
:1052200080ED031A90ED031AD0ED041A31EE211A25
:10523000F0EE410A9FED201AF4EEC10AF1EE10FAE9
:1052400012D280ED010AB7EE001A80ED021A9FED2E
:105250001B1A80ED031A90ED011AD0ED061A31EEFB
:10526000611A80ED071A704790ED031AC1EE201AFB
:10527000C0ED021A90ED011AD0ED021A90ED012A4C
:1052800030EE422A01EE821A80ED011A90ED021AE8
:10529000F7EE001A31EEC11AD0ED031A21EE211AF1
:1052A00080ED031A90ED011AD0ED061A31EE611A65
:1052B00080ED071A00BFD6E7BD3786350000000035
:1052C00010B52DED068B0446B0EE408A14B9BDEC46
:1052D000068B10BD94ED010A38EE400AF0EEC0AA2C
:1052E0009FED410A38EE000AD4ED010A30EE600A63
:1052F000B0EEC09A9FED3C0A38EE400AD4ED010AA8
:1053000030EE600AF0EEC09AF0EE488AB4EEEA9A07
:10531000F1EE10FA0BD2B4EEE99AF1EE10FA06D8DB
:105320009FED310A38EE000AF0EE408A0FE0F4EE0D
:10533000EA9AF1EE10FA0AD2F4EEC99AF1EE10FAF6
:1053400005D29FED290A38EE400AF0EE408A94ED2E
:10535000030AD4ED050A30EE200A84ED030A94ED29
:10536000030AD4ED040A30EE20AA9FED200AB4EE21
:10537000C0AAF1EE10FA0AD2C4ED018AB7EE000A13
:1053800084ED020A9FED1A0A84ED030A1DE094EDF4
:10539000030AC0EE0A0AC4ED020A94ED010AD4ED34
:1053A000020A94ED011A38EEC11A00EE810A84ED6A
:1053B000010A94ED020AF7EE000A30EEC00AD4EDBD
:1053C000030A20EE200A84ED030AD4ED010AB0EEB0
:1053D000600A00F0C9F884ED010A94ED010A84ED39
:1053E000070A00BF73E70000DA0FC940BD378635F2
:1053F0000000000010B540F2036004F069FB40F2C9
:10540000036004F065FB40F2036004F061FB2023BD
:1054100003221021074804F039F81023032219460B
:10542000044804F033F8082303221021014804F053
:105430002DF810BD000C014070B505460C461CB19E
:10544000284601F011FB02E0284600F099FD70BDEE
:10545000F0EE401AF4EEE01AF1EE10FA02D2B0EEDD
:10546000600A7047F4EEC11AF1EE10FA02DDB0EEF8
:10547000410AF6E7B0EE610AF3E7000080ED000AAA
:1054800070EEC11A9FED032A61EE821AC1ED001A77
:1054900070470000D7B35D3F80ED000ABEEE001AF2
:1054A00020EE011ADFED081A01EEA01A81ED001AB4
:1054B000BEEE001A20EE011ADFED031A01EEE01A2B
:1054C00082ED001A70470000D7B35D3F70B52DED37
:1054D000068BB0EE408AF0EE608AB0EE419A044648
:1054E0000D46B0EE490A02F0E3FDF0EE409AB0EE50
:1054F000490A02F079FCB0EE40AA28EE0A0A08EE4A
:10550000E90A84ED000A28EE290A08EE8A0A85EDE8
:10551000000ABDEC068B70BD70B52DED068BB0EEAC
:10552000408AF0EE608AB0EE419A04460D46B0EE35
:10553000490A02F0BDFDF0EE409AB0EE490A02F0D1
:1055400053FCB0EE40AA28EE0A0A08EEA90A84ED40
:10555000000AB1EE480A20EE290A08EE8A0A85ED13
:10556000000ABDEC068B70BD05E0DFED0D0A70EEA4
:10557000600AB0EE600ADFED0A0AB4EEE00AF1EE6E
:1055800010FAF2DA05E0DFED060A70EE200AB0EE5E
:10559000600AB5EEC00AF1EE10FAF4D370470000CD
:1055A000DA0FC94005E0DFED0E0A70EE600AB0EEDA
:1055B000600ADFED0C0AB4EEE00AF1EE10FAF2DC5C
:1055C00005E0DFED070A70EE200AB0EE600ADFEDBD
:1055D000060AB4EEE00AF1EE10FAF2D370470000CA
:1055E000DA0FC940DA0F4940DA0F49C000BFFEE7C1
:1055F00001200149087070470B00002010B52DED07
:10560000028BFCF789FE044674B1207802280BD186
:10561000DFED310A9FED300A3048FEF7EDFFFDF770
:10562000B1F9BDEC028B10BD01F02CF92C4801F052
:105630005DF820B900210846FDF706FAF1E7284A8F
:1056400092F8811092F88000FDF7FEF9244890F856
:10565000800018B1224890F8810000B9E1E73CB120
:10566000207E28B1FCF762FEB0EE408A01F032F8ED
:10567000FEF7C2FA48B1DFED180A9FED170A174886
:10568000FEF7BAFFFDF77EF9CBE764B12078022878
:1056900009D1DFED110A9FED100A1048FEF7ACFFAB
:1056A000FDF770F9BDE7FCF701FF48B9DFED0A0A25
:1056B0009FED090A0948FEF79FFFFDF763F9B0E780
:1056C0002CB1207E18B1FEF70DF8FCF7F3FA044870
:1056D000FEF7E2FA00BFA4E700000000C8000020C7
:1056E000280100207047000010B5002807DA0A07DB
:1056F000140E054A00F00F031B1FD45403E00A07E1
:10570000130E024A135410BD18ED00E000E400E04F
:105710000346481C03FB00F26420B2FBF0F28A420D
:1057200000D90A4690B270470146B5EEC00AF1EEC4
:1057300010FA02D2DFED0F0A0BE0B7EE001AB4EE5A
:10574000C10AF1EE10FA02DDF7EE000A01E0F0EE18
:10575000400A481C01EE100AB8EE411A20EE811AE8
:10576000BCEEC11A11EE102A8A4200D90A4690B244
:10577000704700000000000010B50121014804F04E
:105780000FFD10BD002C014010B540F2026004F086
:105790009FF940F2026004F09BF940F2026004F0CD
:1057A00097F940F2036004F093F940F2036004F0CB
:1057B0008FF940F2036004F08BF94FF4C06004F0FD
:1057C00087F94FF4807303221821134803F05EFE1B
:1057D0004FF40073032218210F4803F057FE4FF4D3
:1057E0008063032218210C4803F050FE4FF400534D
:1057F00003221821094803F049FE4FF48043032295
:105800001821064803F042FE4FF4004303221821FA
:10581000024803F03BFE10BD00080140000C0140AF
:1058200070B504460D46FFF7AFFF1348B0FBF4F028
:10583000C0F34F001149088008460088411E00202F
:1058400000F0A8F80D4800886843642190FBF1F04F
:1058500086B2304600F014F80021084600F032F815
:105860000021012000F02EF80021022000F02AF88B
:10587000FFF782FF70BD0000C0D401008A00002045
:105880001FB50446FF2C00DDFF24684604F01EFA15
:105890000020ADF80000ADF80200ADF80440ADF80E
:1058A0000600ADF808004FF48070ADF80A00002043
:1058B000ADF80C006946024804F0F9F91FBD00007C
:1058C000002C01402DE9F04106460C46642C00DD19
:1058D00064240F4884550F4801882046FFF718FFBD
:1058E000074626B1012E04D0022E06D103E0002582
:1058F00005E0012503E0022501E0BDE8F08100BFDD
:105900003A462946044804F00EFB00BFF5E70000C4
:10591000860000208A000020002C014010B52DEDEB
:10592000048BB0EE409AB0EE608AF0EE418A1348E4
:105930000088B0EE490AFFF7F7FE04462246002130
:105940000F4804F0F0FA0D480088B0EE480AFFF75F
:10595000EBFE044622460121094804F0E4FA074818
:105960000088B0EE680AFFF7DFFE044622460221F7
:10597000034804F0D8FABDEC048B10BD8A00002067
:10598000002C014010B5024804F086FB10BD000059
:10599000002C014030B587B005460C4640F20B6044
:1059A00004F096F8324804F009FBA8B2ADF8000004
:1059B0006020ADF802000020ADF804000294ADF8BC
:1059C00006008DF80C006946294804F06BFB0421A1
:1059D000274804F0F1FB0021254804F0D4FB2021E6
:1059E000234804F0ABFB0120ADF810000420ADF813
:1059F00012000020ADF81400ADF81600ADF8180044
:105A0000ADF81A0004AA0021194804F069F904AAA3
:105A10000121174804F064F904AA0221144804F093
:105A20005FF960220021124804F050FA002211466A
:105A30000F4804F08BFA602201210D4804F046FA69
:105A4000002201210A4804F081FA6022022108485C
:105A500004F03CFA00220221054804F077FA0448D9
:105A600004F020F90A20FFF70BFF07B030BD00005B
:105A7000002C0140704700000020024981F82900F5
:105A800070470000EC02002070B504460D46164633
:105A90001CB116B10BB1042D01D2002070BD002144
:105AA00018E0605C612800D012E0C81C82B20BE0F4
:105AB000A05C622806D160183060501A401C188023
:105AC0000120EBE7501C82B2AA42F1DB0020E5E79F
:105AD000481C81B2A942E4DB0020DFE701480078DE
