:020000040800F2
:10000000482D0020090200083D680008BB5D00087B
:100010000D640008191E0008D19D000800000000B2
:10002000000000000000000000000000C182000885
:1000300001230008000000008F6C0008599100089F
:1000400023020008230200082302000823020008FC
:1000500023020008230200082302000823020008EC
:10006000230200082302000823020008F9220008E6
:1000700023020008230200082302000823020008CC
:1000800023020008230200082117000823020008A9
:1000900023020008230200082302000823020008AC
:1000A00023020008A9920008230200082302000886
:1000B000B1920008B9920008C1920008230200081A
:1000C000230200082302000823020008230200087C
:1000D0002302000823020008859800083D9C0008C0
:1000E000230200082302000823020008230200085C
:1000F000230200082302000823020008230200084C
:10010000230200082302000823020008230200083B
:10011000230200082302000823020008230200082B
:10012000230200082302000823020008230200081B
:1001300000F002F800F058F80AA090E8000C8244A1
:100140008344AAF10107DA4501D100F04DF8AFF27E
:10015000090EBAE80F0013F0010F18BFFB1A43F0A5
:100160000103184774F9000094F90000103A24BF05
:1001700078C878C1FAD8520724BF30C830C144BF0C
:1001800004680C607047000000230024002500264E
:10019000103A28BF78C1FBD8520728BF30C148BFEA
:1001A0000B60704766290BF01685642900F0B88053
:1001B000752900F0B580782900F0EE80632900F001
:1001C0006085732900F06585002070471FB50BF02E
:1001D0007EFC00F067FD0400002000210BF09EFA79
:1001E000E0601FBD10B510BD00F05DFE1146FFF7C9
:1001F000EDFF0AF089FC00F07BFE03B4FFF7F2FF8D
:1002000003BC00F0BFFE00000948804709480047D2
:10021000FEE7FEE7FEE7FEE7FEE7FEE7FEE7FEE7B6
:10022000FEE7FEE704480549054A064B7047000013
:100230006191000831010008480D0020482D002080
:10024000481D0020481D00200FB47CB50C0009AAF1
:10025000009001D02044401E084B7B446946019029
:10026000089800F0E4FC05461CB10020694600F047
:10027000F1FC28467CBC5DF814FB0000010A00007C
:1002800070B5044685690068C10601D5302600E0D6
:100290002026C00707D070BDD4E901213046904721
:1002A000206A401C20626D1EF6D570BD70B50446F4
:1002B00085690078C00707D170BDD4E901212020ED
:1002C0009047206A401C20626D1EF6D570BD70B547
:1002D0000C460546012A05D02878800600D5EA6933
:1002E000002302E0012305E05B1C934202D2E05CA4
:1002F0000028F9D1A869E618C01AA861286A18442C
:1003000028622846FFF7BCFF04E0D5E9012114F874
:10031000010B9047B442F8D32846FFF7C7FF70BDE2
:100320002DE9F0410646002410687529314616A5CE
:1003300010D0AFF30080002802DA404213A507E096
:1003400031688A0701D512A502E0490704D511A535
:10035000012401E0AFF3008000210A2206F1240706
:1003600009E0B0FBF2FCB0FBF2F302FB1C00303002
:1003700078541846491C0028F3D123462A463046B3
:10038000BDE8F04100F0E5B9000000002D000000DC
:100390002B0000002000000070B504460D462146E9
:1003A0001068AFF300802188090502D50F4A7A440E
:1003B00002E00E4A7A440E32002104F1240305E0E3
:1003C00000F00F060009965D5E54491C0028F7D125
:1003D00020780023000704D5702D02D009B1022334
:1003E00011322046BDE8704000F0B3B976F4000049
:1003F0002DE9F05F894604464FF0000ADFF874B13A
:10040000FB44C0F820A02046E1688847002874D04B
:10041000252806D0D4E901219047206A401C20629B
:10042000F1E700265F462046E16888472028054618
:1004300007DB312D05D2781910F8200C08B10643DE
:10044000F1E7B00701D526F00406C4F81CA0002788
:10045000C4F818A02A2D09D0284609F08DFD38B31C
:1004600004EB8708303DC8F8185019E059F8041B10
:10047000204604EB87029161E1688847012F054619
:1004800018D1E069002820DA26F020061DE0D8F80F
:10049000180000EB800005EB40003038C8F8180069
:1004A0002046E1688847054609F066FD0028EED140
:1004B000012F0AD02E2D08D12046E16888477F1CE5
:1004C0000546022F46F02006C4DBA069002803DAA7
:1004D000404246F00106A061F00701D026F0100668
:1004E0006C2D0BD0682D09D04C2D39D06A2D35D00C
:1004F000742D35D07A2D33D016E038E0E1682F46E0
:1005000020468847B842054609D16C2F26D04FF4C3
:100510008060E168064320468847054604E06C2F6A
:100520001AD04FF4807006430DB3A5F1410019288D
:1005300002D8203546F400664A4629462046266001
:100540004E46FFF72FFE80B101280BD0F61D26F096
:10055000070000F1080956E74020E4E78020D8E7CB
:100560000020D6E706F104094DE7284652E7206A45
:10057000BDE8F09F4CF4000010B5431C02E010F8F9
:10058000011B71B18107FAD14FF0013202C88C1AF8
:100590008C4314EAC211F9D0C01A0A0603D0C01E57
:1005A00010BDC01A10BD0A0401D0801E10BD090282
:1005B000FCD0401E10BD032A40F2308010F0030C26
:1005C00000F0158011F8013BBCF1020F624498BFA6
:1005D00011F801CB00F8013B38BF11F8013BA2F143
:1005E000040298BF00F801CB38BF00F8013B11F0BE
:1005F000030300F02580083AC0F0088051F8043B5E
:10060000083A51F804CBA0E80810F5E7121D5CBFCA
:1006100051F8043B40F8043BAFF30080D20724BFFD
:1006200011F8013B11F801CB48BF11F8012B24BF91
:1006300000F8013B00F801CB48BF00F8012B7047E0
:1006400010B5203AC0F00B80B1E81850203AA0E86D
:100650001850B1E81850A0E81850BFF4F5AF5FEAA1
:10066000027C24BFB1E81850A0E8185044BF18C954
:1006700018C0BDE810405FEA827C24BF51F8043BFB
:1006800040F8043B08BF7047D20728BF31F8023B4F
:1006900048BF11F8012B28BF20F8023B48BF00F8E3
:1006A000012B70474FF000020429C0F0128010F0B7
:1006B000030C00F01B80CCF1040CBCF1020F18BF3E
:1006C00000F8012BA8BF20F8022BA1EB0C0100F0D1
:1006D0000DB85FEAC17C24BF00F8012B00F8012BA4
:1006E00048BF00F8012B70474FF0000200B51346D9
:1006F00094469646203922BFA0E80C50A0E80C5042
:10070000B1F12001BFF4F7AF090728BFA0E80C50F2
:1007100048BF0CC05DF804EB890028BF40F8042BEB
:1007200008BF704748BF20F8022B11F0804F18BF58
:1007300000F8012B704770477047704710B500F004
:10074000B5FA006810BD10B5044600F0AFFA0460B9
:1007500010BD2DE9F0470D4699469246044600F13A
:1007600024080168880604D5E06921F010012160A1
:1007700000E00120A84201DD471B00E00027A1693D
:100780007A1902EB0900081AA0612078C00602D489
:100790002046FFF775FD002608E0D4E901211AF88C
:1007A00006009047206A401C761C20624E45F4DB10
:1007B0002078C0060AD52046FFF762FD06E0D4E99E
:1007C000012130209047206A401C2062381EA7F18A
:1007D0000107F4DC07E0D4E9012118F8050090478F
:1007E000206A401C2062281EA5F10105F3DC20468A
:1007F000FFF75CFD2078000602D50220BDE8F087F7
:100800000120FBE770472DE9FF4F0C461E464FF0D5
:10081000FF378BB0D2E90001DDF860800A908A468C
:10082000C1F30A5505B93D46002108464FF00000C6
:10083000BAF1000F00F4400005DA00EB80004FF43D
:10084000400101EA50004FEA9059B9F1010F00DD73
:10085000B9460A9850EA4A000ED044F61050A5F264
:10086000FF3545432F14B8F1000F1ED07542291EE5
:100870001EDDC9F100021CE0B8F1010F4FF00000CD
:1008800001D0302103E0F24305E02154401CB04286
:10089000FBDB30460022002121540B99C1F808806F
:1008A000C1E900200FB0BDE8F08FBD1B6D1CDEE775
:1008B0004A4600DA694206A800F082FA06AB93E8DD
:1008C000070003AB83E8070050460A9900F060FB7D
:1008D0008DE80700A0F500501F3800900398002D08
:1008E0000ADD42F21F014A460844002303A903908F
:1008F000684600F0C9FD09E0A0F500504A461F38DF
:10090000002303A90390684600F0D3FD8DE807009B
:100910000004000C03D04FF0FF30410800E0104607
:10092000B8F1000F03D00022009215461EE0751E9C
:1009300005D400F0BFF9303262556D1EF9D5B346CB
:100940000122084302D000227F1C04E020783028D6
:1009500001D100227F1E002A099784D01DE0112DAD
:1009600007DA00F0A7F9303262556D1C50EA010237
:10097000F5D1084302D00098C8B10EE00021681EEE
:1009800005E0235C625C63542254401E491C814292
:10099000F7DBAB46A81B401E0990002004F80B00B3
:1009A0000B98099AC0F80880C0E9002B7AE7112655
:1009B0004FF0000857E72DE9F04F88460446D21D56
:1009C00022F0070191B0D1E90001CDE90A0109F057
:1009D00001FA02460B98C00F01D02D2007E02068D5
:1009E000810701D52B2002E0202101EAC000032A63
:1009F000099001D0072A05DB03464146204600F056
:100A00009FF90BE12078800601D5E06900E006201F
:100A1000B8F1650F814606D0B8F1660F18D0B8F16D
:100A2000670F70D131E00020B9F1110F009001DBA8
:100A3000112301E009F101030AAA01A90CA8FFF79B
:100A4000E2FEDDE90C70002609F10105834647E06E
:100A500001204B4600904FF000470AAA01A90CA8BC
:100A6000FFF7D1FEDDE90DB00C995D46002610B907
:100A700009F101000D18B9EB050003D4C0F1FF36F0
:100A800009F10105A5EB09002BE0B9F1010F01DA2D
:100A90004FF001090020B9F1110F0090484601DD27
:100AA000112300E003460AAA01A90CA8FFF7ABFE38
:100AB000DDE90C704D4600268346207800070AD4F5
:100AC000AB4500DA5D4601A8012D04DD411911F89E
:100AD000011C302907D04F4502DA17F1040F04DA60
:100AE000012082460FE06D1EEEE7002F02DCED1BB9
:100AF0003E4403E0781CA84200DD7D1CB81B00F1D9
:100B0000010A4FF000472078000703D4AA4501DB13
:100B10004FF0FF3A0021B7F1004F0DF143088DF877
:100B2000431024D002202B23002F01DA7F422D23F3
:100B30000A21021EA0F1010000DC5FB197FBF1FC6D
:100B400097FBF1F201FB1C7C17460CF1300C08F806
:100B500001CDEEE7A8F1010003702188090501D558
:100B6000452100E06521A0F1010800F8011C099869
:100B70000FA9A1EB0807FF1D00B10120411901EBEE
:100B8000EA70A1693844081A401EA0612078C006A6
:100B900002D42046FFF774FB099828B1D4E901215B
:100BA0009047206A401C20622078C00622D520464B
:100BB000FFF766FB1EE0002E04DBB34502DD01A853
:100BC000805D00E03020D4E901219047206A401C7C
:100BD0002062761CAAF101005FEA000A0AD100F047
:100BE00061F8C0680168405CD4E901219047206A3F
:100BF000401C2062281EA5F10105DCDC07E0D4E9D9
:100C0000012118F8010B9047206A401C2062381E11
:100C1000A7F10107F3DC2046FFF748FB032011B0E2
:100C200041E6000001694A1C02610878704700B57E
:100C30008FB0CDE901310021059105497944CDE915
:100C4000031011466846FFF7D3FB0FB000BD00004C
:100C5000E5FFFFFF0A6802F8010B0A607047D1E95F
:100C600000239A4202D2531C0B601070704710B5DB
:100C7000436913B1AFF3008001E0FFF728FB0120C7
:100C800010BD127800F124010A7000224A7001227E
:100C9000EDE711684FF0FF32E9E7000000487047C8
:100CA000E80C002000487047080D002000487047FD
:100CB000E80C002030B5B0F10A024FEA900E71F155
:100CC00000034EEA817EB0EB0E0061EB91014FEA2A
:100CD000101E4EEA017E10EB0E0041EB11114FEA9F
:100CE000102E4EEA016E10EB0E0041EB11214FEA7F
:100CF000104E4EEA014E10EB0E0041EB1141401830
:100D000041F100014FEAD00040EA41704FEAD101C1
:100D100010EB80054FEA810444EA907444EB01042F
:100D20006D1944EB0404521BA3414FF0000348BF6C
:100D30000A3200D530BD401C41F1000130BD000039
:100D40002DE9F0411F46044603260168072A01F4F5
:100D5000006004DB08B116A505E016A503E008B1A4
:100D600015A500E015A521F010002060A069C01EA7
:100D7000A0610FB1401EA0612046FFF781FA4FB17C
:100D8000D4E9012138469047206A401C2062C01CEB
:100D9000206206E0206AFAE7D4E9012115F8010B88
:100DA0009047761EF8D22046FFF780FABDE8F08122
:100DB0004E414E006E616E00494E4600696E6600FF
:100DC0002DE9F047814616468AB0354878440DC86B
:100DD0008DE80D0032487844801C03AC0DC884E8CF
:100DE0000D0041F69B300844372190FBF1F290FB57
:100DF000F1F5A5F1800501FB12041B3C02D564420C
:100E0000012000E00020DFF898A080460027FA4487
:100E1000AAF1BE0A0EE0E0070AD03246684607EBA8
:100E2000470101230AEB810100F043FB8DE8070035
:100E300064107F1C002CEED1194F7F44AE3F19E0A7
:100E4000E80715D007EB04100DF1180A90E80E0022
:100E50008AE80E00C068F04201D198190890324625
:100E6000012306A903A800F024FB03AB83E80700D5
:100E70006D10641C002DE3D14FF00103324669462A
:100E8000B8F1000F03A802D000F0FEFA01E000F074
:100E900010FBC9E90001C9F808200AB0BDE8F087D5
:100EA00010EB000070477546FFF7F8FEAE460500F0
:100EB0006946534620F00700854618B020B5FFF775
:100EC000B1F9BDE820404FF000064FF000074FF0A9
:100ED00000084FF0000B21F00701AC46ACE8C00958
:100EE000ACE8C009ACE8C009ACE8C0098D46704761
:100EF00010B50446AFF300802046BDE81040FFF770
:100F00007CB900004FF0013C50F8042B51F8043B31
:100F10009A4221D1A2EB0C03934313EACC1317D1CD
:100F200050F8042B51F8043B9A4215D1A2EB0C0364
:100F3000934313EACC130BD150F8042B51F8043B24
:100F40009A4209D1A2EB0C03934313EACC13DBD0F2
:100F50004FF00000704700BFD01A01BAB1FA81F11A
:100F600001F0180122FA01F0CB40C1F12001DBB2FF
:100F7000C0B2C01A2CFA01F3D11A914311EAC3117D
:100F8000E6D1704701491820ABBEFEE726000200FB
:100F90005FEA400C08BF91F0000F4FEA8C234FEA44
:100FA000C12243EA51514FEA1C5018BF00F5F040EE
:100FB0004FEA300018BF41F000415FEA6C5C00F07E
:100FC0002980BCF1FF3F08BF40F080407047130C00
:100FD00006BF12044FF0100C4FF0000C130E04BFAC
:100FE00012020CF1080C130F04BF12010CF1040CD7
:100FF000930F04BF92000CF1020CD30F04BF5200F8
:101000000CF1010C11464FF00002A0F11F00A0EB03
:101010000C00704711F0004F08BF704731F00041DD
:101020003FF4D5AF0B0C06BF09044FF0100C4FF086
:10103000000C0B0E04BF09020CF1080C0B0F04BFCF
:1010400009010CF1040C8B0F04BF89000CF1020C98
:10105000CB0F04BF49000CF1010CCCF12003A0EB35
:101060000C0022FA03F302FA0CF241EA030100F148
:101070000100704720F07F4C80EA030023F07F4797
:10108000ACEB070303F57C5300F0004003F1FF03D2
:101090002DE980494FEA154B09B44FEA144325EA7C
:1010A0000B4E24EA03480FF2042606EB13274908E7
:1010B0003E785FEA320203FB0667C7F5000707FBCD
:1010C00006F64FEA54374FEAD64606F1020607FB0A
:1010D000066CCCF1005C4FEA1C472CEA074C07FB7E
:1010E00006F40CFB06F504EB15464FEA961634BFE2
:1010F00000204FF000404FEAD13706FB07FC4FEAD3
:101100001C4C0CFB0BF7D21B03FB0CF761EB07012C
:101110000CFB0EF7B0EB074072EB17420CFB08F725
:1011200034BFA2EB0742B2EB074261EB17414FEA33
:101130000C444FEA910706FB07FC4FEA1C4C0CFBE2
:101140000BF7B0EBC74072EB573203FB0CF734BF21
:10115000A2EBC742B2EBC74261EB57310CFB0EF773
:10116000B0EBC70072EB57720CFB08F734BFA2EB71
:10117000C702B2EBC70261EB5771039F4FEA81616F
:1011800041EA921104EBCC044FEAD1374FEA826274
:1011900006FB07FC42EA90124FEA80604FEA1C4CC3
:1011A0000CFB0BF7D21B03FB0CF761EB07010CFBED
:1011B0000EF7B0EB074072EB17420CFB08F734BF99
:1011C000A2EB0742B2EB074261EB17414FEA8C55A5
:1011D0004FEA910704EB9C2406FB07FC4FEA1C4CEA
:1011E0000CFB0BF7B0EBC74072EB573203FB0CF76D
:1011F00034BFA2EBC742B2EBC74261EB57310CFBE5
:101200000EF7B0EBC70072EB57720CFB08F734BF58
:10121000A2EBC702B2EBC70261EB577115EB4C258D
:101220004FEA816141EA92114FEA82624FEAD13777
:1012300042EA901206FB07FC44F100044FEA80608A
:101240004FEA1C4C0CFB0BF7D21B03FB0CF761EBBA
:1012500007010CFB0EF7B0EB074072EB17420CFBDB
:1012600008F734BFA2EB0742B2EB074261EB17412C
:1012700015EB1C154FEA813141EA92414FEA823267
:1012800042EA90424FEA80304FEA0C7644F1000483
:1012900048EA03434EEA0B484FF0000EB2EB080C4D
:1012A00071EB030724BF624639464EEB0E0E4FF03A
:1012B000000B0018524149414BEB0B0BB2EB080CF1
:1012C00071EB03077BF1000B24BF624639464EEBFE
:1012D0000E0E4FF0000B0018524149414BEB0B0B27
:1012E000B2EB080C71EB03077BF1000B24BF6246E5
:1012F00039464EEB0E0E51EA020718BF46F00106C2
:1013000016EB0E7655F1000254F1000103D5BDE84D
:101310008901BDE80088BDE88901BDE80048B6192B
:10132000524141EB0101A3F10103704780807F7EB0
:101330007D7C7B7A7978777676757473727171704B
:101340006F6E6E6D6C6C6B6A6A69686867666665FD
:101350006464636362616160605F5F5E5E5D5D5C8B
:101360005C5B5B5A5A5959585857575656555555FC
:101370005454535352525251515050504F4F4F4E5C
:101380004E4D4D4D4C4C4C4B4B4B4A4A4A494949AA
:1013900048484847474747464646454545444444EC
:1013A000444343434342424242414141002B9C4615
:1013B00030D477002BD01CB54FEA370703B44FF079
:1013C00010004FF01001BAF1000F06D0BCF1000F71
:1013D000DCBF40F0080040F008014FF000000FBCF7
:1013E000BDE810400BF1010BBBF1010F08BF5FEA34
:1013F000170722BF12F1010211F101014FF0004164
:1014000043F1000300F0004043EA00007047F9D3C5
:101410005708D0E746EA064613F1400F4FEA164652
:101420001FDD13F1200FDFBF16430A4600212033D2
:101430005B42BED0C3F1200746EA064602FA07F730
:101440004FEA164646EA0706C3F1200722FA03F2DE
:1014500001FA07F721FA03F14FF0000342EA07020D
:10146000A7E746EA020646EA06464FEA164646EA75
:101470000106BCBF46EA0646360C4FF000034FF0AB
:1014800000024FF0000194E72DE9804C9A46934604
:1014900070B491E8380007C831EA400C48BF34EA1C
:1014A000430C03D5FFF7E6FDFFF780FFF0BCBDE876
:1014B000008C2DE9804C9A46934670B491E8380030
:1014C00007C810F0804F08BF13F0804F03D100F021
:1014D00005F8FFF76BFFF0BCBDE8008C20F07F47FC
:1014E00080EA030023F07F4C07EB0C03A3F57C5349
:1014F00000F00040A3F1FE0392F0000F00F0B38073
:1015000095F0000F00F077802DE901494FEA114076
:101510004FEA144621EA004800FB06FC24EA06478D
:1015200008FB06F607FB08F800FB07F718EB064870
:101530004CEB164C4FEA124B18EB07484FEA154696
:101540004CEB174022EA0B4E0BFB06FC25EA064744
:101550000EFB06F607FB0EFE0BFB07F71EEB064E17
:101560004CEB164C4FF000061EEB074E4CEB174BA6
:1015700018EB0B0840F1000018EB0E0B58EB0008BD
:1015800040F100008F1A4FF000013CBFC943661BB9
:1015900014BFB5EB040C00213CBFC943F61B4FEA56
:1015A00017444EEA8E0E27EA04454FEA1C4704FB17
:1015B00007622CEA074C05FB07F70CFB05F604FB5A
:1015C0000CFC16EB074642EB174216EB0C4642EBBF
:1015D0001C421BEB060658EB0202414146EA9E06FE
:1015E00001D5BDE80189B619524141EB0101A3F1D2
:1015F0000103BDE801894FEA14454FEA114724EA87
:10160000054621EA074C05FB07F406FB07F70CFB30
:1016100006F105FB0CFC11EB074144EB17444FEAC4
:10162000124711EB0C4144EB1C4422EA074C05FB2A
:1016300007F206FB07F70CFB06F605FB0CFC16EBA6
:10164000074642EB174216EB0C4642EB1C456A1864
:1016500054F1000148BF7047B619524141EB0101F6
:10166000A3F10103704795F0000F37D04FEA114204
:101670004FEA144721EA024624EA074C02FB07F12D
:1016800006FB07F70CFB06F402FB0CFC14EB07440B
:1016900041EB17414FEA154714EB0C4441EB1C4159
:1016A00025EA074C02FB07F506FB07F70CFB06F6DD
:1016B00002FB0CFC16EB074645EB174516EB0C46F8
:1016C00045EB1C42121951F1000148BF7047B61991
:1016D000524141EB0101A3F1010370474FEA144568
:1016E0004FEA114724EA054621EA074C05FB07F1BA
:1016F00006FB07F70CFB06F24FF0000605FB0CFC9F
:1017000012EB074241EB174112EB0C4251EB1C412B
:1017100048BF7047921841EB0101A3F101037047E4
:1017200010B500F033FA10BD10B540F20F6009F0AB
:1017300045FB174808F078FC0021154808F069FCC3
:101740000021134808F03EFD01221146104808F020
:101750003DFC0523012200210D4808F03DFD4FF41A
:10176000602201210A4808F0B8FC0122114608480D
:1017700008F094FC0121064808F088FD044808F0B0
:1017800084FC012008F0BEFD014808F00AFC10BDF1
:10179000003C014010B540F2026009F00FFB02234B
:1017A00003220021014808F0D9FF10BD00080140C4
:1017B00070B52DED028B05461DB90020BDEC028BE6
:1017C00070BD2148007830B9FFF7E4FFFFF7ACFFA8
:1017D00001201D49087001211C4808F057FD002612
:1017E00006E0761C42F21070864201D30020E5E745
:1017F0000221164808F08CFC0028F2D00221134880
:1018000008F083FC114808F03DFD044600EE104A44
:10181000F8EE400A9FED0E1A80EE810ADFED0D0A08
:1018200020EE200ADFED0C0A20EE208AB5EEC08AF9
:10183000F1EE10FA03D29FED090AB0EE408A85ED71
:10184000008A0120BAE7000034000020003C01407B
:1018500000F07F4533335340EB5FA54000000000AC
:1018600010B540F2096009F0A9FA40F20A6009F0E7
:10187000A5FA2E4808F0D8FB2D4808F0D5FB4FF408
:10188000C02008F091FC01221102284808F00DFD4B
:1018900001221102264808F008FD0021234808F023
:1018A000B8FB0021224808F0B4FB00211F4808F0D3
:1018B00089FC00211E4808F085FC05230622002132
:1018C0001A4808F089FC052307220021184808F06F
:1018D00083FC01221146154808F078FB01221146CD
:1018E000134808F073FB4FF4202201210F4808F041
:1018F000F4FB4FF4202201210D4808F0EEFB0122F9
:1019000011460A4808F0CAFB01221146084808F0AF
:10191000C5FB064808F0B4FB0221044808F0FFFBB1
:1019200002220021122009F00FF910BD002401400D
:101930000028014000B587B04FF4A06009F03EFADE
:101940000021184808F05EFD684608F0D1FE1648F0
:10195000009000208DF818001448029001208DF8A6
:101960001900400201908000039000208DF81A00B9
:1019700004200490C00205906A460021094808F03E
:101980008DFD0021074808F024FD022200210548B2
:1019900008F01BFE002211460B2009F0D5F807B015
:1019A00000BD0000000002404C2401400401002062
:1019B00010B5022200210E4808F028FEB8B102221C
:1019C00000210B4808F01AFE01200A490870410363
:1019D000094808F021FF28B14FF40051064808F0EB
:1019E000B9FE04E04FF40051034808F0B5FE10BD05
:1019F00000000240290000200010014010B540F214
:101A0000026009F0DBF940F2026009F0D7F94023E7
:101A100003220021044808F0A1FE802303220021B4
:101A2000014808F09BFE10BD000801402DE9F04F71
:101A30002DED028B81B006468946144604259FEDA4
:101A40004E0AB0EE408A9FED4C0AF0EE408A06B195
:101A50002CB9012001B0BDEC028BBDE8F08F042C45
:101A600000DD04240021454808F063FE8046A5EB14
:101A70000800B0FBF5F105FB110A0AEB0500401E5A
:101A8000B0FBF5F105FB110B002760E00BEB050047
:101A9000C01BB0FBF5FC05FB1C000090DFF8E0C0AC
:101AA00000985CF8203099B24FF6FF7000EA1342BC
:101AB000B9F1000F06D0B9F1010F14D0B9F1020F3E
:101AC00041D11FE000EE101AB8EE400A38EE000ACD
:101AD000B0EE408A00EE102AB8EE400A38EE800AD6
:101AE000F0EE408A31E0084600F0A6F830EE080A31
:101AF000B0EE408A104600F09FF830EE280AF0EE73
:101B0000408A22E0084600F097F8F0EE401A00F014
:101B100023F91C48D0ED000A30EE600A30EE080AC6
:101B2000B0EE408A104600F087F8F0EE401A00F060
:101B300013F91548D0ED000A30EE600A30EE280A9D
:101B4000F0EE408A01E0012084E700BF7F1CA7423D
:101B50009CD300EE104AB8EE400AC8EE000AC6ED6B
:101B6000000A00EE104AB8EE400AC8EE800AC6ED40
:101B7000010A00206EE700000000000000000240A3
:101B8000040100202C0000203000002010B50221AC
:101B9000044808F0DDFA18B10221024808F0D5FA2D
:101BA00010BD00000024014070B5FFF727FFFFF7CC
:101BB000C1FEFFF755FE40F2046009F0FFF84FF454
:101BC000005303221021164808F0C8FD4FF40051BD
:101BD000134808F0BFFD40F2FF75284665F31F402B
:101BE0000646002403E00F4840F82460641C042CDF
:101BF000F9D30D4808F049FA0C4808F046FA0120DC
:101C000008F080FB084808F0CCF9084808F0C9F94A
:101C100000200749087001200649087070BD0000C7
:101C20000010014004010020002401400028014070
:101C3000290000202800002000EE100AB8EE400A1B
:101C4000DFED040A60EE200A9FED031A80EE810AA0
:101C5000704700003333534000F07F457CB50446A5
:101C60000D46164604B10DB901207CBD0EB9012602
:101C700002E0042E00DD0426324602216846FFF70A
:101C8000D5FE08B10120F0E79DED000A84ED000AC1
:101C90009DED010A85ED000A0020E6E770B50446D7
:101CA0000D461646324629462046FFF7D7FF08B9AB
:101CB000012070BD0020FCE710B52148007800B974
:101CC00010BD00211F4808F039FB042200211D48E7
:101CD00008F01CFD1C4A00211A4808F0EBFC1B4AC6
:101CE0000021184808F0D4FC01220021154808F012
:101CF000C1FB01220021134808F080FC1221124888
:101D00004C3808F002FA1221114808F0FEF90E488A
:101D10004C3808F0B5F900210A4808F028FB0122E8
:101D2000114609484C3808F0B9F901221146084813
:101D300008F0B4F900200749087000BFC0E70000B0
:101D400028000020000002404C2401400401002033
:101D50000028014029000020F0EE400A9FED040A0F
:101D600030EEC00A9FED031A20EE010A7047000012
:101D70003333D33F7CF04140024641EA02207047B2
:101D800010B504F069F810BD00EE100AB8EE400A74
:101D9000DFED020A20EE200A70470000DB0FC93A8F
:101DA00010B5044621460E2000F01EF810BD10B5F7
:101DB00004462046FFF7F4FF08B9012010BD0020BB
:101DC000FCE738B504460CB9002038BD6846FFF77B
:101DD000EEFF08B90020F8E7BDF80000FFF7D4FFD8
:101DE00084ED000A0120F0E7F8B504460D46022311
:101DF0006A4621466C2004F035F806460EB130469E
:101E0000F8BD9DF801109DF80000FFF7B5FFC0F385
:101E10000B0028800020F3E700BFFEE7B0EE401A79
:101E200071EE601AB0EE610ADFED0D1AB4EEE10A50
:101E3000F1EE10FA06DDDFED0B1A70EE611AB0EE6E
:101E4000610A0CE0DFED081AB4EEE10AF1EE10FAD7
:101E500005D2DFED041A70EE211AB0EE610A704768
:101E6000DA0F4940DA0FC940DA0F49C005E09FEDAB
:101E7000131A30EE011AB0EE410AB5EEC00AF1EEC7
:101E800010FAF4D305E09FED0D1A30EE411AB0EED2
:101E9000410A9FED0A1AB4EEC10AF1EE10FAF2DA25
:101EA000DFED070A80EE201ABCEEC11A11EE101AFF
:101EB00088B2802800D37F2070470000DA0FC94025
:101EC000DA0F493D70B52DED028BADF5527D05461B
:101ED00000269FED730AB0EE408A00242BE0714883
:101EE00030F81400F0B1704800EB8400D0ED000A27
:101EF0006C4830F8140000EE100AB8EE400A80EE8C
:101F0000801A52A800EB840080ED001A701C86B283
:101F100052A800EB840090ED000A30EE080AB0EE03
:101F2000408A06E09FED5E0A52A800EB840080ED37
:101F3000000A601C84B2802CD1D3802033465BA27F
:101F40004021009002A8FEF77FF902A803F089FC67
:101F5000CEB100EE106AB8EE400AC8EE000AB0EE4C
:101F6000608A00240DE052A800EB840090ED000A86
:101F700030EE480A52A800EB840080ED000A601C95
:101F800084B2802CEFD3002452E0611C01F07F006A
:101F900052A901EB800191ED000A52A901EB8401E5
:101FA000D1ED000A30EE600AF0EE401A474991ED9B
:101FB000000A21EE800AB0EE402AB0EE421ADFEDB0
:101FC000440ADFED442AF4EEE20AF1EE10FA01D2FF
:101FD000002128E081EE200ADFED3F2AB4EEE20A7C
:101FE000F1EE10FA03DDDFED3C2AB0EE620ADFED20
:101FF0003B2AB4EEE20AF1EE10FA03D2DFED372A03
:10200000B0EE620AB5EEC00AF1EE10FA02DBF6EEAF
:10201000002A01E0FEEE002A72EE802AFDEEE22A9E
:1020200012EE901A09B212AA22F81410601C84B29F
:10203000802CAAD303239FED260A802212A92846CA
:1020400002F0ACF84FF4807212A92548FEF7B3FAFB
:102050008020244908809FED1E0A234880ED000A55
:102060000120224908702248007885F8780021482C
:102070000178792041550021A42041556421A520F3
:1020800041554FF6F971A62041531BA003F0E9FB1F
:1020900001F08EF90DF5527DBDEC028B70BD000094
:1020A00000000000140600201404002043414C49A5
:1020B0004220444F4E453A2025752F2575207661E4
:1020C0006C69642062696E730D0A0000880000204C
:1020D0000AD7A33BCCBC8C2B00FEFF46000000C7F8
:1020E000140700206C000020700000207400002005
:1020F0008C0000208D000020434F4747494E472069
:1021000043414C49422046494E49534845440D0AF3
:102110000000000010B52DED048B0446F0EE408A5F
:1021200014B9BDEC048B10BD207900EE100AB8EE96
:10213000400ADFED2A0A20EE200A60EE280A94F910
:102140000C0000EE100AB8EEC01A254890ED000A07
:1021500000EE810A80ED000A90ED000A04F014F907
:102160001F4880ED000A94ED000AB0EEC08A9FED92
:102170001D0AB4EEC08AF1EE10FA03D29FED190ADF
:10218000B0EE408AB5EE000A28EE000AB0EE409AA2
:1021900094ED080AB0EE401A94ED080AB1EE400A38
:1021A000F0EE400AB0EE490A04F024F8B0EE409A8E
:1021B0009FED0D0A84ED060A84ED079AB5EE000A3C
:1021C00084ED090A064890ED000A84ED050A90EDB9
:1021D000000A204601F08DFE00BFA2E79A99993EC1
:1021E00068000020BD37863500000000002005E0B3
:1021F0000021044A42F82010411CC8B20428F7DB31
:10220000704700005409002010B503F079FA10BDA2
:102210000148006870470000E800002000B5002079
:102220000349088003490860FFF7E0FF00BD000094
:10223000E4000020E800002010B52748007820B90D
:10224000FFF7E2FF01202449087003F091FA0446E9
:1022500022480088401C2149088008460088002048
:1022600028B91F48006810B11D49086880471B48FD
:1022700000880521B0FBF1F201FB120028B91848D3
:10228000406810B116494868804714480088052105
:10229000B0FBF1F201FB120028B91148806810B1BF
:1022A0000F49886880470D480088B0F57A7F05D1CE
:1022B0000B48C06810B10A49C868804707480088C1
:1022C000B0F57A7F02D300200449088003F050FA69
:1022D000001B0449086010BDEC000020E400002051
:1022E00054090020E8000020042802DA014A42F8DC
:1022F000201070475409002010B5FFF759FB10BD9E
:1023000070470000F0B52DED048B83B007460D46F5
:102310001446B0EE408A1FB114B12088A84203DBF6
:1023200003B0BDEC048BF0BD2088281A0C2800D225
:10233000F6E718EE100A09F059FB41EC190B8DED88
:10234000009B2288A91AD01909A2FDF77DFF064635
:10235000002E00DAE4E7B0B22188691A884202DB75
:10236000681E2080DCE720883044208000BFD7E74B
:1023700020252E33660000000246114601B90121D6
:10238000C82900D9C821C82303EB5103B3FBF1F3DB
:1023900098B200B901207047002008490880084918
:1023A00008800849088008490880012007490880FA
:1023B000074908800020074908607047CC000020CA
:1023C000CE000020D0000020D2000020D400002049
:1023D000D6000020D8000020024602B109B9002032
:1023E000704792F8800010B192F8810008B900207F
:1023F000F6E70120F4E700002DE9F0432DED028B14
:1024000095B005460F4690469946002000904C46F0
:1024100005B127B915B0BDEC028BBDE8F083BDF85E
:102420000020C2F1500101AABDF80030D01861238C
:1024300058A2FDF709FF0646002E06DBB0B2BDF834
:102440000010C1F15001884200D3E3E7BDF800005D
:10245000304480B2009004F0010040B1D5ED070A8D
:10246000B0EE600A6A46502101A8FFF74BFF04F066
:10247000020040B1D5ED0F0AB0EE600A6A46502165
:1024800001A8FFF73FFF04F0040040B1D5ED170AA3
:10249000B0EE600A6A46502101A8FFF733FF04F04E
:1024A000080040B1D5ED1F0AB0EE600A6A4650211F
:1024B00001A8FFF727FF04F0100040B1D7ED0C0A88
:1024C000B0EE600A6A46502101A8FFF71BFF04F036
:1024D000200080B100EE108AB8EE400ADFED2E0A2F
:1024E00080EE201AB0EE418AB0EE480A6A465021CA
:1024F00001A8FFF707FF04F0800090B19FED270AC5
:10250000B0EE408A95F88C0018B195ED220AB0EE35
:10251000408AB0EE480A6A46502101A8FFF7F2FE51
:1025200000BF04F4807040B1D7ED090AB0EE600A34
:102530006A46502101A8FFF7E5FE04F4007040B19F
:10254000D7ED0A0AB0EE600A6A46502101A8FFF7EB
:10255000D9FEBDF80000801D502819D2BDF800201A
:10256000C2F1500101AABDF80030D01862230CA2BC
:10257000FDF76AFE0646002E06DBB0B2BDF800107D
:10258000C1F15001884200D344E701A803F069F982
:1025900000BF3FE7256300000000F042000000009C
:1025A000202563200000000070B52DED028B9AB04D
:1025B00004460D4634B95FA003F053F91AB0BDECE0
:1025C000028B70BD94F88000002839D094ED070A82
:1025D00010EE101A084609F009FA41EC180B8DEDBF
:1025E000008B5BA2602102A8FDF72EFE02A803F07B
:1025F00038F994ED0F0A10EE101A084609F0F6F9B2
:1026000041EC180B8DED008B5CA2602102A8FDF758
:102610001BFE02A803F025F994ED170A10EE101A1C
:10262000084609F0E3F941EC180B8DED008B5EA232
:10263000602102A8FDF708FE02A803F012F902E0EB
:1026400064A003F00EF994F88100002826D094EDE0
:10265000180A10EE101A084609F0C8F941EC180BD8
:102660008DED008B65A2602102A8FDF7EDFD02A8AB
:1026700003F0F7F894ED1F0A10EE101A084609F05F
:10268000B5F941EC180B8DED008B67A2602102A813
:10269000FDF7DAFD02A803F0E4F802E06EA003F013
:1026A000E0F894F88C00002826D094ED210A10EE72
:1026B000101A084609F09AF941EC180B8DED008BC1
:1026C0006FA2602102A8FDF7BFFD02A803F0C9F8C0
:1026D00094ED220A10EE101A084609F087F941EC31
:1026E000180B8DED008B70A2602102A8FDF7ACFDE8
:1026F00002A803F0B6F802E076A003F0B2F800EE0C
:10270000105AB8EE400ADFED7C0A80EE201A11EE76
:10271000106A304609F06AF941EC180B8DED008B18
:1027200076A2602102A8FDF78FFD02A803F099F8B8
:1027300000BF43E7666565646261636B2E73746115
:102740007475733D696E76616C69640D0A000000F2
:102750006D6561737572656D656E742E70686173F9
:10276000655F63757272656E745F615F616D7065E0
:1027700072653D252E33660D0A0000006D6561739C
:102780007572656D656E742E70686173655F6375D3
:102790007272656E745F625F616D706572653D2512
:1027A0002E33660D0A0000006D6561737572656DEC
:1027B000656E742E70686173655F63757272656EA5
:1027C000745F635F616D706572653D252E33660DC4
:1027D0000A0000006D6561737572656D656E742E1B
:1027E00063757272656E742E7374617475733D696E
:1027F0006E76616C69640D0A000000006D6561739E
:102800007572656D656E742E656E636F6465725F5B
:10281000616E676C655F7261775F7261643D252EE2
:1028200033660D0A000000006D6561737572656D99
:10283000656E742E656E636F6465725F616E676C42
:10284000655F66696C74657265645F7261643D257D
:102850002E33660D0A0000006D6561737572656D3B
:10286000656E742E656E636F6465722E7374617429
:1028700075733D696E76616C69640D0A0000000035
:102880006D6561737572656D656E742E76627573B4
:102890005F766F6C746167655F7261775F763D2507
:1028A0002E33660D0A0000006D6561737572656DEB
:1028B000656E742E766275735F766F6C7461676592
:1028C0005F66696C74657265645F763D252E33665C
:1028D0000D0A00006D6561737572656D656E742E0D
:1028E000766275732E7374617475733D696E76616B
:1028F0006C69640D0A0000000000F042636F6E74A2
:10290000726F6C2E657865637574696F6E5F74693C
:102910006D655F75733D252E33660D0A0D0A000047
:102920002DE9F0478046894616461C462948076827
:102930001EB1707808B1BDE8F08704B32078F0B11B
:10294000658825480088854206D0234805802846AA
:10295000FFF712FD2149088021480088401C2049CA
:102960000880084600881D490988884206DB002047
:102970001B49088039464046FFF716FE00BF3CB3AE
:10298000607828B349464046FFF726FDF8B1A58890
:1029900014480088854206D0124805802846FFF773
:1029A000EBFC1149088011480088401C0F49088041
:1029B000084600880C490988884208DB00200B493A
:1029C0000880E3883A4649464046FFF715FD00BFB8
:1029D00000BFB0E7D8000020D0000020D4000020C5
:1029E000CC000020D2000020D6000020CE00002025
:1029F0000149086070470000D800002070B52DED37
:102A0000088B04460D46F0EE409AB0EE60AAF0EE58
:102A1000418A04B125B99FED550ABDEC088B70BD04
:102A2000B0EE680A02F082FDF0EE408A39EECA8A02
:102A3000B0EEC80AD5ED020AB4EEE00AF1EE10FAE3
:102A40000AD89FED4A0A84ED030A9FED480A84EDF7
:102A5000040A9FED460AE0E794ED030A08EE280A0F
:102A600084ED030AD5ED011AB0EE611AD5ED011A15
:102A7000F1EE611AF0EE610AD4ED031AB0EE610ACC
:102A800003F0B8FB84ED030A94ED040A38EE400A23
:102A900080EE289A94ED010AD4ED030A20EE200A74
:102AA000D4ED000A00EE880AD4ED020A00EE890A8D
:102AB000F0EE40AA94ED060AB0EE401A94ED050A35
:102AC000F0EE400AB0EE6A0A03F094FBF0EE40AA82
:102AD00094ED010ADFED260AB4EEE00AF1EE10FAF9
:102AE0003EDD94ED050AD4ED000A00EEC80AD4EDEF
:102AF000020A00EEC90AD4ED010A80EE201AB0EEF7
:102B000041BA94ED060AD4ED000A00EEC80AD4EDED
:102B1000020A00EEC90AD4ED010A80EE201AF0EE96
:102B200041BAD4ED030AB0EE600AB0EE6B1AF0EED3
:102B30004B0A03F05FFB84ED030AD5ED011AB0EEFA
:102B4000611AD5ED011AF1EE611AF0EE610AD4EDC9
:102B5000031AB0EE610A03F04DFB84ED030A00BFD7
:102B600084ED048AB0EE6A0A57E700000000000016
:102B7000BD37863510B58EB0044600F0D5FA1E4834
:102B800003F096FD002005908DF818009FED1B0ABC
:102B90008DED070A9FED190A8DED080A9FED170AC2
:102BA0008DED090A9FED150A8DED0A0A9FED130AB6
:102BB0008DED0B0A9FED110A8DED0C0A9FED0F0AAA
:102BC0008DED0D0A05A800210B460A46CDE900103F
:102BD0000949022003F072FD5CB1002001900290CF
:102BE0000390049001208DF8100001A805F062FB0D
:102BF00000BF0EB010BD00006409002000000000FE
:102C00002DE9F0472DED028BBAB0002036903790B9
:102C10003890399002F0D0FD02F086FD012108467F
:102C200002F0FBFD0121022002F0F7FD012103204B
:102C300002F0F3FD02F05CFDFFF7F0FA7C4802F0D1
:102C4000E6FD7C490120FFF74FFB7B490020FFF7A1
:102C50004BFB7A490220FFF747FB002002F0CEFD34
:102C600002F01EFD05F022FB754805F019FBBDF8CA
:102C7000D80040F00500ADF8D800724803F012FD0E
:102C800071A002F0EEFD78A002F0EBFDBDF8D800D7
:102C900040F00200ADF8D800FFF77EFBBDF8D80089
:102CA00040F00800ADF8D8009FED770A182003F037
:102CB000D7FC764803F0E2FC744890F8800050B1ED
:102CC000724890F8810030B1BDF8D80040F0100093
:102CD000ADF8D80005E0BDF8DA0040F01000ADF81E
:102CE000DA006A4890ED220AF2EE000AB4EEE00A39
:102CF000F1EE10FA06DDBDF8D80040F08000ADF826
:102D0000D80005E0BDF8DA0040F08000ADF8DA0048
:102D10000221182003F09CFC5D4802F086FDBDF8FE
:102D2000D80040F02000ADF8D8000022FFEE001AD5
:102D300007219FED581ADFED580AB2EE080A414804
:102D400003F0E4FBBDF8D80040F04000ADF8D80037
:102D50003B48524B524A534900903A4803F0F4FB27
:102D60004A4890ED220A10EE101A084608F03EFE7E
:102D700041EC180B334890ED040AB5EEC00AF1EEB1
:102D800010FA06DDD0ED080A90ED041A80EE810AF3
:102D900001E09FED450A10EE104A204608F026FE9D
:102DA0000E460546274890ED080A10EE101A084610
:102DB00008F01CFE88460746224890ED040A10EEF3
:102DC000101A084608F012FE8A4681461D4890ED0A
:102DD000020A10EE101A084608F008FECDE90C01B0
:102DE0008DED0A8B1748CDE9049ACDE90678CDE937
:102DF00008560079134991F90C10CDE90210DDE96C
:102E00000C012A4ACDE90001A0210EA8FDF71CFA09
:102E10000EA802F026FD01208DF8DC0036A805F092
:102E200049FA00F09FF93AB0BDEC028BBDE8F0879B
:102E30003922000801910008796700081164000830
:102E4000840C0020640900200D0A3D3D3D20464FC2
:102E5000432053797374656D205374617274656493
:102E6000203D3D3D0D0A0000496E6974206D6F7470
:102E70006F722C706C6561736520776169742E2E9A
:102E80002E0D0A0D0A00000000003442100B002035
:102E9000492F000833335341666636414C0C0020FD
:102EA000680C0020300C00200000000054FA0008DC
:102EB00038B51C48007870B100201A490870FFF737
:102EC000A7F90446FFF794FD174B03F108021749D1
:102ED0001748FFF725FD1748007808B3002015496B
:102EE0000870012005F0CDF910B10A2012490880C0
:102EF0000D48583890F8620090B10B4858380F4B85
:102F00000F4A10490090094803F088FA06485838DB
:102F1000D0ED040AB0EE600A03F021FC05F0ADF933
:102F200038BD0000F1000020DC0C00206409002006
:102F3000100B0020F0000020000100204C0C0020AD
:102F4000680C0020300C002030B52DED028B8BB0CA
:102F5000002503F000FC2D48007818B90BB0BDEC3B
:102F6000028B30BD02242A480078401C2849087092
:102F700008460078A04200DAF0E7002024490870F3
:102F8000244890ED000A244880ED090A00EE104A1A
:102F9000B8EE400ADFED210A80EE208A03F07EFBC6
:102FA00040B11F4803F072FB1D4890F8800000B943
:102FB000D4E71B4D029500208DF80C009FED190AF7
:102FC0008DED040A9FED170A8DED050A9FED150A98
:102FD0008DED060A144890ED000A8DED070A9FED6D
:102FE000110A8DED080A9FED0F0A8DED090A8DED8E
:102FF0000A8A02A800210B460C4ACDE900100649B6
:10300000012003F05BFB00BFA8E70000F2000020F6
:10301000F3000020F4000020640900200080BB467B
:10302000A00B002000000000F8000020300C002061
:1030300010B58CB0044603942C4800788DF810002D
:103040002A4890ED030A8DED050A90ED010A8DEDF9
:10305000060A90ED020A8DED070A9FED250A8DED17
:10306000080A9FED230A8DED090A9FED210A8DEDD7
:103070000A0A9FED200A8DED0B0A9DF810001E49EB
:103080000978884206D01D4803F012FB9DF8100015
:103090001949087003A81A491A4B1B4ACDE90010B8
:1030A0001649002003F00AFB18B900F03DF80CB0F7
:1030B00010BDDDED0B0AB0EE600A21460F4800F0AE
:1030C0002FFB21460D4800F0D3FF0C4890ED090A74
:1030D0000E4880ED000A094890ED050A0C4880ED85
:1030E000000A01200B49087000BFE0E7840C0020B3
:1030F000000000006F12833AFC00002064090020E9
:103100004C0C0020680C0020300C0020F400002043
:10311000F8000020F200002010B502F098FB01201A
:1031200002F06CFB10BD00000020084908709FED04
:10313000080A084880ED000A074890ED050A07488C
:1031400080ED000A0020064908707047F200002058
:1031500000000000F400002064090020F8000020B6
:10316000F300002070B500240025244890F8610089
:1031700038B100BF0125002021490870214908808D
:1031800021E01E4890F86000B8B11E48008863280E
:103190000BD300201B4908801948007808B901208A
:1031A00000E000201649087004E016480088401C22
:1031B000144908801248047805E0002400201049D2
:1031C0000870104908802146012002F026FB29469C
:1031D000032002F022FB0C48008848B101210220A4
:1031E00002F01BFB08480088401E0749088003E0E6
:1031F0000021022002F011FB70BD0000840C0020B1
:10320000FD000020FE00002000010020F0B52DEDA3
:10321000048B83B004461CB903B0BDEC048BF0BD35
:1032200094ED020AFFEE000AB4EE600AF1EE10FA25
:1032300001D1012000E000200746207B08B90120D1
:1032400000E000200546207908B9012000E00020B8
:10325000064617B90DB906B9DEE7D4ED068A94ED36
:10326000079A94ED080ADFED390A20EE200AB0EE45
:10327000408A94ED080AB0EE401ADFED350AB0EE50
:10328000480A02F0B7FFB0EE408A9FED310A84EDA4
:10329000070A84ED068A5FB36B46182278219FEDFA
:1032A0002C0A204602F024FB78B19DED000A84ED43
:1032B000020A9DED000A84ED0C0A9DED000A84EDE2
:1032C0000D0A012084F838001AE0BFEE000A84EDF0
:1032D000020A9FED1F0A84ED0C0A9FED1D0A84ED82
:1032E0000D0A002084F838001AA002F0BAFA07E0AC
:1032F0009FED170A204601F0E2F8782002F0ABFAC1
:1033000005B9BEB101AA02A9204601F055FC40B1A1
:1033100015B19DF90800207366B19DF80400207175
:1033200008E00DB1002020730EB100202071194873
:1033300002F097FAC4ED068A84ED079A9FED040A1D
:10334000204601F0BCF800BF66E700009A99193FDB
:1033500000000000696E69742E63616C69623A2036
:103360007A65726F2D6C6F636B2073616D706C6921
:103370006E67206661696C65642C206B65657020E2
:103380007A65726F20617320756E646566696E651B
:10339000640D0A00F8F800080146012901DA01204D
:1033A0007047202901DD2020FAE7C8B2F8E70000C5
:1033B00070B52DED028BA4B01E48007830B91EA068
:1033C00002F04FFA24B0BDEC028B70BD2648058890
:1033D0001DB926A002F045FAF4E72EA002F041FA4A
:1033E00000241FE0344931F91400344991ED000AFA
:1033F00003F007FF10EE106A304608F0F7FA41ECD0
:10340000180B8DED028B2C4830F9140023462CA2AA
:103410008021009004A8FCF717FF04A802F021FA0D
:10342000601C84B2AC42DDDB2EA002F01AFA00BFB1
:10343000C8E70000740000202D2D2D20434F474782
:10344000494E47204C55542044554D503A206E6FFC
:10345000207461626C6520617661696C61626C6583
:10346000202D2D2D0D0A00006C0000202D2D2D206B
:10347000434F4747494E47204C55542044554D50E3
:103480003A20656D707479207461626C65202D2D11
:103490002D0D0A002D2D2D20434F4747494E472023
:1034A0004C55542044554D50202851313529202D5C
:1034B0002D2D0D0A000000001407002070000020D0
:1034C000636F6767696E672E7461626C655B2575F3
:1034D0005D3D2564202028252E36662041290D0AD1
:1034E000000000002D2D2D20454E44204C55542029
:1034F00044554D50202D2D2D0D0A000070B5A0B063
:103500004148007838B941A002F0ABF94BA002F075
:10351000A8F920B070BD56A002F0A3F95E48038858
:103520005EA280216846FCF78FFE684602F099F99A
:1035300000245DE004F0070010B965A002F091F9E5
:10354000654830F9143065A280216846FCF77CFE9E
:1035500051480088401EA0420DD96846FDF70CF87E
:1035600005467E2D06D22C200DF805000021681C92
:103570000DF8001000BF601C00F0070078B9684625
:10358000FCF7FAFFC0F180056846FCF7F5FF6946D5
:10359000461853A229463046FCF756FE23E03E4823
:1035A0000088401EA0420FD96846FCF7E5FFC0F135
:1035B00080056846FCF7E0FF6946461849A229469F
:1035C0003046FCF741FE0EE06846FCF7D5FFC0F13F
:1035D00080056846FCF7D0FF6946461840A2294698
:1035E0003046FCF731FE684602F03BF9601C84B2BD
:1035F0002948008884429DDB3BA002F032F93CA0C0
:1036000002F02FF900BF84E774000020434F4747C2
:10361000494E47204558504F52543A206E6F206310
:10362000616C69627261746564207461626C6520AA
:10363000617661696C61626C650D0A0052756E207D
:10364000636F6767696E672063616C69627261743A
:10365000696F6E2066697273742028593A47292071
:103660007468656E2072657472792E0D0A00000010
:103670002D2D2D20434F4747494E47204C55542070
:103680004558504F525420284320636F64652920C9
:103690002D2D2D0D0A0000006C0000207374617444
:1036A000696320636F6E737420696E7431365F7462
:1036B00020636F6767696E675F7461626C655F71D5
:1036C00031355B25755D203D207B0D0A0000000033
:1036D0002020202000000000140700202535640071
:1036E0000D0A0000200000007D3B0D0A00000000D4
:1036F0002D2D2D20454E44204558504F5254202DFD
:103700002D2D0D0A00000000014890ED000A7047C1
:1037100088000020012001490870704764000020E3
:10372000F0B52DED068B8FB004460D46F0EE408AC5
:1037300004B125B900200FB0BDEC068BF0BDE84800
:10374000007828B10020E6490870204600F060FAB1
:10375000E448007820B10020E2490870FFF728FE15
:10376000E148007820B10020DF490870FFF7C6FE6D
:10377000A420005D08B90020DDE7F5EEC08AF1EE77
:1037800010FA03D89FEDD90AF0EE408AA620005B1C
:10379000A0F57F40FA3805287ED2DFE800F0FEFD74
:1037A000AB2D030094ED050AD14880ED000A95ED9C
:1037B0001F0AD04880ED000A9FEDCF0ACF4880ED68
:1037C000000A0020CE4908704FF6FF70CD490880EE
:1037D0000020CD490880B0EE680A2046FEF79AFC2A
:1037E0004FF6FD71A62001530021A8200155C7A066
:1037F00002F037F801209EE7B0EE680A2046FEF797
:1038000089FC95ED1F0AB0EE408ABA48D0ED000A57
:10381000B0EE480AFEF702FBB0EE409AB74890EDD2
:10382000000A30EE090A80ED000AB24880ED008AF5
:10383000B24890ED000ADFEDBF0AB4EEE00AF1EE07
:1038400010FA33DBAE480078401CAD4908709FED9C
:10385000AA0AAA4880ED000A0846007830B34FF65D
:10386000FC71A62001530021A82001550020A44985
:1038700008709FEDA10AA14880ED000A4FF6FF7085
:10388000A04908800020A0490880AB4908709948E9
:1038900080ED008A012300E01FE1A8A2302103A8E7
:1038A000FCF7D2FC03A801F0DCFF00BF94480078CD
:1038B00000EE900AF8EE600AB7EE001AC0EE811A28
:1038C000B0EE610AF7EE000AB4EEE00AF1EE10FA8B
:1038D00003DDF7EE000AB0EE600AF2EE040A60EED5
:1038E000200AFCEEE00A10EE900AC1B2A5200155B4
:1038F000012020E7B0EE680A2046FEF70BFC95EDAC
:103900001F0AB0EE408A7B48D0ED000AB0EE480AAC
:10391000FEF784FAB0EE409A784890ED000A30EE57
:10392000090A80ED000A734880ED008A207900EED4
:10393000100AB8EE400A6E48D0ED000A80EE801AF8
:10394000F0EE419A78EE690AB0EE600A02F03AFDB4
:10395000B0EE40AAB0EE480AFEF788FA064669487B
:10396000008886421CD0814800EB860090ED000A5A
:1039700030EE0A0A7D4800EB860080ED000A7C48A4
:1039800030F81600401C7A4921F816005D48068080
:103990005D480088401C01E065E099E05A490880D4
:1039A0005949098800EE901AF8EE600A9FED711AE5
:1039B000C0EE811AB0EE610AF7EE000AB4EEE00A3A
:1039C000F1EE10FA03DDF7EE000AB0EE600A6A4984
:1039D000097800EE901AF8EE600A70EE800A9FED0A
:1039E000671A60EE810AB0EE001AC0EE811AFCEE92
:1039F000E10A10EE901AC8B2642800D96420A5210B
:103A000008554148008800EB80004000C0F3C7170C
:103A100049480078874212D047480770A520005DCA
:103A20000221CDE90010544803785B1C54A23021D8
:103A300003A8FCF709FC03A801F013FF00BF3248FC
:103A4000008880280DD34C480078401C4A490870F3
:103A50000021A82001554FF6FB71A620015301203B
:103A600069E6012067E644480078022827D2002151
:103A7000A82001554FF6FC71A62001539FED1E0AA8
:103A80001E4880ED000AC81C1E49088000202A49F3
:103A900008701D4908801A49087095ED1F0A1548DD
:103AA00080ED000A02200090334803783DA23021C7
:103AB00003A8FCF7C9FB03A801F0D3FE06E04FF60C
:103AC000FA71A62001533EA001F0CBFE012032E6A0
:103AD0002046FEF7F7F900202DE600202BE6000037
:103AE0006400002065000020660000206F12833A09
:103AF000680000207C00002000000000780000200A
:103B000084000020800000208200002043414C49B6
:103B1000423A20737461727420646F6E652C206564
:103B20006E746572696E6720736574746C650D0AD6
:103B300000000000DA0FC9408500002043414C49D5
:103B4000423A20736574746C6520646F6E6520283A
:103B500025752072657673292C20737461727469DF
:103B60006E67207363616E0D0A000000140400206C
:103B70001406002000000043750000200000C84229
:103B800043414C49423A20706173732025752F25BB
:103B9000752C2070726F67726573732025752525EB
:103BA0000D0A000043414C49423A20706173732072
:103BB00025752F257520646F6E650D0A00000000C5
:103BC00043414C49423A20616C6C207061737365CB
:103BD0007320646F6E652C20636F6D707574696EF1
:103BE00067207461626C650D0A000000B5EEC00AC2
:103BF000F1EE10FA02DBF0EE400A01E0DFED020A1E
:103C00000248C0ED000A7047000000008800002054
:103C100070B504460CB9002070BDA420005D08B149
:103C20000020F9E700250CE09FED230A234800EB74
:103C3000850080ED000A0020214921F81500681C4C
:103C400085B2802DF0D30121A42001550021A520AB
:103C500001554FF6FE71A62001530021A820015501
:103C60000020184908709FED140A174880ED000ADB
:103C7000BFEE000A154880ED000A9FED0F0A1448B8
:103C800080ED000A4FF6FF701249088000201249AB
:103C9000087012490880124908701249087094F897
:103CA0007800114908707920005D1049087010A053
:103CB00001F0D7FD0120AFE7000000001404002050
:103CC0001406002075000020680000207C00002001
:103CD0007800002080000020850000208200002065
:103CE00084000020740000208C0000208D00002043
:103CF000434F4747494E472043414C494220535484
:103D000041525420286F70656E2D6C6F6F7020705B
:103D10006F736974696F6E2D6572726F72206D6555
:103D200074686F64290D0A0010B52DED048B0446EC
:103D3000F0EE408AB0EE609A14B9BDEC048B10BD71
:103D400094F88C0010B18D20005D00B9F5E7F0EE1D
:103D5000490AB0EE680A04F1AC0104F18C0000F0ED
:103D6000D7F8B0EE408A94ED090A30EE480A84EDA7
:103D7000090A00BFE1E7000070B52DED068B04468F
:103D8000B0EE409A0D46B0EE490A02F0FDFAB0EEF0
:103D9000409A84ED059AD4ED040AB0EE601AD4ED91
:103DA000080AB0EE600ADFED490A02F023FAF0EEED
:103DB000408AD4ED060A60EEA00A94ED071AD4ED0D
:103DC000071A41EE210AB0EE600A06F0B0F8B0EE34
:103DD000408A94ED060AB0EE40AA94ED070AF0EE90
:103DE00040AAB4EEE88AF1EE10FA15DD9FED380A2C
:103DF000B4EEC08AF1EE10FA0EDDC8EE880AB0EE1D
:103E0000600A6AEE000AB0EE60AA6AEE800AF0EE7E
:103E100060AAB0EE688A00BF04F14401081FB0EE4A
:103E2000491AF0EE6A0AB0EE4A0A02F05FFA94ED1F
:103E3000111AF0EE410A94ED101AB0EE410A04F1A5
:103E40005002111F081F02F037FAB0EE681ADFEDBA
:103E50001F0AB0EE480A02F0CDF9F0EE409ACDB15B
:103E6000D4ED041AB0EE612AD4ED141AB0EE611A42
:103E7000D4ED131AF0EE610AD4ED121AB0EE610A15
:103E800004F15C031A1F111F181DF0EE691A04F0EB
:103E90001DFE18E0D4ED041AB0EE612AD4ED141A18
:103EA000B0EE611AD4ED131AF0EE610AD4ED121AD5
:103EB000B0EE610A04F15C031A1F111F181DF0EE29
:103EC000691A04F03EFEBDEC068B70BD00000000D8
:103ED000BD37863510B52DED028B0446B0EE408A15
:103EE0000121B0EE480A2046FFF746FFBDEC028BE9
:103EF00010BD10B52DED028B0446B0EE408A0021B6
:103F0000B0EE480A2046FFF737FFBDEC028B10BD2C
:103F10002DE9F0412DED088B04460E46F0EE408A67
:103F2000B0EE609A04B12EB99FED4F0ABDEC088B3C
:103F3000BDE8F081B5EEC09AF1EE10FA02DBB0EE0A
:103F4000490A01E0B1EE490AF0EE40BA94ED030AE5
:103F5000B4EEEB0AF1EE10FA02DD9FED430AE5E75D
:103F6000607808B1A08810B99FED3F0ADEE7B0EE97
:103F7000680A05E0DFED3D0A70EE200AB0EE600A47
:103F8000B5EEC00AF1EE10FAF4D305E0DFED370A22
:103F900070EE600AB0EE600ADFED340AB4EEE00ABB
:103FA000F1EE10FAF2DAF0EE408AA08801EE100A83
:103FB000B8EE411ADFED2D1A81EE812AF0EE420AA9
:103FC00088EEA01AB0EE410ABCEEC01A11EE100A3B
:103FD00085B201EE105AB8EE411A30EE41BAA0880F
:103FE000A84202DCA088401E85B2681C87B2A08867
:103FF000B84200DC0027D4ED020AB0EE600A36F9C0
:10400000150003F0FEF8F0EE409AD4ED020AB0EE8F
:10401000600A36F9170003F0F4F8B0EE40AA3AEE61
:10402000690AF0EE69AA4BEE00AAB0EE6A8A94ED36
:10403000040AB4EEC80AF1EE10FA03D294ED040AB1
:10404000B0EE408A94ED040AB1EE400AB4EEC80A1C
:10405000F1EE10FA05DD94ED040AB1EE400AB0EE7F
:10406000408AB0EE480A61E700000000DA0FC9405C
:1040700070B504460D4604B105B970BDA420005DBD
:1040800050B994ED0B1AF0EE410A95ED1F1AB0EEFF
:10409000410A2046FFF748FE00BFEEE710B5044690
:1040A00004B910BD9FED2A0A84ED190A9FED290A73
:1040B00084ED1A0A9FED280A84ED1B0A9FED270A5A
:1040C00084ED1C0AB7EE000A84ED1D0A012084F875
:1040D00078000221792001557A2001557920005D70
:1040E00010B99FED1F0A01E0B7EE000A84ED1F0A28
:1040F0009FED1C0A84ED200AB6EE000A84ED210A29
:10410000204601F0D7FB012084F88C0000218D208F
:10411000015501218E2001558021902001539FEDF2
:104120000E0A84ED250AB1EE080A84ED260AB6EEE1
:10413000000A84ED270A002006E0002204F1AC0109
:1041400021F81020411C88B28028F6DB00BFA8E7C8
:104150006F12833ACDCC4C3D0AD7A33B9A99193FB5
:1041600000000000CDCC4C3E10B500F00CF910BDA5
:1041700070B52DED028B04460D461646B0EE408A12
:10418000F0EE608AF0EE680AB0EE480A3246294640
:10419000204600F0A7FABDEC028B70BD2DE9F0417E
:1041A0002DED028B04460F461546B0EE408A984628
:1041B00004B127B90020BDEC028BBDE8F081802D51
:1041C00000D980252E467200394604F1AC00FCF778
:1041D000F2F99020055384ED258A84F88E80012120
:1041E0008D2001550120E6E710B52DED048B044626
:1041F000B0EE409A24B99FED240ABDEC048B10BDAB
:10420000207940B194ED020AFFEE000AB4EE600A94
:10421000F1EE10FA02D194ED050AEEE7207900EEF6
:10422000100AB8EE400ADFED190AC0EE808AD4ED1C
:10423000020A79EE600AB0EE600A02F0C3F8F0EE0E
:10424000409AF0EE680A05F0DDFDB0EE408AB5EE6A
:10425000C08AF1EE10FA03D238EE280AB0EE408A96
:1042600094F90C0000EE900AF8EEE00A20EE881AAD
:10427000207900EE900AF8EE600A61EE200AB0EEB6
:10428000600A02F081F8B8E700000000DA0FC940C8
:1042900010B52DED028B0446B0EE408AF0EE608A38
:1042A0009FED051AF0EE680AB0EE480A204600F0CD
:1042B00045F9BDEC028B10BD6F12833A2DE9F04732
:1042C0002DED048B8146884615461E46F0EE409A39
:1042D000F0EE608AB0EE419AB0EE618ADDE90C74CE
:1042E000012C05D024B10020BDEC048BBDE8F08783
:1042F0001D48007820B91D48047001201A49087033
:104300001A480078844214D034B9D7ED1F0AB0EEB1
:10431000600A484600F02CF8404601F0AFFA284603
:1043200001F0ACFA304601F0A9FA00F067F80F4846
:104330000470012C09D1F0EE480A3A46B0EE690A41
:104340002946484601F00EFC0BE0B0EE481A3B4609
:10435000F0EE490AB0EE680A32462946484601F0B6
:1043600039FB0120C0E70000570000205600002064
:1043700000B9704780ED0C0A80ED0D0A012180F82C
:10438000381000BFF5E701207047000010B5044663
:1043900004B910BD204601F08DFA7920005D38B9CE
:1043A00000217A2001559FED140A84ED1F0A20E0B8
:1043B0007920005D012807D101217A200155B7EE4F
:1043C000000A84ED1F0A14E07A20005D30B17A20E3
:1043D000005D012802D001217A2001557A20005D7C
:1043E000012802D1B7EE000A01E09FED030A84ED37
:1043F0001F0A00BFCDE700000000000010B501F06B
:1044000061FA10BD00B9704709B1012200E0002235
:1044100080F88C2000BFF6E7B5EEC00AF1EE10FA86
:1044200002D29FED061A01E0B0EE401AF0EE410A0A
:1044300000B97047C0ED210A00BFFAE70000000094
:10444000B5EEC00AF1EE10FA02D29FED061A01E0B5
:10445000B0EE401AF0EE410A00B97047C0ED200AF4
:1044600000BFFAE70000000070B504460D4604B92D
:1044700070BD0DB1012000E00020064694F87800E0
:10448000B04204D084F87860204601F013FA00BFEF
:10449000EEE770B505460C4605B970BD24B1012C98
:1044A00002D0022C00D0012479204455022C01D0E6
:1044B0007A204455284601F0FDF900BFEDE710B51C
:1044C0002DED028B0446B0EE408A14B9BDEC028B90
:1044D00010BDB0EE480A2046FFF7FCFC00BFF5E730
:1044E00070B52DED028B82B004460D461646B0EE37
:1044F000408AD4ED050AB0EE600A01A9304600F00A
:104500008BF9D4ED090AB0EE600AB0EE481ADDED81
:10451000010A284600F002FAF0EE408A9DED010AF9
:1045200084ED0A0A9FED040A84ED060AC4ED078AA9
:1045300002B0BDEC028B70BD0000000010B52DED87
:10454000048B0446B0EE409AF0EE608AB0EE418AE9
:1045500014B9BDEC048B10BDB0EE480A00F0F6FFB4
:10456000B0EE408ADFED1C0A28EEA01A207900EE9A
:10457000900AF8EE600A61EE200A20EE881A94F99B
:104580000C0000EE900AF8EEE01AD4ED050A41EEB8
:10459000210AB0EE600A01F0F7FE84ED050A9FEDF6
:1045A0000F0A84ED060A94ED080AB0EE401A94ED65
:1045B000080AB1EE400AF0EE400AB0EE490A01F0F6
:1045C00019FE84ED070AD4ED050AB0EE600A204614
:1045D000FFF78FFC00BFBCE7DA0FC9400000000006
:1045E0002DE9F0432DED088B83B004460F4690462D
:1045F000F0EE408A9FED3A0A8DED020A9FED380AEF
:104600008DED010A9FED360A8DED000A1CB117B140
:10461000B8F1000F04D103B0BDEC088BBDE8F08306
:1046200004F1780504F18809B0EE680A424639467B
:104630002046FFF755FF94ED069AD4ED079A94EDC6
:104640000AAAD4ED090AB0EE600A6B4601AA02A9D3
:10465000DFED230A204600F009F994ED090AB0EED7
:10466000C00AB0EE40BA284600F00AFA0646012E0B
:1046700002D1B7EE000A01E09FED190AF0EE40AA60
:10468000D5ED010AB0EE600AB0EE681AF0EE6A0AE3
:10469000484600F04BFAB0EE408A85ED018A9DED68
:1046A000020A79EE400A9DED020A00EE880A84EDC6
:1046B000060A9DED010A79EEC00A9DED010A00EEA1
:1046C000880A84ED070A9DED000A7AEE400A9DED06
:1046D000000A00EE880A84ED0A0A00BF9BE700008A
:1046E000000000002DE9F0412DED028B04460F463D
:1046F0001546F0EE408AB0EE608A1CB9BDEC028B24
:10470000BDE8F08104F18806B0EE680A01F03CFED5
:1047100084ED050AB0EE480A00F018FFB0EE408ABA
:1047200005B107B9EAE794F8780038B1B0EE480A65
:104730002A4639462046FFF753FF2EE00EB10020EF
:1047400030707920005D01280ED101217A200155B9
:10475000B7EE000A84ED1F0AB0EE480A2A46394631
:104760002046FFF7BDFE18E000217A2001559FED9D
:104770000F0A84ED1F0AD4ED090AB0EE600ADFEDDE
:104780000B0A204600F014F8D4ED050AB0EE600ADA
:1047900004F12801284600F03FF8D4ED050AB0EEF8
:1047A000600A2046FFF7A5FB00BFA7E70000000056
:1047B00010B52DED028B84B00446B0EE408AF0EEC9
:1047C000608A9FED140A8DED030A9FED120A8DEDAC
:1047D000020A9FED100A8DED010A1CB904B0BDEC70
:1047E000028B10BD01AB02AA03A9F0EE680AB0EE7D
:1047F000480A204600F03AF89DED020A84ED070AC7
:104800009DED030A84ED060A9DED010A84ED0A0A76
:1048100000BFE3E70000000030B52DED028B83B050
:104820000446B0EE408A0D4604B11DB903B0BDEC9C
:10483000028B30BDD4ED171AB0EE611AD4ED0F1A09
:10484000F0EE610AD4ED071AB0EE610A01A902A8E0
:1048500001F0E6FC29466846B0EE481ADDED010A93
:104860009DED020A01F068FD00BFDFE72DE9F04190
:104870002DED088B0446B0EE40BAF0EE60AA0D466E
:1048800016461F4614B10DB106B11FB9BDEC088B19
:10489000BDE8F081D4ED040AB0EE601AD4ED080A48
:1048A000B0EE600ADFED1B0A01F0A4FCB0EE409A06
:1048B00094ED000AB0EEC08A9FED170AB4EEC08AEC
:1048C000F1EE10FA03D29FED140AB0EE408AC9EE61
:1048D000088AB0EE681AF1EE680AB0EE4B0A01F0F1
:1048E00089FCF0EE409AB0EE681AF1EE680AB0EE7C
:1048F0006A0A01F07FFCB0EE40AA29EE880A86ED34
:10490000000A2AEE080A85ED000AC7ED009A00BFEA
:10491000BCE7000000000000BD37863510B52DED66
:104920000A8B0446F0EE40AAB0EE60BAF0EE418A7F
:1049300024B99FED4F0ABDEC0A8B10BDB0EE680A9A
:1049400000F004FEF0EE408A3AEECB9AB0EEC90ACF
:10495000DFED480AB4EEE00AF1EE10FA02D89FED5E
:10496000448A01E0B0EE498AB7EE001ADFED400A52
:104970009FED410A01F03EFCB0EE40AAB5EEC08AC0
:10498000F1EE10FA06D194ED030A20EE0A0A84ED46
:10499000030A05E094ED030A08EE280A84ED030AF1
:1049A00094ED040A38EE400AC0EE28BA94ED010AEC
:1049B000D4ED030A20EE200AD4ED000A00EE880AA6
:1049C000D4ED020A00EEAB0AF0EE409A94ED060A2E
:1049D000B0EE401A94ED050AF0EE400AB0EE690A16
:1049E00001F008FCF0EE409A94ED050AB4EEE90AF5
:1049F000F1EE10FA04DBB5EEC08AF1EE10FA0BD33B
:104A000094ED060AB4EEE90AF1EE10FA0AD8B5EE12
:104A1000C08AF1EE10FA05DD94ED030A08EE680A8B
:104A200084ED030A94ED010ADFED140AB4EEE00A06
:104A3000F1EE10FA16DD94ED060AB0EEC00AD4EDE0
:104A4000010A80EE201AB0EE41CAD4ED030AB0EE9E
:104A5000600AB0EE4C1AF1EE4C0A01F0CBFB84ED8B
:104A6000030A00BF84ED048AB0EE690A63E7000020
:104A700000000000CDCC4C3D48E17A3FBD37863583
:104A800010B52DED048B0446B0EE408A607828B94D
:104A90000020A070A078BDEC048B10BD60780128C8
:104AA00002D1A070A078F6E7D4ED020AB0EE600A59
:104AB0009FED1C1ADFED1C0A01F09CFBB0EE409A42
:104AC000D4ED030AB0EE600A9FED161ADFED160A68
:104AD00001F090FBF0EE408AA07868B1A078012840
:104AE0000AD0B4EEE88AF1EE10FA01DB012000E012
:104AF0000020A070A078CEE7A078012807D1B4EEFE
:104B0000C98AF1EE10FA02D80020A07008E0A0785F
:104B100030B9B4EEE88AF1EE10FA01DB0120A070A2
:104B2000A078B8E7002474490000000010B52DED0E
:104B3000048BB0EE408A0446B0EE609AF0EE418AF3
:104B4000B7EE001ADFED1A0AB0EE490A01F052FB87
:104B5000B0EE409A44B1207830B901202070B0EE18
:104B6000490ABDEC048B10BD9FED120A38EE800A95
:104B7000C8EE800AF0EE609AB7EE001ADFED0C0A7C
:104B8000B0EE690A01F036FBF0EE409A79EE480A81
:104B9000B0EE480A00EEA90AB0EE408AB7EE001A5D
:104BA000DFED030AB0EE480A01F024FBD9E700006C
:104BB000000000009A99193F2DE9F0472DED088B70
:104BC00082B007460D4616469FED5C0AF0EE40AAFD
:104BD0009FED5A0AB0EE40BA9FED580AB0EE408AF7
:104BE0009FED560AB0EE409A4FF000094FF01E08B4
:104BF0009FED530AF0EE409A0FB105B12EB9002097
:104C000002B0BDEC088BBDE8F087002445E000EE63
:104C1000104AB8EE400A29EE800AF0EE408A01AB55
:104C200002220421B0EE680A384600F061FE00B9A5
:104C300031E0B9F1000F08D19DED010AF0EE40AA74
:104C4000B0EE68BA4FF0010925E0DDED010A70EE23
:104C5000EA0AB0EE600A01F0B5FBB0EE40AA38EE09
:104C6000CB0AF0EE40BAB0EECA0ADFED360AB4EE77
:104C7000E00AF1EE10FA07DB38EE0A0AB0EE408ADD
:104C800039EE2B0AB0EE409A9DED010AF0EE40AAF3
:104C9000B0EE68BA00BF601C84B24445B7DDB0EE28
:104CA000C80ADFED280AB4EEE00AF1EE10FA08D3E4
:104CB000B0EEC90ADFED240AB4EEE00AF1EE10FA14
:104CC00001D200209CE7B5EEC08AF1EE10FA01DBBC
:104CD000012001E04FF0FF30287089EE080AB0EEA5
:104CE000C00AF6EE000A30EE200ABDEEC00A10EE51
:104CF00010AA5046FEF750FB30709FED100A384660
:104D0000FFF7E8F8042000F0A6FD444611E000EEAD
:104D1000104AB8EE400A29EE800AF0EE408A01AB54
:104D200002220421B0EE680A384600F0E1FD601E60
:104D300084B2002CEBD1012062E7000000000000EB
:104D40004F77563EA69BC43ABD37863510B52DED3C
:104D5000088BB0EE408AF0EE608A9FED3E0AF4EEDA
:104D6000C08AF1EE10FA19DD9FED3B0AF4EEC08A1D
:104D7000F1EE10FA12D29FED370AB4EEC08AF1EECE
:104D800010FA0BDD9FED340AB4EEC08AF1EE10FA92
:104D900004D29FED320ABDEC088B10BDF5EEC08A3F
:104DA000F1EE10FA02DBB0EE680A01E0B1EE680A3B
:104DB000F0EE409AB5EEC08AF1EE10FA02DBB0EEEA
:104DC000480A01E0B1EE480AB0EE40AADFED24AA9D
:104DD000F4EECA9AF1EE10FA0EDB9FED1F0A39EEDF
:104DE000800ACAEE000AB0EE60BAB0EE4B0A00F0DC
:104DF000C9F8B0EE409A0DE09FED170A3AEE000AAE
:104E0000C9EE800AB0EE60BAB0EE4B0A00F0BAF814
:104E10003AEEC09AF5EEC08AF1EE10FA0ADBB5EE72
:104E2000C08AF1EE10FA02DBB0EE490AB3E7B1EE48
:104E3000490AB0E7B5EEC08AF1EE10FA04DB9FED47
:104E4000090A30EE490AA6E79FED060A39EE400A44
:104E5000A1E70000BD3786B5BD37863500000000EC
:104E6000DA0FC93FDA0F494010B52DED088BB0EECF
:104E7000408AF0EE608A9FED3E0AF4EEC08AF1EEC1
:104E800010FA19DD9FED3B0AF4EEC08AF1EE10FA3C
:104E900012D29FED370AB4EEC08AF1EE10FA0BDDA4
:104EA0009FED340AB4EEC08AF1EE10FA04D29FED01
:104EB000320ABDEC088B10BDF5EEC08AF1EE10FA97
:104EC00002DBB0EE680A01E0B1EE680AF0EE409A4B
:104ED000B5EEC08AF1EE10FA02DBB0EE480A01E04E
:104EE000B1EE480AB0EE40AADFED24AAF4EECA9A69
:104EF000F1EE10FA0EDB9FED1F0A39EE800ACAEEC2
:104F0000000AB0EE60BAB0EE4B0A00F065F8B0EE01
:104F1000409A0DE09FED170A3AEE000AC9EE800AAA
:104F2000B0EE60BAB0EE4B0A00F056F83AEEC09A16
:104F3000F5EEC08AF1EE10FA0ADBB5EEC08AF1EEAA
:104F400010FA02DBB0EE490AB3E7B1EE490AB0E766
:104F5000B5EEC08AF1EE10FA04DB9FED090A30EEDF
:104F6000490AA6E79FED060A39EE400AA1E70000CC
:104F7000BD3786B5BD37863500000000DA0FC93F62
:104F8000DA0F494010B52DED028BB0EE408ADFED0F
:104F90000F0AB6EE000A08EE200ABDEEC00A10EEB7
:104FA000104A4FF47A71204600F040F80446084851
:104FB00030F8140000EE100AB8EE400ADFED050AE2
:104FC00020EE200ABDEC028B10BD000000007A44E8
:104FD0003CDC00086F12833A10B52DED028BB0EE69
:104FE000408ADFED0F0AB6EE000A08EE200ABDEE99
:104FF000C00A10EE104A4FF47A71204600F021F8F2
:105000000446084830F8140000EE100AB8EE400AD2
:10501000DFED050A20EE200ABDEC028B10BD00007A
:1050200000007A4456F000086F12833A0246002AC4
:1050300001DA002070478A4201D90846FAE790B2A7
:10504000F8E70246002A01DA002070478A4201D9B7
:105050000846FAE790B2F8E730B5F0EE401A9FED57
:105060003D0AB0EE402AB0EE610A05E09FED3A3A03
:1050700030EE433AB0EE430A9FED373AB4EEC30A3E
:10508000F1EE10FAF2DA05E09FED333A30EE033A32
:10509000B0EE430AB5EEC00AF1EE10FAF4D3B0EE6A
:1050A000401A81EE020ABCEEC00A10EE101AC8B215
:1050B000032800D9032000EE100AB8EE400AF0EEF3
:1050C000412A40EE422A9FED253AB6EE000A02EE52
:1050D000830ABDEEC00A10EE101A40F223640029C4
:1050E00001DA002504E0A14201D9254600E08DB295
:1050F0002A4640F22361891A8BB238B9184931F82F
:10510000121000EE101AF8EE400A1EE0012807D136
:10511000134931F8131000EE101AF8EE400A14E0AB
:10512000022809D10E4931F8121000EE101AB8EE1B
:10513000400AF1EE400A08E0094931F8131000EE88
:10514000101AB8EE400AF1EE400A9FED063A80EEE2
:10515000830A30BDDA0FC93FDA0FC94000007A4434
:10516000DABB000800FEFF4670B52DED068BB0EEF1
:10517000409A9FED3B0AF0EE409AB0EE490A05E0F6
:10518000DFED380A70EE600AB0EE600ADFED350A36
:10519000B4EEE00AF1EE10FAF2DA05E0DFED310AE2
:1051A00070EE200AB0EE600AB5EEC00AF1EE10FA19
:1051B000F4D3F0EE408A88EEA90ABCEEC00A10EEE5
:1051C000100AC4B2032C00D9032400EE104AB8EE32
:1051D000400AB0EE68AA00EE69AADFED230AB6EE37
:1051E000000A0AEE200ABDEEC00A10EE100A40F2D4
:1051F0002361FFF71BFF054640F22360401B86B288
:105200003CB91A4830F8150000EE100AB8EE408A92
:105210001EE0012C07D1154830F8160000EE100AE8
:10522000B8EE408A14E0022C09D1104830F815007D
:1052300000EE100AB8EE400AB1EE408A08E00B48D2
:1052400030F8160000EE100AB8EE400AB1EE408ABF
:10525000DFED070A88EE200ABDEC068B70BD00006A
:10526000DA0FC93FDA0FC94000007A44F4CF0008D2
:1052700000FEFF4670B52DED068BB0EE409A9FED17
:105280003B0AF0EE409AB0EE490A05E0DFED380A3D
:1052900070EE600AB0EE600ADFED350AB4EEE00AA7
:1052A000F1EE10FAF2DA05E0DFED310A70EE200AD5
:1052B000B0EE600AB5EEC00AF1EE10FAF4D3F0EEEB
:1052C000408A88EEA90ABCEEC00A10EE100AC4B2E9
:1052D000032C00D9032400EE104AB8EE400AB0EEC9
:1052E00068AA00EE69AADFED230AB6EE000A0AEE0C
:1052F000200ABDEEC00A10EE100A40F22361FFF74B
:10530000A0FE054640F22360401B86B23CB91A4815
:1053100030F8150000EE100AB8EE408A1EE0012CAD
:1053200007D1154830F8160000EE100AB8EE408A92
:1053300014E0022C09D1104830F8150000EE100AD4
:10534000B8EE400AB1EE408A08E00B4830F816008B
:1053500000EE100AB8EE400AB1EE408ADFED070A0F
:1053600088EE200ABDEC068B70BD0000DA0FC93F45
:10537000DA0FC94000007A440EE4000800FEFF4640
:105380002DE9F0412DED048B0446B0EE408AB0EEDD
:10539000609AF0EE419A0E46F0EE618A17461CB90B
:1053A000BDEC048BBDE8F081B5EEC08AF1EE10FAD9
:1053B00003D29FED4C0AB0EE408AB0EE481ADFED02
:1053C000490AB0EE490A00F015FFB0EE409A9FED91
:1053D000450A84ED050A9FED430A84ED060A9FED18
:1053E000410A84ED070A84ED089A84ED048A9FED52
:1053F0003D0A84ED090A9FED3B0A84ED0A0A9FED00
:10540000390A84ED0B0A9FED370A84ED0C0A9FEDF3
:10541000350A84ED0D0A002084F83800C4ED009AA6
:105420002671C4ED028AC4ED0C8AC4ED0D8A0120F8
:1054300084F8380027739FED2B0A84ED100A9FED46
:10544000290A84ED110A9FED270A84ED120A9FEDC7
:10545000250A84ED130A9FED230A84ED140A9FEDBB
:10546000210A84ED150A9FED1F0A84ED160A9FEDAF
:105470001D0A84ED170A002084F860002046FEF71C
:105480000DFE2046FDF7C2FE00258D20055584F84F
:105490008C500DB1022100E001218E2001558021A8
:1054A000902001539FED100A84ED250AB1EE080A01
:1054B00084ED260AB6EE000A84ED270A0021A42016
:1054C0000155A5200155A6200153A82001551DB165
:1054D00006A000F0C6F902E0134800F0C2F900BFD0
:1054E0005EE70000000000000AD7A33B696E697404
:1054F0002E636F6767696E673A20737461746963BE
:10550000207461626C6520646566696E65642C2038
:10551000636F6D70656E736174696F6E2072656123
:1055200064790D0A0000000040F90008F0EE400A1E
:10553000F5EEC00AF1EE10FA02DDB0EE600A704737
:105540009FED010AFBE700006F12833AF0EE400A7C
:10555000F5EEC00AF1EE10FA02DDB0EE600A704717
:105560009FED010AFBE700006F12833A00B9704714
:1055700080ED000AC0ED010A80ED021ADFED062A77
:10558000C0ED032ADFED042AC0ED042AC0ED051AA0
:1055900080ED062A00BFEAE70000000010B52DEDFF
:1055A000088B0446F0EE409AB0EE60AAF0EE418A15
:1055B00024B99FED390ABDEC088B10BDB0EE680A26
:1055C000FFF7B4FFF0EE408A39EECA8A94ED030A81
:1055D00008EE280A84ED030A94ED040A38EE400A26
:1055E00080EE289A94ED010AD4ED030A20EE200AF9
:1055F000D4ED000A00EE880AD4ED020A00EE890A12
:10560000F0EE40AA94ED060AB0EE401A94ED050AB9
:10561000F0EE400AB0EE6A0A00F0ECFDF0EE40AAAF
:1056200094ED010ADFED1D0AB4EEE00AF1EE10FA86
:105630002CDD94ED050AD4ED000A00EEC80AD4ED85
:10564000020A00EEC90AD4ED010A80EE201AB0EE7B
:1056500041BA94ED060AD4ED000A00EEC80AD4ED72
:10566000020A00EEC90AD4ED010A80EE201AF0EE1B
:1056700041BAD4ED030AB0EE600AB0EE6B1AF0EE58
:105680004B0A00F0B7FD84ED030A00BF84ED048AE5
:10569000B0EE6A0A8FE7000000000000BD378635D3
:1056A00010B504F033F904F00DFB10BD10B504F093
:1056B00083F910BD70B504460D462946204604F016
:1056C00081F970BD10B504F055FB10BD70B50446EE
:1056D0000D462946204604F053FB70BD002070475C
:1056E00002460020704700207047024600207047A5
:1056F00010B542F6DF61092003F02AFE10BD00005C
:105700000748006840F0807005490860002005499E
:1057100048600846006840F00100086070470000DB
:10572000FCED00E0001000E010B500F035FD10BD0C
:1057300070B504460D462946204601F01DF970BD9E
:1057400010B52DED048BB0EE408AF0EE608AB0EE1D
:10575000419AB0EE491AF0EE680AB0EE480A01F03C
:1057600089F9BDEC048B10BD10B501F0D5F910BD61
:105770000148406870470000001000E010B5044682
:105780002046FCF71EFB10BD70B504460D461822DE
:1057900029462046FCF782FA70BD70B504460D46D6
:1057A0000C2229462046FCF779FA70BD10B5044654
:1057B0002046FBF7FDFF10BD10B505F0C1FB10BD85
:1057C00070B5044604EB840040000B49B1FBF0F0D7
:1057D000451EFCF7D5FA2946092003F03DFE03F0EB
:1057E0006FFE2946092003F077FE03F01FFFFCF748
:1057F000DBF9FCF761FA70BDC0D4010010B50446B6
:10580000204603F0EFFD204601F06EF910BD10B503
:105810000446204603F0E0FD10BD70B504460D4679
:105820002946204600F0DAFC70BD10B5044620463B
:1058300001F054F910BD10B52DED028BB0EE408A89
:10584000B0EE480A03F0C4FEBDEC028B10BD10B5EB
:1058500003F0DEFD10BD10B50446204604F052FDF5
:1058600010BD10B50446204604F0FEF810BD10B57A
:105870000446204604F0CEF810BD000000B9704781
:105880009FED040A80ED030A9FED020A80ED040AF1
:1058900000BFF4E70000000000B970479FED040A64
:1058A00080ED030A9FED020A80ED040A00BFF4E7D1
:1058B0000000000000B97047002180F8881000BF88
:1058C000F9E700009FED060A064880ED000A9FED0B
:1058D000040A054880ED000A00200449087070475A
:1058E00000000000580000205C0000206000002044
:1058F0002DE9F0412DED048B82B00746B0EE409AC1
:10590000884614461D469FED300AB0EE408A9FED52
:105910002E0AF0EE408A0FB105B12CB9002002B07A
:10592000BDEC048BBDE8F081B0EE490A3846FEF7C5
:10593000D1FA4046FFF78FFF002620E001A8FFF7CD
:105940001DFF00B919E09DED010AFFF70DFC30EED7
:10595000080AB0EE408ADDED010A9FED1C1A70EED8
:10596000810AB0EE600AFFF7FFFB30EE280AF0EE86
:10597000408A0420FFF76FFF00BF701C86B2A6426A
:10598000DCDBB0EEC80ADFED120AB4EEE00AF1EE9D
:1059900010FA0AD2B0EEE80ADFED0D0AB4EEE00A22
:1059A000F1EE10FA01D20020B9E7F0EE680AB0EE8D
:1059B000480AFFF7CBF9F0EE409A00F0E5FC85EDE0
:1059C000000A0120ABE7000000000000DA0FC93F29
:1059D000BD3786352DE9F0412DED0C8B04460F4681
:1059E0009046F0EE409AB0EE60AA1E46F0EE41CA34
:1059F00024B11FB1B8F1000F00D01EB9BDEC0C8B63
:105A0000BDE8F08104F16405B0EE6C0AFFF78EFD8D
:105A1000F0EE40CA94F90C0000EE100AB8EEC00A8D
:105A200020EE290AF0EE409AD6ED1F0AB0EE600A89
:105A3000204600F0D5F894F90C0000EE100AB8EEFC
:105A4000C00AD4ED0C0A60EE20AA39EEEABAB0EE34
:105A5000CB9A95ED040AD5ED030A70EE60BA9FED7E
:105A60003E0AF4EEC0BAF1EE10FA03D29FED3A0A04
:105A7000F0EE40BA95ED030AB4EEC90AF1EE10FA61
:105A800002DB9FED368A0FE095ED040AB4EEC90AF9
:105A9000F1EE10FA02D8B7EE008A05E095ED030AA0
:105AA00039EE400A80EE2B8AB5EEC0BAF1EE10FA5C
:105AB00002DBB0EECA0A03E0B0EECA0AB1EE400A59
:105AC00020EE08CA9FED260AB4EEC08AF1EE10FA65
:105AD00007D23846FFF7E0FEFFF7F4FEDFED1F8A3E
